:020000040000FA
:100000004022012049590000853301003559000084
:1000100035590000355900003559000035590000A8
:10002000000000000000000000000000255A000051
:100030003559000000000000CD5B0000355900007C
:10004000515C0000515C0000515C0000515C0000FC
:10005000515C0000515C0000515C0000515C0000EC
:10006000515C0000515C0000515C0000515C0000DC
:10007000515C0000515C0000515C0000515C0000CC
:100500007BB972B90029BEBF00204FF0004106E060
:1005100008BF00281CBF6FF000414FF0FF3000F013
:1005200057B8ADF1080C6DE904CE002909DB002BAA
:100530001ADB00F069F8DDF804E0DDE9022304B01D
:100540007047404261EB4101002B1BDB00F05CF87F
:10055000DDF804E0DDE9022304B0404261EB410133
:10056000524263EB43037047524263EB430300F094
:100570004BF8DDF804E0DDE9022304B0404261EB12
:1005800041017047524263EB430300F03DF8DDF850
:1005900004E0DDE9022304B0524263EB43037047F9
:1005A00053B94AB9002908BF00281CBF4FF0FF31DA
:1005B0004FF0FF3000F00CB8ADF1080C6DE904CE3F
:1005C00000F022F8DDF804E0DDE9022304B0704712
:1005D000704700BF10F8012B11F8013B012A28BF1A
:1005E0009A42F7D0D01A7047034611F8012B03F84E
:1005F000012B002AF9D17047034613F8012B002A7A
:10060000FBD1181A013870472DE9F0478C468E4609
:10061000089E154604461946002B40F0D0807245CE
:1006200047D9B2FA82F74FB1C7F120030EFA07FC9F
:10063000BD40BC4020FA03F343EA0C0C4FEA154ED0
:10064000A8B2230CBCFBFEF80EFB18CC08FB00F98B
:1006500043EA0C43994528D9EB1808F1FF3204D23C
:10066000994502D9A8F102022B44A3EB0903A4B2D5
:10067000B3FBFEFC0EFB1C330CFB00F044EA03440E
:10068000A04214D92C190CF1FF3304D2A04202D994
:10069000ACF102032C44241A43EA02401EB1FC4090
:1006A000002334607360BDE8F0874246DDE76346AF
:1006B000F1E7002A79D0B2FA82F3002B3FD0194635
:1006C000C1F1200302FA01F500FA01F42EFA03F257
:1006D0000EFA01FE20FA03F3AFB243EA0E034FEA2B
:1006E000154EB2FBFEFC0EFB1C201A0C0CFB07F88F
:1006F00042EA004290455AD9AA180CF1FF3004D2C0
:10070000904502D9ACF102002A44A2EB08029BB248
:10071000B2FBFEFC0EFB1C220CFB07F743EA024374
:100720009F4246D9EB180CF1FF3204D29F4202D906
:10073000ACF102022B44DB1B42EA004202E0AEEBCA
:10074000020301224FEA154EAFB2200CB3FBFEFCB0
:100750000EFB1C330CFB07F840EA034398452AD9EB
:10076000EB180CF1FF3004D2984502D9ACF102002D
:100770002B44A3EB0803A4B2B3FBFEFC0EFB1C331B
:100780000CFB07F744EA0344A74216D92C190CF1D5
:10079000FF3304D2A74202D9ACF102032C44E41B7C
:1007A00043EA00400F46114678E71F2188E760467C
:1007B000ABE76246BFE76046DBE76346EFE77345BA
:1007C00006D916B9002108466DE7C6E9000EF9E71B
:1007D000B3FA83F787B9734501D3824207D8841AE5
:1007E0006EEB030301209C461EB900215BE73846EF
:1007F000FAE7C6E9004CF8E7C7F1200CBB4000FA65
:1008000007F422FA0CF520FA0CF1BA401D432EFA37
:100810000CF30EFA07FE4FEA154941EA0E011FFAE2
:1008200085FEB3FBF9F809FB18300B0C08FB0EFA38
:1008300043EA00439A4540D9EB1808F1FF3004D24F
:100840009A4502D9A8F102002B44A3EB0A0389B20E
:10085000B3FBF9F809FB183308FB0EFE41EA03412C
:100860008E452CD9691808F1FF3304D28E4502D980
:10087000A8F10203294443EA0040A1EB0E01A0FBCA
:1008800002984145CE46434602D306D14C4504D298
:100890000138B9EB020E68EB0503002EA5D0B4EBCE
:1008A0000E0261EB030101FA0CFC22FA07F3F94096
:1008B0004CEA0303C6E9003197E74046C5E74346E3
:1008C000D9E70000000000002DE9F04704460F467C
:1008D00016468AB013F08EFF4FF47A75A0FB050C14
:1008E00047F6122205FB01C10023FFF759FE012F35
:1008F00080460D4608D1CDE90001294A082120464D
:1009000011F052FD002012E0766826483146FFF7CC
:1009100061FE78B131462448FFF75CFE50B12046B5
:1009200033460121214A11F03FFD6FF004000AB067
:10093000BDE8F087404618A3D3E900232946FFF716
:10094000DFFD06460D4610461946194A0023FFF7FB
:10095000D7FD80460F46104619464EF6602200230A
:10096000FFF7CEFD82468946104619464FF47A724B
:100970000023FFF7C5FDCDE904A9CDE90601CDE9C6
:10098000082308212046CDE90287CDE90065094A00
:1009900011F00AFDB6E700BF005C2605000000006C
:1009A000D2780100E3780100E6780100EF780100D9
:1009B00080EE36000779010008B5064B0649D3F8EA
:1009C000CC23064810F00EFB054810F00BFB00206E
:1009D00008BD00BF00C0FF00CCC3FF00A06B01003A
:1009E000D06B010038B54FF0010C03460B4AD2E83A
:1009F000EF4FC2E8E5CF002DF9D134B16146084A86
:100A000011F0D2FC6FF00F0038BD064A1160064AA3
:100A1000136006480CF078F92046F5E7602F0020B7
:100A20003B6E0100682F0020642F0020141100206D
:100A30000149FFF7D7BF00BFFC5C01000149FFF788
:100A4000D1BF00BFF05C01002DE9F341204FDFF87A
:100A500084804FF0FF324FF0FF331F480CF08AF9CB
:100A60003C68D8F8006040F27120002113F038FE95
:100A70000025A368AB4206D8082130462368174AF0
:100A800011F092FC19E063680821304653F82530D4
:100A9000134A11F089FC6368304653F8251011F0B1
:100AA000CBFC98B101906368012153F825303046A2
:100AB000009323680B4A11F077FC00220A4BD3E81D
:100AC000EF1FC3E8E02F0028C3D0F8E70135D0E7D7
:100AD000682F0020642F002014110020986E010060
:100AE0006F6E0100756E0100602F002038B5134C49
:100AF0000546A06808B394F8393063B1002304F1C7
:100B00000C0184F8393008F0C7F920B103212846D8
:100B10000B4A11F049FC94F83A3073B100230949AB
:100B2000A06884F83A3008F00FFA30B12846BDE8E2
:100B300038400321044A11F037BC38BDCC360020C0
:100B400098700100D8360020C1700100012970B5ED
:100B5000044656D9566834493046FFF73BFD20B16C
:100B600030463249FFF736FD20B9204611F052FCDD
:100B7000012070BD30462E49FFF72CFD054658B1C7
:100B80003346012120462B4A11F00EFC204611F07D
:100B900041FC6FF01500ECE72046FFF7A7FF0821A6
:100BA0002046254A11F000FC002140F6354013F0A4
:100BB00097FD204611F0E9FB01F0B6FA1F4E204CDC
:100BC000A41B2409A54213DB1E4813F012FB18B125
:100BD00000211C4801F0ECFE06F0E8FB06F0A4FE44
:100BE0000722194BC3F84824BFF34F8F10F073FC52
:100BF00073685B7913B1304611F05CF8013510363B
:100C0000E0E7FFF773FF08212046104A11F0CCFB04
:100C100040F63540002113F063FD0D4B0D4A0120D5
:100C20001A6000F0CDFB00BFE7700100EA70010020
:100C3000F1700100F57001000C710100D85701003E
:100C4000E85701000855010000601250477101008B
:100C5000982602205AFFF05F002008B5084B094A89
:100C600019681860914209D106F0A0FB0722064BD3
:100C7000C3F84824BFF34F8F10F02DFC08BD00BF10
:100C8000982602205AFFF05F006012502DE9F743CA
:100C9000474E032534460127206813F0AAFA00289E
:100CA00054D1E168434810F09DF9013D04F114046A
:100CB000F2D135460027286813F09BFA00283AD075
:100CC000286895F80480836801A95B68D0F81090C3
:100CD0009847041E59D02EDB2B69A3422AD0B3F1CA
:100CE000004F27D0621E6B7A514251411A1E18BF25
:100CF000012291421ED03049304A3148012B18BFA1
:100D00000A46E96810F06EF995F8088002F0C8FD0F
:100D1000B8F1010F45D0B8F1020F44D0B8F1000F7F
:100D200043D1284911F088FB20B10246E9682648E2
:100D300010F058F92C610137032F05F11405BAD1D1
:100D4000002140F2712013F0CBFCB2E7B4F806802A
:100D50002068217948F48032D0F810C018F0010FD3
:100D6000DCF8003007FA01FE14BF4EEA030323EA61
:100D70000E03D0F80890CCF80030D9F8003098472E
:100D8000002892D0E16811488DE7D9F80030019C25
:100D90005C40012303FA08F31C40003C18BF012407
:100DA0009AE70B49BEE70B49BCE76FF01500BCE7BB
:100DB00050010020637401005B7401005274010053
:100DC0009274010085710100997401007974010029
:100DD000A06F0100979B010008B5074810F002F9C9
:100DE00002F05EFD054911F027FB014610B10448F1
:100DF00010F0F8F8002008BDB27401008571010000
:100E0000D17401002DE9F041884600AF002900F0BF
:100E100084800568012228460FF090FC01460446B4
:100E200028460FF045FC10EA020319D13C4802683D
:100E300056070DD06E4688B06A463A49CDE9051886
:100E4000032142F8101F4FF4C25101F00BFBB546CD
:100E5000002383F31188BFF36F8F0423184602DF4A
:100E6000214628460FF03AFC261831460022284633
:100E70000FF01EFC361AB4421BD0294803685907EC
:100E80000FD06E4688B06946274BCDE9053803235D
:100E900041F8103F13460A464FF4C25101F0E2FAFE
:100EA000B546002383F31188BFF36F8F04231846E0
:100EB00002DF0022214628460FF016FC21460FF0E3
:100EC0000DFC26180122314628460FF0F1FBC2071F
:100ED00008D4314628460FF073FC32462146284696
:100EE0000FF0E5FC0022214628460FF0E1FB261A10
:100EF0000122314628460FF0DBFBC30709D43146F7
:100F000028460FF05DFC2246314628460FF0CFFC04
:100F10003446214628460FF0E8FCBD46BDE8F08186
:100F20002810002081750100587501000E4A034603
:100F3000904202D30D4A904211D30D4A22B19342FE
:100F400002D30C4A93420AD30B4A52B10B48834254
:100F500034BF01200020934238BF00207047012099
:100F600070471046704700BF9852010008C2010048
:100F70000000000000000000000000000000000071
:100F80002DE9F04F91B000AF164605468B46BA6E7C
:100F90007B6351B9037890F80180807800EB83007F
:100FA0002844D84520D8A0EB050B02F0010395F8A2
:100FB0000280FB60EB78B8F1000F0CBF002402F058
:100FC0000104BB620BB1930719D4C4B93EB15946B1
:100FD0007A6B2846B047214620467A6BB047584680
:100FE0004437BD46BDE8F08F441C2046BA66FFF783
:100FF00003FB0130BA6E20440BF1010BD1E72B78D3
:10100000990008EB8303BB61EB18FB62BB6A796153
:101010005B00BB60BB6A696808EB4303202B396146
:1010200000F2368112F004037B6211D04FF0000A07
:101030000124D14604FA08F4013CC7F830800023AB
:10104000C7E9073302F0020308F101083B603DE005
:1010500002F00103002B00F099804FF001097B6A38
:1010600009FA08F9C2461C4609F1FF393B63E6E775
:10107000FB6A0233FB62002E5ED013F8021C386953
:101080000FF061FF002857D0834B1B6813F0060F49
:1010900017D0C7F804D08AB06A46804B05933B69E5
:1010A000CDE906314FF40073ADF820307C4B42F8A7
:1010B000103F00234FF41251774801F0D3F9D7F8CD
:1010C00004D0FB6908F102080133FB61FB69BA6ACD
:1010D0009342CDD32B7887F83C306B78534487F814
:1010E0003D303B6A87F83F303B6B87F83E30002E3F
:1010F00053D14FF0010AD7F8148005EB08033B6386
:10110000002C5AD1B9F1000F6FD1B869BB681844EF
:10111000BBEB000400F0B780002E00F0B180214648
:101120007A6B2844B0470028FFF65AAFA04400214C
:101130007A6B0846B047A9E0FB6A13F8013C55F802
:101140002300FFF7F3FEA0B1FB683BB1012303FAD4
:1011500008F349EA03090AF1010AB2E77B6A002BA6
:10116000AFD0012303FA08F31C433B6B01333B630D
:10117000A7E73B68002BE9D1032208F1FF3302FA0D
:1011800003F31C433B6A01333B629AE702F0010A16
:10119000D1465446C7F830A051E704217A6B07F1D5
:1011A0003C00B0470028FFF61BAF7B697A6B191F24
:1011B000281DB04700289CDA12E794FAA4F3B3FA8A
:1011C00083F33A6BD25C0AFA03F387F83B2024EAF4
:1011D00003043EB101217A6B07F13B00B0470028C0
:1011E000FFF6FEAE08F101088AE799FAA9F3B3FA0F
:1011F00083F33A6BD25C55F822A087F83B2001229A
:1012000002FA03F329EA03094EB101217A6B07F1CF
:101210003B00B0470028FFF6E3AEFB6ECBB90021E0
:10122000204B08F10108BAF1000F08BF9A46C6B971
:101230005046FFF7E1F9FB6E01308044002B3FF48C
:1012400061AF3B6F9C423EBFFB6E23F8140001343C
:1012500058E73B6F9C42E2D2FB6E33F81410013426
:10126000DEE741B150467A6B89B2B0470028FFF6FD
:10127000B7AE804446E75046FFF7BEF9411CF1E7A0
:1012800008EB0400ACE6002E7FF451AF4046A7E621
:101290006FF01B00A4E600BFF80F0020B575010039
:1012A00004000001AE75010030B50446EFF311856E
:1012B000202383F31288BFF36F8F044B0FCB84E896
:1012C0000F0085F31188BFF36F8F30BDC01200206F
:1012D00001281FB50C4605D004281ED06FF015005C
:1012E00004B010BD13F086FA47F612220023FFF770
:1012F00057F94FF4FA435A43C4E90001A260684623
:10130000FFF7D2FF694620460FF03AFE18B90A4BA4
:101310000FCB84E80F000020E2E713F06BFA47F6EA
:1013200012220023FFF73CF94FF4FA435A43C4E971
:101330000001A260EFE700BF9059010001287FB5CE
:101340000D462DD18A68184B9A4229D813F052FACB
:1013500047F612220023FFF723F9144B404202FB09
:1013600003F361EB4101CDE900016846029300F00F
:10137000C1F8294668460FF003FEEFF311862023DB
:1013800083F31288BFF36F8F9DE80F00084D85E847
:101390000F0086F31188BFF36F8F002004B070BD7B
:1013A0006FF01500FAE700BFFFC99A3B0083FFFF0B
:1013B000C0120020014B1860704700BF8C01002054
:1013C000044608B5EFF31183202383F31288BFF39B
:1013D0006F8F06F0A9FA204605F036F802480FF0A4
:1013E00001FE11F0F1FFFCE7697601002DE9F843F9
:1013F00040F26C7344690569E1170135E41841F165
:101400000001022D8CBF00230123E41AC76861F19B
:1014100000010029064607F1FF374EDA6FF4C77066
:101420004FF4C8720023201861F10001FFF768F83B
:10143000244B4FF03C0E03FB0044D6E900834FEAF7
:10144000E37C99466346032D024634BF09206FF0C2
:101450000200B6680544C6FB0E93A9FB0EC60EFB40
:10146000036640F26D1E9920A3080EFB04333B4433
:10147000642745430520B4FBF7F40235B5FBF0F5CE
:101480001B1B114C1CEB080CA2FB042004FB0101EC
:101490002B4446EBE87698180C4A41F1000380187B
:1014A0000B4A63F10003A0FB020102FB031110EBE6
:1014B0000C0041EB0601BDE8F8834FF4C87200232D
:1014C0002046B3E770FEFFFFB13A02009405F5FF36
:1014D0008051010010B5FFF789FF0024024604F097
:1014E00007FC0B46024944501046194610BD00BF88
:1014F0000C00000070B51F4B82689A4215DDD0E9E0
:101500000016013392FBF3F3012976F100054FEA4F
:10151000E3741CDAC91844EB0604C0E90014164948
:1015200001FB03238360012070BD002AFBDAD0E9B0
:101530000041124E9B1A0029B3FBF6F310DA01F1B9
:1015400000459C4275F100050ADA0020ECE7CD4326
:101550009D426FF00045A5EB0605A541DADAF4E7F8
:1015600006FB0322E41A61F10001C0E90041826038
:10157000D9E700BFFFC99A3B003665C400CA9A3B51
:1015800008B500F0B7F8012200230949C0E900229C
:1015900041610849C0E902330A60074903610A60F2
:1015A000064A1360064A1360064A136008BD00BF6E
:1015B00066B90100AC010020A8010020742F0020B2
:1015C000702F00206C2F00202DE9F04781468846BF
:1015D000174600F08FF8C36804461BB943691A78B0
:1015E000002A3ED10023E36063684B4558F823206E
:1015F00008DB314B6361204600F060F84FF0FF30AC
:10160000BDE8F087511C616192F800A0BAF12D0F7E
:10161000EFD1951C656156782D2EA66004D1927885
:1016200072B901336360E4E756B9234D5146384639
:10163000656113F036FC0028DDD05646C4F808A0DA
:101640003146384613F02DFC3A2E00D070B92B7875
:1016500013B9636801336360204600F02FF83F2020
:10166000CEE75D1C45611E788660E9E743783A2B3A
:101670000BD0002323612B7813B9636801336360B7
:10168000204600F01BF8A068BAE72B780A4A33B965
:10169000636801339945636004DD58F82350C4E959
:1016A0000452EAE762613D7820463A2DD5D100F038
:1016B00005F82846A4E700BF66B901000168084A9A
:1016C000084B11604168084A11608168074A11603F
:1016D000074AC168116002691A6005F0B3BA00BF19
:1016E000AC0100206C2F0020A8010020742F0020E6
:1016F000702F002010B504F0FBFA084B084A195867
:10170000084B934201D3084805E09868D0F8BC42E2
:101710008C4201D1583010BD3033F2E70800000090
:1017200018580100E8570100900100202DE9F0470A
:10173000058B0446280717460CD501290CBF45F038
:10174000100545F02005258387F31188BFF36F8FBF
:10175000BDE8F087022905F0070540F09480204697
:101760000FF0EBFE052864D801A353F820F000BF6A
:10177000491700008718000033180000F517000013
:101780000F1800002118000001F007035A1F012A5A
:101790001FD8002221F00701062BD4F8008089B25F
:1017A000C4E9002209D1434603E0628B013262831F
:1017B0001B68002BF9D141F00201204621830FF074
:1017C000BCFE4FF0000900286DD041F020012183BC
:1017D00069E0042B0AD121F0070189B22046218358
:1017E0000FF0ABFE10B141F0200121834FF0000853
:1017F000C14658E02369D3F80090238B23F00703F8
:1018000043F006034FF00008238346464BE023696C
:10181000D3F80490238B23F0070343F00403F1E78C
:101820002369D3F80890238B23F0070343F00503C3
:10183000E8E74FF00008C146E7E7012243F008035C
:10184000238387F31188BFF36F8F002A3BD1B8F150
:10185000000F4AD1B9F1000F02D020462C49C847E9
:10186000EFF31187202383F31288BFF36F8F238B4D
:1018700023F008039BB22383D9063FD523F010023F
:10188000228303F007056669218B002EBFF67CAF2B
:1018900000239946D4F8008021F00701C4E9003301
:1018A00041F001012183238B03F0070AAA4502D0EE
:1018B000A268002AC1D1B8F1000F02D1B9F1000F1E
:1018C000DAD00022BAE7A1680029C0D00D6800294B
:1018D000BDD03346524620464F68B8471DB12B68ED
:1018E00029461D46F3E72B46FAE741463346524662
:1018F0002046D8F800800FF04CFEA8E79A067FF546
:1019000023AF23F02002228303F0070527E700BF5F
:10191000BF15010010B548B90E4803685A0702D038
:101920000D490FF0A6FF6FF0150010BD83684BB98D
:10193000084803685B0702D008490FF09AFF6FF070
:101940000400F2E71B6813B1BDE8104018471846C1
:10195000EBE700BF141000209D760100AE76010079
:1019600070B508B101B14AB90E4803685A0702D0F0
:101970000D490FF07EFF6FF0150070BD84680CB14B
:1019800025694DB9074803685B0702D007490FF086
:1019900070FF6FF00400F0E741F8040B2369BDE825
:1019A0007040184714100020CC760100AE7601007C
:1019B00070B51346044648B914480368590702D065
:1019C00013490FF056FF6FF0150070BD006848B95D
:1019D0000E4803685A0702D00E490FF04AFF6FF015
:1019E0000100F2E782680AB195684DB907480368BB
:1019F0005B0702D008490FF03CFF6FF00400E4E7FA
:101A00000A46AC466168BDE870406047141000208B
:101A1000F876010009770100AE76010010B50024C8
:101A2000084B86B0039303AB00934FF4AF524FF0D3
:101A3000FF3305490548CDE904440BF021FB20465E
:101A400006B010BD3277010050550020D0120020A2
:101A500010B5044600680FF0D9FF00280BDB0D22FB
:101A6000054920680FF0F4FF002804DB0D28B4BFFF
:101A70006FF01500002010BDE9BD0100024802F121
:101A8000280112F00FBD00BFD01200202DE9F04157
:101A90000446A2B000F11405D5E8AF6F731E052B04
:101AA00026D8DFE803F071320325717150F8240C59
:101AB0000DF1060202A910F028F830BBBDF806208F
:101AC0000D2A22D16749029813F0DBF9E8B9A4F195
:101AD0002800FFF7BDFF70B154F80C3CDB681BB168
:101AE00054F8081C60489847002128460FF0DBFE98
:101AF00022B0BDE8F081012128460FF0D4FE012577
:101B000054F8040C0FF0D7FE82E054F8280C10F0C3
:101B10007CF8228A83B2934206464FEA104731D0BE
:101B2000EBB154F8280C0FF071FF00280EDA54F8CE
:101B30000C3CDB681BB154F8081C4B489847042147
:101B4000284622B0BDE8F0410FF0ADBE618A54F8DE
:101B5000240C268241EA064110F05DF80123628AD6
:101B6000974279D1228A002A76D0062128460FF0A2
:101B70009AFE54F80C3C1B68002BC0D054F8080C9B
:101B80009847BCE70023EAE7002250F8240C1146EE
:101B90000FF0E1FF471E7F2F1DD8802254F8240C40
:101BA00002A90FF0D8FF062E80463BD154F8280C2E
:101BB00010F02BF8238A80B2984211D004212846D5
:101BC0000FF071FE54F80C3C5B68002B90D054F879
:101BD000080C98478CE7062E8AD14FF00008E5E7FD
:101BE0007F2F85D854F80C3C9B6823B1414654F8AC
:101BF000082C02A898470026002254F8240C11460D
:101C00000FF0A9FF051E18BF0125002E7FF478AF45
:101C1000002D3FF46DAF2146144822B0BDE8F041DD
:101C200012F040BC012EDDD10C287FF661AF0D22F1
:101C30000C4802A913F025F900287FF459AF0521BB
:101C400028460FF030FE54F80C3C1B6813B154F8D2
:101C5000080C98470126CFE7002B3FF449AF002539
:101C60004EE700BFE9BD01003E770100D012002021
:101C70002DE9F8430D46017C0746012991461C4693
:101C800005F13C060DD1D6E8EF3F002B03D1C6E8A5
:101C9000E21F002AF7D135D06FF077042046BDE867
:101CA000F88330460FF0FFFD5FFA80F8C5E907942E
:101CB0006F6205F1080012F04AFB68680FF0BCFE85
:101CC000041E28DB3B7C012B1FD028680FF09DFFF2
:101CD000040C28680FF099FF002381B22B87013193
:101CE00089B2A142FBD00029F9D0686869870FF05A
:101CF00092FFB8F1000F13D038460FF0DCFD041E40
:101D0000CCDA08E04FF00008D0E72846FFF7A0FE45
:101D100004460028EDD0002130460FF0C4FDBDE799
:101D20000F4905F1280012F0A1FBD7E902018368F1
:101D30005C6814B96FF05704EDE72B46094AA047D9
:101D400004460028E7D1D7E9020183681B69002B0C
:101D5000F0D00122984704460028CDD0DBE700BF31
:101D60008D1A00007D1A00002DE9F0470446074651
:101D70004FF00109DFF84C8094FAA4F5B5FA85F527
:101D800009FA05F32E0108EB05156FEA030A24EAA8
:101D900003042B7B63B158F806301B696BB94644CA
:101DA000736803222846196807EA0A070FF071FFD3
:101DB000002CE1D13846BDE8F08728469847002836
:101DC000F6D1ECE7D857010010B5002288B00E49D3
:101DD0000E4812F057FD002200230024CDE906230F
:101DE0000E234FF44072CDE90334CDE90144084B92
:101DF0000849009408480BF005FB084906480BF019
:101E0000AFF9204608B010BD211E00006824002054
:101E10006D210000306B0020A813002059770100CD
:101E200001480AF071BF00BF041100202DE9F047FE
:101E3000804621480F460FF008FF0646002833D0A1
:101E400000252846BDE8F087237B83B12368DB6843
:101E50000BB120469847636883F8069023681B6996
:101E6000D3B963680322204619680FF012FF0136C8
:101E700010345445E8D3B8F1000FE2D0002DDFD084
:101E80002846FFF771FF0546002FF7D0002140F2EA
:101E9000391012F025FCF1E7204698470028E0D0E1
:101EA00009FA06F31D43E2E705464FF00109034C2A
:101EB000DFF80CA0DDE700BF882F0020D857010015
:101EC000E857010008B5034608462BB1044A1360E1
:101ED00000F046FD002008BD6FF01500FBE700BFD5
:101EE0000802002010B5044C237813B903480AF007
:101EF0000BFF0123237010BD1C3C002004110020A7
:101F000010B5044609480FF0A0FE3CB1084BD3E8D9
:101F1000EF1F0139C3E8E21F002AF8D105480CF091
:101F2000EBF8BDE8104004480AF0EEBE802F002018
:101F3000842F002068240020041100200022044B7C
:101F4000D3E8EF0FC3E8E12F0029F9D1704700BFB4
:101F5000802F002070B5FFF7F1FF0546074C084EB3
:101F6000B44200D370BD63685B792BB123685B68B2
:101F700013B12946204698471034F1E7D85701009D
:101F8000E857010010B5044C044920460FF038F919
:101F9000034B1C6010BD00BFB80F0020C45D0100E2
:101FA000782F002000230E4A10B513700D4A0E49F9
:101FB00013600E4A0E481360FFF784FFFFF7E2FF3D
:101FC00000F080F90B4B0C4918468B4200D310BD32
:101FD0001A1A5C681211013222711033F5E700BF42
:101FE0001D3C0020802F002040420F00842F002045
:101FF000471C0100D8570100E857010001460022A4
:10200000002301480FF01DB9B80F002001480FF060
:10201000B4B900BFB80F0020024B014618680FF09A
:1020200007BA00BF782F002001480FF03CBA00BF6C
:10203000B80F00202DE9F041354B1B78002B64D000
:10204000FFF7E4FF044600285BD1324B324D1B689A
:10205000002B19DD12F0CEFB4FF47A76A0FB0607B9
:1020600047F61222002306FB0171FEF799FAD5E923
:102070000032C01A40F2E93361EB0201984271F17B
:10208000000101D3FFF766FFD5E9003213F57A733B
:1020900042F10002C5E90032002C36D0BDE8F04123
:1020A000FFF7C2BF6B685B793BB121784B0713D553
:1020B0002B68214628461B68984710354545F1D3C3
:1020C0002046FFF7A9FF154BD3E8EF1F0139C3E8FE
:1020D000E21F002AB9D0F7E720462688C1F3C207DD
:1020E00000F09EFAC6F382160246002EE0D00028C9
:1020F000DEDB01233946284600F08EF9B042DCD3FE
:10210000D6E7074DDFF81C80D8E70020BDE8F08156
:102110001C3C0020802F002060240020842F002001
:10212000D8570100E857010070B50D4D297861B905
:102130000120FFF77BFE0B4C0B4EB44206D3FFF79A
:1021400079FF0028FBD101232B7070BD63685B7998
:102150001BB1236820469B6898471034EDE700BF09
:102160001D3C0020D8570100E857010000212DE94F
:10217000F8430846FFF75AFE044648B340F21B688E
:102180004FF0000903F0B4FD1A4B1B4A1B581360B3
:1021900033B11A4B1B68092B02DD19480AF0B4FD54
:1021A0000025184F44B12046FFF7DEFD044618B95C
:1021B0004FF0FF384FF0FF39FFF73CFF064628B9D4
:1021C000B5B90F4842464B460AF0D4FD3546E9E71B
:1021D0004FF0FF384FF0FF39D4E72B689B691BB1F4
:1021E00000222846114698471035BD42F5D3E8E74E
:1021F000054DFAE7080000007C2F0020842F002006
:1022000004110020E8570100D857010013B5184801
:102210000FF01BFD174B1B7873B1EFF311842023D4
:1022200083F31288BFF36F8FFFF704FF84F31188E5
:10223000BFF36F8F02B010BD0F4B1B68002BF9D09E
:1022400050B9002200230D48CDE9002347F61222A1
:1022500000230BF02BFFEDE70928EBD107480BF02B
:102260004BFF074802B0BDE810400AF04DBD00BF6B
:10227000842F00201D3C00207C2F0020682400209B
:102280000411002010B5064B04461B6898472146F0
:10229000A06004480FF052F8BDE81040FFF7B6BF49
:1022A00008020020B80F0020044A054B9B1AB1EB2E
:1022B000D30F34BF52F8310000207047205701007F
:1022C000D85701000021084B084A09489B1ADB082F
:1022D000994200D170470268013122F0070242F0B2
:1022E000030240F8042BF3E7D85701002057010000
:1022F000F40F0020F8B5064600240A4F0A4BDB1BFA
:10230000DD08AC4203D14FF0FF342046F8BD57F84A
:10231000340020B13146FEF75DF90028F5D00134D4
:10232000EFE700BF20570100D857010000282DE932
:10233000F047884615461F461DDA4FF0000A5446FE
:10234000DFF89090244EA6EB09063609B24509F154
:10235000100902D12046BDE8F08759F80C0C3B4625
:102360002A4641460079FFF7E1FF844238BF044620
:102370000AF1010AEAE7194B194AD21AB5EBD20F52
:1023800026D203EBC5031C79BC4228BF3C4607227A
:10239000144EC0B200EB400056F82530824023EACC
:1023A000020304F00702824013430021032223FAB0
:1023B00002F000F00700814202F1030238BF01463B
:1023C0001E2AF4D123F007030B4346F82530C1E75A
:1023D0000024DCE7D8570100E8570100205701002E
:1023E000D8570100F40F0020F8B506460F46002428
:1023F000074D084BED1AED08AC4200D3F8BD0021A3
:1024000022B23B46304601340FF03BFCA4B2F3E766
:10241000D85701002057010070B14168097973B1A4
:10242000002A17DBCBB20C4903EB430351F822001F
:10243000D84000F0070070474FF0FF31EFE7074941
:102440000748401AB2EBD00F3ABF01EBC20108793E
:102450001846704704207047F40F002020570100F1
:10246000D85701002DE9F04F8FB0C1F34A2604AFD1
:102470000D469046B8607B600C0D002E65D04FF085
:1024800000090A234FF0040B07F1140AFE60C7E9A4
:102490000799C7F824900093CDF808B0CDF804A0B0
:1024A00007F11C034A464046F968FEF769FDB0F59E
:1024B000006F034620D32948036813F0060F17D096
:1024C0006C468AB0D8F8041004AB254D1A46C3E90F
:1024D000055140F2FF71D9614FF400711984214B0D
:1024E00042F8103F4FF412514B46FFF7BBFFA54691
:1024F0002C37BD46BDE8F08FC0F30A0604F1170083
:10250000184420F0070080083B60FFF777FD66F372
:102510005325044680B13B6800F11001C7E9083932
:102520000A23F961CDE901AB009340460E4AF968F0
:1025300007F11C03FEF724FD66F353252A462046C7
:102540007B68B9680FF0D9FBD2E704F1170020F0DF
:1025500007008008FFF752FD0446EDE71810002041
:102560006E77010004000001CD1C01002DE9F04F41
:1025700087B00546DDE9106BDDE9127A884614461E
:102580009946DFB110213B465A460020CDF800A005
:10259000CDF814A00EF0FEFAB0F5006F01460FD38F
:1025A0001D48036813F0060F32D040F2FF7302217A
:1025B0001A4A07B0BDE8F04F0FF0F8BB394638466D
:1025C00004F0070305F00704E40044EA831444EA36
:1025D000402444EA065406F11700084420F007009E
:1025E00080080391FFF70AFD054640B13FB13B4625
:1025F0005A460399CDF800A010300EF0CBFA4B46A6
:1026000022464146284607B0BDE8F04F0FF075BBA3
:1026100007B0BDE8F08F00BF18100020AD770100B3
:10262000406820B1034BC01A40F38F0070474FF051
:10263000FF307047F40F00200EB403B503AB53F81E
:10264000042B01460448019303F092FD02B05DF8AB
:1026500004EB03B0704700BF0F1E0100CA0605D48B
:102660008B064CBF02490349FFF7E6BF704700BF26
:10267000D77B0100E57701002DE9F04F8BB099463B
:102680009DF85880179B044607930D46DDE918A373
:102690001A9F06920593B8F1000F00F0BF80844B9B
:1026A00007F0020B13F80830089307F480730993BE
:1026B0000FF0E5FA024600287DD020467D49FFF75D
:1026C000BBFF0646BBF1000F08D017F0440F74D1D2
:1026D0002A4620467849FFF7AFFF064407F001037A
:1026E00053B1764B204653F82820754B7549002A84
:1026F00008BF1A46FFF7A0FF07F48073002B07F00E
:10270000080318BF4FF00009002B00F082806E4BC9
:10271000204653F828206D49FFF78EFF0546069B9B
:102720002BB11A4620466A49FFF786FF0544B9F1E6
:10273000000F0DD0089B002B6ED06649664BB8F198
:10274000040F18BF19464A462046FFF775FF054497
:1027500062483544079B1BB1224661490EF0C2FB1B
:10276000059B002B00F09080DDF814903946B9F1FC
:10277000100F204628BF4FF010090026FFF76EFF0C
:10278000B54252DC0026334620461AF8032055494C
:10279000FFF752FF0136102E4DD0710703D12046AE
:1027A0005149FFF749FF4E453346EDD320464F4987
:1027B000FFF742FFEEE7064684E74D4B1868002816
:1027C0008BD04C4B4FF47A7B1B684FF03C0CB5FB25
:1027D000F3F5B5FBF0F14FF4616300FB11550BFB12
:1027E00005F5B1FBF3F2B5FBF0FE03FB121100FBA4
:1027F0001E55B1FBFCF30BFB05F5B5FBF0F50CFB2F
:10280000131120460091CDE901E53B49FFF714FF84
:1028100063E707F0080582E72F4994E7B9F1010F54
:1028200045460CBF2D48354894E720462E49FFF712
:1028300003FF0136A4E7002620463149FFF7FCFEDE
:1028400033461AF803202046A2F120035F2B28BF4D
:102850002E222C49FFF7F0FE0136102E0DD0720704
:1028600003D120462049FFF7E7FEB1453346E8D8BB
:1028700020461D49FFF7E0FEEEE7059BCA44B3EB97
:10288000090305937FF470AFB8F1000F0AD0FB077E
:1028900004D520460A4A0B49FFF7CEFE39462046AA
:1028A000FFF7DCFE20460BB0BDE8F04F0FF0A2BAF8
:1028B0001EBE0100EB850100F6770100D85D010026
:1028C000E8770100887E0100EC5D01001C780100C2
:1028D00022780100ED770100F17701000F1E010061
:1028E0007161000026780100ECAF0100EAAF010041
:1028F000902F00208C2F0020007801003D1E010049
:102900002C780100DB93010042F20F7373B58B4208
:1029100028BF0B4605680446052168460D4A0CF0A1
:1029200091FC0646636828460B225B680A490FF053
:1029300053FA63683246694628465B680FF04CFAE2
:1029400063681B2228465B6804490FF045FA02B011
:1029500070BD00BFD99A010012BE0100F6BD010092
:1029600000210123064A904206D8064A01B90123F4
:102970001360054B18607047012140085B00F2E7C7
:1029800040420F008C2F0020902F0020014B03604D
:1029900000207047005E010003289ABF024B53F8E5
:1029A00020000248704700BF005E010066B90100C8
:1029B00070B5C4690D469CB31E4A2379565CB34278
:1029C00031D01D4A525C9A4230D1A3689847002802
:1029D00010DA022D0CD0032D0BD110F1860F07D089
:1029E000D4E8EF3F43F00203C4E8E23F002AF6E7F1
:1029F000267170BD022D267101D00020F9E7D4E8C0
:102A0000EF3F23F00403C4E8E23F002AF7D1D4E803
:102A1000EF3F23F00203C4E8E23F002AEDD0F6E7DF
:102A20006FF05700E5E76FF07700E2E76FF08500A1
:102A3000DFE700BF27BE010023BE010010B504463A
:102A400011F072F808210346024A20460FF0ACFC50
:102A5000002010BD8078010037B5134600220446DF
:102A600001920A21586801AA01F0B2FE019D95B9B0
:102A700047F6122C20EAE074294640F2E7304FF482
:102A80007A720023E4FB0C01FDF78AFD11F028FEA9
:102A9000284603B030BD2B4601212046024A0FF0E4
:102AA00083FC019DF4E700BFAC78010008B5082164
:102AB000024B034A0FF078FC002008BD9979010011
:102AC000A0790100F7B51746002305460A2101AA9F
:102AD000B868019301F07CFE0321194AC6B228466A
:102AE0000FF062FC019C4CB1234601212846154A97
:102AF0000FF05AFC019C204603B0F0BD042E0AD909
:102B0000334601212846104A0FF04EFC28460FF0AC
:102B100081FC0124EFE77868FFF7ECFB021E08DA7E
:102B2000012128467B68094A0FF03EFC6FF015042E
:102B3000E1E733462146204612B20FF0A2F8DAE769
:102B4000CB790100317A0100587A01006F7A0100D7
:102B5000002307B50090694604488DF804300BF057
:102B60006BF89DF8040003B05DF804FB451F0100FD
:102B700038B50446EFF31185202383F31288BFF3A1
:102B80006F8F04F0BDFE034685F31188BFF36F8F8E
:102B900008212046064A0FF007FC2046054A082176
:102BA0000FF002FC214604480BF060F8002038BD0D
:102BB000FA7A0100197B0100BD2B000070B58EB0C0
:102BC00004460D46D0F8A06011F091FC024603F0D7
:102BD0008FF8254B1958254B2846002A18BF134655
:102BE000234ACDE90043234B8C4218BF13460821EA
:102BF000214A0FF0D9FBD4E90823CDE9022394F947
:102C00000E3028460093A38908211C4A0FF0CCFB04
:102C100006A9202220460AF0B9FAA26E03460092C5
:102C200008212846164A0FF0BFFB204605A911F0DF
:102C30006FFC034630B108212846124A0FF0B4FB5E
:102C40000EB070BD6423059A2846B11A4B43B3FBFE
:102C5000F6F3CDE90021CDE90263082133460A4AA3
:102C60000FF0A2FBECE700BF08000000237B01008F
:102C7000ECAF0100338F0100267B0100327B0100A5
:102C80005E7B0100757B0100A27B010030B504462C
:102C900093B00AAD20220021284612F0EAF81A2249
:102CA0002021284612F0E5F8214611480AF0DEFFFF
:102CB00009AA4FF400610F4811F01BFC6423099A24
:102CC0000195C2F500614B43DB0A002506934FF4E2
:102CD00000632046CDE90413CDE902320821054BFB
:102CE000054A00950FF060FB284613B030BD00BFC9
:102CF000FD2C0000B0040120F37B0100F0B5044678
:102D00000D46D0F8A06089B007A911F001FC034678
:102D100030B1082128460F4A0FF046FB09B0F0BD3C
:102D2000204611F0E4FB6423079A0B4FB11A4B4382
:102D3000002818BF0746B3FBF6F3CDE90221CDE921
:102D40000463082123462846CDE90076034A0FF0A4
:102D50002BFBE3E7757B0100237B01003C7C01003A
:102D600038B5134605461022002158680CF008FBC0
:102D70000446FFF7EDFE40B92346012128460E4ADE
:102D80000FF012FB6FF0150038BD02F0B1FF0B4BD6
:102D90001B589C4205D101212846094A0FF004FB2B
:102DA000F0E720460AF0CCFA284623460821054AD7
:102DB0000FF0FAFA0020E7E7A07C0100080000000D
:102DC000BB7C0100E37C010038B5134605461022A8
:102DD000002158680CF0D4FA0446FFF7B9FE40B958
:102DE0002346012128460E4A0FF0DEFA6FF0150047
:102DF00038BD02F07DFF0B4B1B589C4205D10121D1
:102E00002846094A0FF0D0FAF0E720460AF0B8FA4F
:102E1000284623460821054A0FF0C6FA0020E7E7B6
:102E2000A07C010008000000227D0100487D010017
:102E300038B5134605461022002158680CF0A0FA58
:102E40000446FFF785FE40B92346012128460E4A75
:102E50000FF0AAFA6FF0150038BD02F049FF0B4BD6
:102E60001B589C4205D101212846094A0FF09CFAC3
:102E7000F0E7204602F094FE284623460821054A42
:102E80000FF092FA0020E7E7A07C010008000000A4
:102E9000837D0100A87D010010B50C4600210FF0D4
:102EA00056FD00B100680023024A2060C4E90123F6
:102EB000E36010BDC87E010010B50C4600210FF084
:102EC0004AFD00B100680023024A2060C4E90123E2
:102ED000E36010BDC87E010073B505465068144616
:102EE0000FF03DFD064650B9636801212846114A9E
:102EF0000FF05AFA6FF01204204602B070BD11F0C4
:102F000078F938B163680C4A022128460FF04CFA70
:102F10000024F1E7304611F063F96368044630B1EC
:102F2000009001212846054A0FF03EFAE4E7044AE2
:102F3000EAE700BFE07D0100F57D0100177E01009A
:102F4000447E01002DE9F04F8FB0054601A8884668
:102F5000914609F0F9FB2423019F082103FB007728
:102F6000324A28460FF020FA019CBC4203D30020CD
:102F70000FB0BDE8F08F26680EB1337833B9234621
:102F800030212B4A02A80CF05DF902AEB8F1020F15
:102F900007D13046D9F8041011F0C1FF08B9243424
:102FA000E3E7334608212846224A0FF0FDF9204680
:102FB00011F01FF970B3002320460DF103018DF8C5
:102FC00003300EF07FFF18BB9DF80300FFF7E4FC11
:102FD000034608212846184A0FF0E6F9236A002B19
:102FE000DDD01E68002EDAD03368002BD7D0082140
:102FF0002846124A0FF0D8F9B3464FF0000A33685A
:10300000534509D8082128460D4A0FF0CDF9C6E7E7
:103010000C4BDEE70C4BDCE7082128465BF8043F4D
:103020000A4A0FF0C1F90AF1010AE8E7777E0100C8
:10303000817E0100867E0100EE7D01008B7E010015
:10304000D77B0100687E01006E7E0100877E010053
:10305000F7B5137806463A2B0F46154614D1541C83
:1030600023783A2B29D101340A22204601A90CF0F9
:1030700013F9019A0346A242386018D01078B0B90B
:103080003C2B16D9164A0EE00A22284601A90CF05C
:1030900003F9019CB860AC4209D023783A2B06D1E1
:1030A000172808D90F4A012130460FF07DF96FF03B
:1030B000150003B0F0BD0134D2E70A22204601A971
:1030C0000CF0EAF8019B7860A342F0D01A783A2A13
:1030D000EDD13B2801D9044AE5E75C1CC4E700BFF9
:1030E000307F0100127F0100207F01002DE9F041B7
:1030F0000D4696B008A9044601201746FEF7E8F8E9
:103100000DA908A80BF0E0FF032D57D17D680A2216
:10311000284607A90CF0C0F8079E8046B54216D095
:1031200032782D2A13D101360A22304607A90CF035
:10313000B3F8079B9E420AD01A782D2A07D1451E64
:103140000B2D0DD9314A012120460FF02DF92046D3
:103150000FF060F96FF01505284616B0BDE8F08154
:103160005E1C0A22304607A90CF096F8079B9E4287
:10317000EDD01B78002BEAD1431E1E2B01D9244A27
:10318000E1E7A8F26C73CDE91153BA6810902046BC
:103190000DA9FFF75DFF0028D9D10DA8FEF79AF918
:1031A000B1F1FF3F08BFB0F1FF3FCDE9080109D100
:1031B00001212046174A0FF0F7F8CBE7022DC6D1C0
:1031C0007A68E4E700230A93012008A9FEF7B6F81D
:1031D000054630B10346012120460F4A0FF0E4F8BE
:1031E000B8E70D9B082104930E9B204603930F9B89
:1031F0000A4A0293109B0193119B01330093129B87
:1032000003F26C730FF0D0F8A6E700BF407F010017
:103210004F7F01005C7F0100857F01009C7F0100E2
:1032200010B5044694B006A90120FEF751F80BA989
:1032300006A80BF049FF0B9B204604930C9B08212A
:1032400003930D9B074A02930E9B01930F9B01333F
:103250000093109B03F26C730FF0A6F8002014B0DB
:1032600010BD00BF9C7F01002DE9F3411446884644
:1032700007461022002160680CF082F8B8F1020FB6
:10328000064620D90A220021A0680CF079F8C5B2C0
:103290002B4608213846224A0FF086F8B8F1030F72
:1032A00022D8102D11D0202D12D0082D12D1337814
:1032B000DBB200220821CDE900323846194A0FF06E
:1032C00073F800200DE02025E2E733889BB2F0E799
:1032D0003368EEE738460821134A0FF065F86FF0BF
:1032E000150002B0BDE8F0811022E06800210CF06A
:1032F000ADF80E4ACDE900010446082138460FF02A
:1033000053F8102D06D0202D07D0082DE2D1E4B2BD
:103310003470D6E7A4B23480D3E73460D1E700BF7D
:10332000EB7F010016800100008001002980010070
:1033300000232DE9F04791464FF0FF35012286B07A
:103340000193514B074688461A602026FEF718F96C
:103350002C46494640464D4AFEF736F9431C07D1F4
:10336000691C43D14A4A012138460FF01DF818E084
:1033700073281BD0772829D0612812D1DFF814A137
:103380001021DAF8000001AA01F022FA019B05469B
:10339000002BDED0DAF800303F4A012138460FF02A
:1033A00003F86FF0150006B0BDE8F087DFF8E4A081
:1033B0000021DAF8000001AA01F00AFA019B044694
:1033C000002BC6D0DAF80030344AE6E7DFF8C4A0B4
:1033D0000021DAF8000001AA01F0FAF9019B064683
:1033E000002BB6D0DAF800302D4AD6E7621C01D1A6
:1033F0002C4AB8E75FFA86F8A8F10803DBB2182B6D
:10340000C6F3C40604D8284A22FA03F3DB0721D402
:1034100043460821254AC1E7B8F1100F21D0B8F181
:10342000200F24D0B8F1080F01D10A781A70314466
:1034300033444218102AEFD9102CA14628BF4FF070
:10344000100929464B46384602AA01F0E9F9103521
:10345000A4EB0904B4B1A642EED8294602AB701B16
:10346000E7E70A8892B21A70120A5A70DFE70A6810
:10347000C2F3072C1A70120C9A70120A83F801C05A
:10348000DA70D4E720468EE7A80100207980010099
:10349000808001006C2F00203F80010052800100DD
:1034A000658001009D80010001010001B7800100DD
:1034B00070B50F4E04460D46337831B12BB1012162
:1034C000BDE870400B4A0EF06FBF83F0010333700C
:1034D00033B108212046084A0EF066FF01233370FD
:1034E00029462046BDE8704000220EF0DFBF00BF35
:1034F0001E3C0020D18001000C8101002DE9F0412B
:1035000005460C46DFF8EC803B4E8F18BC4201D1DB
:10351000BDE8F08198F8002014F8013B182A23D167
:10352000112B21D10026354C082123682846344A26
:1035300088F800600EF038FF28463146FFF7B8FFE4
:10354000304B18780028E3D12F4A23681168042BE8
:103550002EDC08B12360116013F003012FD1126833
:1035600013681BBA1360D3E7A3F13002092A88F865
:10357000003004D923F02002413A052A04D83168EA
:10358000224A5354013131603368022BBED11022DC
:1035900000211E480BF0F4FE1D4A136803F8010BCE
:1035A0001360164A13680133136000233360ADE7DC
:1035B0000868043B00BA41F8040B0120C7E75B42EE
:1035C00003F0030358BF5942022904D1126813685B
:1035D0005BBA9BB2C6E703299AD11068026811044E
:1035E000C2F3074301F47F010B4302F47F4213430C
:1035F00003608DE71F3C0020942F0020982F0020AF
:1036000036810100203C00209C2F0020213C00201E
:10361000A02F00202DE9F8430023804617460D46D1
:103620002649274E0B60274933700B60012DB946A0
:1036300057F8044F1DD902222046234911F03EFCC1
:1036400070B9A378003B18BF01231C440222204616
:103650001E4911F033FC28B901233370013DE5E721
:103660000023F2E720461849FCF7B4FFC0B909F17E
:1036700004090022D9F8040011460BF081FE002253
:10368000134B11461860D9F804000BF079FE114B6A
:10369000114918604046FFF70BFF0020BDE8F88392
:1036A00023782D2BE5D16378002BE2D02346082127
:1036B00040460A4A0EF078FED0E700BF942F002063
:1036C000203C0020982F00205081010053810100F0
:1036D000A02F00209C2F0020FD3400005681010007
:1036E00007B5094810F085FD58B104233A2200932C
:1036F00005490123054800F083FF002003B05DF871
:1037000004FB6FF01200F9E708550100E8570100CB
:1037100010B54468C4E90012A36042684FF48061A8
:10372000134653F8404B51635362002302F13801B2
:10373000C2E904130821C2E90A33C2E9063313635C
:103740001162C2F87834A36823B11B6C13B1204610
:1037500004499847A3681B6A0BB12046984700208C
:1037600010BD00BF693700002DE9F74F836805469B
:10377000DB6B0C4603B19847AB68DB6A002B35D195
:103780004FF00008DFF810A104F12409218E238DE9
:10379000626B5B1A9BB2D31A934204F1280B28BFC9
:1037A00013465946484601AA0DF0D1FF07460028A6
:1037B00041D0AB6801991B69002B37D002462846DF
:1037C00098470646002818BF48F001083246594677
:1037D00048460DF0F2FF0EB1BE42D7D0B8F1000F4F
:1037E00008D0D4E901310020984703E028469847E3
:1037F0000028C5D1AB68DB6993BB628BE38A04F117
:1038000010079B1A226A9BB2934204F11A0828BF40
:1038100013464146384601AA0DF099FF064630BBD3
:1038200028460EF0A5FBC4F878642CE06FF057062C
:103830004FF00108CAE7DAF8003013F0060F04D0A1
:1038400002215046154A0EF0A8FAAB681B69002BFE
:10385000C4D0012228460DF1030198470646BAE775
:10386000284698470028C8D103B0BDE8F08FAB6860
:103870000199DB6863B102462846984702464146F3
:1038800038460DF09AFFD4E9013101209847EBE763
:103890006FF05702F3E700BF38100020B882010034
:1038A00000487047E857010010B5044681681C3194
:1038B00001F054FBA1682046BDE81040014A1C31CC
:1038C00001F0ECBAFA8201002DE9F34106461446F4
:1038D0000F46D0F8088021B9A8F8441002B0BDE81E
:1038E000F08118480EF0CCFBB8F83E500444A4B266
:1038F0002D1A95FBF4F538460EF0C2FBB8F84430AB
:10390000ADB25A1CA8F84420B3FBF5F205FB123304
:10391000241A9BB2A4B26BB906213046094B0A4A5D
:1039200000970FF009FA2146304602B0BDE8F04199
:1039300000F0FABF3B4606213046044A0FF0FCF97E
:10394000F1E700BFEBAF010008830100887E0100B2
:103950008368D3F898329B0603D5024940690EF07C
:103960006CBB7047C459010010B504460EF0A2FBB1
:10397000A36801469B6C0BB120469847002202F0D9
:10398000B7F9A368C3F8BC22014B185802F008F934
:103990000800000001490EF050BB00BFD77B0100BA
:1039A0002DE9F04FA7B004461422002107A811F01A
:1039B00060FA5422002111A811F05BFA0023CDE92E
:1039C0000533A3682046783302930FF0E4F82046CD
:1039D0000FF027F810B96069FFF7DCFF00264FF001
:1039E000FF38B246B3463546B146A06814220021DE
:1039F0001C3011F03EFA20460EF06EFFA168E06820
:103A0000B1F8702078310FF024FC20460FF085FCCF
:103A100011AF0396DDE90532012A68D0132B69D86E
:103A2000B8F1000F2BD1BBF1000F0AD020460FF0E8
:103A300095FC1423A26811A978320DEB03000EF057
:103A4000E8FDB9F1000F0CD099F81130FE2B08D128
:103A5000059B26AA02EB830252F8542C0AB10133CB
:103A60000593A568AB6A002B40F0B280CEB12B6AFB
:103A7000B34225D12046FFF717FF012513E00223AB
:103A80003946029A06A80EF0C4FD7A6806990346E4
:103A9000029231B101290AD148B1694A20460FF09A
:103AA0004BF96FF00705284627B0BDE8F08F059B5E
:103AB000002B2ED038680FF01BFB78B146B1A568FB
:103AC0000D961C350CAE0FCE0FC533682B60D1E7B9
:103AD0005C4A012120460FF02FF9E2E7059BC3B1B4
:103AE000294620463A6801F017FB022809D1059BB8
:103AF000132B98D9069B022B95D10121524B534A87
:103B0000CCE7032805D0059B4FF0010B013305934B
:103B100080E7039B2BB94846396807AA0EF050FE90
:103B20000546043708F1FF38A5B3EB68BBF1000F79
:103B300008D0FBB120460FF02EF820460EF088FF8B
:103B4000434AC6E7B3B1AE46A368DDF814A003F15B
:103B50001C0CBEE80F00ACE80F00DEF80030CCF81B
:103B60000030AB6833B96B7CFE2B04BF95F8108036
:103B700008F1FF38D5F804C0BCF1000F08D0AE46FC
:103B80000CAEBEE80F000FC6DEF8003033606646AC
:103B9000A94603E0059B63B101230393B8F1000F2D
:103BA00003D1069B022B7FF435AF059B01330593B0
:103BB00030E7A3681B6B13B1DB68002BECD1254BFE
:103BC000012100932046119B234A0FF0B5F8E3E74B
:103BD000059E95F82C30A6EB0A06BBB14FF6FF7296
:103BE00095F82D10FF2918BF0A469E4202D31344B0
:103BF0009E420BD9EB6901212046184A0FF09CF830
:103C00002046FFF751FE6FF015054CE7FDF7B8FCB5
:103C10000121A0680EF074FAA0680EF065FAA3689E
:103C200011AA31469B6A02EB8A0220469847054654
:103C3000A0680EF05DFA0021A0680EF061FA32E78C
:103C40000E83010022830100838301008A7A010030
:103C5000408301006F8301003C860100A7830100BF
:103C600070B5044683689E7D012E3BD1A368D3F8CE
:103C700098329A0603D51F4960690EF0DEF9204696
:103C8000FFF766FEE0690FF082F9012E05462DD19F
:103C9000A368D3F898329B0603D5174960690EF0E4
:103CA000CCF9A3689B6923B108212046134A0FF081
:103CB00043F8204600F04EFE20460EF0D8FEA368E2
:103CC000B3F8703023B140F2D510002110F008FD98
:103CD0003DB1A068012100F528700EF0E1F900283F
:103CE000C2D070BD20460EF081FFCBE7204600F029
:103CF000B5FFE4E7C9590100CD590100887E0100F4
:103D0000D3B504464FF0FF364FF0FF37A06800F5FB
:103D1000287000220721CDE9006710F037FEA06867
:103D20000EF0E6F9042120460A4A0EF05CFA012161
:103D30002046094A0EF057FA20460221074A0EF0A3
:103D400052FA606803685B6903B19847A0680EF097
:103D5000CBF9DBE769390000F5220100613C000086
:103D6000022210B5836804461A758368DB6CBBB900
:103D70000EF058F98368D3F89C32DB040BD503218D
:103D8000084B094A0EF0D8FFA0686FF4805100F587
:103D900027700EF06AF92046BDE8104000F05EBFC3
:103DA00010BD00BFC2830100887E010000232DE901
:103DB000F04F0446ADB00593A3686068DE6C0268FE
:103DC00015692EB31F6D102205AB17A9A84700284F
:103DD0001BDB059BCBB10121A0680EF091F9A06817
:103DE0000EF082F93B46059A17A92046B047A06815
:103DF0000EF07EF90021A0680EF082F9A368DB6C5A
:103E0000002BD9D12046FFF7ABFF2DB0BDE8F08FD6
:103E1000012205AB0DF11301A8470028F5DB059B36
:103E2000002BF2D09DF913109DF813300029A268E1
:103E3000C2DB517D032900F2B683DFE811F00400F4
:103E400036034D03B4030D2BD2F89C1241D00A2B3C
:103E50003FD021F0FF01092BC2F89C126BD028D86B
:103E6000002B00F02B81082B00F09982A268D2F879
:103E700098128F0740F12281013B162B00F21E8120
:103E8000DFE813F07A03AC02B002A8027403C9029F
:103E90001C011C011C011C01CD02D1021C01E60207
:103EA0001C01EB021C011C011C01ED02FD021C01A6
:103EB0000B031B2B3BD07F2B00F07E82A3F1200253
:103EC0005E2AD3D80121A0680EF025F99DF81310C1
:103ED00015E1C9B221B1D2F89C12C9B28B42C5D149
:103EE000D2F89C1263F30701C2F89C12A568AB7D5F
:103EF000012B06D16069FFF74DFD0222A3689A7578
:103F000083E7B5F8701061B928460EF004F9E0684F
:103F10000FF071F96069FFF73DFD2046FFF720FFC4
:103F20004AE72046FFF73CFDC5F8C002F5E701224D
:103F3000A3685A75C2E0A068D0F898329E07C3F310
:103F4000400940F1BB8001210EF0E5F8A068857DB5
:103F5000002D40F0B380B0F87030FF2B00F0AE8041
:103F6000B0F8722000F1780100F5BC7010F05BFF32
:103F7000A368B3F87220134483F87851A068B0F8AE
:103F8000725055B1054495F87750202D00F0888087
:103F9000093D042D8CBF0025012500F5BC700246AB
:103FA000137811460132DBB1202BF9D0093B042BE9
:103FB000F6D98DB90A4611F8013B13F0DF0F02D094
:103FC000093B042BF6D8013A12F8013F43B1202BEC
:103FD000FAD0093B042BF7D94FF480710EF01BFC8B
:103FE000A26817A9142302F5BC7207A80EF011FBF2
:103FF0000799142962D800222CAB03EB810343F804
:10400000542C19B1002D4ED101294BD10025069514
:10401000069E002E40F0FA80DDF85CA0B0465046C7
:104020000EF02EF83746314603904B1C284612AA54
:10403000029300F08DFB0146002843D1012E62D18E
:10404000069B2CAA02EB8303384653F8546C0EF0FF
:1040500017F8054630460EF013F8854205D02A1AA7
:1040600092B2391820460EF0AEFEA068B0F8723059
:10407000034493F87830202B3BD0093B042B38D9EC
:10408000D0F89832DD0739D500210EF09DF82021B7
:10409000204600F0ABFD0121A0680EF095F80DE080
:1040A00001257AE70139002008AB0093019006ABA7
:1040B00017AA0EF0B3FB05460028A9D160690EF0DF
:1040C00000FA79E6D1F800B0039A514658460DF04F
:1040D000DDFF60B15846FCF78FFA404538BF4046D7
:1040E000002E18BFBB465F461FFA80F801360299C2
:1040F0009BE7012120460EF0DFFCDFE72021204670
:1041000000F074FDDAE70290D8D9069B2CAA02EBE6
:10411000830353F854AC50460DF0B2FF0646A36833
:104120000299A3F84410284612AA01F1010B00F0ED
:104130000FFB074648BB6069FFF72CFC204600F0E8
:104140008DFD069B2CAA02EB830353F854BC4FF65B
:10415000FF7658460DF094FF394680464B1C2846A2
:1041600012AA029300F0F4FA8246E0B94FF6FF7308
:104170009E42A3D0002EA1D0A6EB080292B207EB7C
:10418000080120460EF01FFE98E73F683246514670
:1041900038460DF07BFF20B1424639462046FFF7F6
:1041A00093FB5946BFE7DAF80030424659461846B5
:1041B00003930DF06BFF88B1A068039BB9F1000F6A
:1041C0000ED04FF000091946FF2200F5BC7010F028
:1041D00087FEA36883F87792DAF800700299BDE74A
:1041E0004A4600F2771010F801CF995C614500D182
:1041F00011B9904505D9F1E74FF6FF7101328A42B6
:10420000F1D1B242A8BF324696B2E7E72CAB03EB3E
:10421000860656F854BC002658460DF031FFB146CC
:1042200082463746B0464146284612AA00F090FA28
:104230000346D8B9012E31D1069B2CAA02EB830389
:1042400053F8540C0DF01CFFA26806463946284668
:104250001C3200F07DFA056828460DF011FF8642F9
:104260003FF403AF821B92B2A919FBE61B685246CA
:104270005946184602930DF009FF60B1029B18469B
:10428000FCF7BAF9484538BF4846002E08BF4746F4
:104290001FFA80F9013608F10108C4E703907FF6A0
:1042A0000DAF069A2CAB03EB820252F854ACB04629
:1042B00050460DF0E5FEBB46A268039B0290A2F8B3
:1042C0004430A268594628461C3200F041FA0BF1EE
:1042D000010B0368BAF1000F09D043B118465146EB
:1042E000029A03930DF0D2FE039B0028E9D04A46C0
:1042F00019462046FFF7E8FAB8F10108E1D16069F4
:10430000FFF748FB204600F0A9FC069B2CAA02EB15
:10431000830353F8540C0DF0B3FE39460DAA8046C2
:10432000284600F015FA07F101090746A068396828
:10433000FF2200F5BC7010F0D3FD3B684FF6FF770D
:10434000BA4602934946284612AA09F1010B00F029
:10435000FFF9D8B10022A168036801F2771111F8C2
:1043600001EF985C704503D110B101325245F6D18E
:10437000B8F1000F01D0424506DBBA42A8BF3A4669
:10438000013E012E97B201D0D946DBE7002F3FF462
:1043900095AE0299A7EB080292B24144F1E6A068FB
:1043A000D0F8983299077FF589AE01210DF0B3FE60
:1043B00020460EF029FD81E6A068D0F898329A07D1
:1043C0007FF57CAE01210DF0A6FEA368D3F89832EC
:1043D0001B07EDD420460EF0F8FC6FE620460EF0E9
:1043E000E3FB6BE620460EF0D6FB20460EF019FBF1
:1043F00010B96069FFF7CEFA0121A0680DF08BFEBD
:10440000A3689A7D012A02D103229A7556E62046B6
:10441000FFF7A6FC52E620460EF0CFFB4EE6204604
:104420000EF0D6FB4AE6D2F898329E0603D55F49D5
:1044300060690DF002FEA368D3F898329D0603D59B
:104440005B4960690DF0F9FD204600F007FC35E698
:10445000002120460DF06AFE30E60121F9E7E0690F
:1044600083681B79012B02D10EF052FD26E6022B48
:104470007FF424AE2146526D0EF033FD1EE6204639
:104480000EF082FB20460DF0CDFD0121A0680DF05D
:1044900042FE2046FFF75CFA10E6204600F0D4FA10
:1044A0000121A0680DF037FE08E65B2B02D1022344
:1044B000537503E6D2F89822900706D5622B07D1F0
:1044C0004FF0FF3120460EF020FB0022A36830E5BC
:1044D000662BFAD10121F5E700215175A268D2F8C7
:1044E000981289077FF568AC313B1B2B3FF6E6AD90
:1044F00001A151F823F000BF75450000814500007F
:104500009545000069450000BD400000BD40000029
:10451000BD400000BD400000BD400000BD400000A7
:10452000BD400000BD400000BD400000BD40000097
:10453000BD400000BD4000005B440000514400004D
:1045400017440000DD430000BD4000006D45000041
:10455000BD40000079450000BD400000BD400000A6
:10456000BD400000854500000323537520460EF032
:1045700012FBA3E50323537520460EF005FB9DE5D2
:1045800003235375A068D0F8981201F0010181F05F
:10459000010182E503235375A368D3F898329B0782
:1045A0007FF58CAD16E7002382E700BFD1590100EB
:1045B000D659010010B5044608210C4A0DF0F4FE4E
:1045C000204608210A4A0DF0EFFE20460821094A3C
:1045D0000DF0EAFE20460821074A0DF0E5FE2046D0
:1045E0000021064A00F05AFC002010BD068401009C
:1045F00044840100A3840100F78401009285010036
:104600002DE9F041044680688846D0F8BC62154622
:104610001F4688B0002E6AD14FF43172314610F037
:1046200028FCA06800F5287010F0A0F9A06800F53B
:104630002B70012211460FF091FEA3694FF4007117
:104640001E60A06866F3820500F527700DF002FD7C
:104650005022A3682046DA871822A3689A87216827
:104660000DF0B1FEA3684146C3F898526068214A34
:1046700003681D682346A8470546B8B90122A36808
:104680001A75A06800F52770A7B14FF480410DF0AE
:10469000E1FCA3680E9A00215A65606803689B6874
:1046A0009847054658B120460DF004FD284608B04D
:1046B000BDE8F0816FF480410DF0D7FCE9E7D4E963
:1046C0000A0100220023CDE906230E2341F25042C5
:1046D000CDE90253CDE90045074B049508F092FE61
:1046E000A368C3F8BC02616A08F03AFDDEE76FF028
:1046F0007705DBE713220100013D000010B50446F9
:1047000013460A460146064801F032FD23691B792B
:1047100023B12046BDE810400DF0D3BE10BD00BF50
:10472000DB24010010B504460B4602460649074843
:104730000CF0D8FB23691B7923B12046BDE810405B
:104740000DF0BFBE10BD00BF71610000DB24010091
:1047500010B50B46144648B91749184A521AB3EB1C
:10476000920F05D251F82340204610BD82680AB945
:104770000024F9E712498A420FD312498A420CD227
:10478000A27C214622F00302A274826818461268B5
:1047900090472368002BE7D1EAE70B498A4202D30E
:1047A0000A498A4205D3126814214B43D418D358BE
:1047B000F0E70133F8E700BF185801005458010032
:1047C00080590100885901005458010080590100A6
:1047D000F7B5037804462D2B154605D16FF0150368
:1047E00000202B6003B0F0BD01F082FA00230646E2
:1047F0000A4F0A46C35101A920460AF0C1FDF359E8
:10480000222B02D16FF02103EAE7002BE6D1019BB6
:10481000A342E3D01B78002BE4D0DFE70C000000BC
:10482000F8B516461F46254A0B46082104460025C2
:104830000DF0BAFDAF4210D908212046735D204A21
:104840000DF0B2FD0135102D0DD06A07F2D108210F
:1048500020461C4A0DF0A8FDECE7082120461A4A24
:104860000DF0A2FDEEE708212046184A0DF09CFD50
:104870000025BD4215D2735D0821A3F120025F2AF5
:1048800028BF2E232046124A0DF08EFD0135102D33
:104890000DD06B07EDD1082120460A4A0DF084FDAA
:1048A000E7E708212046074A0DF07EFDEEE72046A7
:1048B000BDE8F8400821074A0DF076BDC18501002A
:1048C00026780100ECAF0100EAAF01002C7801006E
:1048D000DB930100C88501008368D3F898329B06FA
:1048E00003D5024940690EF07DB87047DC590100DC
:1048F00001490EF077B800BFD77B01000A1E0DDC1E
:104900000ED042238168D1F89812890608D5002A72
:1049100004494069B8BF52420EF064B84123F1E740
:10492000704700BFCB8501000A1E0DDC0ED044236A
:104930008168D1F89812890608D5002A044940698F
:10494000B8BF52420EF04EB84323F1E7704700BFA4
:10495000CB8501002DE9F0478468054604F1780015
:10496000FBF74AFE0022914694F8408087B2E68F1A
:10497000A6EB0806BE4209DB002F21DD783268690C
:1049800022441049BDE8F0470EF02CB816443444D8
:1049900094F878A084F87890AB6878321A440A4981
:1049A00068690EF01FF8AB683246334483F878A08C
:1049B000AC68E38FA3EB0803FF1A4FF00008D6E7BB
:1049C000BDE8F087887E01008A7A010008290A463E
:1049D00017D8836893F84210914212D083F842208E
:1049E0008368082AD3F8983205D0990609D5054975
:1049F00040690DF0F7BF9B0603D5034940690DF0F0
:104A0000F1BF7047D2850100E159010038B50D466C
:104A100009780446FFF7DAFF6A78072A11D8A368F5
:104A200093F8431091420CD083F84320A368D3F845
:104A300098329B0605D560690249BDE838400DF003
:104A4000D1BF38BDDB850100F8B583680446B3F8F3
:104A50007020002A55D0B3F87210002951D0773158
:104A600003F178050B441846A84206D3014611F815
:104A70000169202E3CD0A8423CD286B29DB2AB1B2D
:104A80009BB2591C471CD21A0144384610F0D8F981
:104A9000A268711BB2F87030204613FA81F3A2F8B5
:104AA0007030A36809B2B3F870201344002283F871
:104AB00078200EF001F8A368D3F898329A0603D54F
:104AC000104960690DF08EFF3B46082120460E4AD2
:104AD0000EF032F92046FFF7FFFEA368D3F89832B4
:104AE0009B060ED560690949BDE8F8400DF07ABF14
:104AF0000846B9E7014611F80169202EBDD00846E5
:104B0000B9E7F8BDE6590100887E0100EA590100C5
:104B10002DE9F04704460F4690460AB1FFF7DCFE48
:104B2000A668D6F89832B6F872505B0723D505F11F
:104B300078003044FBF760FD0546B5B9A368B3F8CB
:104B40007020A3F87220A0680DF059FF30B1B8F1C1
:104B5000000F00D017B16069FFF7CAFE7942204606
:104B6000BDE8F04709B20DF0A7BF1D4960690DF01F
:104B700039FF013DE1E73046FBF73EFDB6F87090A6
:104B8000F38F19FA80F915FA80F0B0FBF3F2B9FB54
:104B9000F3F39A42AA461AD04845A368CEDADA8FD0
:104BA000451CB0FBF2F302FB130313B96069FFF776
:104BB0009FFEA36820465344082193F87830094AA1
:104BC0000AF101060EF0B8F8B2462846E4E7783557
:104BD00008212046044A73190EF0AEF8AEE700BF74
:104BE000338F0100DB930100887E010013B58368D9
:104BF0008DF80710D3F898220446D00725D5B3F8CE
:104C00007210B3F870208A421FD0481C9DF807200C
:104C1000A3F872000B4483F87820A368D3F89812A5
:104C2000890710D5D3F89832606913F0040F18BFC4
:104C30002A2209490DF0D6FE20460DF0F2FE10B1F1
:104C40006069FFF755FE02B010BD012220460DF14C
:104C500007010EF07EF8F6E7DB93010010B58368DC
:104C600004469A7D1AB90221084A0EF065F8A36835
:104C7000D3F898329B0707D52046FFF76BFE2046F6
:104C8000BDE810400DF0F3BE10BD00BF887E0100EE
:104C90002DE9F843436807461C680E46A268E3699D
:104CA000D2F898529A68C5F300151279012A03D0F8
:104CB000032A4FD0BDE8F883D868D3F814800B7866
:104CC00047F6122E5A0758BF0B684FF47A725CBF32
:104CD000C3F34A254B8840F2E7318C464FF0000180
:104CE000E0FB0EC15EBF05EB1315173525F0070578
:104CF0004FF0000360464CBF0025AD08FBF750FCA9
:104D000002460B46404629460CF09BFA814628B9DC
:104D10003846BDE8F84301210EF0ABB8012DF7D9B4
:104D2000314651F8043B0268C3F39D0363F39F02CD
:104D300040F8042B6A1E920010F075F84046494670
:104D40000CF0FCFAA06800F528700221BDE8F843D9
:104D50000FF011BE2046D3F804900DF047FFA36872
:104D600005F18E0793F816800FF0BBFB054600286F
:104D700042D0EFF31185202383F31288BFF36F8FA6
:104D8000B8F1010FA36841D1D3F898329B0603D53F
:104D90002A4960690EF060F8A368D3F89832980643
:104DA00003D5274960690EF057F83A463146484620
:104DB0000DF052F8B8F1010FA3682FD1D3F8983253
:104DC0009A0603D51F4960690EF046F8A3689B69EF
:104DD00023B1082120461C4A0DF0AEFF2046FFF704
:104DE000B9FD20460DF043FE0FF07BFBF0B185F3DB
:104DF0001188BFF36F8F5DE7A06800F52B704FF04F
:104E0000FF324FF0FF3307F0B5FFB9E7D3F89C321C
:104E10001905CAD420460DF0E9FEC6E7D3F89C3246
:104E20001B05E1D42046FFF719FFDDE7A06800F578
:104E30002B70BDE8F84307F067BF00BFEE590100D3
:104E4000F2590100F7590100887E010001490EF076
:104E5000DCB800BFD77B0100F8B50F4651680546A6
:104E600016461C4611B11A460EF0DCF8B3688BB139
:104E700021462846FFF758FD0821074A3B462846A9
:104E80000DF05AFFB168E21D21B12846BDE8F84097
:104E90000EF0C8B8F8BD00BFE48501002DE9F0436D
:104EA0000E460021044617460D4689B0304603AA37
:104EB00001F10108FFF74CFC88B96DB127B13A4602
:104EC000082120460DF038FF0021304603AA01F1E9
:104ED0000108FFF73DFC60B909B0BDE8F083006848
:104EE00010B1FBF789FB80B2854238BF05464146C9
:104EF000DCE7D0F80090B9F1000F0FD099F800303E
:104F000063B1476808212046CDE90059104B114A8A
:104F10000DF012FF27B96069FFF798FF4146D4E70B
:104F20000B4B204608210C4A0DF006FF38460EF0C8
:104F30005AF8AB1D9BB228B13A4649462046FFF7C6
:104F40008BFFEBE71A46394620460EF06BF8E5E793
:104F50002FBE0100EF850100F1770100F7B50F6862
:104F600005460E46D7B13846FBF746FB84B2114BD7
:104F7000082128460093104A3B460DF0DDFE71687B
:104F800008460EF030F8E31C9BB248B10A462846AA
:104F9000316803B0BDE8F040FFF75EBF3C46E6E78E
:104FA00031B11A46284603B0BDE8F0400EF03AB8D9
:104FB00003B0F0BD2BBE01000983010008B5836971
:104FC00008211B68024A0DF0EFF9002008BD00BF60
:104FD000F6850100F7B508210D4A05460DF0E4F904
:104FE00000230C4C0C4EB44203F1010702D3002005
:104FF00003B0F0BD626A9BB20192A26808210092E0
:105000002846064A0DF0D0F930343B46EBE700BFA6
:1050100006860100E8570100185801001E860100AD
:1050200008B502490DF0CFF9002008BD66B90100AE
:1050300030B50446002585B0A2680DF10E030121AC
:10504000E06802F5BC720EF0D9F8BDF80E00A36856
:1050500050B103F5BC73009308212B462046044A47
:105060000DF0A2F90135E7E783F8780105B030BD0E
:105070002F86010010B504460DF010FA08210346F2
:10508000024A20460DF090F9002010BDCDA5010088
:10509000022907B50DD15368012101930C4B0093F0
:1050A00013680C4A0DF080F96FF0150003B05DF83D
:1050B00004FB8368084AD3F89832082113F0020FE2
:1050C000064B08BF1346064A0DF06EF90020EDE7C7
:1050D00042860100398601008B710100B879010018
:1050E0005786010010B583680446D3F898329A06B3
:1050F00003D5074940690EF003F8A368D3F8983246
:105100009B0603D5034960690DF0FAFF002010BD2E
:10511000FB590100005A01002DE9F04F07461546E2
:10512000894689B021B110460EF0E3F800285BD122
:10513000032455E05C463CE029460AF5BC700FF0BC
:10514000EEFE0646002854D0FBF756FA82B2601CE9
:105150003146013230440FF073FE22465946304644
:105160000FF061FE4FF020033355BAF8743008F1A8
:10517000010801331C44AAF87440002401994B1C17
:10518000484603AA0193FFF7E3FA0646E8B1002276
:10519000284631680EF06FF90028EFD1D6F800B03C
:1051A000D7F808A0BBF1000FC4D05846FBF724FA8B
:1051B00084B2BAF874302344FF2BBDDD2B460321A3
:1051C00038460D4A0DF0B8FD0124B8F1000F07D0A4
:1051D000B8682A4600F1740100F5BC700DF0C9FAF8
:1051E000204609B0BDE8F08F4FF000080224414688
:1051F000C5E70224E9E700BF2D8A010008B504488D
:105200000BF0F0FE03480BF0EDFE002008BD00BFE0
:105210007F8A0100B58A010080B505460E46174613
:10522000984608F04FFC034600F062FD0446DFF8A4
:105230001890424649F8003039463046A84754F89D
:10524000090000F0ADFC00BF0800000008B50348ED
:10525000034A0021121A0EF091F808BD50110020E7
:10526000FC3C0020074808B5074A0849121A0EF00E
:1052700087F8BDE808400648064A0749121A0EF0AA
:105280007FB800BF600000204C11002008C2010060
:10529000600000206000002008C201002DE9F843F2
:1052A00005460C4600AF002948D0DFF8B890D9F881
:1052B00000305A0742D0D1E900016E468AB06A46F2
:1052C000A3684FF00508DFF8A0C0CDE90713CDE9CA
:1052D00005C042F8108F00234FF421514846FDF7D6
:1052E000C1F8D9F80030B5465B0727D0D4E90301EF
:1052F0008AB06A466369DFF874C0CDE90713CDE967
:1053000005C042F8108F002348464FF42151FDF7A5
:10531000A9F8D9F80030B54658070FD0E369012144
:105320004846134A0CF042FDD9F80030590705D021
:10533000A369012148460F4A0CF038FD012D0AD11E
:10534000EFF3058307480268520704D00A4A29464A
:10535000103B0CF02BFD2146284607F015FABD4600
:10536000BDE8F88324100020E38A0100128B0100BD
:10537000418B0100508B01007E8B010003460146EA
:10538000024A53F8200B1360FFF788BFC432002095
:1053900030BFFFF7FDBF00BF2DE9F04105460B4EC2
:1053A000DFF82C80324606EB0807CC1B2046094963
:1053B0000FF039FDA01942460021083C0FF059FDBD
:1053C000C5F8AC4007F10800BDE8F081000000001E
:1053D000080000008859010010B5334C23685807B5
:1053E00003D0324920460DF0D4FF314B9B6A99011E
:1053F00057D523685A0703D02E492B480DF0C9FF13
:105400001E202B4B9B6ADB0107D52368580703D06E
:10541000294925480DF0BDFF1F20254B9B6AD90265
:1054200007D523685A0703D024491F480DF0B1FF60
:1054300002201F4B9B6A1B0307D52368580703D024
:105440001F4919480DF0A5FF2120194B9B6A5903EC
:1054500007D523685A0703D01A4913480DF099FF5E
:105460002220134B9B6A9B0307D52368590703D05F
:1054700015490D480DF08DFF23200D4B9B6ADA0373
:1054800007D523685B0703D0104907480DF081FF5B
:105490002420074A936A6FEA03436FEA1343936237
:1054A00010BD1D20ADE700BF24100020918B01002E
:1054B00000ED00E0A98B0100BC8B0100D68B010040
:1054C000008C01001E8C0100438C01005D8C0100EA
:1054D000F8B5364C064623680D465B0703D03449C1
:1054E00020460DF056FF334B9B6ADF065CD52368E0
:1054F000580703D030492D480DF04BFF11202D4B9C
:105500009B6A190707D523685A0703D02B492748F8
:105510000DF03FFF1220274FBB6A9B0719D5236868
:10552000580703D0264921480DF033FF7B6BBA6A38
:1055300011060DD52268520704D00121214A1B48CB
:105540000CF034FC26B11B4A936A23F0800393626B
:105550001320184B9B6ADB0707D523685F0703D02E
:10556000194912480DF015FF1420124B9B6A9E0634
:1055700007D52368580703D014490C480DF009FFDC
:1055800015200C4B9A6AD10658BF9A6A9A6A9206FD
:1055900042BF5A6A22F400525A629A6A42F0FF02EB
:1055A0009A6200232B70F8BD1020A8E72410002079
:1055B000888C010000ED00E09E8C0100D18C010080
:1055C000E48C0100FC8C0100128D0100318D010082
:1055D000F8B5374C064623680D465B0703D03549BE
:1055E00020460DF0D6FE344B9B6ADF0451D523686C
:1055F000580703D031492E480DF0CBFE17202E4B13
:105600009B6A190507D523685A0703D02C492848F7
:105610000DF0BFFE1820284FBB6A9B0519D52368E3
:10562000580703D0274922480DF0B3FEBB6BBA6A76
:1056300011040DD52268520704D00121224A1C48CA
:105640000CF0B4FB26B11C4A936A23F40043936226
:105650001920194B9B6A5B0507D523685F0703D0A8
:105660001A4913480DF095FE1A20134B9A6AD60575
:1056700011D52368590703D015490D480DF089FE4F
:105680001B200D4A936A43F47F43936200232B70DF
:10569000F8BD1620B3E79B6A9A04F2D523685B072E
:1056A00003D00C4902480DF074FE1C20E9E700BF4E
:1056B00024100020608D010000ED00E0768D0100D7
:1056C000D18C0100878D0100A08D0100B58D0100F6
:1056D000D08D0100318D01002DE9F0418AB07E4B63
:1056E00004460025D3F804C000AF85F31188BFF34A
:1056F0006F8F02F07F43B3F17F4F0AD102F00C03AA
:10570000082B15D1754803685B0709D074490DF063
:1057100040FE724803685C0702D072490DF039FE02
:1057200000210846FFF7BAFD2837BD46BDE8F081E5
:1057300016074CBF0C460125002CEAD06A4A04F13A
:10574000200616600022CCF30803FA71DA1E092A3B
:1057500000F29D80DFE802F0058F928B9B9B9B9B64
:105760009B95DFF87881D8F80030590703D05F495E
:1057700040460DF00EFE0023FB71574BDA6A92078C
:1057800009D5D8F80030580703D0594953480DF0CF
:1057900000FE00233AE0DA6A002A05DAD8F8003081
:1057A0005907F6D05349F1E7DB6A5A00F1D5D8F82A
:1057B00000305B0703D0504948480DF0EAFD464BE6
:1057C000A1695A6942F480725A61BFF34F8FBFF3E7
:1057D0006F8F31F8022C596921F480715961BFF340
:1057E0004F8FBFF36F8F02F47F41B1F55F4F29D127
:1057F000D2B2022A26D1D8F80030580705D0236843
:1058000001213E4A35480CF0D1FA2368FA79002A82
:105810008AD107F1080C624620686168083403C227
:10582000B4429446F7D17A6A002D52D0C2F30801EF
:1058300021B96FEA52226FEA42227A62184607F1D2
:1058400008016FE79A6AD2B222B10120F91DFFF771
:105850003FFE0EE09A6A12F47F4F04D00120F91D3A
:10586000FFF7B6FE05E09B6AB3F5803F91D3FFF7E3
:10587000B3FD0346CAE70020F91DE8E70020F91D43
:10588000EEE716480368590783D01D497FE71348A0
:10589000026852073FF47DAF1A4AE8461CF4F87FCD
:1058A0008AB0194918BF11466A46103B07934FF456
:1058B0000073DFF858C0ADF82030154BCDE905C1B5
:1058C00042F8103F00234FF41151FCF7CBFDC546C1
:1058D0005FE76FF30802B0E700ED00E0241000205E
:1058E000168E0100418E0100C43200207D8E010021
:1058F000948E0100B58E0100C38E0100E28E01007E
:10590000FE8E0100FD8D0100E88D0100228F010057
:1059100004000001064B5A6942F010025A615A69AC
:1059200042F480625A615A6922F008025A61704753
:1059300000ED00E0EFF30880EFF3098101B5724656
:10594000FFF7CAFE01BD00BF002080F31488BFF33B
:105950006F8F002080F30A8880F30B88124880F351
:1059600008880DF07EFD002010490860BFF34F8FBE
:1059700000F032F8202080F311880D484FF0AA0182
:105980004FF400620DF0FAFC09484FF40061401832
:1059900080F30988EFF314800221084380F3148810
:1059A000BFF36F8F00F094F84022012094ED00E0E7
:1059B000B0040120002318460649D1F89020C2F314
:1059C0000722934200DB7047C1F89830C1F8A0006D
:1059D0000133F6E700ED00E010B572B6002484F361
:1059E0001388FFF7E7FF23464FF0FF300C4A03F11F
:1059F00020010133102B42F82100F8D100234FF091
:105A0000FF30074A03F160010133102B42F82100F7
:105A1000F8D162B6BFF34F8FBFF36F8F10BD00BFD9
:105A200000E100E01EF0040F0CBFEFF30880EFF37D
:105A30000980816911F8021C0229FFD001B5724664
:105A4000FFF79CFC01BD00BF0028ACBF00F1604027
:105A5000064B4FEA4111C9B2ABBF00F5614000F0FF
:105A60000F0080F800131954704700BF14ED00E0D8
:105A700000B2002807DB01234109034A00F01F00A0
:105A8000834042F82130704700E100E000B2002876
:105A90000CDB01220649430900F01F00824020333D
:105AA00041F82320BFF34F8FBFF36F8F704700BFC4
:105AB00000E100E0044B054A23F07F039360BFF34D
:105AC0004F8FBFF36F8F70470000000000ED00E0C4
:105AD00008B5FFF7EFFF074AD2F8883023F47003C8
:105AE000C2F88830FFF7B2FBFFF7BCFB00F0A2F86A
:105AF00006F094FF00ED00E042F8203C009B0B49CB
:105B000042F81C3C019B21F0010142F8183C029B29
:105B100042F8081C42F8143C4FF0807342F8043CF1
:105B20000023203A0265C0F8B030704719520000D7
:105B300000B50E4B15469860D0F8AC200C4B0E46C5
:105B40001A60D0F89C3083F30B882C4686F30988C2
:105B50000020044B98472046002100220023024CDD
:105B600020470000BB3301001952000060380020BC
:105B7000C03200201022014B1A61704700ED00E096
:105B8000054B5A699B689A421FBF044A536843F009
:105B90008053536007F038BB6038002000ED00E010
:105BA000084B9B6883420BD1EFF3058343B1064B4F
:105BB0005A6842F080525A605A6A22F400425A628D
:105BC0000EF0AEBC6038002000ED00E016498A6897
:105BD0004FF030001044EFF3098C80E8F01F2020D4
:105BE00080F31288BFF36F8F104F4FF000664A6941
:105BF0008A603E60D2F8AC000D4C2060D2F8B00054
:105C00000023C2F8B03080F3118802F1300090E830
:105C1000F01F8CF3098802F1000004B50DF0C5FBFC
:105C2000BDE80440704700006038002004ED00E04B
:105C3000C0320020002320210448C2180133B3F5EC
:105C4000987F82F80013F8D1704700BF00E100E0B0
:105C500008B5EFF30583064A103B02EBC30152F887
:105C6000330049688847BDE80840FFF789BF00BF97
:105C70001806002073B50546144B18681B79009070
:105C80008DF8043005B3124C4C22002120460FF051
:105C9000F0F82B68052123606B6868466360AB6889
:105CA000A360EB68E3602B6923616B696361AB6997
:105CB000A361EB69E361074B1B68236200F03CFCC6
:105CC0004C21204600F038FC02B070BD065A01009D
:105CD000413C0020C4320020034B9B68834206BF36
:105CE000024B1868006D704760380020C4320020F5
:105CF0000148006870470000C03200201FB5012134
:105D0000094B0A4A0A4800F01BF90023064A03938C
:105D1000084B0121019301A8D31A029300F01AF94C
:105D200005B05DF804FB00BFE0FF07200000002085
:105D30008C620100501100200A7A0B6810B562F3E2
:105D400004031C46CB68520923F01F0343EA4203B5
:105D5000044A43F00103C2F89800C2F89C40C2F81C
:105D6000A03010BD00ED00E010B50C4B0446D3F898
:105D70009030C3F30723013B98420BD908480368CE
:105D80005B0704D001212346064A0CF00FF86FF0A0
:105D9000150010BDFFF7D0FFFBE700BF00ED00E0EE
:105DA00020100020398F01002DE9F04F894614465C
:105DB00006464FF00008534D85B0C8452EDAD6F898
:105DC00004A0BAF1000F4BD0BAF11F0F1BD91AF083
:105DD0001F0F18D1D6F800B01BF01F0F13D1584673
:105DE0000DF010FB07460AEB0B0001380DF00AFB23
:105DF000874217D06FF01507434803685B070BD045
:105E0000424A3B4605E0404803685A0704D04346EF
:105E10003F4A01210BF0CAFF6FF01504204605B080
:105E2000BDE8F08F17F1160FE6D0BC42E4DDC5F8EF
:105E30009870D5F89C10C5F89870D5F8A03021F06E
:105E40001F0143F01F0BD6E900321A44994202F1B8
:105E5000FF3A1AD1D34507D13146F8B20DF0DBFA3B
:105E600008F101080C36A8E73146C5F89870D5F856
:105E70009C30E0B263F30402C5F89C200DF0CBFA2D
:105E800010F1160FC8D0441CEAE7C5F89870D5F891
:105E9000A020013B23F01F0302F01F021343D34550
:105EA0003146E0B2C5F8A030E8D00DF0B4FA10F1F8
:105EB000160FB1D0C5F89870D5F89C209DF8083021
:105EC0000BF1FF3B62F304038DF80830D5F8A030E6
:105ED0009DF808205B0863F347128DF80820D6E987
:105EE00000321344009323F01F035B44A3EB0A0327
:105EF000013023F01F036946C0B20393FFF734FF5C
:105F0000BEE700BF00ED00E020100020858F0100FB
:105F10005F8F01000522044BC3F89420BFF34F8F1D
:105F2000BFF36F8F704700BF00ED00E0BFF35F8FDE
:105F30000022024BC3F89420704700BF00ED00E040
:105F400010B5034C2278FFF72FFF207010BD00BF63
:105F50008D3C00202DE9F74F294D8A4606464FF02B
