:100000004018002065100000035D00005110000042
:10001000511000005110000051100000511000005C
:10002000000000000000000000000000351100008A
:100030005110000000000000DD120000511000000F
:100040005913000059130000591300005913000000
:1000500059130000591300005913000059130000F0
:1000600059130000591300005913000059130000E0
:1000700059130000591300005913000059130000D0
:1005000053B94AB9002908BF00281CBF4FF0FF317A
:100510004FF0FF3000F00CB8ADF1080C6DE904CEDF
:1005200000F008F8DDF804E0DDE9022304B07047CC
:10053000704700BF2DE9F0478C468E46089E154651
:1005400004461946002B40F0D080724547D9B2FAD4
:1005500082F74FB1C7F120030EFA07FCBD40BC4043
:1005600020FA03F343EA0C0C4FEA154EA8B2230C11
:10057000BCFBFEF80EFB18CC08FB00F943EA0C4369
:10058000994528D9EB1808F1FF3204D2994502D9D0
:10059000A8F102022B44A3EB0903A4B2B3FBFEFCB7
:1005A0000EFB1C330CFB00F044EA0344A04214D9B8
:1005B0002C190CF1FF3304D2A04202D9ACF1020392
:1005C0002C44241A43EA02401EB1FC40002334604C
:1005D0007360BDE8F0874246DDE76346F1E7002A35
:1005E00079D0B2FA82F3002B3FD01946C1F1200333
:1005F00002FA01F500FA01F42EFA03F20EFA01FEF6
:1006000020FA03F3AFB243EA0E034FEA154EB2FBF2
:10061000FEFC0EFB1C201A0C0CFB07F842EA004201
:1006200090455AD9AA180CF1FF3004D2904502D94E
:10063000ACF102002A44A2EB08029BB2B2FBFEFC22
:100640000EFB1C220CFB07F743EA02439F4246D9EC
:10065000EB180CF1FF3204D29F4202D9ACF1020236
:100660002B44DB1B42EA004202E0AEEB0203012214
:100670004FEA154EAFB2200CB3FBFEFC0EFB1C3351
:100680000CFB07F840EA034398452AD9EB180CF114
:10069000FF3004D2984502D9ACF102002B44A3EB01
:1006A0000803A4B2B3FBFEFC0EFB1C330CFB07F7E4
:1006B00044EA0344A74216D92C190CF1FF3304D2A3
:1006C000A74202D9ACF102032C44E41B43EA0040E8
:1006D0000F46114678E71F2188E76046ABE7624680
:1006E000BFE76046DBE76346EFE7734506D916B917
:1006F000002108466DE7C6E9000EF9E7B3FA83F773
:1007000087B9734501D3824207D8841A6EEB03037D
:1007100001209C461EB900215BE73846FAE7C6E98E
:10072000004CF8E7C7F1200CBB4000FA07F422FAAE
:100730000CF520FA0CF1BA401D432EFA0CF30EFA18
:1007400007FE4FEA154941EA0E011FFA85FEB3FB89
:10075000F9F809FB18300B0C08FB0EFA43EA0043CA
:100760009A4540D9EB1808F1FF3004D29A4502D9D6
:10077000A8F102002B44A3EB0A0389B2B3FBF9F8FA
:1007800009FB183308FB0EFE41EA03418E452CD9C4
:10079000691808F1FF3304D28E4502D9A8F102038B
:1007A000294443EA0040A1EB0E01A0FB0298414519
:1007B000CE46434602D306D14C4504D20138B9EBAC
:1007C000020E68EB0503002EA5D0B4EB0E0261EB20
:1007D000030101FA0CFC22FA07F3F9404CEA030387
:1007E000C6E9003197E74046C5E74346D9E7000030
:1007F00010B5114805F0A3FF60B1104805F00EF9DF
:10080000002400210C4800F03FF9014620B10C48BB
:1008100005F004F9002010BD00210A4806F056F842
:100820000121054800F030F90028F3D101342146B8
:10083000054805F0F3F8E4E76C710000247E000041
:10084000447E0000B4C40400637E0000014B1B68BA
:10085000184700BF20010020014B1860704700BFFF
:100860002001002030B5044685B00D46102200213D
:10087000684606F04CFB02238DF80230044B2A46F2
:1008800021466846019304F09FFD05B030BD00BFCE
:100890004D0800002DE9F047058B04462807174650
:1008A0000CD501290CBF45F0100545F02005258326
:1008B00087F31188BFF36F8FBDE8F087022905F039
:1008C000070540F09480204605F0D0F8052864D84C
:1008D00001A353F820F000BFB1080000EF090000A9
:1008E0009B0900005D0900007709000089090000EC
:1008F00001F007035A1F012A1FD8002221F0070127
:10090000062BD4F8008089B2C4E9002209D14346FD
:1009100003E0628B013262831B68002BF9D141F046
:1009200002012046218305F0A1F84FF000090028BC
:100930006DD041F02001218369E0042B0AD121F020
:10094000070189B22046218305F090F810B141F0EB
:10095000200121834FF00008C14658E02369D3F8F5
:100960000090238B23F0070343F006034FF00008A9
:10097000238346464BE02369D3F80490238B23F06E
:10098000070343F00403F1E72369D3F80890238BAE
:1009900023F0070343F00503E8E74FF00008C146E2
:1009A000E7E7012243F00803238387F31188BFF3AD
:1009B0006F8F002A3BD1B8F1000F4AD1B9F1000F77
:1009C00002D020462C49C847EFF31187202383F338
:1009D0001288BFF36F8F238B23F008039BB223830E
:1009E000D9063FD523F01002228303F0070566697C
:1009F000218B002EBFF67CAF00239946D4F80080EF
:100A000021F00701C4E9003341F001012183238B68
:100A100003F0070AAA4502D0A268002AC1D1B8F1A2
:100A2000000F02D1B9F1000FDAD00022BAE7A168B5
:100A30000029C0D00D680029BDD03346524620465B
:100A40004F68B8471DB12B6829461D46F3E72B4672
:100A5000FAE74146334652462046D8F8008005F072
:100A600031F8A8E79A067FF523AF23F0200222830E
:100A700003F0070527E700BFF15A0000014B0360B0
:100A800000207047D87B000070B5C4690D469CB348
:100A90001E4A2379565CB34231D01D4A525C9A42B9
:100AA00030D1A3689847002810DA022D0CD0032D0E
:100AB0000BD110F1860F07D0D4E8EF3F43F00203CB
:100AC000C4E8E23F002AF6E7267170BD022D2671C8
:100AD00001D00020F9E7D4E8EF3F23F00403C4E895
:100AE000E23F002AF7D1D4E8EF3F23F00203C4E845
:100AF000E23F002AEDD0F6E76FF05700E5E76FF030
:100B00007700E2E76FF08500DFE700BFCD830000EC
:100B1000C983000008B5044804F080FF034804F0CE
:100B20007DFF002008BD00BF787E0000AE7E000083
:100B300080B505460E461746984603F0C9FA0346A7
:100B400000F01CFC0446DFF81890424649F80030DB
:100B500039463046A84754F8090000F0A9FB00BF09
:100B60000800000008B50348034A0021121A05F0E6
:100B7000C0F808BD00040020000B0020074808B59D
:100B8000074A0849121A05F0B6F8BDE808400648B9
:100B9000064A0749121A05F0AEB800BF60000020EF
:100BA00000040020F08300006000002060000020AE
:100BB000F083000038B505460C4699B1D1E9012310
:100BC0000F48096804F02AFFD4E90423E1680D48BE
:100BD00004F024FFE1690C4804F020FFA1690B48F0
:100BE00004F01CFF012D05D1EFF3058108481039F1
:100BF00004F014FF21462846BDE8384002F0C0BC8E
:100C0000DC7E00000C7F00003C7F00004C7F000079
:100C10007B7F000030BFFFF7FDBF00BF2DE9F04133
:100C200005460B4EDFF82C80324606EB0807CC1B3E
:100C30002046094906F05EF9A01942460021083C09
:100C400006F065F9AC6707F10800BDE8F08100BF68
:100C500000000000040000009C7B000010B5204C48
:100C6000204804F0DBFEA36A990137D51E4804F042
:100C7000D5FE1E20A36ADA0103D51C4804F0CEFE7F
:100C80001F20174CA36ADB0203D5194804F0C6FEE7
:100C90000220A36A1C0303D5164804F0BFFE2120DE
:100CA0000F4CA36A590303D5134804F0B7FE222062
:100CB000A36A9A0303D5114804F0B0FE2320084C20
:100CC000A36ADB0303D50E4804F0A8FE2420A36A20
:100CD0006FEA03436FEA1343A36210BD1D20C9E707
:100CE00000ED00E08F7F0000A87F0000BC7F0000C7
:100CF000D77F0000028000002180000047800000B4
:100D00006280000070B5244C064624480D4604F06D
:100D100085FEA36AD90435D5214804F07FFE17204B
:100D2000A36A1A0503D51F4804F078FE18201A4C50
:100D3000A36A9B050FD51C4804F070FEA16BA36A43
:100D4000180407D5194804F069FE1EB1A36A23F4FC
:100D50000043A3621920104CA36A590503D5144817
:100D600004F05CFE1A20A36ADA050DD5114804F0E0
:100D700055FE1B20084A936A43F47F439362002385
:100D80002B7070BD1620CBE7A36A9B04F2D50A48EE
:100D900004F044FE1C20EDE700ED00E08E80000032
:100DA000A5800000B7800000CB800000E580000037
:100DB000FB800000178100003081000070B5264CD8
:100DC000064626480D4604F029FEA36AD80640D5FB
:100DD000234804F023FE1120A36A190703D52148F4
:100DE00004F01CFE12201C4CA36A9A070FD51E4863
:100DF00004F014FE616BA36A1B0607D51B4804F0C0
:100E00000DFE1EB1A36A23F08003A3621320124CCF
:100E1000A36ADE0703D5164804F000FE1420A36A77
:100E20009C0603D5134804F0F9FD15200A4B9A6A75
:100E3000D10658BF9A6A9A6A920642BF5A6A22F449
:100E400000525A629A6A42F0FF029A6200232B70A3
:100E500070BD1020C0E700BF00ED00E06081000021
:100E600077810000B7800000AB810000C4810000E2
:100E7000DB81000030810000F0B5614B044658680A
:100E800000258BB0C0F3080385F31188BFF36F8F83
:100E900002F07F46B6F17F4F06D102F00C06082E15
:100EA0000CD1584804F0BAFD574804F0B7FD0021B2
:100EB00008460BB0BDE8F040FFF77CBE16074CBFFC
:100EC0000C460125002CEFD00026DA1E8DF80760B5
:100ED000092A00F28580DFE802F005797D758383B9
:100EE00083838381494804F099FD8DF80760444E5F
:100EF000F36A9A0704D5464804F090FD00232AE0DF
:100F0000F36A002B01DA4348F6E7F36A5B00F5D594
:100F1000414804F083FD7369A26943F480737361EF
:100F2000BFF34F8FBFF36F8F32F8023C726922F428
:100F300080727261BFF34F8FBFF36F8F03F47F42F4
:100F4000B2F55F4F26D1DBB2022B23D121683348A3
:100F500004F064FD23689DF80720CAB902AE04F1CD
:100F60002007324620686168083403C2BC42164636
:100F7000F7D1099A002D3FD0C2F3080121B96FEAD9
:100F800052226FEA42220992184602A9FFF712FE86
:100F90000BB0F0BD1A4B9A6AD2B22AB101200DF102
:100FA0000701FFF70BFF0FE09A6A12F47F4F05D09D
:100FB00001200DF10701FFF7A5FE05E09B6AB3F5DF
:100FC000803F9BD3FFF74AFE0346C4E700200DF1A4
:100FD0000701E6E700200DF10701ECE710488BE779
:100FE000A3F110020F4B10F4F87F0F490F4808BF10
:100FF000194604F013FD81E76FF30802C3E700BF51
:1010000000ED00E02982000055820000928200007D
:10101000AA820000CC820000DB820000FB8200007C
:1010200018830000FB810000108200003D83000057
:10103000064B5A6942F010025A615A6942F48062C2
:101040005A615A6922F008025A61704700ED00E0C7
:10105000EFF30880EFF3098101B57246FFF70CFF4B
:1010600001BD00BF002080F31488BFF36F8F002004
:1010700080F30A8880F30B880F4880F3088804F017
:101080009EFE00200D490860BFF34F8F00F02CF842
:10109000202080F311880A484FF40061401880F343
:1010A0000988EFF314800221084380F31488BFF30A
:1010B0006F8F00F097F800004018002094ED00E0DA
:1010C000000B0020002318460649D1F89020C2F3F7
:1010D0000722934200DB7047C1F89830C1F8A000A6
:1010E0000133F6E700ED00E010B572B6002484F39A
:1010F0001388FFF7E7FF23464FF0FF300C4A03F158
:1011000020010133102B42F82100F8D100234FF0C9
:10111000FF30074A03F160010133102B42F8210030
:10112000F8D162B6BFF34F8FBFF36F8F10BD00BF12
:1011300000E100E01EF0040F0CBFEFF30880EFF3B6
:101140000980816911F8021C0229FFD001B572469D
:1011500004F0D3FD01BD00BF00B2002807DB01236E
:101160004109034A00F01F00834042F821307047D4
:1011700000E100E000B200280CDB0122064943092F
:1011800000F01F008240203341F82320BFF34F8F2F
:10119000BFF36F8F704700BF00E100E000B200288E
:1011A00001F10101ACBF00F16040064B4FEA411173
:1011B000C9B2ABBF00F5614000F00F0080F800132A
:1011C0001954704714ED00E0044B054A23F07F03E7
:1011D0009360BFF34F8FBFF36F8F70470000000025
:1011E00000ED00E008B5FFF7EFFF074AD2F88830BE
:1011F00023F47003C2F88830FFF7B4FCFFF7BEFC9D
:1012000000F09CF802F08AFA00ED00E042F8203C81
:10121000009B0B4942F81C3C019B21F0010142F864
:10122000183C029B42F8081C42F8143C4FF08073B3
:1012300042F8043C0023203A0265C367704700BFB0
:10124000310B000000B50D4B15469860826F0C4BBA
:101250000E461A60836E83F30B882C4686F309884A
:101260000020044B98472046002100220023024C16
:1012700020470000275D0000310B000048070020D8
:10128000200600201022014B1A61704700ED00E09B
:10129000054B5A699B689A421FBF044A536843F042
:1012A00080535360704700BF4807002000ED00E006
:1012B000084B9B6883420BD1EFF3058343B1064B88
:1012C0005A6842F080525A605A6A22F400425A62C6
:1012D00005F064BA4807002000ED00E014498A6870
:1012E0004FF030001044EFF3098C80E8F01F20200D
:1012F00080F31288BFF36F8F0E4F4FF000664A697C
:101300008A603E60906F0C4C2060D06F0023D367E2
:1013100080F3118802F1300090E8F01F8CF3098807
:1013200002F1000004B504F0F7FCBDE8044070478A
:101330004807002004ED00E02006002000232021C3
:101340000448C2180133B3F5987F82F80013F8D12E
:10135000704700BF00E100E008B5EFF30583064ADF
:10136000103B02EBC30152F8330049688847BDE8DF
:101370000840FFF78DBF00BF8C7100000148006876
:1013800070470000200600201FB50121094B0A4AC2
:101390000A4800F0F7F80023064A0393084B01219E
:1013A000019301A8D31A029300F0F6F805B05DF896
:1013B00004FB00BFE0DF0F2000000020D87B00000E
:1013C000000400200A7A0B6810B562F304031C467F
:1013D000CB68520923F01F0343EA4203044A43F057
:1013E0000103C2F89800C2F89C40C2F8A03010BDBA
:1013F00000ED00E010B5074BD3F89030C3F307239E
:10140000013B984202D8FFF7DDFF10BD6FF01500D9
:10141000FBE700BF00ED00E02DE9F04F0F4614465A
:1014200006464FF000084B4D85B0B84580F28E80DF
:10143000D6F80490B9F1000F35D0B9F11F0F40F282
:10144000838019F01F0F7FD1D6F800A01AF01F0F6C
:101450007AD1504604F08AFC834609EB0A00013831
:1014600004F084FC83456FD11BF1160F6CD05C45F2
:101470006ADDC5F898B0D5F89C10C5F898B0D5F8D5
:10148000A03021F01F0143F01F0AD6E900321A44B0
:10149000994202F1FF391BD1CA4508D131465FFAA2
:1014A0008BF004F06CFC08F101080C36BDE7314606
:1014B000C5F898B0D5F89C30E0B263F30402C5F8E3
:1014C0009C2004F05CFC10F1160F3DD0441CEAE7B0
:1014D000C5F898B0D5F8A020013B23F01F0302F017
:1014E0001F021343CA453146E0B2C5F8A030E8D028
:1014F00004F045FC10F1160F26D0C5F898B0D5F8C9
:101500009C209DF808300AF1FF3A62F304038DF83D
:101510000830D5F8A0309DF808205B0863F3471227
:101520008DF80820D6E900321344009323F01F03FE
:101530005344A3EB0903013023F01F036946C0B2F3
:101540000393FFF757FFBEE76FF01504204605B081
:10155000BDE8F08F00ED00E00522044BC3F89420B5
:10156000BFF34F8FBFF36F8F704700BF00ED00E0F8
:10157000BFF35F8F0022024BC3F89420704700BF77
:1015800000ED00E010B5034C2278FFF745FF207016
:1015900010BD00BFF80A00202DE9F74F294D8A46FB
:1015A00006464FF00008AB46274FD0451BDAD6F869
:1015B0000490B9F1000F3FD031680846019104F062
:1015C000D5FB0199044609EB0100013804F0CEFB7C
:1015D00084424FF014021D4B08D002FB08F36FF059
:1015E00015024BF8032003B0BDE8F08F14F1160F7D
:1015F0002C60F8D01978A142F5DD02FB08B0C7F8DD
:101600009840C7F89840D7F89C4000F10801007B4B
:1016100064F304000871D7F8A0000C79400860F367
:1016200047140C71D7F89C1021F01F016960D7F89E
:10163000A01021F01F01296108F1010814350C36B2
:10164000B3E700BF2406002000ED00E0F80A002008
:10165000F0B55349534DD1F890302C68C3F30723AC
:101660009C4287B000F299800020FFF781FF4E4B2B
:10167000C1F8C030844216D14C4D01A82C70FFF740
:10168000FDF9002607464A4CB74213D100202B78BB
:101690004349D1F89020C2F30722934277DBFFF74A
:1016A0005BFF002046E0696801EB0011FFF78AFE4E
:1016B0000130DFE70199300101EB0613DA682240BF
:1016C000B2F1807F52D00AD8B2F5001F34D0B2F503
:1016D000800F3ED0B2F5801F12D00136D4E7B2F1B0
:1016E000006F43D0B2F1805FF7D15A689B68095808
:1016F000013B22F01F00034423F01F03012032E0CE
:101700005A689B680958013B22F01F0003440120DE
:10171000844623F01F0340EA4C10CDE902218DF8E6
:10172000100002A928780593FFF764FE00282ADA42
:101730006FF0150007B0F0BD5A689B680958013B6F
:1017400022F01F0003444FF0020C012023F01F037E
:10175000E1E75A689B680958013B22F01F000344E7
:10176000062023F01F034FF0000CD4E75A689B6853
:101770000958013B22F01F0003444FF0030C0120E5
:1017800023F01F03C7E72B7801332B70A5E7C1F8BF
:101790009830C1F8A00001337BE74FF0FF30C9E774
:1017A00000ED00E0E47B0000AAFF4400F80A0020FE
:1017B0000000F0FF08B5024B1B689847002008BDE9
:1017C00038060020034B044A1860937843F0020364
:1017D00093707047380600202401002008B50549A1
:1017E000054A21F007010548521A04F0C1F800200B
:1017F00008BD00BF47180020E0DF0F203C06002096
:1018000038B5002000F0CEFF434B444A07201A6051
:10181000434B1F21D3F88025002522F01002C3F886
:101820008025D3F880253F4C42F48072C3F8802590
:101830004FF00052A3F53F23C3F804284FF4407241
:10184000C3F80848C3F81008C3F81418C3F80028F0
:10185000C3F824584FF08075C3F82858324DC3F8A8
:101860003008C3F83418C3F8202803F50053C3F830
:101870000458C3F80848C3F81008C3F81418C3F88C
:10188000002803F5FA23D3F83C2D22F01002C3F808
:101890003C2DD3F8382D22F01002C3F8382DD3F8A0
:1018A000902D22F01002C3F8902DD3F8942D22F041
:1018B0001002C3F8942DD3F87C2D22F01002C3F847
:1018C0007C2D1A4AD2F8343543F01003C2F834356F
:1018D00000F046F800F068F80446D8B9144AD2F887
:1018E000803743F00303C2F880372023A2F5A042DB
:1018F0009360D2F894100F4B0B4043F00303C2F8EF
:10190000943017220C4B586303F59323C3F88424B7
:1019100000F080F8204638BD1C0300200040420F34
:101920000000105000E00F2000000C2000000850C4
:1019300000F01050F0F0FCFF00880D5048B1054B4E
:10194000054A1B68B3FBF2F35843044B43F0010311
:10195000184770471C03002040420F00C07B000066
:101960000E4B0F49D3F87028C3F87018EF39C3F83D
:101970007018BFF34F8FBFF36F8FD3F800359907FF
:101980000AD5D30708D4BFF34F8FBFF36F8F01225F
:10199000044BC3F82025FEE7704700BF00F00E504F
:1019A000F000FA500020055038B5184AD2F800343B
:1019B000002BFBD00120002101F0B2FD0020144AD1
:1019C000124C1388516803F57F1303F580531D688B
:1019D0008D4210D101300B2802F10802F1D1002410
:1019E0000A4AD2F80034002BFBD00021084601F04F
:1019F00097FD204638BD1960D4F80054002DFBD067
:101A00001B689942E6D06FF00404E9E700E0045057
:101A10000C7C00000122024BC3F80424704700BF75
:101A2000002008E010B519494468006904F06DF819
:101A3000002829DB2368E2890020C3F86024012202
:101A40002368C3F88024237AA17A03F0030343EACE
:101A5000C113E17A226843EA0123617A890001F027
:101A60007C010B43217B490201F4C0610B43C2F8A6
:101A700010342368227CC3F86C2402222368C3F844
:101A800080042368C3F8702410BD00BF787C000078
:101A900038B5044C044DAC4200D338BD54F8043B77
:101AA0009847F8E7908700009C87000008B5084B2E
:101AB0001A785AB901214FF487701970FFF76EFB3D
:101AC000BDE808404FF48770FFF746BB08BD00BF74
:101AD000F90A00201FB5002201236C46CDE902233C
:101AE000074980236A46CDE9004404F00DFA28B97D
:101AF00043F609520023684601F07AFF04B010BD96
:101B0000DF5E000070B50A4605460C4640230649D4
:101B100050F8040C04F0F8F9014620B12846234699
:101B2000BDE87040184770BD9B5E00004FF48042D6
:101B3000014BC3F8A021704700E100E010B5044656
:101B400003691860FFF7B2FF20690549043003F00C
:101B5000DCFF0028A1BF0122236900209A6210BD8A
:101B6000847C000010B50446054800F03FFE20B913
:101B70002046BDE81040FFF7E1BF6FF0040010BD44
:101B8000851B0000022802D1014804F018BA7047F2
:101B90008C7000002DE9F041012207463349D1E85D
:101BA000EF3FC1E8E02F0028F9D133B9304931487F
:101BB0004B60CB608A6003F0BBFF7B1E012B49D8D2
:101BC000012F06D12C4BD3F8503403F00303012B23
:101BD00040D004F0DDFD054658B1EFF31186202317
:101BE00083F31288BFF36F8F01254FF00108224C59
:101BF0001FE0224B1B78002BEFD004221E4B064621
:101C0000C3F80823F1E73DB3304604F0A0F8D4F858
:101C1000403413F0FF030CD1D4F808214AB1C4F8C2
:101C20000831D4F80831C4F84084FFF77FFFC4F8C6
:101C30001080D4F84C24D4F84C34D203E3D503F00C
:101C40000303012B01D0012FDDD155B186F311889B
:101C5000BFF36F8FBDE8F0810021202004F036FE35
:101C6000D5E70422044BC3F80423F3E75806002009
:101C7000480600206006002000E01050FD0A002009
:101C800010B5EFF31184202383F31288BFF36F8F15
:101C9000064A136823F00201DB07116001D404F047
:101CA000F0FA84F31188BFF36F8F10BDB4060020E3
:101CB00010B50446054800F02FFE20B92046BDE8C7
:101CC0001040FFF73BBF6FF0040010BDD11C0000B7
:101CD00030B9044B9B6A5B0702D1034804F06FB92B
:101CE000704700BF88060020AC70000010B5EFF30D
:101CF0001184202383F31288BFF36F8F0F4A136878
:101D000043F0020113F00103116009D00C4BD3F82A
:101D10000C3413F4803303D00A4804F0E3F80123B1
:101D200084F31188BFF36F8F23B1BDE810400648DC
:101D300004F045B9BDE8104000F0FCBDB406002039
:101D400000E01050B0060020AC70000010B5044652
:101D5000054800F043FE20B92046BDE81040FFF7DB
:101D6000EDBE6FF0040010BD6D1D0000014804F0D1
:101D700026B900BFCC70000008B5002306494B60AF
:101D8000CB6001238B60054B1869043003F0D0FE53
:101D9000BDE8084000F030BEE4060020AC70000052
:101DA000084B10B51C6908490434204603F02FFF86
:101DB000783002D1204603F006FFBDE8104004F061
:101DC00062BA00BFAC700000E406002008B5074806
:101DD00004F0B5FC38B10648FFF7F4FC0448FEF700
:101DE0003BFD002008BD6FF01200FBE76C710000A6
:101DF000F51D00000A2838B50446074D04D1AB682C
:101E00000D2128465B689847AB6803485B68E1B2E0
:101E10009847204638BD00BF6C7100002DE9F043A3
:101E200040F206354768D00648BF4FF0030C3B7CB4
:101E300002EA050558BFC2F3401C87B001F01F0637
:101E4000B5F5837F144646EA43168DF803C045D0A6
:101E50000DD8062D44D005D8A5B1022D12D06FF0B3
:101E6000150038E0B5F5807FF9D101250AE040F290
:101E70000222954236D0B5F5407F35D0B5F5007FCA
:101E8000EDD10425220331D501237A688B405360BC
:101E9000B86890BB9F2E06F01F034FEA561175D805
:101EA0003C4A52F82120C4F3004102EB8302D2F8ED
:101EB000803081F00101C4F3404423F4706344EAAC
:101EC000410423F00F031C4344EA8C0444EA052434
:101ED000C2F88040002007B0BDE8F0830925D1E7B3
:101EE0000825CFE70625CDE70525CBE7630341BFEE
:101EF00001237A688B409360CAE731460DF10202F4
:101F000004F083FB14F4403F80460CD13146B8689E
:101F100004F094FBB8F1000FDCD19DF80210B86812
:101F200000F0D6FED6E74FF0000901ABCDE90199EC
:101F3000CDE90439CDF80C903146B86803AA04F015
:101F4000ADFA4845C6DB14F4003314D09DF80330D5
:101F5000C4F3004484F001048DF80E308DF80C5069
:101F60008DF80D404B463146B86803AA00F002FEDA
:101F70000028CFDAAEE7CDE904330DF10303039374
:101F80003146B86803AA04F089FAF1E7203350F823
:101F90002330FFDEB87C000070B545680646AB7C98
:101FA000DA0707D56968C3F341030A6B22F003021D
:101FB00013430B63A868C0B104F03AFB0146A0B913
:101FC000A86800F04DFE0446A8B902460B49A8686F
:101FD00004F018FB22460121DB20FFF7DFF8224640
:101FE000012140F20D10FFF7D9F83046BDE87040EE
:101FF000034903F05BBE6FF0040070BD05200000D4
:10200000896000007F2870B54FEA50110CD80D4A46
:1020100052F8216046B13269516829B1012500F0BA
:102020001F030C689D4001B970BD8A682A4002D028
:1020300030464B6898471CB1236821461C46F2E79E
:102040002346FAE7A87C0000F0B544681646A0686D
:10205000227C01F01F0587B045EA421500286CD0AC
:10206000B6F5001F04D1294604F03AFB002055E0E4
:102070006268607CB6F5800F50624FF0000001AAE4
:102080000190506039D1B3F1007F14BF05230423C0
:102090008DF804300023CDE904230393E3680DF1A8
:1020A000030723FA01F111F0010139D1B6F1A07F44
:1020B00036D105F01F039F2D4FEA551003F1200381
:1020C0003ED8214A52F8202052F82330DB0727D48B
:1020D0003A462946A06804F098FA163018D00297BC
:1020E0002946A06803AA04F0D9F9002816DB0122CA
:1020F0002946A06804F0A4FAB8E7B3F1C06F05D090
:10210000B3F1007F14BF01230223C1E70323BFE71C
:102110003946A06800F0E6FD0028E0DA07B0F0BD1F
:102120003A462946A06804F070FA0028D8D19DF8F4
:102130000310A06800F0CCFDD2E76FF08500EDE75A
:1021400051F82330FFDE00BFB87C0000036803F0C5
:102150001F029F2B02604FEA53129ABF024B53F8A3
:1021600022000020704700BF1C7D00002DE9F74FC2
:10217000154606464FF0010800EB8101B14203D13C
:10218000002003B0BDE8F08F3268C2F3C323082BF0
:10219000C2F3080400F2A0805148C75C40F2FF136C
:1021A0009C4208BF4FF0FF34B2F1D05F4FEA126398
:1021B00010D2192B12D8DFE803F014233734282F5C
:1021C00034111111111111111111111111111111DC
:1021D0003A717477382B6AD04E2B25D06FF085007A
:1021E000CFE7C5F80446621C56D001A80194FFF75A
:1021F000ADFF019B4FF0010908FA03F3436029E0AA
:10220000C5F80C464FF0000A62E04FF00009C5F82F
:102210000046601C16D13FE04FF00109C5F80446A6
:10222000F7E7C5F80846EDE7C5F81046DBE7C5F85F
:1022300060457388621C03F001032DD0002BD4D1BC
:102240004FF0010901A80194FFF780FF019B08FAF4
:1022500003F383604FF0010AD6F800B001A81BF425
:10226000004F1CBF4FF001094FF0000A0194FFF727
:102270006DFF019B1B4C00EB8300D0F88020CBF35B
:10228000412B3B0243EA8B0343EA0A0314402343F6
:1022900043EA4903C0F8803004366FE7C5F8644567
:1022A000C7E7C5F86845C4E7C5F86C45C1E701A8AC
:1022B0000194FFF74BFF4FF0010A019B00EB8300F5
:1022C000D0F8803023F0E04343F08043C0F8803002
:1022D000631CE1D0D146BFE76FF0150051E700BFA6
:1022E000D1830000F0F0FCFF38B505460022012143
:1022F000C620FEF753FFC620FEF72EFF6C680121B3
:10230000E06803F0F6FE6B6819686369C1F824356C
:10231000E28BA38BA07E1343228C1343628C134366
:10232000627E9BB20243207E02431343C1F86C35A8
:1023300069680B68D3F8002242F48022C3F80022B7
:102340000822C3F800254A6A0121C3F83C2700226D
:10235000C3F840271965D3F830110029FBD0C3F822
:1023600000252846BDE83840014903F09FBC00BF66
:10237000116100002DE9F34104460D46476804F061
:1023800007FA88B12022EFF311831E4682F31288E8
:10239000BFF36F8F61680968D1F83011D1B983F349
:1023A0001188BFF36F8FEEE7224B1B78002BE9D02B
:1023B0004FF02008642663681B68D3F830313BBBBC
:1023C000012003F00DFF013EF5D10021202004F093
:1023D0007DFAEFE77B6A20461D7063680DF1070107
:1023E0007F6A1D6803F04DFC9DF807204AB9012360
:1023F000C5F83C77C5F84037C5F83021D5F830210D
:102400002B6586F31188BFF36F8F02B0BDE8F081B2
:10241000EFF311831E4688F31288BFF36F8F626853
:102420001268D2F83021002AD4D183F31188BFF387
:102430006F8FCAE7FD0A002070B40F4CD4E9001575
:10244000501A63EB0506400940EAC6602026E0FB0F
:102450000615C4E90015002400250849C1E9002338
:10246000074BC3E90045EFF3118186F31288BFF3F0
:102470006F8F70BC01F0AEBF200400200804002064
:102480001804002008B500220121E420FEF786FE92
:10249000174A0020D2F8183723F44033C2F818370F
:1024A00000F06CFD002821DB0120124900F0F6FD50
:1024B00000281BDB00F03AFD0F4B20F01F00C3E9A2
:1024C00000010E4B0022C3E900014FF0FF304FF036
:1024D000FF310B4BC3E900010A4B0B49187A00F09E
:1024E00037FD43F267020020084B1A6008BD00BFA9
:1024F00000200E50180300202004002000040020BB
:102500000804002010030020392400002C070020BC
:1025100008B500F00BFD064AD2E90032C01A054B9F
:1025200061EB0201C3E90001400940EAC16008BD56
:102530002004002018040020F7B5224B0146224F4A
:10254000187A224BD7E90056D3E900239E4208BFF0
:10255000954211D1B1F1806F0ED24901012938BFE6
:10256000012101224D1946F10006C7E9005603B0CA
:10257000BDE8F04000F018BE154BDFF858C0D3E9B5
:102580000043DCE9002CA41843EB0C0C4FF0200EA8
:1025900022466346E1FB0E23954276EB0301C7E931
:1025A00000230DD2291B66EB0C04C82974F100042A
:1025B000B4BF01210021009100F0C0FD03B0F0BDC7
:1025C0000021F8E710030020100400200804002078
:1025D000200400201804002003689A070CD5036823
:1025E000DB070DD50922074BC3F80C250F22C3F8D2
:1025F000042501221A60FEE7034B0360EF3B0360F2
:10260000704700BF00801050F000FA50002108B55C
:10261000484B4948C3F80018A3F55723D3F80034B2
:10262000FFF7DAFF0830FFF7D7FF0830FFF7D4FFD6
:102630000830FFF7D1FF00F5F470FFF7CDFF3F4AF8
:10264000D2F88C3043F44063C2F88C300A46D30091
:1026500003F57F0303F54043D3F8001401310AD09A
:10266000D3F8001439B1D3F800140132D3F804348C
:10267000802A0B60EBD1324BD3E9D0122C2905D143
:1026800032B903212F4AC2F8481401E04229F7D099
:10269000D3F840332C2B01D0422B08D12A4BD3F84E
:1026A0000026D10744BF6FF00102C3F80026234A79
:1026B000D2F88C3043F44063C2F88C30234BD3F80B
:1026C0003025920603D5D3F83025D006F7D4204B19
:1026D000D3F8042802F00F02012AF9D00322C3F82C
:1026E00040240022C3F840241A4BC3F8A0251A4AFC
:1026F000D2F80034012BFBD0184B1949D3F87028BD
:10270000C3F87018EF39C3F87018BFF34F8FBFF3D9
:102710006F8FD3F8003599070AD5D30708D4BFF3D4
:102720004F8FBFF36F8F01220E4BC3F82025FEE7BA
:1027300008BD00BF0000125000F50E5000ED00E093
:1027400000C0FF000060125000E010500000045074
:1027500000C00440001011500090045000F00E50D2
:10276000F000FA50002005500D4B0001034452B117
:10277000D3F808250A43C3F80825D3F80C251143DC
:10278000C3F80C157047D3F8082522EA0102C3F8F4
:102790000825D3F80C2522EA0102C3F80C2570475E
:1027A00000F00C5002464FF47E214FF00050014BD8
:1027B00003F04BBD6927000038B504230A4C42F2F0
:1027C0001075C4F80833012363610023C4F808318D
:1027D000D4F80831D4F84C34DB0304D5012003F0DD
:1027E000FFFC013DF6D138BD00E01050064A1379D8
:1027F0003BB9012110601171044A1846C2F84034F7
:1028000070476FF0770070473007002000E01050ED
:1028100010B51D4B1D4CD3F84C14D3F84C2411F4B7
:10282000803F19D002F00302012A01D08AB90022A8
:10283000154BC3F840240022C3F80821D3F808211F
:1028400001221A6122688AB9D3F80821002AFBD034
:1028500014E0FFF7B1FFEAE7D3F84824D107E6D543
:10286000D3F850249207F4D422681AB10422C3F892
:10287000042310BDD3F80821002AFBD00022C3F89E
:102880000821D3F80831F4E700E0105030070020A9
:1028900038B5124C124DD4F80C3303F0040303B9CD
:1028A00038BD00230422C4F80831D4F80831C4F834
:1028B0000823D4F84C34D4F84C349B070AD10123B4
:1028C000C4F84034C4F804232361D4F80C3303F073
:1028D0000403E4E702202B689847F6E700E0105075
:1028E0003007002038B501230A4C42F21075C4F8B5
:1028F000083363600023C4F80031D4F80031D4F801
:102900000C34DB0304D5012003F06AFC013DF6D151
:1029100038BD00BF00E01050054B0246187918B9C9
:102920001A6001221A7170476FF07700704700BF7C
:102930003807002000220B4B0B49C3F80021D3F8C5
:10294000002101221A60096811B1C3F804237047FD
:10295000D3F80021002AFBD00022C3F80021D3F8CD
:102960000031704700E010503807002070B5002596
:102970000B4C0C4ED4F80C3303F0010303B970BDBB
:10298000C4F80051D4F800310123C4F80833336887
:1029900000209847D4F80C3303F00103EEE700BFA2
:1029A00000E010503807002038B580230A4C42F26E
:1029B0001075C4F808330123A3620023C4F81C3146
:1029C000D4F81C31D4F86C34DB0304D5012003F0B7
:1029D00007FC013DF6D138BD00E01050054B024622
:1029E000187918B91A6001221A7170476FF07700D0
:1029F000704700BF4007002000220C4BC3F81C2189
:102A0000D3F81C2101225A62094A12681AB18022A5
:102A1000C3F804237047D3F81C21002AFBD00022FE
:102A2000C3F81C21D3F81C31704700BF00E01050E0
:102A300040070020094BD3F8042312060DD5D3F824
:102A40001C2152B10022C3F81C21D3F81C21802282
:102A5000C3F80823024B1B681847704700E010506A
:102A600040070020036803F01F029F2B02604FEA1B
:102A700053129ABF024B53F822000020704700BF48
:102A8000987D0000034A4309D35C00F01F001844FE
:102A9000C0B27047DA8300002DE9F0418446002778
:102AA00088B0DFF850E001910DF10C081EF8013BF1
:102AB00008AA02EBD30212F81C4C03F00703DC4017
:102AC00014F0010407D10137052FEFD1002420466F
:102AD00008B0BDE8F081084E03AD0FCE0FC53368D6
:102AE0002B6058F82720136A4CF827301362002B0C
:102AF000E9D0ECE7EA830000A07B0000F7B50446CC
:102B00000846FFF7BFFF04EB4006B38A0D46DB071C
:102B10002AD5204603F0A0FC2946204603F00DFCF0
:102B200050B1204603F01FFC0023276807EB80000C
:102B3000C0F81035C0F810352946204603F03CFC9B
:102B4000002101A8B1820195FFF78CFF019B00EBEA
:102B50008300D0F88020064B134043F00203C0F8F6
:102B60008030084603B0F0BD6FF01500FAE700BFF3
:102B7000F0F0FCFF2DE9F043044685B00846154609
:102B80001F46FFF77FFF0E46804625B3204603F021
:102B9000DFFB18B9204603F0D0FB18BB04EB480953
:102BA000B9F8143003F01C0313B16B78012B19D062
:102BB00001238DF80F3000233046CDE900536A1C05
:102BC000AB1C0DF10F0103F060FBB9F8143043F0BA
:102BD0000303A9F81430002F3ED03146204603F0FD
:102BE000B7FB20B96FF0150005B0BDE8F0830022F7
:102BF000397823684FEA810C03EB8103C3F8102571
:102C0000C3F8102504EB4802938A23F4604323F0B1
:102C1000200393827D78FDB12468B8786444D4F8A9
:102C200010750E4B2D043B40C4F8103541F6F0737F
:102C300005F4403503EA06130005D4F810752B435C
:102C400000F4801003433B43C4F81035938A43EAF1
:102C5000413343F0200393820020C5E70FE0ECFFEF
:102C600070B590F8B040054690F8B1604CBB822238
:102C70002146143004F04BF92146134A2B6852F8D0
:102C800036608E4213D1002440F20D10C3F8444147
:102C9000D3F844210D4A934208BFDB20FEF75CFACB
:102CA0000123204685F8B030C5F89C3070BDCAB20B
:102CB000920002F58070442A04BF1C501A5801315A
:102CC000DFE76FF07700F1E7AC7D000000A00D506A
:102CD00090F8B100024B03EB800003F09DBA00BFF7
:102CE0002003002010B5064B90F8B1000C4603EB12
:102CF000800003F077FA0028A4BF2070002010BDE8
:102D0000200300202DE9F04F804658F804BB90F8CE
:102D1000B140DBF814136B4BC9B253F834200746AB
:102D20008DB0584641F4003103F06FFB8203054635
:102D30003AD51422002107A804F0E9F8614BE60017
:102D400003EBC404636807A819460093FFF7A4FEC9
:102D5000331D03934FF0000A5B4B0DF11C090293E6
:102D6000029A584912F8013B0292039A02EBD302ED
:102D70008A5C03F0070322FA03F3DB071AD40AF193
:102D8000010ABAF1050F09F10409E9D14FF4003144
:102D90000022584603F039FB009907A8FFF77CFE94
:102DA0000028D7D125F400350124002D73D10DB0B2
:102DB000BDE8F08F454B53440493D9F80060002ED2
:102DC000DDD096FAA6F6B6FA86F6049B1C7846EA9B
:102DD00044142046FFF756FE07EB4000818AF208B4
:102DE000C1F3820305930193012319F8020006F051
:102DF000070603FA06F620EA060009F8020006A80C
:102E00000694FFF72FFE069A11F0100F02F1200230
:102E100050F82260059BC6F3014623D04046019A34
:102E2000214603F0AAFA06A80694FFF71BFE069BAC
:102E3000F6B2203350F82330C3F301439E4207D14A
:102E40000021204603F06AFA3146204603F066FA74
:102E500006A80694FFF706FE0122069B02FA03F37A
:102E60000362AAE7022E14BF022103212046059324
:102E700003F054FA059B032B03D0022E07D1012B3C
:102E8000E6D121464046019A03F077FAE0E7032EA7
:102E9000DED1022BF4E795FAA5F3B3FA83F304FA33
:102EA00003F225EA020503F5A2725BF8222007EB84
:102EB00043034046B3F8A010C2F3014203F05DFAA9
:102EC00073E700BFAC7D0000EA830000EA830000E6
:102ED0000123034A03FA00F09368034393607047A9
:102EE0006000002073B504460191EFF311862023A2
:102EF00083F31288BFF36F8F0B4D019B6A6801A8A3
:102F00001340019303F06EF9002807DB01226B6880
:102F1000824023EA02036B602070002086F3118850
:102F2000BFF36F8F02B070BD600000204FF0FF3024
:102F30006FF0404130B5054CD4E90023904271EB6D
:102F40000305F9D31046C3F3130130BD40270E50DB
:102F500030B50C25074B1C1894F86C4005FB043366
:102F6000C3E9031218750123034A8340C2F82433CE
:102F700030BD00BF6000002000200E50F8B5404C6E
:102F80002278002A75D13F4BD3F8101521F00201A9
:102F9000C3F81015D3F8101541F00101C3F810154E
:102FA0000521C3F8A4160421C3F8AC160E2343F27E
:102FB000670101F001000244013BD2B24FEA510126
:102FC000F7D1072A58D119464FF0010C2C4E002595
:102FD00043F26700CFB204E00CFA02F220EA0200EA
:102FE000013590FAA0F25FFA85FEBE45B2FA82F290
:102FF000F2D3013132750729224482F86C7006F150
:103000000C06E4D1012143F2670000261E4D9A0808
:1030100001FA02F2024218BF5E510433402BF6D18E
:10302000E420FEF799F8174B1849D3F8102503F55B
:10303000C07322F00202C3F890234FF6FF72C3F868
:10304000A82100221A60A3F5807004338B4202602D
:10305000F8D101250B4B0E4A1D660E4B5D201B68F7
:10306000B3FBF2F358430C4B2B43984700202570D9
:10307000F8BD6FF07700FBE76FF08B00F8E700BF5B
:103080006000002000200E5000210E50C0210E5084
:1030900040420F001C030020D07B000038B5244BB9
:1030A0000D46D3F8102594073CD4D3F8102542F0F0
:1030B0000202C3F81025C0B1D3F8482712F001026C
:1030C00002BFD3F8481741F00101C3F84817184B65
:1030D000D3F84017D3F844174800F9D42AB9D3F8E5
:1030E000482722F00102C3F84827124B124A1B68F6
:1030F000B3FBF2F30E4A03EB4313B3B1D2F840171C
:10310000D2F8441749000BD44FF0FF312846FFF79F
:10311000E9FE044610B92878FFF7DAFE204638BDEC
:10312000013BEAE76FF07704F8E76FF07304F5E727
:1031300000200E501C03002040420F0070B51E46B8
:103140001546174A9DF81010131893F86C30103379
:1031500002EBC30442F833506660C6F31302040165
:10316000A1B104F1A04404F56224C4F82055C4F8C8
:1031700024250C4C80000444236833B1FFF7D6FEAD
:10318000A842B14101D20023236070BD04F1A043E5
:1031900003F56223C3F82055C3F82425F5E700BFE3
:1031A0006000002000210E50F0B50E4D2B1893F852
:1031B0006C300001103355F8334005EBC3077E68CF
:1031C000641800F1A04021F0004146F1000641EAF8
:1031D000C27100F5622045F833407E60C0F82815C2
:1031E000F0BD00BF60000020F7B5284B284CD3F895
:1031F0002C6304F1B8070EB903B0F0BD96FAA6F03F
:103200000123B0FA80F08340DA43224926EA03061C
:10321000231893F86C50830019440C2303FB0543D7
:10322000DB6873B3D7E8EF3F03EA020CC7E8EECFE1
:10323000BEF1000FF6D1C340DB0719D5020102F140
:10324000A04202F56222D2F82435D2F82025D1F826
:1032500000C0BCF1000FCED04FF0000CC1F800C090
:103260000C2101FB054529690091E9688847C2E7FF
:1032700005F1100304EBC30C54F83320DCF80430E0
:10328000E5E70A68002AB6D00B60B4E700200E50CC
:103290006000002000210E5000220F4BC3F80021D7
:1032A000D3F80011C3F80421D3F80411C3F808219E
:1032B000D3F80811C3F80C21D3F80C11C3F810216E
:1032C000D3F81011C3F81421D3F81411C3F818213E
:1032D000D3F81831704700BF0090045070B54FF418
:1032E000FA7500F1A044144E04F5922423682BB122
:1032F00023689BB1FFF7D0FF00200EE0D6F808311D
:10330000002BF5D1D6F80C31002BF1D10A2002F0B8
:1033100067FF013DEAD16FF0730070BD064BD3F833
:10332000083123B1FFF7B8FF6FF00C00F5E7FFF7A6
:10333000B3FF6FF00D00F0E7009004502DE9F0416D
:1033400005460E464FF4FA77104CD4F80084B8F1D5
:10335000000F08D00A2002F043FF013FF5D16FF0C3
:103360000A00BDE8F0810123C4F800554FF48870CD
:10337000E360FFF7B3FF10F1740FF2D010F10E0FFE
:1033800014BF0020012030704046EAE7009004504E
:1033900010B5054C207820B9FFF77EFF012323707C
:1033A00010BD6FF07700FBE7FC0A0020F8B5064679
:1033B0000D464FF4FA770C4CD4F800343BB10A2098
:1033C00002F00EFF013FF7D16FF00A00F8BD0123B4
:1033D000C4F80465C4F8005523604FF48070BDE85C
:1033E000F840FFF77BBF00BF00900450F8B50446DB
:1033F0000F4E4518A54201D800200BE04FF4FA7794
:10340000D6F800343BB10A2002F0EAFE013FF7D1C2
:103410006FF00A00F8BD0123C6F800454FF4827032
:103420007360FFF75BFF0028F4D10134E2E700BFCF
:1034300000900450F8B504460F4E4518A54201D837
:1034400000200BE04FF4FA77D6F800343BB10A20A5
:1034500002F0C6FE013FF7D16FF00A00F8BD01236C
:10346000C6F800454FF48470B360FFF737FF0028BB
:10347000F4D10134E2E700BF00900450F8B50646ED
:103480000D464FF4FA770E4CD4F800343BB10A20C5
:1034900002F0A6FE013FF7D16FF00A00F8BD01234C
:1034A000C4F800654FF48870E360FFF717FF002849
:1034B000F4D1D4F808352B60D4F80C356B60EDE707
:1034C000009004502DE9F04116460446134F45186C
:1034D000A5421ED94FF4FA78D7F8003443B10A2038
:1034E00002F07EFEB8F10108F6D10120BDE8F081BE
:1034F0000123C7F800454FF48870FB60FFF7EEFE2C
:1035000010F1740FF1D00D300CBF01230023337084
:1035100001D00020EAE70134DAE700BF0090045050
:1035200010B5154B154AF0B1D3F80C45C4F30B0494
:103530001480D3F80C45E40F94704FF0004202243D
:10354000C3F80C250F22434203F47003234343EADC
:10355000041343EA026343EA0273074A01F5B071B8
:1035600042F8213010BD9478128842EAC472C3F840
:103570000C2504460246E6E700E00450F40A002069
:1035800038B5EFF31185202383F31288BFF36F8FD3
:10359000064B9C6803F0E6F885F31188BFF36F8F44
:1035A0002046BDE83840FDF783BE00BF4807002035
:1035B00038B50A4B53F82040013053F82050A5424B
:1035C00000D838BD606830B1037EDB0701D403F05A
:1035D0009EF80834F3E723689847FAE7BC7D0000BB
:1035E000012270B52C4B2D4C2D4D86B01A70AC427B
:1035F0001CD30320FFF7DCFF0420FFF7D9FF294C81
:10360000294D2646AE4204F1300413D300F03CFDB0
:10361000244CAC422AD300F04BFDFDF7E9F8234AD5
:10362000938923F00103938106B070BD54F8043BE5
:103630009847DCE754F80C3C059354F8103C04938D
:1036400054F8143C039354F8183C029354F81C3C6F
:10365000019354F8203C009354E90A2354E90C01E7
:1036600000F0ECF954F8303C5E65CAE7D4E90A236F
:10367000B3F1FF3F08BFB2F1FF3F05D052EA0301AB
:10368000206803D100F02AFA3034C2E70849183024
:1036900000F0B8FDF8E700BFFD0A00200C7B000039
:1036A0000C7B00000C7B00000C7B0000B0040020B1
:1036B0009D680000882370B5134E012203FB00664D
:1036C000002386B0CDE904230F220193CDE9023215
:1036D00014234FF4A0720D4D0D4903FB0055044611
:1036E00002FB00110B4B3046009500F0A7F9337C2C
:1036F0002C7423F004033374074B013403EBC4230D
:10370000EE606B6006B070BD280400204807002002
:10371000001300206B670000000B00207FB5002025
:10372000FFF746FF2C4B03F5006282F3088883F312
:103730000A88E023294C2A4D84F822300023E377BD
:1037400023766376A376626A42F4E022626284F8AA
:103750002330FDF76DFCFDF795FD4FF0FF33A362BD
:10376000E362FDF775FFFDF70FFE1E4800F0AAF9B2
:1037700002F023FB1C4CAC422AD30120FFF718FFB8
:1037800002201A4CFFF714FF00F076FC184B0025BE
:103790005C61184B4FF48062059301231649CDE913
:1037A00003532046154BCDE90155009500F046F92D
:1037B0000646237C204623F00403237403F047F8D5
:1037C0002846FFF777FF314620460C4AFDF73AFDC1
:1037D00054F8043B9847CEE7000B002000ED00E0D2
:1037E0000C7B0000380500200C7B0000B00400209A
:1037F00048070020B583000040140020E135000098
:103800002DE9F341044617461E46EFF311882023A5
:1038100083F31288BFF36F8F304BC2689B6872B11D
:103820008068984217D057EA060216D188F31188AB
:10383000BFF36F8F6FF00F0002B0BDE8F08193F916
:103840000E1001322161C4E9023288F31188BFF3FE
:103850006F8F0020F0E72169F3E793F90E1090F9DC
:103860000E30994230DA9942A8BF194602F088FF1B
:10387000054622464146CDE90076194800F022FB74
:103880000028E6D0EFF31186202383F31288BFF3DC
:103890006F8FA068D0B1236821699C420AD04BB1D8
:1038A00093F90E309942A8BF19466FF07F039942F1
:1038B000B8BF194602F064FF40B13146084803F032
:1038C00002F86FF00A00B7E70025D2E7002DF4D127
:1038D00086F31188BFF36F8FF3E700BF480700201E
:1038E000FE0A0020F8B583680546002B40D0234A25
:1038F000926893423FD1C368012B03D9013BC36057
:103900000020F8BDEFF31187202383F31288BFF363
:103910006F8F0169806802F033FF2C68A54207D1E0
:103920000023C5E9023387F31188BFF36F8FE7E700
:10393000002CF5D0D4E90032002613605A60237CB5
:10394000C4E9006623F002032374A66004F11800A2
:1039500000F0E8FCAC6094F90E3020462B61C4F80E
:10396000806002F083FF3946054802F0ACFFC7E7EC
:103970006FF01500C5E74FF0FF30C2E748070020A1
:10398000FE0A002070B5EFF31186202383F312881E
:10399000BFF36F8F0468A0421CD0DCB1D4E90032C1
:1039A000002513605A60237CC4E9005523F002030C
:1039B0002374A56004F1180000F0B4FC2046C4F89C
:1039C0008050656102F052FF3146BDE87040074803
:1039D00002F079BFD0E902329A4218BF0133836006
:1039E00086F31188BFF36F8F70BD00BFFE0A002001
:1039F00013B5EFF31181202484F31288BFF36F8F86
:103A0000846844B1013C846081F31188BFF36F8FF7
:103A1000002002B010BD52EA030406D181F31188E0
:103A2000BFF36F8F6FF00F00F3E7CDE9002302467D
:103A3000014800F047FAECE7FE0A00202DE9F04FBC
:103A4000984685B000F15803C0E91633129B002652
:103A5000838104234FF0000A4FF0000B073222F05D
:103A600007050374119B01EB05090F468373494653
:103A7000C0E90666C0E908AB8660C6730446FDF778
:103A8000CDF8109B073020F007002067C4E91A75B5
:103A900002930F9BA9EB000901930E9B4A460093EA
:103AA000394643462046FDF7B1FB054B66659B68EA
:103AB00003B15B6F4846636705B0BDE8F08F00BF98
:103AC000480700200123037483810023C0E91A33CF
:103AD0004367014B986070474807002038B504469B
:103AE000EFF31185202383F31288BFF36F8F037CDC
:103AF0005B070FD5183000F015FC237C204623F01F
:103B00000403237402F0B2FE2946BDE8384004489D
:103B100002F0D9BE85F31188BFF36F8F38BD00BFA7
:103B2000FE0A00206FF00A01094A9368C3F880106A
:103B30000849D8674B6843F080534B60002383F3F8
:103B40001188BFF36F8F9368D3F88000704700BF70
:103B50004807002000ED00E038B590F9102001463C
:103B6000002A037C04DA03F07F03037402F037FEBB
:103B70000D4D2A4652F8184FAB68944200D004B954
:103B8000EC688B4207D01A7CD20604D1DA897F2AEE
:103B900001D9A2692AB1A34202D0204602F0F3FE65
:103BA00023466B6138BD00BF4807002070B590F90F
:103BB0001020037C002A2FDBD9062DD11A4C63F08C
:103BC0007F032246037452F8183FE169934207D1FC
:103BD000C0E900210860E0610FE09942F8D01B685D
:103BE000002BF5D093F90E6090F90E50AE42F4DD43
:103BF0005968C0E9003108605860A569954200D055
:103C000005B9E568A3681A7CD20606D1DA897F2A4D
:103C100003D9AA690AB9636170BDAB4202D02846D4
:103C200002F0B1FE6561F7E748070020034648B996
:103C3000EFF3058232B9064A51699268914201D088
:103C4000FFF770BF83F31188BFF36F8F704700BF1A
:103C50004807002038B5184CA168E0690B6881421C
:103C600014BF1A46002249680B605960A368E169D5
:103C70002AB9124AC3E900210B60E3610AE092F914
:103C80000E5093F90E00854212DD5168C3E9002100
:103C90000B605360A569094B9D4200D005B9E568EA
:103CA000A3689D4202D0284602F06DFE656138BDD2
:103CB0008A42DED01268DBE7480700206007002058
:103CC000002A2DE9F8430CBF4FF010084FF0080808
:103CD000027C044618EA020F0D4662D148EA02034C
:103CE000D2090CD10374B8F1080F7BD1A36813B1CA
:103CF000204602F07CFD202704F118060FE003F0B7
:103D00007F03037402F06BFDEDE785F31188BFF3C9
:103D10006F8FEFF3118587F31288BFF36F8F3046F3
:103D200000F000FB0B30F0D0A66D04F15807B7424D
:103D300011D04FF0000976B1304602F058FDC6F8B8
:103D4000809006F1180000F0EDFA3046FFF72EFFE4
:103D5000A66DB742EFD1274B9B689C4242D1EFF34F
:103D60000587003F18BF0127DFF888904B4653F8BE
:103D7000186F9E4200D00EB9D9F80C60D9F80830FF
:103D8000B34202D0304602F0FEFDB8F1100FC9F880
:103D9000146006D0204601F0C3FF17B11648FFF7A4
:103DA00091FE144B9B68A3421ED1EFF30583DBB950
:103DB000A289D20711D585F31188BFF36F8F83F3E2
:103DC0001188BFF36F8F0423184602DFEFF31185CC
:103DD000202383F31288BFF36F8F2846BDE8F84392
:103DE000FFF7A0BE0027BFE785F31188BFF36F8FF1
:103DF000BDE8F883480700203805002070B50F4D56
:103E000006462B4653F8184F9C4200D004B9EC6884
:103E1000AB681A7CD20604D1DA897F2A01D9A2695B
:103E20002AB1A34202D0204602F0ADFD23466B61C9
:103E30003046BDE87040FFF7F9BE00BF48070020DC
:103E400070B5EFF31186202383F31288BFF36F8FD1
:103E50001A4CA168E0690B68814214BF1A4600221F
:103E600049680B605960A368E1692AB9144AC3E93B
:103E700000210B60E3610AE092F90E5093F90E0005
:103E8000854216DD5168C3E900210B605360A569C6
:103E90000B4B9D4200D005B9E568A3689D4202D056
:103EA000284602F070FD65613046BDE87040FFF7BE
:103EB00039BE8A42DAD01268D7E700BF480700202F
:103EC00060070020F8B5124B0C46DDE90676114676
:103ED0009868104A1060EFF31182202282F3128852
:103EE000BFF36F8F9D68284602F08BFCB6F1FF3F51
:103EF00008BFB7F1FF3F06D03A463346064905F101
:103F0000180000F07FF92046BDE8F840FFF70ABE30
:103F100048070020680700209D680000F8B50446A7
:103F2000EFF31187202383F31288BFF36F8F037C95
:103F300049B203F01F02002A0CBF0126002635D12A
:103F400003F07F032A4D037402F049FC2A46037CE8
:103F5000817363F07F03037452F8183FE86993425A
:103F600007D1C4E900200460EC610DE09842F8D06C
:103F70001B68002BF5D093F90EC08C45F6DD59680F
:103F8000C4E900310C605C60AC69944200D004B9B3
:103F9000EC68AB689C4202D0204602F0F4FC6C61F5
:103FA00087F31188BFF36F8F3046F8BD9B071CD590
:103FB000856802F014FC81732B689D4209D16B68FF
:103FC000C4E900531C606C60EAE76A689A42F6D064
:103FD0001B68002BF3D093F90E208A42F5DD5A6856
:103FE000C4E9003214605C60DAE78173D8E700BF8F
:103FF00048070020F8B550EA010305460C4603D1F6
:1040000002F0EBFB0020F8BDEFF31187202383F3D0
:104010001288BFF36F8F144E144BB068186002F013
:1040200027FCB0682A4623461149183000F0EAF808
:10403000B36804461A7CDF6742F004021A746FF01A
:104040000A02C3F880200B4A536843F08053536040
:10405000002383F31188BFF36F8F02F0BDFC201A99
:1040600020EAE070CFE700BF480700206807002083
:104070009D68000000ED00E0024B03F11802C3E967
:104080000622704748070020EFF31181202383F3B5
:104090001288BFF36F8F054B9A68D37B013BD373B4
:1040A00081F31188BFF36F8F704700BF480700206E
:1040B000EFF31180202383F31288BFF36F8F034B3C
:1040C0009A68D37B0133D373FFF798BE480700206B
:1040D000014B9868704700BF48070020027C0346E8
:1040E00012F01F0210D10A4988420DD00949086810
:1040F00068B1D9897F2909D893F90E20064B1B682E
:104100009A42B8BF002070470020704710467047A1
:1041100028040020280300206C0700200122044B03
:10412000C01A044BC0105843034B1A54704700BFC9
:10413000C0050020ABAAAAAAFE0A0020F8B50B4BC6
:1041400004461E7C18230A4D0A4F03FB06552846D9
:1041500000F0E8F834B1BB5D2846E21A0649D317EF
:1041600000F050F80023BB55F8BD00BF4807002001
:10417000C0050020FE0A00201D410000F8B5EFF345
:104180001187202383F31288BFF36F8F124E134BD6
:10419000B5681868A84206D102F0F5FB87F31188CC
:1041A000BFF36F8FF8BD00221A60337C0C4AD35CDA
:1041B000002BF3D02846FFF791FF04460028EDD0EE
:1041C0002B7CDB06EAD1FFF745FD7369AB42E5D1F5
:1041D0002046FFF7B3FFE1E748070020680700200B
:1041E000FE0A0020024B1868984208BF0020704762
:1041F0002C030020024B186808B1FEF789B97047FC
:1042000034030020B3F1FF3F08BFB2F1FF3F2DE9B7
:10421000F84F04469A461546984679D00161EFF367
:104220001187202383F31288BFF36F8FBAF1000F39
:10423000DFF8E49023DBFFF7DDFF384B06461A6812
:10424000003A18BF012245194AF10003521943F1FF
:104250000003D9E90051551943EB01080121DFF8AA
:10426000C090C4E90223FFF7BDFFD9F804A0D0B97C
:10427000C4E9009ACAF80040C9F8044025E06FF08C
:104280000102D9E90013521A4FF0FF3161EB030329
:10429000521B63EB0A03012A73F10001BCBF012228
:1042A00000230021DBE7D0E9022ED4E9023C93424F
:1042B0007CEB0E0B23DAD21A6EEB0C03C0E902235F
:1042C0004368C4E900031C604460FFF78BFF84422D
:1042D0000DD1124B1B68013309D111B9FFF78AFFC9
:1042E0000646304602F056FB0021FEF725F987F31B
:1042F0001188BFF36F8F28464146BDE8F88F9B1A9F
:104300006CEB0E025045C4E90232B1D00068AEE752
:104310000025A846EFE700BFD805002034030020A1
:104320002C030020F8B50446EFF31186202383F315
:104330001288BFF36F8F026872B3FFF753FF184BF9
:104340005B689C4208D0D2E90231D4E90275DB19DE
:1043500041EB0501C2E90231D4E900320025844273
:1043600013605A60C4E900550ED000200D4A13684E
:1043700023F001018C4204BF43F00103136086F374
:104380001188BFF36F8FF8BDFFF734FF02F002FB17
:104390002946FEF7D1F8E8E76FF01500E6E700BF21
:1043A0002C03002070070020EFF31182202383F3F9
:1043B0001288BFF36F8F064B40F001001B681B1A79
:1043C0005842584182F31188BFF36F8F704700BF86
:1043D0007007002000232DE9F0470C46334E344D82
:1043E000DFF8D090344F30602B60D6F80080B8F101
:1043F000000F10D14FF0FF3340462B6002F0CAFA95
:104400004146FEF799F884F31188BFF36F8FBDE83A
:10441000F047FFF7B3BEFFF7E5FE6FF0004330B1A2
:10442000D0E90212994272F10002B8BF0B4643452F
:10443000194684BF434641464FEAE37C38B182685F
:10444000D0F80CE0D21A6EEB0C0EC0E9022EA8EBED
:1044500001014FF0000A4FF02008D9F80020316028
:10446000D218D9F8043043EB0C03C9E90023FFF755
:10447000B9FE0028B9D0D0E902120A43B5D1D0E97B
:1044800000210A6051600269C0E900AA386084F323
:104490001188BFF36F8F9047EFF3118488F3128870
:1044A000BFF36F8FC7F800A0E1E700BF74070020DB
:1044B00034030020D80500207007002010B5EFF36A
:1044C0001184202383F31288BFF36F8FFFF792FECE
:1044D000054AD2E90031C01841F1000184F3118886
:1044E000BFF36F8F10BD00BFD805002038B50C4C4E
:1044F0000C4802F0A4FA65780A4802F0A6FA0A48C5
:1045000002F09DFA022D08D12478E31F5C425C4141
:10451000054802F09AFA204638BD0024F8E700BFAB
:1045200078070020380300205003002010B51B4CF2
:104530001B4802F084FA2378590744BF03F0FB03B9
:1045400023709A0705D500F0B1F8237823F0020311
:104550002370134802F079FA124802F070FA637877
:1045600013B1114802F069FA002304210E48637068
:1045700000F0B6F80B4802F068FA094802F05FFA5A
:104580002378DB0705D502F055FA237823F00103E1
:1045900023700348BDE8104002F057BA78070020A6
:1045A00050030020380300207C07002070B5FFF77F
:1045B0009DFF10B10024204670BD344802F03FFA40
:1045C000044620B16FF08F04FFF7B0FFF3E7304DE2
:1045D0002B789E0706D400F061F804462B7843F050
:1045E00002032B70294802F030FA10B1002CE9D0F8
:1045F000EAE7002CE8D1254802F021FA0446002819
:10460000E0D12B78D80706D402F012FA04462B78B2
:1046100043F001032B701D4802F017FA0028E5D182
:10462000002CD1D1194802F00AFA0028CAD1174843
:104630002E7802F00AFA0028C4D1164802F0FFF9D9
:1046400004460028BED16B783BB9F10705D5124866
:1046500002F0F1F9022304466B700E4802F0F5F9FE
:104660000028C3D1002CAFD1084802F0E8F9002897
:10467000A8D12B7805485A075CBF43F004032B7080
:1046800002F0E3F9002895D09CE700BF500300201A
:1046900078070020380300207C0700200122024B0D
:1046A000002083F8C0227047800700202DE9F041E8
:1046B0000A4C002526464FF0010803272046C4F87F
:1046C00020802777013502F096F9102D04F12C0493
:1046D000F4D1002386F8C032BDE8F08180070020C5
:1046E00010B50A46044619B1024B00211B689847D1
:1046F00010BD00BFD47D000010B50D4C206802F045
:1047000052FB0C4A1368591C11605BB90A4A5920C4
:10471000D2F8003443F00703C2F80034FCF71CFD64
:1047200000F006FA2068BDE8104002F042BB00BF6E
:104730006C030020440A00200090055038B5164D47
:10474000286802F030FB154B1C68013C1C60ECB97A
:104750005920FCF70FFD0722114BC3F80823D3F8AB
:10476000002422F00702C3F80024C3F80041D3F864
:104770000021C3F80441D3F804214FF00072C3F8BC
:104780000841D3F80831074BC3F888212868BDE8F1
:10479000384002F00EBB00BF6C030020440A00202A
:1047A0000090055000E100E070B5144D144E2B68E8
:1047B000B34221D0FFF7A0FF00F00AFB00F0A0FBFE
:1047C00038B102F044F90446FFF7B8FF44B92E604F
:1047D00006E0FEF7DDFD28B1FFF7B0FF6FF09204B1
:1047E000204670BD00F04CF9044610B1FFF7A6FF5B
:1047F000F6E702F0FEF9E6E70024F1E7680300209F
:10480000117365002DE9F04F8BB01C4607460D462D
:10481000164602F0C4F9034628B16FF092084046EC
:104820000BB0BDE8F08F7A690190C2F3013161F3FA
:1048300005138DF8043013F0300305D1B8688007F4
:104840000DD06FF08608EAE7102B08D1BDF80630CE
:1048500023F4F87343F4A873ADF8063053E0D2B2F2
:10486000F82A2ED100224FF0010B904610469446B4
:10487000D7F808E0DFF8F89159F804AB1EEA0A0F00
:1048800008D00BFA0CF242EA080202F07F0801227B
:1048900040EA0A000CF1010CBCF1070FECD12AB17F
:1048A0009DF8072068F347028DF807203EEA0000D4
:1048B00007D17A88FF2A0FD006D8802A35D0C02A9F
:1048C00035D06FF08508AAE7B2F5807F31D0B2F518
:1048D000C07FF6D1062200E003229DF8060062F3B5
:1048E00006108DF8060013B91EF0030FA9D13B790D
:1048F000022B2AD01FD8012BA3D1BDF8062063F3C9
:10490000C812ADF80620012937D0032922D000298A
:1049100097D13B88B3F5105FD3D1182C03D0202C4E
:1049200001D0102C8DD1534F2BE00122D5E702226C
:10493000D3E70422D1E7032B01D0FF2B81D1022240
:10494000BDF8063062F3C81386E7BDF8063043F4BD
:10495000C07381E7202C05D006D8102C02D0182C6B
:104960007FF46FAF444F0CE024F02003412B01D0C3
:10497000302CF5E70136013CF4E7302C7FF461AFD1
:104980003E4F0F344FEA1419494628460DF10302F1
:1049900001F0A8FE00287FF440AF9DF803307BB9FA
:1049A0004946284602AAFEF78DFD00287FF435AF60
:1049B0009DF80830002B7FF430AF6FF08A082EE7A7
:1049C0001F2C39D12022002102A802F0A0FA4FF0BA
:1049D000000B4FF0FF3A07EB0B124FEA0B13079255
:1049E000BBF1000F2FD1019A0892BDF80620334485
:1049F000C2F3C11206920DF1080C03F1100E6246CB
:104A000018685968083303C273459446F7D10321E7
:104A1000012005EB0B08FEF783FD414602A8FEF7D7
:104A2000C5FC804603210020FEF77AFDB8F1000F97
:104A30000CD002F0B4F8F0E64946284602F07DF8C2
:104A40000028BFD0E9E6CDF820A0CEE7202102A8BB
:104A50000BF1010B02F0CFF9D945BCD11F2C3FF46B
:104A6000DEAEBA2002F08AF800283FF4D8AED4E6D1
:104A7000D87D000000FF0F2000000020109405509A
:104A800010B590B01C22002101A802F040FA0221CA
:104A9000F8200DF1030201F025FE044620BB9DF82D
:104AA0000330F3B120220DEB020100F027FB044696
:104AB000B8B94FF480710E4A0E4B01A8CDE901231D
:104AC0000D4BCDE903130D4BF821069320230DEB7D
:104AD0000302FFF797FE202104460DEB010002F0D0
:104AE0008AF9204610B010BD6FF09204F9E700BFBC
:104AF00000240001014B4E800010C004F800FF7F2D
:104B0000BFF35F8F094A1368BFF35F8F43F480716F
:104B1000BFF35F8F1160BFF35F8F23F48073BFF328
:104B20005F8F1360BFF35F8F704700BF00100150AD
:104B3000BFF35F8F1522064B5A62BFF35F8FBFF33F
:104B40005F8F40F237129A62BFF35F8F704700BFEA
:104B50000010015008B5FFF7D3FFBFF35F8F064A7F
:104B60001368BFF35F8F43F00103BFF35F8F1360E0
:104B7000BFF35F8F08BD00BF0010015070B5002665
:104B8000C0E9006605460C46FFF7B6FD01232B7011
:104B9000FFF7B6FFBFF35F8F204BDB68BFF35F8F7C
:104BA0009B08013BACB3226842B19A4205D9FFF79A
:104BB000C5FD6FF03F002E7070BD1346D4E901159E
:104BC000E068002908BF4FF40071002808BFF120F9
:104BD0002469BFF35F8F114A9360BFF35F8FBFF308
:104BE0005F8F1564BFF35F8FBFF35F8F5064BFF3B8
:104BF0005F8FBFF35F8F5163BFF35F8F44F48024F7
:104C000044F00104BFF35F8F1460BFF35F8F002097
:104C1000D2E74FF40071F1202546DAE70010015089
:104C200070B503780D461446002B52D0BFF35F8F4A
:104C30002C4A136BBFF35F8F03F00E010A294BD090
:104C400013F00C0F02D14FF0FF3070BD4368D3B9A1
:104C5000BFF35F8F5368BFF35F8F032BF3D9224BF2
:104C60002249BFF35F8FD2F88060BFF35F8FBFF33D
:104C70005F8F43F8046BBFF35F8F8B42F1D1FFF777
:104C800069FF01234360BFF35F8F164B9A68BFF340
:104C90005F8F0132B4EB021F21D8BFF35F8F5A68D8
:104CA000BFF35F8FB4EB820FCDD884B1BFF35F8FBA
:104CB000D3F88020BFF35F8F291D05F8012BA9428F
:104CC0004FEA122204F1FF34EFD0002CF5D100207E
:104CD000BBE76FF02000B8E76FF05100B5E76FF069
:104CE0003F00B2E700100150101001502010015099
:104CF00010B50446FFF700FD104B186802F053F89A
:104D00000CB101232370BFF35F8F00200C4BD861DF
:104D1000BFF35F8FBFF35F8F4FF0FF321A63BFF3B4
:104D20005F8FBFF35F8F3422DA61BFF35F8F0122A1
:104D300003F59223C3F8042310BD00BF70030020C5
:104D40000000015010B5044608B1037843B1FFF7E5
:104D5000F5FC044B186802F02CF80CB1002323700A
:104D600010BD00BF7003002038B5154CD4F80051B9
:104D7000BDB1BFF35F8F134B996ABFF35F8FBFF372
:104D80005F8F4FF0FF321A63BFF35F8F0023C4F8C9
:104D90000031D4F800310C4B1868BDE8384002F0FF
:104DA0001BB8D4F8083153B100F076F801F051FF88
:104DB000C4F80851D4F808310121044BECE738BDA0
:104DC000009005500000015078030020740300207B
:104DD00008B5074B186801F0EEFF064B186801F0A4
:104DE000EAFFBDE80840002259201146FCF7D6B979
:104DF000780300207403002038B5094B1C7864B197
:104E0000084B4FF0FF311D68284601F0D6FF4FF0E8
:104E1000FF310446284601F0DDFF204638BD00BFC3
:104E2000FD0A00207803002010B5064CE36C3BB966
:104E3000214651F84C3B986901F05DFF0123E36482
:104E4000014810BD480A0020940A002010B504460D
:104E50000E4B186801F0A7FF0D4B1A682361226002
:104E60005A6862609A68A2600A4A12689A660023C9
:104E7000A364FFF741FC204601F0DCFE0028FAD1D4
:104E8000204601F0DCFE0028F5D110BD7C03002097
:104E9000480A0020F47D000000487047480A0020BE
:104EA00010B50446074A0369126801219A66002278
:104EB00001F003FF204601F011FF2046BDE810403D
:104EC00001F0CFBE0C7E000010B50446FFF7E8FFEE
:104ED0000422084BC3F80823FFF730FC064A236975
:104EE00012689A6600236364044BBDE8104018689A
:104EF00001F05FBF00900550F47D00007C030020AE
:104F000010B50E4B0E4C236003F5C0436360246163
:104F1000FFF78AFF236D2046B3F5007FCCBF4FF427
:104F200080634FF40073A360FFF790FF2046FFF704
:104F3000B7FF2046FFF7C8FF002010BD002001503A
:104F4000480A0020244B0340B3F5806F30D016DCB4
:104F5000402B2FD008DC102B2ED0202B2ED0181E4B
:104F600018BF012040007047B3F5807F28D0B3F50B
:104F7000007F27D0802B14BF02200B207047B3F591
:104F8000804F21D00BDCB3F5805F1FD0B3F5005FFD
:104F90001ED0B3F5006F14BF022006207047B3F592
:104FA000004F17D0B3F5803F14BF02200320704795
:104FB000112070470A2070470C2070470920704765
:104FC000082070470720704714207047052070475D
:104FD000042070470F207047F0FF010000212DE9E9
:104FE000F04307468FB00846FFF782FE044620B123
:104FF0000FB0BDE8F04301F02ABD4FF01009DFF813
:105000008080012210211F4801F08DFD02AD1D4A54
:105010002B19009320211023CDF80490A2F1200039
:1050200000F010F9064650B10020FFF78BFE304625
:1050300001F00DFD064630460FB0BDE8F083D8E91B
:105040000C321034013342F10002302CC8E90C322A
:10505000D7D1FFF777FE27B122463946284601F01F
:1050600055FD0FCD064C0FC495E80F0084E80F00E6
:1050700010340EAB13E90F0084E80F00DBE700BF2C
:10508000E005002000060020F0B5194D194FAB6B6C
:105090008DB0BB4229D0184E306801F084FE402309
:1050A00000221946284601F09BFE3021684601F097
:1050B00048FE044678B96846FFF790FF044690B969
:1050C000302302461946684601F08AFE0122002379
:1050D000C5E90C23AF63306801F06BFE204601F098
:1050E000B6FC0DB0F0BD0E24F5E70020F9E700BFD7
:1050F000E0050020B4A5B4A5800300202DE9F04F01
:1051000002F10F070446894615468FB03F0932B1B8
:10511000002900F08E80B2F5005F00F28A80DFF88F
:105120001881464ED8F8000001F03DFED6E90C3259
:10513000134309D12046FFF7A7FF044620B1D8F852
:10514000000001F036FE60E0D6E90C23BF1843F101
:105150000003B7F5803F73F1000314D3302102A898
:1051600001F0EFFDF8B902A8FFF738FF0446002868
:10517000E5D130230246194602A801F031FE002293
:105180000023C6E90C2300210846FFF7B1FD0446C1
:1051900060B91027A5B92846FFF7D4FD2846FFF7C8
:1051A0001DFF0446CBE76FF09204C8E7D8F8000073
:1051B00001F0FFFD20460FB0BDE8F04F01F047BC05
:1051C000102D4FF001024FF010011D48AA4628BFD4
:1051D0004FF0100A01F0A7FC194A0DF1080B10233B
:1051E00020210197CDF800B0A2F1200000F02AF8AC
:1051F000044670B10020FFF7A5FDD8F8000001F0CB
:10520000D8FD204601F023FC044620460FB0BDE83F
:10521000F08F52464846594601F06CFED6E90C32F2
:10522000013342F10002C6E90C32A5EB0A05D14474
:10523000B0E76FF08604E8E780030020E005002077
:105240000006002037B54FF480740194214C41F0E2
:105250000051A16140F6110143F00053A3622123E4
:10526000E16104F12001616101212262E362069A99
:10527000194B01AD1A60079A256042F000521125C2
:10528000C3E901122022DFF854C02061C4E902C53D
:1052900004F1100565606162DA60BFF35F8F104A48
:1052A0001460BFF35F8FBFF35F8F1361BFF35F8F36
:1052B000BFF35F8F03235363BFF35F8FBFF35F8F32
:1052C0009363BFF35F8F00F033F8431CFBD003B050
:1052D00030BD00BFC40A0020B40A00200400002032
:1052E0000000015038B5BFF35F8F104CE569BFF384
:1052F0005F8FBFF35F8F10236363BFF35F8F012066
:1053000001F06CFDBFF35F8F00236363BFF35F8F1A
:10531000BFF35F8FE36BBFF35F8F5B06F8D425B1FC
:10532000BFF35F8FE561BFF35F8F38BD00000150B1
:1053300008B5FFF761FD104A20B9BFF35F8F906A8F
:10534000BFF35F8FBFF35F8FD36BBFF35F8F10F03F
:10535000240F03F0230304D0FFF7C4FF6FF01F00F6
:1053600008BD4FF0FF30002BFAD1BFF35F8F106301
:10537000BFF35F8F1846F3E70000015073B5044692
:10538000EFF31186202383F31288BFF36F8F8368B6
:10539000594003EA02050A4053400022009309499C
:1053A0006B46019201F0BBFADDE9003223EA020309
:1053B00004F10C003146A36001F085FA284602B0E2
:1053C00070BD00BF956E00002DE9F04F43688BB0B3
:1053D00080469246009383789C0740F1F98000252F
:1053E0000878002800F0F68025280AD04B1C01938D
:1053F00001354146009B98470028C0F2E38001999F
:10540000EEE74E788B1C252E0193F1D000270A225F
:10541000B9463C461F2C22D8A6F12003102B20D8D9
:10542000DFE803F0141F1F1A1F1F1F0B1F1F1F127F
:105430001F171F1F090044F00104019B13F8016BA3
:105440000193002EE6D13AE044F0020444F0040453
:10545000F3E744F00804F0E744F01004EDE77F2C94
:1054600024D8A6F13003092B08D860064EBF02FBF2
:10547000073744F0200402FB0939DEE72A2E0DD15C
:1054800061065AF8043B53D4002BA7BF44F0200414
:105490009946C3F1000944F02804CEE72E2E05D129
:1054A000630600F1978044F04004C6E76C2E2ED0CE
:1054B00028D8682E32D06A2E37D04C2E35D0002F07
:1054C00046F02003B8BF24F04004A3F16502BCBF3E
:1054D0000027A4B2022A01D9612B2BD10AF1070AB5
:1054E00007279D4E2AF0070A0AF1080A210760D50E
:1054F00006EB070B34465C455DD1AE1BA9EB0709F3
:10550000A21959E1742E98D07A2E96D0D7E72606A4
:1055100048BF44F4007444F080048EE7E00548BFBF
:1055200044F4007444F4807487E744F4207484E7FE
:105530001F4682E7A6F16302122A00F2D880DFE854
:1055400012F013004D00D600D600D600D6004D0054
:10555000D600D600D600D600D600E800D100D6008E
:10556000D6001A00D600A0005AF8043B012704AE6A
:105570008DF81030BAE75AF8046B784B002E08BF4C
:105580001E4614F0400F304614BF39464FF0FF312D
:1055900001F0C5FC0746A9E741462020009B98473B
:1055A00000280FDB013CA742F6D34D44A1462D1B3A
:1055B0009EE74C46F7E7414614F8010B009B9847DD
:1055C000002898DA98F8023043F0040388F8023093
:1055D0004FF0FF3528460BB0BDE8F08F220630D5DE
:1055E000A3052AD50AF1070A2AF007039A46596843
:1055F0005AF8080B24F0100B00291FFA8BFB2FDA46
:1056000040424BF4806B61EB410104AC0A2322461B
:1056100001F091FC1BF0400FA0EB040200F08E8023
:105620002BF001049742A4B240F38F80002E40F08B
:105630008E802BF01104A4B21DE05AF8040BC117A0
:10564000D8E7E0055AF8041B01D40846F7E7A2059D
:1056500047BF48B241F3C01108B241F3C031C9E7B6
:1056600050EA0103D1D16306CFD5002FCDD124F06C
:1056700011043A46A4B23B4640F206410C4262D1C4
:1056800024E024F010040A23A4B214F0800243D0D2
:1056900014F4007117BF0AF1070A5AF8040B2AF034
:1056A000070292461CBF51685AF8080B50EA0102E3
:1056B0003ED124F0160B62061FFA8BFB3CD5002F5F
:1056C0003AD124F017043A463B46A4B221075AD4F3
:1056D000E10705D5994572DDA9EB03039F184B46F9
:1056E0009B464AE044F0100410237826CDE7782B3F
:1056F00004D1C6F1780343F01003C6E741462520E4
:10570000009B98470028FFF65DAF023541463046C2
:1057100070E608230026B8E714F480715AF8040BE9
:10572000C4D014F400711ABFC0B2114680B2BDE7F4
:1057300024F006041FFA84FB04AC68E713465C46B9
:10574000E10699D52EB90133C0E71346F8E73B4689
:10575000F6E70233BAE700BFC1830000BA83000056
:10576000CDE9023241462020009B98470028FFF6F1
:1057700029AF0BF1010BDDE90232D945F0DCEB1A60
:1057800003EB0B055B46E10627D541463020CDE90A
:105790000232009B98470028FFF614AFDDE9023281
:1057A0007EB901352F44791B8A4229DB144604AEA9
:1057B00094BB2A44A9EB03091546914440E01746DF
:1057C0008EE7023541463046CDE90232009B9847CC
:1057D0000028DDE90232E5DAF4E640F206410C4247
:1057E000E0D014F0020F05F10105414614BF2B2053
:1057F000202014F4806FCDE9023218BF2D20E5E798
:10580000CDE902324146009B3020013598470028FF
:10581000DDE90232C7DAD5E6013C4146CDE9023284
:10582000305D009B98470028DDE90232C0DAC9E606
:1058300041462020009B013598470028FFF6C2AE64
:10584000A9EB0503002BF3DCD9E500BF70478368A3
:1058500000EBC101B3F5004F2CBF51F8220031F825
:105860001200704700EBC1018068B0F5004F2CBFFB
:1058700041F8223021F812307047012208B5FFF7B5
:10588000E6FFD04008BD836800EBC101B3F5004FCF
:1058900008D34B681AB143F001034B60704723F003
:1058A0000103FAE74B881AB143F001034B807047BC
:1058B00023F00103FAE753000122FFF7D3BF08B535
:1058C0008368B3F5004F06D3FFF7D7FF01288CBFDD
:1058D0000020012008BD0020FCE78368B3F5004FDD
:1058E00028BF0139B1FA81F0C0F11F0070472DE9DE
:1058F000F04104460D46FFF7E2FFB8BB29462046BB
:10590000FFF7BBFF01462046FFF7E7FF04EB8001EE
:105910000E6996B90122E36882401343E3600222D4
:105920000D612B4629462046FFF79CFF032229469E
:105930002046BDE8F041FFF795BF022231462046E0
:10594000FFF785FF0746034629462046FFF78AFFF3
:105950000322334629462046FFF784FF39462B466B
:105960002046FFF77FFF02223146E1E7BDE8F081E4
:10597000B2F5802F34BF042308232DE9F04100261F
:10598000D21A8C18CD1D25F0070524F00704641BDE
:10599000E408056021462846AC60EE60FFF79DFFF5
:1059A000820002F11B07FF083146043205F11000A6
:1059B00001F0ADFA3A4631462846FFF77CFF334600
:1059C000324631462846FFF74DFFA4EB070828462C
:1059D00031460122FFF757FF42463946FFF76BFF7A
:1059E0003B46324639462846FFF73CFF21462846CB
:1059F000FFF761FF4346324621462846FFF732FF54
:105A0000214628460122FFF73EFF3946BDE8F04116
:105A1000FFF76DBF00207047002070470FB407B537
:105A200004A951F8040B0191FAF71CFF03B05DF8CB
:105A300004EB04B07047002203680BB918467047A6
:105A40008B4210D10B6842B942680360914200D189
:105A50004360002301200B60704713604368994244
:105A600008BF4260F5E71A461B68E6E7038B13F0B0
:105A7000070306D10368002B18BF032008BF0020CE
:105A80007047022B05D1408BB0FA80F040098000AE
:105A90007047012B04D10368002B18BF0520EDE7E8
:105AA0000020704710B50C4600B111B96FF0150019
:105AB00010BD081D00F0C6F80028F9D1A368032B1B
:105AC000F6D9F3E72DE9F0410D4607461946281DA2
:105AD00090461E4600F0C7F8044638B133464246A9
:105AE00029463846A446BDE8F0416047BDE8F0814C
:105AF00010B4EFF31182202484F31288BFF36F8F68
:105B0000416110BC0121FAF7C5BE38B50C46054607
:105B100058B151B10B6843B14B6833B11C2200211D
:105B200001F0F5F900202C6138BD6FF01500FBE79E
:105B3000F8B504460E46FFF7B5FF051E3BDBEFF355
:105B40001182202383F31288BFF36F8F4FF6FF710A
:105B5000638B278B8B4207F007072ED0062F2FD899
:105B6000DFE807F0182E082E180418006FF08505DE
:105B7000002303E0013363830225012382F31188AC
:105B8000BFF36F8FBBB100233A4631462046FFF783
:105B900099FF10E000233360636823B9C4E900660D
:105BA00027B13D46E4E71E606660F9E70221204622
:105BB000FAF770FE3D462846F8BD6FF00A05D7E7B4
:105BC0006FF00405D4E710B5EFF31182202383F3BF
:105BD0001288BFF36F8F048B04F00704022C0AD0E5
:105BE000012C0CBF6FF004006FF0850082F3118868
:105BF000BFF36F8F08E0438B013B9BB2438323B914
:105C00002146FAF747FE204610BD2046EEE738B59C
:105C1000A8B1A1B1EFF31185202282F31288BFF35E
:105C20006F8F048BFFF707FF30B104F0070085F397
:105C30001188BFF36F8F38BD6FF07700F7E76FF013
:105C40001500F8E7034658B1426802F00302012A42
:105C500003D0032A04D1026812B100209860704773
:105C60006FF0150070474268034602F00302032AF2
:105C70004FF00002816014BF104600685A60704700
:105C80007047C3691BB11B7900200B7070476FF020
:105C900057007047C3693BB1DB682BB1DB691879EA
:105CA000B0FA80F0400970470120704770B5C569AF
:105CB00004460E460DB103232B712046FFF7EAFF81
:105CC000A8B103212046B047002802DA10F1860F60
:105CD0000ED1012125B920463346BDE87040184752
:105CE00020462971B047002802DB00232B710020D9
:105CF00070BD01F00CB901F0FDB801460068FAF77B
:105D000059BF08B5FAF786FFBDE80840FBF7C0BAEF
:105D100000210120FAF74EBF836E83F30B88704792
:105D20006FF08500704761B662B680F31188BFF3EB
:105D30006F8F704772B6002383F31188BFF36F8FA4
:105D4000BFF34F8F30BF62B6BFF36F8F704772B62D
:105D5000002383F31188BFF36F8FBFF34F8F20BFF2
:105D600080F31188BFF36F8F62B6704740E800F38D
:105D700013F4803FD8B208BF6FF01500704730B5FC
:105D80000C684B6885B00A894D890094013B24F06A
:105D90001F04234402F01F0242EA451223F01F03AE
:105DA00069468DF808200393FBF724FB05B030BD4E
:105DB00008B5FBF7FFFC002008BDFBF721BDFCF791
:105DC00025BC6FF05700704710B514464268136841
:105DD0005168D3F81004D389C0F3412003304843FD
:105DE000A3FB01311B0C43EA0143C0184FEA1141E8
:105DF000127C4FF0000341F10001FAF781FB2060B3
:105E0000002010BD43681B68D3F8000400F00100B7
:105E10000130704710B5046911462046FFF7F7FEC0
:105E200010F1780F04D12046BDE81040FFF7CBBE3B
:105E300010BD0069FFF7C7BE11460069FFF778BEC5
:105E400010B40124036A0A465B6819684C601C6838
:105E5000D4F8001411F00201FAD110BC104701224D
:105E60002DE9F04104460D461426036A5F683B683D
:105E70001A603B68D3F80034DB070CD44FF47A7017
:105E800000F0AEF9013EF4D16FF0730120462B46CD
:105E9000BDE8F04118470021F8E70069002104300F
:105EA00010470369986A00F00700704700691146BF
:105EB0000430FFF73DBE00690430FFF784BE10B523
:105EC0000469114604342046FFF7A1FE10F1780F53
:105ED00004D12046BDE81040FFF775BE10BD104646
:105EE000FDF750BDEFF31182202383F31288BFF337
:105EF0006F8F036803F0C00343F00203036082F373
:105F00001188BFF36F8F7047F8B504694668EFF3E7
:105F10001187202080F31288BFF36F8FA06A00F0F2
:105F20000705012D0CD10025A36287F31188BFF36B
:105F30006F8F1DB9C4E90812336898472846F8BD29
:105F400000F0C00083420CBF6FF077054FF0FF35C3
:105F5000EBE711461A468023FFF7D6BF10B503467C
