:1000000010D90520D1DD0300D9D60300BDDD0300E2
:10001000BDDD0300BDDD0300BDDD0300BDDD03006C
:10002000000000000000000000000000A5DE03004A
:10003000BDDD030000000000F9E00300BDDD0300AA
:1000400079E1030079E1030079E1030079E103003C
:1000500079E1030079E1030079E1030079E103002C
:1000600079E1030079E1030079E1030079E103001C
:1000700079E1030079E1030079E1030079E103000C
:1000800079E1030079E1030079E1030079E10300FC
:1000900079E1030079E1030079E1030079E10300EC
:1000A00079E1030079E1030079E1030079E10300DC
:1000B00079E1030079E1030079E1030079E10300CC
:1000C00079E1030079E1030079E1030079E10300BC
:1000D00079E1030079E1030079E1030079E10300AC
:1000E00079E1030079E1030079E1030079E103009C
:1000F00079E1030079E1030079E1030079E103008C
:1001000079E1030079E1030079E1030079E103007B
:1001100079E1030079E1030079E1030079E103006B
:1001200079E1030079E1030079E1030079E103005B
:1001300079E1030079E1030079E1030079E103004B
:1001400079E1030079E1030079E1030079E103003B
:0401500079E103004E
:1001800030B490F800F020F007016FF0000C10F090
:10019000070491F820F040F048804FF000046FF021
:1001A0000700D1E9002391F840F000F1080082FA3D
:1001B0004CF2A4FA8CF283FA4CF3A2FA8CF34BBB08
:1001C000D1E9022382FA4CF200F10800A4FA8CF281
:1001D00083FA4CF3A2FA8CF3E3B9D1E9042382FA4F
:1001E0004CF200F10800A4FA8CF283FA4CF3A2FA64
:1001F0008CF37BB9D1E9062301F1200182FA4CF29C
:1002000000F10800A4FA8CF283FA4CF3A2FA8CF302
:10021000002BC6D0002A04BF04301A4612BAB2FA24
:1002200082F200EBD20030BC7047D1E9002304F029
:100230000305C4F100004FEAC50514F0040F91F85E
:1002400040F00CFA05F562EA05021CBF63EA0503FB
:1002500062464FF00004AAE7000000000000000022
:1002600002780B78012A28BF9A4240F0D8806DE9C5
:10027000044540EA0104CDE902676FF0000C4FEA43
:1002800044721AB380EA010414F0070F6BD100F036
:10029000070420F0070004F0030521F007014FEAEE
:1002A000C505F0E8042314F0040FF1E804670CFA24
:1002B00005F462EA040266EA04060BD063EA04036A
:1002C000624667EA0407664604E000BFF0E80423DC
:1002D000F1E8046782FA4CF582EA0604A4FA8CF489
:1002E0006CBB83FA4CF583EA0705A5FA8CF595B942
:1002F00050E9022351E9026782FA4CF582EA0604CA
:10030000A4FA8CF483FA4CF583EA0705A5FA8CF578
:100310002543DBD09CB92DBAB5FA85F424F0070447
:1003200027FA04F1DDE9026723FA04F303F0FF0082
:1003300001F0FF01FDE80445A0EB0100704724BA7D
:10034000B4FA84F424F0070426FA04F1DDE9026724
:1003500022FA04F202F0FF0001F0FF01FDE804457B
:10036000A0EB0100704714F0030F3CD110F0030420
:1003700028D150F8082B51F8083B82FA4CF582EA54
:100380000305A5FA8CF55DB950F8042C51F8043C2E
:1003900082FA4CF582EA0305A5FA8CF5002DE8D027
:1003A0002DBAB5FA85F424F0070423FA04F122FAF1
:1003B00004F202F0FF0001F0FF01FDE80445A0EBAC
:1003C000010070474FEAC40420F0030050F8082BE6
:1003D00021F0030151F8083B0CFA04F462EA04022C
:1003E00063EA0403C9E710F003041DD0A1EB040184
:1003F00020F00300E40750F8042B06D012D28B78CB
:100400005FFAA2F4E41A06D12BB1CB785FFAB2F40A
:10041000E41A00D133B920465DF8104B7047A2EBC7
:100420000300704701F1040150F8042BCC0721F0C0
:10043000030151F8043B48D824D222F07F4482FAC9
:100440004CF594EA1325A5FA8CF50AD165B951F853
:10045000043B84EA0204B4EB036F0ED150F8042B82
:10046000EBE74FEA132355E035F07F454DD108788F
:10047000FDE80445C0F1000070474FEA126203F046
:10048000FF0347E002EA1C4482FA4CF594EA134564
:10049000A5FA8CF50AD165B951F8043B84EA020447
:1004A000B4EB034F0CD150F8042BEBE74FEA1343A6
:1004B00030E015EA1C4528D10B884FEA124229E0AA
:1004C0004FEA124203EA1C4324E002F0FF0482FADE
:1004D0004CF594EA1365A5FA8CF50AD165B951F883
:1004E000043B84EA0204B4EB032F09D150F8042B37
:1004F000EBE74FEA13630DE015F0FF0F05D10B6832
:100500004FEA122223F07F4304E04FF00000FDE8A1
:100510000445704712BA1BBA82FA4CF482EA03040B
:10052000A4FA8CF5B5FA85F402FA04F203FA04F39E
:100530004FEA1260FDE80445A0EB1360704700BF6E
:1005400001F0FF01102A2BDB10F0070F08D010F884
:10055000013B013A8B422DD010F0070F42B3F6D188
:10056000F0B441EA012141EA014122F007047FF0A1
:1005700000070023F0E80256083C85EA010586EAF8
:10058000010685FA47F5A3FA87F586FA47F6A5FA34
:1005900087F68EB9EED1F0BC01F0FF0102F0070240
:1005A00032B110F8013B013A83EA010313B1F8D1EB
:1005B0000020704701387047002D06BF35460338CC
:1005C000073815F0010F07D1013015F4807F02BF05
:1005D000013015F4C03F0130F0BC0138704700BF56
:1005E00080EA101404F0F01480EA0410604081EAFC
:1005F000111404F0F01481EA0411614082EA12142B
:1006000004F0F01482EA0412624083EA131404F046
:10061000F01483EA0413634080EA102404F47F4456
:1006200080EA0420604081EA112404F47F4481EAD6
:100630000421614082EA122404F47F4482EA042205
:10064000624083EA132404F47F4483EA0423634072
:1006500081EA500404F0553480EA4400614083EAA2
:10066000520404F0553482EA4402634082EA900462
:1006700004F0333480EA8400624083EA910404F099
:10068000333481EA84016340704700BF82EA9004FA
:1006900004F0333480EA8400624083EA910404F079
:1006A000333481EA8401634081EA500404F0553414
:1006B00080EA4400614083EA520404F0553482EA3F
:1006C0004402634080EA102404F47F4480EA04205A
:1006D000604081EA112404F47F4481EA04216140EE
:1006E00082EA122404F47F4482EA0422624083EA0C
:1006F000132404F47F4483EA0423634080EA101443
:1007000004F0F01480EA0410604081EA111404F04F
:10071000F01481EA0411614082EA121404F0F0142A
:1007200082EA0412624083EA131404F0F01483EAAC
:1007300004136340704700BF2DE9F14F94464FEA20
:10074000930B8A68CB6808684968FFF749FF0BF18B
:10075000060E33E083EA134480EA134582EA134726
:1007600046BA96EA3444604000F00F1684EA063434
:1007700020F00F1684EA161054BA94EA010672406B
:1007800002F00F1486EA043622F00F1486EA1412DF
:100790004CBA6540694001F00F1485EA043521F038
:1007A0000F1485EA14115CBA67407B4003F00F1404
:1007B00087EA043723F00F1487EA1413BCE8F0002B
:1007C0006040694072407B4000F0E03400F010353A
:1007D00000F00F3040EA540040EAC50080EA90047F
:1007E00004F0332480EA8400604001F0E03401F03A
:1007F000103501F00F3141EA540141EAC50181EAA7
:10080000910404F0332481EA8401614002F0E03471
:1008100002F0103502F00F3242EA540242EAC502F9
:1008200082EA920404F0332482EA8402624003F0F4
:10083000E03403F0103503F00F3343EA540343EA86
:10084000C50383EA930404F0332483EA84036340FA
:1008500081EA324787EA134581EA354690EA060481
:1008600084EA034B82EA1B4280EA044484EA05449A
:1008700083EA144A85EA14448BEA044B84EA374439
:1008800081EA0B4181EA164104EA0A00454082EA06
:1008900004082BEA080041408AEA0B0602EA060037
:1008A00084EA34438AEA3A4603EA06077840454038
:1008B000414088EA38478BEA3B4007EA000985EA6D
:1008C000090583EA0709464006EA0906714085EAF8
:1008D000010005EA3546464006EA314181EA3041E9
:1008E00081EA364606EA304686EA3546344008EA6A
:1008F000010886EA01052A4086EA364003405A404C
:1009000081EA31431F407C4080EA030709EA070976
:1009100088EA0908544088EA020806EA0A0601EA59
:100920000B018AEA0B0215408AEA3A421040454020
:100930008BEA3B4003405E404240174079404D40C7
:100940004E40E443F64386EA18435D4085EA05409D
:1009500083EA134386EA034183EA384284EA114377
:1009600083EA04435FEA3343BEF1010E3FF6F2AE81
:100970001ED4BCE8F0006040694072407B4020BC5F
:10098000FFF784FE28606960AA60EB60BDE8F08F25
:100990002DE9E0414FF2F00280EA1031114080EA87
:1009A0000130484041088208C3084FF0000E4FE76D
:1009B00000F0113001F0113102F0113203F0113367
:1009C00040EA410040EA820040EAC3004FF2F002F0
:1009D00080EA1031114080EA01304840BDE8E081F2
:1009E0002DE9F04F02F11C050646074600EB85088D
:1009F00051F8040B043A46F8040BF9D14FF0010CFE
:100A0000FFF7C6FF5FEA302080EA0C001ECF4140AE
:100A10004A4053405C401EC62000464517D04FEA6E
:100A20004C0C1CF4807F18BFACF1E50C2C2DE7D0EA
:100A30003C2D06D1FFF7ACFF06CF41404A4006C629
:100A4000100006CF41404A4006C61000D8E736E9FC
:100A50000F00FFF7C5FD043D86E80F00F7D1BDE8A4
:100A6000F08F00BF2DE9F14F03F11C0402EB840C61
:100A70004FEA930B8A68CB6808684968FFF7B0FDB6
:100A80003CE9F0006040694072407B400BF1060E8B
:100A90004EE083EA134480EA134582EA134746BADC
:100AA00096EA3444604000F00F1684EA063420F0E1
:100AB0000F1684EA161054BA94EA0106724002F046
:100AC0000F1486EA043622F00F1486EA14124CBA88
:100AD0006540694001F00F1485EA043521F00F14D8
:100AE00085EA14115CBA67407B4003F00F1487EA73
:100AF000043723F00F1487EA141344BA44404DBA64
:100B00004D4056BA56405FBA5F4087EA174886EABA
:100B1000174B84EA17464FEA38488BEA1B4485EAAC
:100B20001B4788EA1B4580EA3440694072407B409D
:100B300000F0703400F0803500F00F3040EA4400DF
:100B400040EAD50080EA900404F0332480EA84006F
:100B5000604001F0703401F0803501F00F3141EA5E
:100B6000440141EAD50181EA910404F0332481EA89
:100B70008401614002F0703402F0803502F00F32DF
:100B800042EA440242EAD50282EA920404F03324A3
:100B900082EA8402624003F0703403F0803503F08F
:100BA0000F3343EA440343EAD50383EA930404F092
:100BB000332483EA84036340C943DB4381EA0004AE
:100BC00083EA044686EA020183EA014382EA334566
:100BD00083EA14435C4084EA00077FEA040A8AEA55
:100BE000024A8AEA010B87EA11488AEA374A80EA10
:100BF000060181EA1A418AEA030A04EA0A0045402A
:100C000088EA040707EA0B0041408AEA0B0608EA73
:100C1000060084EA34428AEA3A4602EA0603584069
:100C20004540414087EA37438BEA3B4003EA0009ED
:100C300085EA090582EA0309464006EA0906714089
:100C400085EA010005EA3546464006EA314181EA77
:100C5000304181EA364606EA304686EA3546344077
:100C60000F4086EA010508EA050886EA3640024098
:100C700088EA020881EA314213405C4080EA0203BC
:100C800009EA030987EA0907674088EA040806EACF
:100C90000A0601EA0B018AEA0B0425408AEA3A4473
:100CA000204045408BEA3B4B02EA0B02564084EA67
:100CB0000B04234059406E40694087EA364080EA81
:100CC000384080EA060380EA104481EA134585EA49
:100CD000344585EA17427D4082EA354180EA054085
:100CE0003CE9F0006040694072407B40BEF1010E7B
:100CF0003FF6CFAE20BCFFF7C9FC28606960AA6050
:100D0000EB60BDE8F08F00BFFFF76ABE70B491E8FA
:100D10007800B2E802105B1854EB0C04B2E8021041
:100D20004D4156EB0C0680E878008041013070BCE4
:100D3000704700BF70B491E87800B2E802105B1A07
:100D400074EB0C04B2E802108D4176EB0C0680E8DF
:100D500078008041404270BC704700BF2DE9F00729
:100D600091E80017C0CAA8FB063440F8043BA9FB71
:100D70000615E8FB6741EAFB665140F8044BA9FB06
:100D80000743ECFB661344CAE8FB6254EAFB6714B2
:100D9000ECFB673440F8045BA9FB0275EAFB6235A3
:100DA000ECFB6245E8FB6617E9FB6637EAFB664742
:100DB000ECFB6657BAC0BDE8F00770472DE9F007B5
:100DC00091E8F807B2E802105B1854EB0C04B2E8A3
:100DD00002104D4156EB0C06B2E802104F4158EBA1
:100DE0000C08B2E8021059EB01095AEB0C0A80E832
:100DF000F80780410130BDE8F00770472DE9F007A2
:100E000091E8F807B2E802105B1A74EB0C04B2E840
:100E100002108D4176EB0C06B2E802108F4178EBA0
:100E20000C08B2E8021079EB01097AEB0C0A80E8B1
:100E3000F80780414042BDE8F00770472DE9F00710
:100E4000524290E87800B1E880071740DB1918EAB1
:100E5000020854EB080419EA020955EB09051AEADD
:100E6000020A56EB0A0678C090E87800B1E88007DD
:100E700017407B4118EA020854EB080419EA0209FA
:100E800055EB09051AEA020A56EB0A0678C08041BA
:100E90000130BDE8F00770472DE9F007524290E8B5
:100EA0007800B1E880071740DB1B18EA020874EBF2
:100EB000080419EA020975EB09051AEA020A76EB39
:100EC0000A0678C090E87800B1E880071740BB4177
:100ED00018EA020874EB080419EA020975EB09051F
:100EE0001AEA020A76EB0A0678C080414042BDE861
:100EF000F00770472DE9F00152424FF0040890E8E6
:100F0000300091E8C000A31B1340E41AF618EB1B55
:100F10001340ED1AFF1830C0C0C1B8F10108EED17E
:100F2000BDE8F001704700BF00B592E8DC072DE98D
:100F3000DC07B1E8805702B4A7FB02510A95A8FB71
:100F4000020BE7FB6310E9FB62B00B91A8FB0351B6
:100F5000EAFB6201E7FB64B5E7FB6605E8FB6615A3
:100F6000CDF830B0A9FB03B6EAFB6316ECFB635681
:100F7000E8FB640BE9FB641BEAFB645BECFB646B62
:100F80000D90ACFB0230059CEEFB6250E9FB646007
:100F9000EAFB64B0E7FB6431E8FB6451069CE8FBC4
:100FA0006461E9FB64B1EAFB64010E93A7FB0432C0
:100FB000079CE7FB6462E8FB64B2E9FB6402EAFBBE
:100FC0006412049CE9FB6453EAFB6463089CE7FB3E
:100FD00064B3E8FB6403E9FB6413EAFB64230F9545
:100FE0005DF8049B99E80006DDF80080A9FB085431
:100FF000EAFB68B4DDF81080ECFB6804EEFB6814D3
:10100000E9FB6824EAFB6834DDF80480EEFB6865E0
:10101000E9FB68B5EAFB6805DDF81480ECFB6815B0
:10102000EEFB6825E9FB6835EAFB68450F96DDF8BD
:101030000880AEFB0876E9FB6806EAFB6816DDF877
:101040001880ECFB6826EEFB6836E9FB6846EAFB95
:101050006856DDF80C80ECFB68B7EEFB6807E9FB2F
:101060006817EAFB6827DDF81C80ECFB6837EEFBAD
:101070006847E9FB6857EAFB686708B000BD00BF36
:101080002DE9F14F87B0FFF74FFFDDF81C8008F125
:10109000200888E8FF00FFBC87E87F08BDE8F08FE4
:1010A00000B591E89857A3FB03520195A3FB0401F7
:1010B000E3FB6420E3FB67100292A3FB0752E3FB10
:1010C0006802E4FB6415E3FB6805E3FB6925039113
:1010D000A4FB07B6E3FB6926E3FB6A56E4FB670B58
:1010E000E4FB682BE3FB6A5BE3FB6C6B0490A4FB03
:1010F0000810E4FB6950E3FB6C60E3FB6EB0E7FBB8
:101100006721E4FB6951E4FB6A61E3FB6EB1E4FB38
:101110006E010592A7FB0832E4FB6A62E4FB6CB245
:10112000E4FB6E02E7FB6E12E7FB6853E7FB6963C3
:10113000E4FB6CB3E7FB6C03E7FB6E13E8FB6E2389
:101140000695A7FB0954E7FB6AB4E7FB6C04E8FBD0
:101150006C14E8FB6E24E9FB6E34E8FB6865E7FB82
:101160006AB5E8FB6A05E8FB6C15E9FB6C25E9FB51
:101170006E35EAFB6E450796A8FB0976E8FB6A0622
:10118000E9FB6A16E9FB6C26EAFB6C36EAFB6E4665
:10119000ECFB6E56E8FB69B7E9FB6907E9FB6A17E8
:1011A000EAFB6A27EAFB6C37ECFB6C47ECFB6E57FB
:1011B000EEFB6E6700BD00BF2DE9F14F87B0FFF772
:1011C0006FFFDDF81C8008F1200888E8FF00FFBCF5
:1011D00087E87F08BDE8F08F30B44FF0000310F8C7
:1011E000014B11F8015B013A84EA050443EA040368
:1011F000F5D1A3F101034FEAD37030BC704700BFB3
:101200004FF0000310F8012B013943EA0203F9D132
:10121000A3F101034FEAD370704700BF30B411F857
:10122000014B12F8015B6C4000F8014B013BF6D119
:1012300030BC70472DE9F00791E8F807B2E80210DA
:101240005B1854EB0C04B2E802104D4156EB0C064F
:10125000B2E802104F4158EB0C08B2E8021059EB0B
:1012600001095AEB0C0A8941B3F1FF3374F1FF34E1
:1012700075F1FF3576F1000677F1000778F1000887
:1012800079F101097AF1FF3A51F100015B184C4103
:101290004D4156F1000657F1000758F1000859EB8F
:1012A000D1795AEB010A80E8F807BDE8F0077047EA
:1012B0002DE9F00791E8F807B2E802105B1A74EB29
:1012C0000C04B2E802108D4176EB0C06B2E8021075
:1012D0008F4178EB0C08B2E8021079EB01097AEB48
:1012E0000C0A89415B184C414D4156F1000657F1FB
:1012F000000758F1000859EBD1795AEB010A80E850
:10130000F807BDE8F007704718EB040859EB05092A
:101310005AEB060A5BEB070B5FF0000C4CF1000C7C
:1013200018EB050859EB06095AEB070A5BEB070BAC
:1013300050EB0C005FF0000C51EB0C0152EB0C0277
:1013400063414CF1000CB8EB070879F100097AF120
:10135000000A7BEB040BA841B141A241B3416CF1FF
:10136000000CBBEB050BB041B941AA41BB416CF18C
:10137000000C4CF001068CF0020718EB060859EB44
:101380006C095AEB6C0A7BEB6C0B70EB6C0471EB29
:101390006C0572EB670653EB6C076CEB6C0C18EB8F
:1013A0000C0059EB0C015AEB0C025BF1000354F1F9
:1013B000000455F1000556EBDC7657EB0C0770473F
:1013C0002DE9F14F87B0FFF7AFFDDDF81080DDF8B4
:1013D0001490DDF818A0FFF797FFBDE8000FFFF7A6
:1013E00093FF03B05DF8048B88E8FF00BDE8F08F41
:1013F0002DE9F14F87B0FFF753FEDDF81080DDF8DF
:101400001490DDF818A0FFF77FFFBDE8000FFFF78D
:101410007BFF03B05DF8048B88E8FF00BDE8F08F28
:101420002DE9F04F90E8F00F00F140004FF0040E6E
:1014300059E0F0B4826BC36B0468052524268759F4
:101440003C444FEA724787EAF24787EA92273C44D6
:1014500042684FEAF21787EAB24787EAD2073C446C
:1014600040F8044B032D08BF6FF01B0687593A4420
:101470004FEA734787EAF34787EA93273A4443687A
:101480004FEAF31787EAB34787EAD3073A4440F8AD
:10149000042B87593B444FEA744787EAF44787EAAD
:1014A00094273B4444684FEAF41787EAB44787EA35
:1014B000D4073B4440F8043B013DC0D1A0F13C00BF
:1014C000076A3C444FEA724787EAF24787EA922765
:1014D0003C4402684FEAF21787EAB24787EAD2072C
:1014E0003C44C463F0BC4FF0020288EA781C8CEAEA
:1014F000F84C0BEBBC1C8AEA090303EA080383EAF5
:101500000A039C4450F8043B9C4451F8043B9C441F
:10151000674444EA050B0BEA060B04EA05034BEAB1
:10152000030BE34484EAF42383EA34530BEBB30B59
:1015300087EA771C8CEAF74C0AEBBC1C89EA0803A3
:1015400003EA070383EA09039C4450F8043B9C44E4
:1015500051F8043B9C4466444BEA040A0AEA050A33
:101560000BEA04034AEA030AE2448BEAFB2383EA18
:101570003B530AEBB30A86EA761C8CEAF64C09EB7D
:10158000BC1C88EA070303EA060383EA08039C44B9
:1015900050F8043B9C4451F8043B9C4465444AEA9F
:1015A0000B0909EA04090AEA0B0349EA0309E144C1
:1015B0008AEAFA2383EA3A5309EBB30985EA751CF0
:1015C0008CEAF54C08EBBC1C87EA060303EA05032A
:1015D00083EA07039C4450F8043B9C4451F8043BC5
:1015E0009C44644449EA0A0808EA0B0809EA0A0329
:1015F00048EA0308E04489EAF92383EA395308EB0F
:10160000B30884EA741C8CEAF44C07EBBC1C86EA31
:10161000050303EA040383EA06039C4450F8043BF1
:101620009C4451F8043B9C44E34448EA090707EA18
:101630000A0708EA090347EA0307674488EAF82328
:1016400083EA385307EBB3078BEA7B1C8CEAFB4C2D
:1016500006EBBC1C85EA040303EA0B0383EA0503DB
:101660009C4450F8043B9C4451F8043B9C44E244A5
:1016700047EA080606EA090607EA080346EA0306F7
:10168000664487EAF72383EA375306EBB3068AEA10
:101690007A1C8CEAFA4C05EBBC1C84EA0B0303EAC7
:1016A0000A0383EA04039C4450F8043B9C4451F829
:1016B000043B9C44E14446EA070505EA080506EABE
:1016C000070345EA0305654486EAF62383EA3653B1
:1016D00005EBB30589EA791C8CEAF94C04EBBC1CD8
:1016E0008BEA0A0303EA090383EA0B039C4450F8DC
:1016F000043B9C4451F8043B9C44E04445EA060406
:1017000004EA070405EA060344EA0304644485EA9C
:10171000F52383EA355304EBB304013A7FF4E5AED5
:10172000A0F14000BEF1010E7FF483AEA0F1400CA9
:101730009CE80F00001949199219DB19ACE80F0059
:101740009CE80F004044494452445B44ACE80F001D
:10175000BDE8F08F2DE90050ACF1400288B0C3CA5B
:10176000CDE90001B2E80303CDE90201B2E8300C93
:10177000CDE90445B2E80350CDE9060184EAD4601E
:1017800080EA451085EAD56181EA441180EA1410A7
:1017900080EA057081EA151181EA04711CEB903C26
:1017A0004EEB913E1CEB814C4EEB804EDDE9062367
:1017B00082EA0A0083EA0B01204029405040594048
:1017C0001CEB000C5EEB010E0A980899D0E900456D
:1017D0001CEB040C5EEB050ED1E900451CEB040C80
:1017E0005EEB050E18EB0C0859EB0E09D0E902452B
:1017F00012196B41D1E9024512196B41DDE904452B
:101800008AEA04008BEA050110EA080011EA0901DE
:1018100090EA0A0091EA0B0112184B4188EAD8605D
:1018200080EA491089EAD96181EA481180EA1810F2
:1018300080EA097081EA191181EA087112EB90328D
:1018400043EB913312EB814243EB8043CDE9062316
:10185000DDE90023DDE9024582EAD22080EA435037
:1018600083EAD32181EA425180EA921080EA8360C0
:1018700081EA931181EA82611CEB107C4EEB117EB0
:101880001CEB011C4EEB001E82EA0601324001EA0D
:10189000040050401CEB000C01EA0C00504083EAAD
:1018A00007023B4012EA050159405EEB010E02EAD5
:1018B0000E015940DDE90623A4185D41CDE902453A
:1018C00012184B418CEADC2080EA4E508EEADE2171
:1018D00081EA4C5180EA9C1080EA8E6081EA9E1178
:1018E00081EA8C6112EB107243EB117312EB01125F
:1018F00043EB0013CDE9062384EAD46080EA451067
:1019000085EAD56181EA441180EA141080EA057005
:1019100081EA151181EA04711AEB903A4BEB913B85
:101920001AEB814A4BEB804BDDE9042382EA080085
:1019300083EA090120402940504059401AEB000A2F
:101940005BEB010B0A980899D0E904451AEB040AED
:101950005BEB050BD1E904451AEB040A5BEB050BC5
:1019600016EB0A0657EB0B07D0E9064512196B4137
:10197000D1E9064512196B41DDE9024588EA040008
:1019800089EA05013040394090EA080091EA0901EE
:1019900012184B4186EAD66080EA471087EAD76181
:1019A00081EA461180EA161080EA077081EA171171
:1019B00081EA067112EB903243EB913312EB8142D4
:1019C00043EB8043CDE90423DDE90623DDE900454F
:1019D00082EAD22080EA435083EAD32181EA42514D
:1019E00080EA921080EA836081EA931181EA826141
:1019F0001AEB107A4BEB117B1AEB011A4BEB001B25
:101A000082EA0C0112EA0C0201EA040050401AEBCF
:101A1000000A01EA0A00504083EA0E0213EA0E03AC
:101A200012EA050159405BEB010B02EA0B01594038
:101A3000DDE90423A4185D41CDE9004512184B41AE
:101A40008AEADA2080EA4B508BEADB2181EA4A51AC
:101A500080EA9A1080EA8B6081EA9B1181EA8A61B0
:101A600012EB107243EB117312EB011243EB0013F4
:101A7000CDE9042384EAD46080EA451085EAD56183
:101A800081EA441180EA141080EA057081EA151198
:101A900081EA047118EB903849EB913918EB8148D1
:101AA00049EB8049DDE9022382EA060083EA070167
:101AB000204029405040594018EB000859EB0109DB
:101AC0000A980899D0E9084518EB040859EB05096C
:101AD000D1E9084518EB040859EB05091CEB080C83
:101AE0005EEB090ED0E90A4512196B41D1E90A45AE
:101AF00012196B41DDE9004586EA040087EA050119
:101B000010EA0C0011EA0E017040794012184B41A6
:101B10008CEADC6080EA4E108EEADE6181EA4C11CC
:101B200080EA1C1080EA0E7081EA1E1181EA0C71B5
:101B300012EB903243EB913312EB814243EB804343
:101B4000CDE90223DDE90423DDE9064582EAD2205E
:101B500080EA435083EAD32181EA425180EA92101D
:101B600080EA836081EA931181EA826118EB107840
:101B700049EB117918EB011849EB001982EA0A01C7
:101B800012EA0A0201EA0400504018EB000801EAD8
:101B90000800504083EA0B0213EA0B0312EA050126
:101BA000594059EB010902EA09015940DDE90223D4
:101BB000A4185D41CDE9064512184B4188EAD820AA
:101BC00080EA495089EAD92181EA485180EA98108F
:101BD00080EA896081EA991181EA886112EB1072CA
:101BE00043EB117312EB011243EB0013CDE9022317
:101BF00084EAD46080EA451085EAD56181EA44111F
:101C000080EA141080EA057081EA151181EA0471F6
:101C100016EB903647EB913716EB814647EB804742
:101C2000DDE9002382EA0C0083EA0E01204029400E
:101C30005040594036184F410A980899D0E90C4550
:101C400036196F41D1E90C4536196F411AEB060A76
:101C50005BEB070BD0E90E4512196B41D1E90E453C
:101C600012196B41DDE906458CEA04008EEA050194
:101C700010EA0A0011EA0B0190EA0C0091EA0E0149
:101C800012184B418AEADA6080EA4B108BEADB617A
:101C900081EA4A1180EA1A1080EA0B7081EA1B116E
:101CA00081EA0A7112EB903243EB913312EB8142DD
:101CB00043EB8043CDE90023DDE90223DDE9044560
:101CC00082EAD22080EA435083EAD32181EA42515A
:101CD00080EA921080EA836081EA931181EA82614E
:101CE00016EB107647EB117716EB011647EB001752
:101CF00082EA080112EA080201EA0400504036189C
:101D000001EA0600504083EA090213EA090312EAD5
:101D1000050159404F4102EA07015940DDE900231E
:101D2000A4185D41CDE9044512184B4186EAD6203E
:101D300080EA475087EAD72181EA465180EA961027
:101D400080EA876081EA971181EA866112EB10725E
:101D500043EB117312EB011243EB0013CDE90023A7
:101D600084EAD46080EA451085EAD56181EA4411AD
:101D700080EA141080EA057081EA151181EA047185
:101D80001CEB903C4EEB913E1CEB814C4EEB804E9D
:101D9000DDE9062382EA0A0083EA0B01204029409C
:101DA000504059401CEB000C5EEB010E0A9808995C
:101DB000D0E910451CEB040C5EEB050ED1E9104593
:101DC0001CEB040C5EEB050E18EB0C0859EB0E092E
:101DD000D0E9124512196B41D1E9124512196B4134
:101DE000DDE904458AEA04008BEA050110EA0800EF
:101DF00011EA090190EA0A0091EA0B0112184B411D
:101E000088EAD86080EA491089EAD96181EA4811F4
:101E100080EA181080EA097081EA191181EA0871D4
:101E200012EB903243EB913312EB814243EB804350
:101E3000CDE90623DDE90023DDE9024582EAD2206F
:101E400080EA435083EAD32181EA425180EA92102A
:101E500080EA836081EA931181EA82611CEB107C45
:101E60004EEB117E1CEB011C4EEB001E82EA0601BC
:101E7000324001EA040050401CEB000C01EA0C0067
:101E8000504083EA07023B4012EA050159405EEBED
:101E9000010E02EA0E015940DDE90623A4185D4156
:101EA000CDE9024512184B418CEADC2080EA4E5005
:101EB0008EEADE2181EA4C5180EA9C1080EA8E6035
:101EC00081EA9E1181EA8C6112EB107243EB11736F
:101ED00012EB011243EB0013CDE9062384EAD46030
:101EE00080EA451085EAD56181EA441180EA141040
:101EF00080EA057081EA151181EA04711AEB903AC3
:101F00004BEB913B1AEB814A4BEB804BDDE9042311
:101F100082EA080083EA09012040294050405940E4
:101F20001AEB000A5BEB010B0A980899D0E91445FB
:101F30001AEB040A5BEB050BD1E914451AEB040A12
:101F40005BEB050B16EB0A0657EB0B07D0E91645C2
:101F500012196B41D1E9164512196B41DDE90245B1
:101F600088EA040089EA05013040394090EA080017
:101F700091EA090112184B4186EAD66080EA4710BF
:101F800087EAD76181EA461180EA161080EA077075
:101F900081EA171181EA067112EB903243EB91331B
:101FA00012EB814243EB8043CDE90423DDE90623B4
:101FB000DDE9004582EAD22080EA435083EAD3215A
:101FC00081EA425180EA921080EA836081EA9311AB
:101FD00081EA82611AEB107A4BEB117B1AEB011A42
:101FE0004BEB001B82EA0C0112EA0C0201EA04002E
:101FF00050401AEB000A01EA0A00504083EA0E0240
:1020000013EA0E0312EA050159405BEB010B02EAE9
:102010000B015940DDE90423A4185D41CDE90045D9
:1020200012184B418AEADA2080EA4B508BEADB2116
:1020300081EA4A5180EA9A1080EA8B6081EA9B111A
:1020400081EA8A6112EB107243EB117312EB0112F9
:1020500043EB0013CDE9042384EAD46080EA451001
:1020600085EAD56181EA441180EA141080EA05709E
:1020700081EA151181EA047118EB903849EB913926
:1020800018EB814849EB8049DDE9022382EA06002A
:1020900083EA0701204029405040594018EB0008CE
:1020A00059EB01090A980899D0E9184518EB04087A
:1020B00059EB0509D1E9184518EB040859EB050956
:1020C0001CEB080C5EEB090ED0E91A4512196B41A6
:1020D000D1E91A4512196B41DDE9004586EA040091
:1020E00087EA050110EA0C0011EA0E017040794000
:1020F00012184B418CEADC6080EA4E108EEADE61F9
:1021000081EA4C1180EA1C1080EA0E7081EA1E11EF
:1021100081EA0C7112EB903243EB913312EB814266
:1021200043EB8043CDE90223DDE90423DDE90645E5
:1021300082EAD22080EA435083EAD32181EA4251E5
:1021400080EA921080EA836081EA931181EA8261D9
:1021500018EB107849EB117918EB011849EB0019CD
:1021600082EA0A0112EA0A0201EA0400504018EB6E
:10217000000801EA0800504083EA0B0213EA0B034F
:1021800012EA0501594059EB010902EA09015940D7
:10219000DDE90223A4185D41CDE9064512184B4143
:1021A00088EAD82080EA495089EAD92181EA485151
:1021B00080EA981080EA896081EA991181EA886151
:1021C00012EB107243EB117312EB011243EB00138D
:1021D000CDE9022384EAD46080EA451085EAD5611E
:1021E00081EA441180EA141080EA057081EA151131
:1021F00081EA047116EB903647EB913716EB814676
:1022000047EB8047DDE9002382EA0C0083EA0E01F8
:10221000204029405040594036184F410A980899AB
:10222000D0E91C4536196F41D1E91C4536196F417B
:102230001AEB060A5BEB070BD0E91E4512196B413E
:10224000D1E91E4512196B41DDE906458CEA04000F
:102250008EEA050110EA0A0011EA0B0190EA0C006F
:1022600091EA0E0112184B418AEADA6080EA4B10BB
:102270008BEADB6181EA4A1180EA1A1080EA0B706E
:1022800081EA1B1181EA0A7112EB903243EB913320
:1022900012EB814243EB8043CDE90023DDE90223C9
:1022A000DDE9044582EAD22080EA435083EAD32163
:1022B00081EA425180EA921080EA836081EA9311B8
:1022C00081EA826116EB107647EB117716EB011667
:1022D00047EB001782EA080112EA080201EA04004B
:1022E0005040361801EA0600504083EA090213EA1A
:1022F000090312EA050159404F4102EA070159401A
:10230000DDE90023A4185D41CDE9044512184B41D5
:1023100086EAD62080EA475087EAD72181EA4651EB
:1023200080EA961080EA876081EA971181EA8661E7
:1023300012EB107243EB117312EB011243EB00131B
:10234000CDE900230A9880300A90089AA2F1400251
:102350001BBCC3C2A2E818031BBCA2E8030CA2E882
:102360001850BDE8009000BF00B59CE8F00FDCE914
:102370001201DCE91C23241845EB01054FEA560E37
:102380008EEAC77E8EEA162E8EEA076E8EEAD61E7B
:102390008EEA476E14EB0E044FEA570E8EEAC67EA5
:1023A0008EEA172E8EEA066E8EEAD71E45EB0E05D4
:1023B0004FEAD24E8EEA433E8EEAC20E8EEA537E3A
:1023C0008EEA921E8EEA836E14EB0E044FEAD34E11
:1023D0008EEA423E8EEAC30E8EEA527E8EEA931E4B
:1023E00045EB0E05DCE91401DCE91E23361847EB4A
:1023F00001074FEA580E8EEAC97E8EEA182E8EEA41
:10240000096E8EEAD81E8EEA496E16EB0E064FEA6A
:10241000590E8EEAC87E8EEA192E8EEA086E8EEA72
:10242000D91E47EB0E074FEAD24E8EEA433E8EEAA4
:10243000C20E8EEA537E8EEA921E8EEA836E16EBF1
:102440000E064FEAD34E8EEA423E8EEAC30E8EEA65
:10245000527E8EEA931E47EB0E07DCE9160118EB5D
:10246000000849EB01094FEA5A0E8EEACB7E8EEA4C
:102470001A2E8EEA0B6E8EEADA1E8EEA4B6E18EB7F
:102480000E084FEA5B0E8EEACA7E8EEA1B2E8EEA9B
:102490000A6E8EEADB1E49EB0E094FEAD44E8EEA35
:1024A000453E8EEAC40E8EEA557E8EEA941E8EEA72
:1024B000856E18EB0E084FEAD54E8EEA443E8EEA42
:1024C000C50E8EEA547E8EEA951E49EB0E09DCE9B4
:1024D0001801DCE908231AEB000A4BEB010B4FEA69
:1024E000520E8EEAC37E8EEA122E8EEA036E8EEABA
:1024F000D21E8EEA436E1AEB0E0A4FEA530E8EEA94
:10250000C27E8EEA132E8EEA026E8EEAD31E4BEB4B
:102510000E0B4FEAD64E8EEA473E8EEAC60E8EEA84
:10252000577E8EEA961E8EEA876E1AEB0E0A4FEAE7
:10253000D74E8EEA463E8EEAC70E8EEA567E8EEA69
:10254000971E4BEB0E0BACE8F00FDCE91201DCE957
:102550000267121843EB01034FEA560E8EEAC77E5C
:102560008EEA162E8EEA076E8EEAD61E8EEA476E29
:1025700012EB0E024FEA570E8EEAC67E8EEA172E37
:102580008EEA066E8EEAD71E43EB0E034FEAD84E54
:102590008EEA493E8EEAC80E8EEA597E8EEA981E71
:1025A0008EEA896E12EB0E024FEAD94E8EEA483E51
:1025B0008EEAC90E8EEA587E8EEA991E43EB0E0310
:1025C000DCE91401DCE90489361847EB01074FEA1E
:1025D000580E8EEAC97E8EEA182E8EEA096E8EEAB1
:1025E000D81E8EEA496E16EB0E064FEA590E8EEA99
:1025F000C87E8EEA192E8EEA086E8EEAD91E47EB47
:102600000E074FEADA4E8EEA4B3E8EEACA0E8EEA8B
:102610005B7E8EEA9A1E8EEA8B6E16EB0E064FEAF2
:10262000DB4E8EEA4A3E8EEACB0E8EEA5A7E8EEA68
:102630009B1E47EB0E07DCE91601DCE906AB18EB45
:10264000000849EB01094FEA5A0E8EEACB7E8EEA6A
:102650001A2E8EEA0B6E8EEADA1E8EEA4B6E18EB9D
:102660000E084FEA5B0E8EEACA7E8EEA1B2E8EEAB9
:102670000A6E8EEADB1E49EB0E094FEAD24E8EEA55
:10268000433E8EEAC20E8EEA537E8EEA921E8EEA98
:10269000836E18EB0E084FEAD34E8EEA423E8EEA66
:1026A000C30E8EEA527E8EEA931E49EB0E09DCE9D8
:1026B00008011AEB040A4BEB050B4FEA500E8EEAA9
:1026C000C17E8EEA102E8EEA016E8EEAD01E8EEA50
:1026D000416E1AEB0E0A4FEA510E8EEAC07E8EEA68
:1026E000112E8EEA006E8EEAD11E4BEB0E0B4FEAD6
:1026F000D64E8EEA473E8EEAC60E8EEA577E8EEAA8
:10270000961E8EEA876E1AEB0E0A4FEAD74E8EEAB5
:10271000463E8EEAC70E8EEA567E8EEA971E4BEB39
:102720000E0BACE8CC0F5CE90E45DCE90267001942
:1027300041EB05014FEA560E8EEAC77E8EEA162E51
:102740008EEA076E8EEAD61E8EEA476E10EB0E00FA
:102750004FEA570E8EEAC67E8EEA172E8EEA066E76
:102760008EEAD71E41EB0E014FEAD84E8EEA493E63
:102770008EEAC80E8EEA597E8EEA981E8EEA896E1F
:1027800010EB0E004FEAD94E8EEA483E8EEAC90E93
:102790008EEA587E8EEA991E41EB0E015CE90C45EB
:1027A000DCE90489361947EB05074FEA580E8EEA33
:1027B000C97E8EEA182E8EEA096E8EEAD81E8EEA3F
:1027C000496E16EB0E064FEA590E8EEAC87E8EEA67
:1027D000192E8EEA086E8EEAD91E47EB0E074FEAD5
:1027E000DA4E8EEA4B3E8EEACA0E8EEA5B7E8EEAA7
:1027F0009A1E8EEA8B6E16EB0E064FEADB4E8EEAC1
:102800004A3E8EEACB0E8EEA5A7E8EEA9B1E47EB3C
:102810000E075CE90A45DCE906AB18EB040849EB56
:1028200005094FEA5A0E8EEACB7E8EEA1A2E8EEA00
:102830000B6E8EEADA1E8EEA4B6E18EB0E084FEA2C
:102840005B0E8EEACA7E8EEA1B2E8EEA0A6E8EEA36
:10285000DB1E49EB0E094FEAD04E8EEA413E8EEA6E
:10286000C00E8EEA517E8EEA901E8EEA816E18EBC3
:102870000E084FEAD14E8EEA403E8EEAC10E8EEA35
:10288000507E8EEA911E49EB0E09DCE908451AEBF1
:10289000020A4BEB030B4FEA540E8EEAC57E8EEA1A
:1028A000142E8EEA056E8EEAD41E8EEA456E1AEB61
:1028B0000E0A4FEA550E8EEAC47E8EEA152E8EEA77
:1028C000046E8EEAD51E4BEB0E0B4FEAD64E8EEA07
:1028D000473E8EEAC60E8EEA577E8EEA961E8EEA36
:1028E000876E1AEB0E0A4FEAD74E8EEA463E8EEA04
:1028F000C70E8EEA567E8EEA971E4BEB0E0BACE8A7
:10290000C30F5CE90E23DCE90267A41845EB03055D
:102910004FEA560E8EEAC77E8EEA162E8EEA076EB4
:102920008EEAD61E8EEA476E14EB0E044FEA570E5F
:102930008EEAC67E8EEA172E8EEA066E8EEAD71EC5
:1029400045EB0E054FEAD84E8EEA493E8EEAC80E98
:102950008EEA597E8EEA981E8EEA896E14EB0E047A
:102960004FEAD94E8EEA483E8EEAC90E8EEA587E6C
:102970008EEA991E45EB0E055CE90C23DCE904891F
:10298000B61847EB03074FEA580E8EEAC97E8EEA67
:10299000182E8EEA096E8EEAD81E8EEA496E16EB64
:1029A0000E064FEA590E8EEAC87E8EEA192E8EEA7E
:1029B000086E8EEAD91E47EB0E074FEADA4E8EEA12
:1029C0004B3E8EEACA0E8EEA5B7E8EEA9A1E8EEA35
:1029D0008B6E16EB0E064FEADB4E8EEA4A3E8EEA0F
:1029E000CB0E8EEA5A7E8EEA9B1E47EB0E075CE901
:1029F0000A23DCE906AB18EB020849EB03094FEAAE
:102A00005A0E8EEACB7E8EEA1A2E8EEA0B6E8EEA74
:102A1000DA1E8EEA4B6E18EB0E084FEA5B0E8EEA5A
:102A2000CA7E8EEA1B2E8EEA0A6E8EEADB1E49EB08
:102A30000E094FEAD44E8EEA453E8EEAC40E8EEA67
:102A4000557E8EEA941E8EEA856E18EB0E084FEACC
:102A5000D54E8EEA443E8EEAC50E8EEA547E8EEA4C
:102A6000951E49EB0E095CE918231AEB000A4BEBA3
:102A7000010B4FEA520E8EEAC37E8EEA122E8EEAC8
:102A8000036E8EEAD21E8EEA436E1AEB0E0A4FEAEE
:102A9000530E8EEAC27E8EEA132E8EEA026E8EEA04
:102AA000D31E4BEB0E0B4FEAD64E8EEA473E8EEA14
:102AB000C60E8EEA577E8EEA961E8EEA876E1AEB57
:102AC0000E0A4FEAD74E8EEA463E8EEAC70E8EEACF
:102AD000567E8EEA971E4BEB0E0B8CE8F00FACF196
:102AE000600C00BD2DE9F24F00F1400CB0E8F80792
:102AF000ACE8F807B0E8F807ACE8F807FEF72AFEFC
:102B0000FFF732FCFEF726FEFFF72EFCFEF722FE53
:102B1000FFF72AFCFEF71EFEFFF726FCFEF71AFE63
:102B2000ACF1800808F1400998E80F0CB9E8F050C2
:102B30000019694192197B411AEB0C0A4BEB0E0B01
:102B4000A8E80F0C98E80F0CB9E8F050001969419B
:102B500092197B411AEB0C0A4BEB0E0BA8E80F0CF9
:102B600098E80F0099E8F0000019694192197B413B
:102B700088E80F00BDE8F88F80EA0102844612F071
:102B8000030F4FD111F0030F32D14DF8044D11F066
:102B9000040F51F8043B0BD0A3F101329A4312F019
:102BA000803F04BF4CF8043B51F8043B16D100BFF2
:102BB00051F8044BA3F101329A4312F0803FA4F183
:102BC00001320BD14CF8043BA24312F0803F04BF0A
:102BD00051F8043B4CF8044BEAD023460CF8013B77
:102BE00013F0FF0F4FEA3323F8D15DF8044B704721
:102BF00011F0010F06D011F8012B0CF8012B002A5F
:102C000008BF704711F0020FBFD031F8022B12F04D
:102C1000FF0F16BF2CF8022B8CF8002012F47F4F08
:102C2000B3D1704711F8012B0CF8012B002AF9D110
:102C3000704700BF844641EA000313F0030349D103
:102C4000403A23D30B6803604B6843608B68836012
:102C5000CB68C3600B6903614B6943618B69836116
:102C6000CB69C3610B6A03624B6A43628B6A8362FE
:102C7000CB6AC3620B6B03634B6B43638B6B8363E6
:102C8000CB6BC36340304031403ADBD230320BD3A0
:102C90000B6803604B6843608B688360CB68C360DC
:102CA00010301031103AF3D20C3205D351F8043BF6
:102CB00040F8043B043AF9D2043208D0D2071CBFD2
:102CC00011F8013B00F8013B01D30B8803806046FB
:102CD000704700BF082A13D38B07B1D010F003034D
:102CE000AED0C3F10403D21ADB071CBF11F8013BBD
:102CF00000F8013BA4D331F8023B20F8023B9FE7E8
:102D0000043AD9D3013A11F8013B00F8013BF9D25A
:102D10000B7803704B7843708B78837060467047F4
:102D200081F0004102E000BF83F0004330B54FEA7C
:102D300041044FEA430594EA050F08BF90EA020FE9
:102D40001FBF54EA000C55EA020C7FEA645C7FEA7C
:102D5000655C00F0E2804FEA5454D4EB5555B8BF9F
:102D60006D420CDD2C4480EA020281EA030382EA10
:102D7000000083EA010180EA020281EA0303362DA2
:102D800088BF30BD11F0004F4FEA01314FF4801C75
:102D90004CEA113102D0404261EB410113F0004F87
:102DA0004FEA03334CEA133302D0524263EB43033E
:102DB00094EA050F00F0A780A4F10104D5F1200EDC
:102DC0000DDB02FA0EFC22FA05F2801841F1000137
:102DD00003FA0EF2801843FA05F359410EE0A5F10B
:102DE00020050EF1200E012A03FA0EFC28BF4CF03C
:102DF000020C43FA05F3C01851EBE37101F00045F2
:102E000007D54FF0000EDCF1000C7EEB00006EEBFE
:102E10000101B1F5801F1BD3B1F5001F0CD3490888
:102E20005FEA30004FEA3C0C04F101044FEA4452DF
:102E300012F5800F80F09A80BCF1004F08BF5FEA66
:102E4000500C50F1000041EB045141EA050130BD46
:102E50005FEA4C0C404141EB0101013C28BFB1F558
:102E6000801FE9D291F0000F04BF01460020B1FAA3
:102E700081F308BF2033A3F10B03B3F120020CDA76
:102E80000C3208DD02F1140CC2F10C0201FA0CF054
:102E900021FA02F10CE002F11402D8BFC2F1200CB9
:102EA00001FA02F120FA0CFCDCBF41EA0C0190406F
:102EB000E41AA2BF01EB0451294330BD6FEA0404B8
:102EC0001F3C1CDA0C340EDC04F11404C4F12002A3
:102ED00020FA04F001FA02F340EA030021FA04F3B5
:102EE00045EA030130BDC4F10C04C4F1200220FA0C
:102EF00002F001FA04F340EA0300294630BD21FA4A
:102F000004F0294630BD94F0000F83F4801306BF0F
:102F100081F480110134013D4EE77FEA645C18BF03
:102F20007FEA655C29D094EA050F08BF90EA020F9A
:102F300005D054EA000C04BF1946104630BD91EA92
:102F4000030F1EBF0021002030BD5FEA545C05D195
:102F50004000494128BF41F0004130BD14F58004D4
:102F60003CBF01F5801130BD01F0004545F0FE4148
:102F700041F470014FF0000030BD7FEA645C1ABF7D
:102F8000194610467FEA655C1CBF0B46024650EAB4
:102F9000013406BF52EA033591EA030F41F40021E0
:102FA00030BD00BF90F0000F04BF0021704730B566
:102FB0004FF4806404F132044FF000054FF000013B
:102FC00050E700BF90F0000F04BF0021704730B5FC
:102FD0004FF4806404F1320410F0004548BF4042D1
:102FE0004FF000013EE700BF42004FEAE2014FEA26
:102FF00031014FEA02701FBF12F07F4393F07F4F01
:1030000081F06051704732F07F4208BF704793F003
:103010007F4F04BF41F40021704730B54FF4607416
:1030200001F0004521F000411CE700BF50EA010219
:1030300008BF704730B54FF000050AE050EA0102C2
:1030400008BF704730B511F0004502D5404261EB32
:1030500041014FF4806404F132045FEA915C3FF473
:10306000D8AE4FF003025FEADC0C18BF03325FEA10
:10307000DC0C18BF033202EBDC02C2F1200300FAC1
:1030800003FC20FA02F001FA03FE40EA0E0021FAE6
:1030900002F11444BDE600BF70B54FF0FF0C4CF4D4
:1030A000E06C1CEA11541DBF1CEA135594EA0C0F86
:1030B00095EA0C0F00F0DEF82C4481EA030621EAC1
:1030C0004C5123EA4C5350EA013518BF52EA0335FC
:1030D00041F4801143F4801338D0A0FB02CE4FF0AE
:1030E0000005E1FB02E506F00042E0FB03E54FF0DE
:1030F0000006E1FB03569CF0000F18BF4EF0010ED6
:10310000A4F1FF04B6F5007F64F5407404D25FEAD1
:103110004E0E6D4146EB060642EAC62141EA555184
:103120004FEAC52040EA5E504FEACE2EB4F1FD0CC6
:1031300088BFBCF5E06F1ED8BEF1004F08BF5FEA44
:10314000500E50F1000041EB045170BD06F00046F6
:1031500046EA010140EA020081EA0301B4EB5C04A3
:10316000C2BFD4EB0C0541EA045170BD41F480119B
:103170004FF0000E013C00F3AB8014F1360FDEBFC0
:10318000002001F0004170BDC4F10004203C35DA9C
:103190000C341BDC04F11404C4F1200500FA05F31F
:1031A00020FA04F001FA05F240EA020001F00042C0
:1031B00021F0004110EBD37021FA04F642EB060136
:1031C0005EEA430E08BF20EAD37070BDC4F10C0460
:1031D000C4F1200500FA04F320FA05F001FA04F224
:1031E00040EA020001F0004110EBD37041F1000110
:1031F0005EEA430E08BF20EAD37070BDC4F120051B
:1032000000FA05F24EEA020E20FA04F301FA05F282
:1032100043EA020321FA04F001F0004121FA04F22A
:1032200020EA020000EBD3705EEA430E08BF20EAFA
:10323000D37070BD94F0000F0FD101F00046400034
:1032400041EB010111F4801F08BF013CF7D041EAB6
:10325000060195F0000F18BF704703F000465200BA
:1032600043EB030313F4801F08BF013DF7D043EA8B
:103270000603704794EA0C0F0CEA135518BF95EA41
:103280000C0F0CD050EA410618BF52EA4306D1D1C8
:1032900081EA030101F000414FF0000070BD50EAE7
:1032A000410606BF1046194652EA430619D094EA71
:1032B0000C0F02D150EA013613D195EA0C0F05D15B
:1032C00052EA03361CBF104619460AD181EA0301AF
:1032D00001F0004141F0FE4141F470014FF0000067
:1032E00070BD41F0FE4141F4780170BD70B54FF002
:1032F000FF0C4CF4E06C1CEA11541DBF1CEA135582
:1033000094EA0C0F95EA0C0F00F0A7F8A4EB050463
:1033100081EA030E52EA03354FEA013100F088805A
:103320004FEA03334FF0805545EA131343EA126323
:103330004FEA022245EA111545EA10654FEA0026D8
:103340000EF000419D4208BF964244F1FD0404F591
:10335000407402D25B084FEA3202B61A65EB0305ED
:103360005B084FEA32024FF480104FF4002CB6EBAA
:10337000020E75EB030E22BFB61A754640EA0C002A
:103380005B084FEA3202B6EB020E75EB030E22BF6A
:10339000B61A754640EA5C005B084FEA3202B6EBAB
:1033A000020E75EB030E22BFB61A754640EA9C006A
:1033B0005B084FEA3202B6EB020E75EB030E22BF3A
:1033C000B61A754640EADC0055EA060E18D04FEAF8
:1033D000051545EA16754FEA06164FEAC30343EA98
:1033E00052734FEAC2025FEA1C1CC0D111F4801F65
:1033F0000BD141EA00014FF000004FF0004CB6E75E
:1034000011F4801F04BF01430020B4F1FD0C88BFFC
:10341000BCF5E06F3FF6AFAEB5EB030C04BFB6EB07
:10342000020C5FEA500C50F1000041EB045170BDFA
:103430000EF0004E4EEA113114EB5C04C2BFD4EB27
:103440000C0541EA045170BD41F480114FF0000EAB
:10345000013C90E645EA060E8DE60CEA135594EA27
:103460000C0F08BF95EA0C0F3FF43BAF94EA0C0F2A
:103470000AD150EA01347FF434AF95EA0C0F7FF49F
:1034800025AF104619462CE795EA0C0F06D152EAF3
:1034900003353FF4FDAE1046194622E750EA4106D7
:1034A00018BF52EA43067FF4C5AE50EA41047FF4E8
:1034B0000DAF52EA43057FF4EBAE12E74FF0FF3C4D
:1034C00006E000BF4FF0010C02E000BF4FF0010C1E
:1034D0004DF804CD4FEA410C7FEA6C5C4FEA430C97
:1034E00018BF7FEA6C5C1BD001B050EA410C0CBFE6
:1034F00052EA430C91EA030F02BF90EA020F002048
:10350000704710F1000F91EA030F58BF994208BFAE
:1035100090422CBFD8176FEAE37040F0010070476B
:103520004FEA410C7FEA6C5C02D150EA013C07D1C2
:103530004FEA430C7FEA6C5CD6D152EA033CD3D00D
:103540005DF8040B704700BF8446104662468C4607
:103550001946634600E000BF01B5FFF7B7FF00283A
:1035600048BF10F1000F01BD4DF808EDFFF7F4FF63
:103570000CBF012000205DF808FB00BF4DF808EDEE
:10358000FFF7EAFF34BF012000205DF808FB00BF11
:103590004DF808EDFFF7E0FF94BF012000205DF833
:1035A00008FB00BF4DF808EDFFF7CEFF94BF0120E8
:1035B00000205DF808FB00BF4DF808EDFFF7C4FFE1
:1035C00034BF012000205DF808FB00BF4A0011D283
:1035D00012F5001211D20DD56FF47873B3EB62526D
:1035E0000ED44FEAC12343F0004343EA505323FA79
:1035F00002F070474FF00000704750EA013002D1EE
:103600004FF0FF3070474FF0000070474FEA410223
:10361000B2F1E04324BFB3F5001CDCF1FE5C0DD930
:1036200001F0004C4FEAC0024CEA5070B2F1004F7A
:1036300040EB830008BF20F00100704711F0804F7D
:1036400021D113F13872BCBF01F00040704741F442
:1036500080114FEA5252C2F11802C2F1200C10FA46
:103660000CF320FA02F018BF40F001004FEAC1232A
:103670004FEAD32303FA0CFC40EA0C0023FA02F3CE
:103680004FEA4303CCE77FEA625307D150EA0133A4
:103690001EBF4FF0FE4040F44000704701F0004074
:1036A00040F0FE4040F40000704700BF7BB972B9A3
:1036B0000029BEBF00204FF0004106E008BF0028EF
:1036C0001CBF6FF000414FF0FF3000F075B8ADF156
:1036D000080C6DE904CE002909DB002B1ADB00F091
:1036E00080F8DDF804E0DDE9022304B070474042D1
:1036F00061EB4101002B1BDB00F073F8DDF804E007
:10370000DDE9022304B0404261EB4101524263EB28
:1037100043037047524263EB430300F062F8DDF865
:1037200004E0DDE9022304B0404261EB410170474F
:10373000524263EB430300F054F8DDF804E0DDE9A6
:10374000022304B0524263EB4303704753B94AB9B2
:10375000002908BF00281CBF4FF0FF314FF0FF3099
:1037600000F02AB8ADF1080C6DE904CE00F039F88C
:10377000DDF804E0DDE9022304B07047D0B5002293
:103780000B4B06460F46FFF787FCFFF71FFF04466B
:10379000FFF708FC0022074BFFF77EFC02460B46B2
:1037A00030463946FFF7C0FAFFF710FF2146D0BD7B
:1037B0000000F03D0000F041704700BF430803F0F7
:1037C0005533C01A00F03333800800F0333018440A
:1037D0004FF0013300EB101000F00F305843000E93
:1037E00070472DE9F0478C468E46089E15460446E4
:1037F0001946002B40F0D080724547D9B2FA82F7C3
:103800004FB1C7F120030EFA07FCBD40BC4020FABF
:1038100003F343EA0C0C4FEA154EA8B2230CBCFB91
:10382000FEF80EFB18CC08FB00F943EA0C4399455F
:1038300028D9EB1808F1FF3204D2994502D9A8F132
:1038400002022B44A3EB0903A4B2B3FBFEFC0EFB64
:103850001C330CFB00F044EA0344A04214D92C1999
:103860000CF1FF3304D2A04202D9ACF102032C4484
:10387000241A43EA02401EB1FC4000233460736006
:10388000BDE8F0874246DDE76346F1E7002A79D0DC
:10389000B2FA82F3002B3FD01946C1F1200302FA9D
:1038A00001F500FA01F42EFA03F20EFA01FE20FAF5
:1038B00003F3AFB243EA0E034FEA154EB2FBFEFC30
:1038C0000EFB1C201A0C0CFB07F842EA0042904544
:1038D0005AD9AA180CF1FF3004D2904502D9ACF1A4
:1038E00002002A44A2EB08029BB2B2FBFEFC0EFBD4
:1038F0001C220CFB07F743EA02439F4246D9EB1810
:103900000CF1FF3204D29F4202D9ACF102022B44E7
:10391000DB1B42EA004202E0AEEB020301224FEA67
:10392000154EAFB2200CB3FBFEFC0EFB1C330CFBA0
:1039300007F840EA034398452AD9EB180CF1FF3009
:1039400004D2984502D9ACF102002B44A3EB080342
:10395000A4B2B3FBFEFC0EFB1C330CFB07F744EADE
:103960000344A74216D92C190CF1FF3304D2A74205
:1039700002D9ACF102032C44E41B43EA00400F4699
:10398000114678E71F2188E76046ABE76246BFE74C
:103990006046DBE76346EFE7734506D916B90021B9
:1039A00008466DE7C6E9000EF9E7B3FA83F787B971
:1039B000734501D3824207D8841A6EEB03030120BA
:1039C0009C461EB900215BE73846FAE7C6E9004C81
:1039D000F8E7C7F1200CBB4000FA07F422FA0CF517
:1039E00020FA0CF1BA401D432EFA0CF30EFA07FE32
:1039F0004FEA154941EA0E011FFA85FEB3FBF9F8BB
:103A000009FB18300B0C08FB0EFA43EA00439A45F9
:103A100040D9EB1808F1FF3004D29A4502D9A8F139
:103A200002002B44A3EB0A0389B2B3FBF9F809FBAC
:103A3000183308FB0EFE41EA03418E452CD9691864
:103A400008F1FF3304D28E4502D9A8F102032944BC
:103A500043EA0040A1EB0E01A0FB02984145CE468F
:103A6000434602D306D14C4504D20138B9EB020ECD
:103A700068EB0503002EA5D0B4EB0E0261EB030149
:103A800001FA0CFC22FA07F3F9404CEA0303C6E9F9
:103A9000003197E74046C5E74346D9E700000000FC
:103AA0002DE9F04705460F4616468AB07FF04CF8E0
:103AB00044014B01241A43EAD06363EB0103A200E3
:103AC0009B00121843EA947341EB0303DB0043EAC3
:103AD0005273C2F31038012F48EA43484FEAD334F7
:103AE00045D0766833782D2B3AD031462A48FCF7FA
:103AF000B7FB002843D126A3D3E900234046214643
:103B0000FFF7D4FD06460C4610461946234A00230B
:103B1000FFF7CCFD80460F46104619464EF6602250
:103B20000023FFF7C3FD82468946104619464FF42D
:103B30007A720023FFF7BAFDCDE904A9CDE90601A9
:103B4000CDE9082328460821CDE90064144ACDF8C0
:103B50000880039708F09EFC00200AB0BDE8F087BB
:103B60007378702BC1D1B378002BC4D0BDE7082186
:103B70002846CDE900840B4A08F08CFCECE7284687
:103B800033460121084A08F085FC6FF00400E4E7A1
:103B9000005C2605000000008C9D090080EE3600C8
:103BA000B09D0900789D0900989D09000000000063
:103BB0002DE9F04FD1F888700C4683461546C5B004
:103BC0000FB9D1F88C70D5F888A0BAF1000F01D1E7
:103BD000D5F88CA005F12006314658462BF0D4FAD2
:103BE000002840F01281DBF8F8104B6B3BB13046F7
:103BF00006221C318FF0CEFC002800F0348158469C
:103C00001AA904F5C6782BF0A5FA002800F0028165
:103C1000D4E91F36D4F8649012933946404694F89C
:103C200054201AF0EDFB024633463946404616460C
:103C300094F854201AF0FAFB5146149095F8542049
:103C400005F5C670D5F87CA0D5F864801AF0D8FBCD
:103C5000129B074603F59C5308335345C0F003817C
:103C6000286DB0F57A6F00F30381002316930FF0EF
:103C70007BFE002840F0088108EB070319EB0609DA
:103C8000139300F19B80129A0AF59C5308339A42D1
:103C900000F2BB80149BB3F57A7F80F2B6800227D6
:103CA0001298FFF77FF9CDE914015046FFF77AF932
:103CB00002460B46CDE916230022AF4BFFF7ECF985
:103CC00002460B46DDE91401FFF776FC002800F000
:103CD000E2800A37266D30460FF046FE002840F09D
:103CE00018816FF47A6240F2657316449E428CBF6D
:103CF00000260126D5F8508040460FF035FE0028FA
:103D000040F004816FF47A63984440F265739845FB
:103D10008CBF4FF000084FF00108DBF8983CA6EB91
:103D2000080607EB46072BB14B4503DB139A93427A
:103D3000B8BF023F139ACDF844A01092129A139B79
:103D4000CDE907922A6DA3EB09030F9295F8252080
:103D50009F420E9295F82420D4BF012600260D9292
:103D600095F8232058460C9295F822204FF0030135
:103D70000B9295F82120D8BF804B0A9295F820200D
:103D8000C8BF7F4B0992226D069294F825200592B8
:103D900094F82420049294F82320039294F822208B
:103DA000029294F8212094F8204001920094754AE0
:103DB00012F0CAFF304645B0BDE8F08F0223169AD4
:103DC000139912FB031210FB0320484513DA5046E7
:103DD000FFF7E8F8064612980F46FFF7E3F84FF0B2
:103DE0003332694BFFF758F902460B4630463946E5
:103DF000FFF7C4FB48B9129A0AF59C5308339A425C
:103E000003D8149BB3F57A7F63DB0026304645B0B8
:103E1000BDE8F08FBDF9F230002B3FF4F9AE9DF90B
:103E2000F330002B67D0994642F20F73409E9E42BA
:103E300056D0204623F02CFAD4F888200346A9EB6C
:103E400006060AB9D4F88C200B2100968DF867106D
:103E5000216D584601910DF16701029141461AF01A
:103E600045FB1290D9E60126304645B0BDE8F08FFB
:103E7000236DB3F57A6FACBF0023012316930FF0C7
:103E800073FD00283FF4F8AE206D0FF06DFD80F05B
:103E90000100C0B2F0E64FF03332DDE916013A4BD3
:103EA000FFF7FAF802460B46DDE91401FFF784FB41
:103EB000A0B92FA3D3E90023DDE91601FFF7ECF841
:103EC00002460B46DDE91401FFF776FB18B3023713
:103ED00000E719F1550F6FDA0127E1E60537F9E63A
:103EE0006FF47A6140F265731A9842189A4217D8B3
:103EF0006FF05B069DE7394640469DF804219DF929
:103F0000F2901AF07DFAA9EB00098DE74FF0020854
:103F100003E70226EEE6129B534508D90137D9E69E
:103F20000FF022FD0028E3D16FF0580681E7002250
:103F3000DDE91401104BFFF7AFF802460B46DDE94F
:103F40001601FFF739FB08B10A3FC3E64FF03332E1
:103F5000DDE914010C4BFFF79FF802460B46DDE943
:103F60001601FFF729FB88B1053FB3E6AFF30080E8
:103F70009A9999999999F13F0000F83F803F0A007A
:103F8000943F0A00AC3F0A003333F33F12A3D3E956
:103F90000023DDE91401FFF77FF802460B46DDE957
:103FA0001601FFF709FB08B1023F93E6129B534548
:103FB00038BF07F1FF378DE619F1500FFFF66FAEEE
:103FC00019F14B0F01DA03276AE619F1460FB4BF66
:103FD0000427052764E600BF9A9999999999F13FBA
:103FE000D0B513A1D1E9000100240B4E0B4AC6E95C
:103FF0000401726030468326094B0A4F1C601C7214
:104000005C6056F03DF9084B084AC3E904675A6002
:104010002046D0BDAFF3008018370020311A0500CC
:10402000B07000200000D0D000370020691E0500CD
:104030002CFA02000000D0D030B417A3D3E900233B
:1040400000240025C0E9002315A3D3E90023C0E91B
:10405000604515A5D5E90045C0E9022314A3D3E9BD
:104060000023C0E9044514A5D5E90045C0E90623AD
:1040700013A3D3E90023C0E9084513A5D5E90045FA
:10408000C0E90A2312A3D3E90023C0E90C4530BCE0
:10409000C0E90E23704700BF08C9BCF367E6096A90
:1040A0003BA7CA8485AE67BB2BF894FE72F36E3CC7
:1040B000F1361D5F3AF54FA5D182E6AD7F520E5124
:1040C0001F6C3E2B8C68059B6BBD41FBABD9831FDE
:1040D00079217E1319CDE05B30B417A3D3E9002317
:1040E00000240025C0E9002315A3D3E90023C0E97B
:1040F000604515A5D5E90045C0E9022314A3D3E91D
:104100000023C0E9044514A5D5E90045C0E906230C
:1041100013A3D3E90023C0E9084513A5D5E9004559
:10412000C0E90A2312A3D3E90023C0E90C4530BC3F
:10413000C0E90E23704700BFD89E05C15D9DBBCB73
:1041400007D57C362A299A6217DD70305A015991B9
:1041500039590EF7D8EC2F15310BC0FF672633679E
:1041600011155868874AB48EA78FF9640D2E0CDBA1
:10417000A44FFABE1D48B547704700BF08B50020E0
:1041800079F05CFC0A4A0B4B12680B49A3FB023224
:104190000A48920C01F076F9094851F0BDF951F046
:1041A000D1F90849064864F0AFFE002008BD00BF01
:1041B000AC10002083DE1B43E0970900EC97090058
:1041C000708109001498090010B4836800EBC10CD9
:1041D000B3F5004F0CD3DCF80C308B421ED0DCF86A
:1041E0000810043200EBC10440F82230E3600BE019
:1041F000BCF806308B4211D0BCF80410043200EB3E
:10420000C10440F82230E380826800EBC300B2F5BD
:10421000004F2CBF8160818010BC704701210024B9
:10422000C36802F1040C01FA02F223EA0203C3603C
:1042300040F82C4010BC704730B4856800EBC103D7
:10424000B5F5004FA2EB0104A1EB020121D35D689B
:1042500001EB550165005D60D0F808C04D00BCF56C
:10426000004F00EBC2032CBF5D605D808568B5F533
:10427000004F2CBF40F8324020F832408468B4F53B
:10428000004F0CD35B6802EB530340F8331030BC93
:1042900070475D8801EB550165005D80DCE75B8858
:1042A00002EB530220F8321030BC7047836810B51F
:1042B000B3F5004F00EBC10100EBC20C19D3DCF8E1
:1042C00004304C685B0803EB54035C004C6081686D
:1042D000B1F5004F06D3DCF8041002EB510240F8B0
:1042E000323010BDBCF8021002EB510220F832301F
:1042F00010BD4B88BCF802E05B0803EB5E034FEA9D
:10430000430EA1F802E0E2E7826800EBC103B2F5D8
:10431000004F0BD35B68032B4FEA53020ED9013ACF
:10432000B2FA82F2C2F11F02FFF74EBF5A8852085A
:10433000B2FA82F2C2F11F02FFF746BF704700BF18
:10434000836810B5B3F5004F00EBC10218D3546871
:10435000032C4FEA54033AD9013BB3FA83F3C3F178
:104360001F0300EB830CDCF81040002C3FD101242C
:104370009C40C3682343C360CCF8101091602FE0C9
:1043800053885B08B3FA83F3C3F11F0300EB830C7C
:10439000DCF81040E4B100EBC40CBCF804309380AE
:1043A000D0F808E000EBC303BEF5004F2CBFD4608B
:1043B000D4808268B2F5004F2CBFD960D980836861
:1043C000B3F5004F2CBFCCF80810ACF8041010BDAA
:1043D00001249C40C3682343C360CCF81010918033
:1043E0008368B3F5004F2CBFD160D18010BD00EBC6
:1043F000C40CDCF808309360D2E700BF2DE9F0412F
:104400008668B6F5004F34BF0B4601F1FF33B3FAAF
:1044100083F3C3F11F0200EB82073D69A5B12C466F
:104420004FF0030CB6F5004F00EBC40E17D3DEF8C7
:104430000480B1EB580F21D9DEF80C40BCF1010C1F
:104440003C6101D0AC42EDD14FF0FF34C268C3F102
:1044500020039C4014400AD12046BDE8F081BEF8FC
:104460000280B1EB580F09D9BEF80640E6E794FA8E
:10447000A4F2B2FA82F2131D50F823402146FFF74E
:10448000A3FE2046BDE8F081002900F0A8802DE9B8
:10449000F84305688846AB6800AFB3F5004F50D2CB
:1044A0000C1F641B24F007062E447388E408D90708
:1044B00012D45E4803685A0740F0A580002383F3B6
:1044C0001188BFF36F8F0423184602DFAB68B3F582
:1044D000004F80F08280738804EB530235F832106D
:1044E000521AA24210D0514803685B0778D10023CA
:1044F00083F31188BFF36F8F0423184602DFAB6884
:10450000B3F5004F64D2738823F001037380AB6866
:10451000B3F5004F2DD3726804EB520805EBC803C6
:104520005B68D90746D53668A61B05EBC6035B68F2
:10453000DB072ED521462846FFF702FFBD46BDE822
:10454000F883A1F10804641B24F007062E44736865
:10455000E408D807ADD504EB530255F83210521ACF
:10456000A242C0D123F001037360AB68B3F5004FE2
:10457000D1D2B6F8028004EB580805EBC8035B887B
:10458000DA0717D53688A61B05EBC6035B88DB0761
:10459000D0D431462846FFF7B7FE2246344631468E
:1045A0002846FFF783FE21462846FFF7C9FEBD4691
:1045B000BDE8F88341462846FFF7A6FE424621465D
:1045C0002846FFF773FEAB68B3F5004FABD2D9E7CF
:1045D000736823F001037360C7E77368BBE7704734
:1045E000E94688B003216A46DFF844C0CDF8188058
:1045F000CDF814C042F8101F00234FF4C25104F04C
:1046000099FCCD4673E7E94688B003216A46DFF896
:1046100024C0CDF81880CDF814C042F8101F002334
:104620004FF4C25104F086FCCD4647E7FC1200204F
:10463000509809007C980900F8B50568002933D026
:10464000AB6801F00704B3F5004F34BF0422082221
:1046500007341444E40804EBD1049C4228BF1C46F0
:1046600028462146FFF7CAFEF0B1AB68C600B3F595
:10467000004F05EBC0070FD27B88B4EB530F15D367
:1046800043F001037B80AB68B3F5004F34BF0423D4
:1046900008231E44A819F8BD7B68B4EB530F05D35B
:1046A00043F001037B60EEE70020F8BD04440146BF
:1046B00022462846FFF7C0FD2146FFF741FEAB68C2
:1046C000B3F5004F01D37B68EAE77B88D8E700BFEA
:1046D0001146FFF7B1BF00BF2DE9F8434B42076811
:1046E00003EA010931EA03031446BD687AD0B5F53F
:1046F000004F2CBF082304234B4528BF4B46A1EB9A
:104700000906002C7AD0B5F5004F34BF04200820EC
:10471000F31A04F00701073103F007020A44E10825
:10472000024401EBD30101EBD201A94228BF294683
:104730003846FFF763FE804600285FD0BB68C5009F
:10474000B3F5004F2CBF082104214D440D443D44D6
:1047500006F1FF310D44B5FBF6F52CBF6FF00702F3
:104760006FF0030206FB05F5A5EB09052C440734A1
:104770002A44D11B24F00704E41BB0EBD10F4FEA0D
:10478000E4044FEAD1061ED3B3F5004F07EBC60889
:104790000CD2B8F8023006EB5302944232D343F005
:1047A0000103A8F802302846BDE8F883D8F80430A1
:1047B00006EB5302944225D343F00103C8F80430BA
:1047C0002846BDE8F883014632463846FFF734FDF7
:1047D0004146FFF7B5FDBB6807EBC608B3F5004FD0
:1047E000D7D3E3E7B5F5004F34BF0423082399423C
:1047F0001AD94E464FF00009002C84D100252846D6
:10480000BDE8F883314622463846FFF715FD2146BC
:10481000FFF796FDBB68B3F5004F02D3D8F804301C
:10482000CAE7B8F80230BAE71146BDE8F843FFF727
:1048300003BF00BFB2F5802F2DE9F04134BF04243F
:104840000824121B0A44073121F0070422F007064E
:10485000A6EB04084FEAD807B8F5802F34BF3A46D4
:1048600007F1FF32B2FA82F20023C2F12405AD0053
:10487000C2F1200207350460ED080021C4E902738B
:10488000920004F110008EF045FB6B00B8F5802F0C
:10489000A7EB050204EBC50143F001032CD36360D1
:1048A0000023236053004B60A368B3F5004F2CBF77
:1048B00044F8355024F83550A368B3F5004F4FF055
:1048C00000032CBF73607380A368B3F5004F2CBF47
:1048D00044F8082024F80820A26804EBC703B2F5C6
:1048E000004F0FD35A68294642F001025A60204611
:1048F000BDE8F041FFF724BD63800023238053000F
:104900004B80D1E75A88294642F001025A8020465E
:10491000BDE8F041FFF714BD002070472DE9F04FCE
:104920009846C2F3C20391B00133019302F004032D
:10493000049383071A9D40F0738206460F46041DB8
:10494000002800F03D82072940F2618102F0020355
:1049500008F1FF390593002E00F03F8200234FF04D
:10496000FF3A009306930293C4F800804FF0010BC6
:10497000C6F108030393019B002B40F3D381059BF1
:10498000D3B1A31BB3F5007F80F04582029A0F2AB2
:1049900000F24182002E00F03682009A9B0801321C
:1049A0000092029A63F07F036A4482F8203082F812
:1049B00030A0029B0133029399F80100043409F1FD
:1049C0000102002800F08F8004234FF0000E4FF604
:1049D000DA7C9946CDF81C80BEF1000F4DD07A28C4
:1049E00048D84B2840F218814C382E2842D8DFE8AE
:1049F00010F0E3004100410041004100410041004E
:104A0000410041004100410041004E004100410091
:104A10004100410041004100410041002F004100A0
:104A20004E004E002F002F002F00E3004E006F01BC
:104A30004100E3004100EE004E00EE004100410065
:104A4000020148004E00410041004E004100480074
:104A5000073525F00705073424F00704F5E80201BF
:104A60003EB1DDF80CE0A644BE4500F2D080C4E9BA
:104A70000001083412F8010F98B32528FAD10AF181
:104A8000010A12F8010F60B304239946A7E712F850
:104A9000011C6C2900F09680E1180139B1FBF3F19B
:104AA00003FB01F8002E00F0E58008EB0901891BEB
:104AB000B94200F2AC804FF0000EB9F1040F00F0E3
:104AC000A48108F108044FF00809073525F007050F
:104AD000F5E80201C8E9000112F8010F00287FF48F
:104AE0007BAFDDF81C80A31BB3F5806F184680F008
:104AF0009281002E00F07781002131609908317099
:104B000004999DF81820002940F0EA807270009AFC
:104B1000B270002A00F0EA80029B002B79D008AD29
:104B20002A4603EB050CC6F1010012F8013B0119FE
:104B300013F0800F03F07F0303D0B94267D804F865
:104B4000013B9445F1D1C6F1010301934346DDF8E1
:104B500008A0B046AA442E461D460297049F0DF1B8
:104B60003009009B002B40F0C780002F00F0CF8061
:104B70004FF0000B99F8002004F8012B019B191944
:104B8000029B5944994242D816F8010B5A4604F840
:104B9000010B20462946FEF74DF856455C4409F1C5
:104BA0000109DED14646A01B11B0BDE8F08F3FF6EB
:104BB00061AF202840F0838012F8010F00287FF4B5
:104BC0000EAF8EE712F8023C6C2B00F0D580033458
:104BD00024F00308002E69D008F10404A31B9F42AF
:104BE00015D34FF0000E042355F8041B4FF00409B1
:104BF000C8F8001070E7033424F00304002E00F01E
:104C0000D880C6F1040323449F4280F00C816FF0EA
:104C10001B0011B0BDE8F08F47283FF62BAF2928C5
:104C20001ED9A0F12A0E5FFA8EFE0BFA0EFE1EEAC6
:104C30000C0FC1D11EF0625F7FF40AAF1EF0010EAF
:104C40003FF418AF1C44013CB4FBF3F403FB04F83D
:104C5000D6B1A9EB060141448F42BFF42EAFD6E78F
:104C60002528A4D112F8010F0AF1FF3A00287FF499
:104C700004AF36E7B9F1040F18D0073525F0070562
:104C8000083508F10804F5E6B9F1040F00F0848056
:104C9000073512F8010F25F00705083508F108045B
:104CA00000283FF41EAF4FF0080998E612F8010FF4
:104CB000043508F1040400287FF4DFAE11E723284F
:104CC0007FF4D8AE12F8010F00287FF488AE08E711
:104CD00012F8010F00283FF404AF082399467EE63E
:104CE000F270009AB270002A7FF416AF029A002A7E
:104CF00000F0948008AD26E796F90030002BBFF64F
:104D000034AF0136B24509F10109F5D14AE73278ED
:104D100058F8225048F822702846FBF731FA00F183
:104D2000010B2BE7434B984503D3434B9845FFF4C6
:104D300026AE424B0BB1984537D2414B2BB198452B
:104D400003D3404B9845FFF41AAE0599A21B930874
:104D500000295DD1029A0F2A5DD8002E49D0069A0B
:104D6000DBB201320692029A5FFA8AF16A4482F853
:104D7000203082F830101CE6073424F00708002E9B
:104D80003FF47BAF08F10804A31B9F42FFF43FAF41
:104D90004FF0000E082396E612F8010F043508F1D3
:104DA000040400287FF41BAE9BE6274B9845C4D231
:104DB000E5E5019B9146013B55F8048B0193DAE54B
:104DC00001F0070702F002033C1D08F1FF39C7F1AB
:104DD00008070593002E7FF4C1AD4FF0FF3A00960F
:104DE00006960296C2E5A7F10800184411B0BDE886
:104DF000F08F049B0237002B7FF4DBAD4046FBF7BE
:104E0000BFF90744D5E50137D3E508F10404EBE623
:104E1000B2F5007F9ED36FF01500FAE61846F8E66B
:104E20006FF00D00F5E6019B9146013B55F8048BB0
:104E3000019399E5F07E0900BCC40D00000000005C
:104E400000000000000000000000000053B32DE946
:104E5000F04799461C785D78DB78A40004EB4304A6
:104E600099F8023007461C440E4690464C447DB1EA
:104E70004FF0000A14F8013B0AF1010A204649F8F4
:104E80002340FBF77DF9554500F101000444F1D1C1
:104E900041463846B446D9F8042009F10803BDE874
:104EA000F04760476FF01500704700BF10F8013BF6
:104EB0006BB310B50024A4460246A3F1250EBEFA3A
:104EC0008EFE12F8013B4FEA5E1ED3B1F4450AD0C4
:104ED000A1420CD0A3F1400CBCF13A0F0DD843789D
:104EE0000134821C6BB14FF0000C1046E4E7702BCC
:104EF0000BD0A3F140003A2805D94FF0010C104621
:104F0000DAE7184610BD002010BD012010BD18467C
:104F1000704700BF2DE9F04F8FB000AF80461446B8
:104F20008B46FB6291B903788578467805EB83055B
:104F300005444EB101352846FBF722F90BF1010B70
:104F400001305E450544F5D1A5EB080B98F80260E9
:104F500098F803C0002E00F011813B6ED80740F195
:104F60000D8198F80020D8F8041006EB4C03396244
:104F70009100396106EB8201F960202B4FEA4C0168
:104F8000796000F2AC813B6E13F004037B6100F0AA
:104F90000B814FF0000E0123F246B340BE61013B8E
:104FA000BCF1000F48D04FF00009C7F808B0E34645
:104FB000FA68C7E9093E951C01364544C7F81C90BC
:104FC00015F8013CA84A58F8233015F8021C934202
:104FD00003D3A64A9342C0F0F680A54A2AB1934271
:104FE00003D3A44A9342C0F0EE80A34A2AB193426D
:104FF00003D3A24A9342C0F0E680002C00F0FA806E
:10500000386AFFF753FF002800F0F4809C4B1B68C0
:1050100013F0060F40F0388109F10109D94505F177
:10502000020506F10206CBD1D7E9093ED7F808B050
:1050300097F81CC098F80020002162F3070198F847
:105040000120724462F30F21BA6962F317416CF3D5
:105050001F6179639CB1FD6A04212A46BB6207F196
:105060003400A0470028C0F29B803B692A46191FE4
:1050700008F10400A0470028BB6AC0F291803D6996
:1050800008EB050923B3C7E9098A0126A0461C4697
:10509000D7F82CA094FAA4F2B2FA82F219F802100E
:1050A00006FA02F287F8331024EA0204B8F1000F7E
:1050B00006D05246012107F13300C04700286FDBBC
:1050C0000135002CE6D14446D7F828A0D7F8248033
:1050D000BAF1000F3BD0002356469A46C7F828B0D5
:1050E00096FAA6F3B3FA83F3012119F8032001FA23
:1050F00003F358F822B026EA030687F83320002C81
:1051000000F096800121FA6A07F13300A0470028D9
:1051100046DB7B6E0135002B00F08180BB6E534572
:105120007DD9584BBBF1000F08BF9B467B6E33F80F
:105130001A100AF1010A002974D05846FA6AA047E9
:1051400000282DDB0544002ECAD1D7F828B0F86816
:105150007B681844BBEB000600F0BA80002C00F01E
:10516000BC803146FA6A4044A047002818DB354429
:105170000021FA6A0846A047284611E0BCF1000F5A
:1051800003D03B6E99073FF5ECAE44B1FD6A59463A
:105190002A464046A04700212A460846A0475846CE
:1051A0003C37BD46BDE8F08F3B6E13F0010300F0C5
:1051B0008B804FF0010A7B690AFA06FAB646BB619A
:1051C0000AF1FF3AECE62CB1386AFFF76FFE0028CF
:1051D0007FF41CAF3B6EDA0719D47B69002B3FF4D8
:1051E0001BAFBB697A6A0133BB610123B3401A4329
:1051F0007A6211E73B6E9B0709D4FB69721E01338B
:10520000FB61032393407A6A1A437A6204E7BB6A1C
:105210000133BB620123B3404AEA030AFCE6BBF157
:10522000000F4AD05846FAF7ABFF411C89B284E719
:105230000D44BBF1000F44D05846FAF7A1FF0130EE
:1052400003461D447B6E002B3FF47DAFBB6E534580
:105250007FF679AF7B6E23F81A000AF1010A002E5F
:105260007FF43EAF71E700BFF07E0900BCC40D00C3
:10527000000000000000000000000000000000002E
:1052800020120020AC980900C7F800D08AB03A6A12
:1052900007914FF4007106926A46ADF82010114B49
:1052A0001149059142F8103F00234FF412510F4865
:1052B00003F040FED7F800D0AEE60721DFF830B0AB
:1052C0003BE707231846BCE79E469A46BB6167E664
:1052D000002C7FF44DAF284662E7A81960E76FF015
:1052E0001B005DE704000001B498090020120020B3
:1052F000AC980900012803D0042818BF6FF01500EE
:10530000704700BF0128F8B505460C4617D00428A1
:1053100002D06FF01500F8BD7DF016FC254AC50BD4
:10532000C0F30E00A0FB0202C00B45EA414540EA73
:105330004240C90BA060256061600020F8BD7DF08F
:1053400003FC1C4AC60BC0F30E00A0FB0202C00BFC
:1053500046EA414640EA4240C90BA06026606160CF
:10536000EFF31180202383F31288BFF36F8F12496C
:105370008E68D1E9002380F31188BFF36F8FD4E9E1
:10538000000112184B414FF0000768BF2F46C4E9D7
:1053900000231FB9A3689B19A36004D7074B0FCB49
:1053A00084E80F00C9E7204600F00EFD0028F5D084
:1053B000C3E700BF00CA9A3B401A0020608F090073
:1053C00001284ED1F0B5284B8A680C469A4285B028
:1053D00044D805467DF0B8FB0346244FDA0BC3F3EF
:1053E0000E03A3FB073742EA4142DB0B524243EA7A
:1053F00047434FEAD13161EB41015B42684602937A
:105400000092019100F0E0FC009A2068019B616825
:1054100012184B414FF0000768BF2F466E46CDE98A
:10542000002397B1EFF31185202383F31288BFF394
:105430006F8F96E80F000E4C84E80F0085F31188FB
:10544000BFF36F8F002005B0F0BD029BA2689B18D0
:105450000293E7D6684600F0B7FCE3E76FF015006B
:10546000F1E76FF015007047FFC99A3B00CA9A3BFD
:10547000401A002000207047014B1860704700BFA1
:10548000E80500200FB400B583B004A951F8040B5F
:10549000019103F04FF903B05DF804EB04B07047DD
:1054A00030B4026A04688B0043F0020342F82430EF
:1054B00004694568036814F0010F0B44426A2944EB
:1054C000C5680FD1934228BF9B1AAB42036005D039
:1054D00030BC8A4298BF891A4160704744F0080482
:1054E0000461F5E7013A1340AB42036002D144F096
:1054F000080404611140416030BC704730B4056954
:10550000446A15F0010F02EB010317D1A34228BF33
:105510001B1B04689C4216D0046A930043F00203EC
:1055200044F8213001694468C907436A224410D411
:105530009A4228BFD21A426030BC7047013C2340D7
:1055400004689C42E8D125F008050561016030BC83
:105550007047013B1A40EEE72DE9F04FD0F80C8080
:10556000076A1E4617F82830044603F00303022B8F
:10557000894615464FF0000383B007EB880A2ED00A
:10558000136033600369990724D5E369504698474F
:1055900017F82820834612F001031BD0920733D559
:1055A000B9F1000F78D1D4E9021620696268C70703
:1055B000656A5A445ED4954266D8521B8E42626038
:1055C00065D040F00800C4E903101846216003B01C
:1055D000BDE8F08F0023184603B0BDE8F08F57F800
:1055E00028202B60920833600369CCD0C068616AC0
:1055F0000244D8073BD4914298BF521A23F00803C3
:10560000C4E9022223612DE0E36822690344D00744
:10561000616A48D48B4228BF5B1A22F00802C4E9B1
:1056200002332261B9F1000F04D000212268236AFD
:1056300043F822100BEB090333602268616A1344BC
:105640002269D00732D48B4228BF5B1A42F008028D
:105650002360226117F8283023F0010307F828306F
:10566000C5F800A00123184603B0BDE8F08F01394A
:105670000A40C3E7013D2A408E426260A1D15944ED
:1056800029400023A1609CE78E42626099D1594471
:105690008D4298BF491BF4E7494620460193FFF726
:1056A000FFFE019B7FE701390B40B6E701390B4054
:1056B000CCE700BF38B50D460446202200218DF00E
:1056C00029FC0022EB68E361AB68A3612B682362CD
:1056D0006B68C4E909322A6923B1591E194208BF0F
:1056E00042F001022261012204F12C000021BDE8F8
:1056F00038407AF05BBF00BF2DE9F04F00279A4693
:10570000436A85B08B42CDE902772FD304460D461C
:1057100091464FF02008BB46EFF3118688F31288BC
:10572000BFF36F8F039A002A4CD123691B071FD444
:10573000E168236899424CD8616AC91A8D421AD926
:105740002046FFF7ADFE86F31188BFF36F8F0299F5
:105750000029E1D0A269002A73D0012320460193D9
:105760009047019BCDF808B0002BD5D1002725E04C
:10577000002D4CD12368226A12F8231002EB830714
:1057800021F0030102F8231023692168D807626A17
:1057900029443ED4914228BF891AE268216091428F
:1057A00004BF43F00803236186F31188BFF36F8FB2
:1057B000029919B1A3690BB120469847384605B044
:1057C000BDE8F08F39462046FFF798FECDF80CB0C3
:1057D000ABE7C91A8D42CED959EA0A0305D0019127
:1057E0007BF046FD019900B9B6B103AB204602AA91
:1057F0002768FFF7B1FE034686F31188BFF36F8F6A
:1058000002990029B0D0A269002AA7D1AAE70021F5
:10581000E2E7013A1140C0E786F31188BFF36F8FCA
:105820004A46534604F12C007AF016FFEFF3118636
:10583000202383F31288BFF36F8FB0FA80F35B09E4
:10584000DAE7029268E700BF38B50446C369084644
:105850000D469847EFF31181202383F31288BFF39D
:105860006F8F2B7843F001032B7022696368D50793
:105870001844636A1DD4984228BFC01A606050075C
:1058800010D51207A56A12D4E068226890429CBF26
:10589000C01800F1FF30821A013B9B1AAB4238BF9F
:1058A0002B46A36281F31188BFF36F8F38BD0022AE
:1058B000F2E75D1E2840E1E72DE9F0414FF0000CD2
:1058C00020260446EFF3118586F31288BFF36F8F0D
:1058D0002169A36808072FD4626893422CD8D21A92
:1058E00072B3276A4FEA830E17F8232007EB830869
:1058F00012F0030024D002284AD0D10730D4E36943
:1059000040469847A3682169E26803441044CA07E7
:10591000676A42D4BB4228BFDB1B874298BFC01BCB
:1059200021F00801C4E90230216185F31188BFF339
:105930006F8F4FF0010CC5E7626AD21A002AD0D1EE
:1059400085F31188BFF36F8FBCF1000F03D004F112
:105950002C007AF03FFE4FF000084046BDE8F08191
:1059600042F0020207F80E20E3694046A668984715
:105970002269636AD207304413D4984228BFC01A00
:10598000A06085F31188BFF36F8F4046BDE8F081BA
:1059900057F823008008B7D1AFE7013F3B403840BC
:1059A000BEE7013B1840EBE738B50446C36908463B
:1059B0000D469847EFF3118C202383F31288BFF331
:1059C0006F8F2B7823F001032B7023699B070AD577
:1059D000E268236A03EB82039D4204D02B6860F3E4
:1059E0009F032B6015E02B7823F002032B70D4F873
:1059F00008E0D4E903327345616A02F001051844F6
:105A000011D0EDB9814298BF401A22F00802C4E9D2
:105A100003028CF31188BFF36F8F04F12C00BDE8F3
:105A200038407AF0D7BD2DB988422ABF431AA0600A
:105A3000A360E7E7013901EA0003A3600840E4E757
:105A40000139FBE7EFF31182202383F31288BFF3C0
:105A50006F8F01698368090704D441688B4201D8BC
:105A6000C81A01E0406AC01A82F31188BFF36F8F31
:105A7000003818BF01207047044608B5EFF31183C2
:105A8000202383F31288BFF36F8F6DF0BFFF204692
:105A90003AF068F90248FFF7F5FC38F0CDFAFCE778
:105AA0006C990900092803D830300870002070472D
:105AB0000F2803D857300870002070476FF015008A
:105AC000704700BF70B50C4604F00105014605EBB8
:105AD0005400984257D86608002D44D1002E41D07A
:105AE000013A01EB460E1CE0ACF1570C5FFA8CF367
:105AF0001B01DBB253704C78A4F1300C5FFA8CFCC4
:105B0000BCF1090F07D9A4F1610CBCF1050F1CD839
