:020000040000FA
:10000000D8DE062009AF030011A80300F5AE0300F7
:10001000F5AE0300F5AE0300F5AE0300F5AE030048
:10002000000000000000000000000000DDAF030041
:10003000F5AE03000000000001B20300F5AE0300BE
:1000400085B2030085B2030085B2030085B20300C8
:1000500085B2030085B2030085B2030085B20300B8
:1000600085B2030085B2030085B2030085B20300A8
:1000700085B2030085B2030085B2030085B2030098
:1005000030B490F800F020F007016FF0000C10F00C
:10051000070491F820F040F048804FF000046FF09D
:100520000700D1E9002391F840F000F1080082FAB9
:100530004CF2A4FA8CF283FA4CF3A2FA8CF34BBB84
:10054000D1E9022382FA4CF200F10800A4FA8CF2FD
:1005500083FA4CF3A2FA8CF3E3B9D1E9042382FACB
:100560004CF200F10800A4FA8CF283FA4CF3A2FAE0
:100570008CF37BB9D1E9062301F1200182FA4CF218
:1005800000F10800A4FA8CF283FA4CF3A2FA8CF37F
:10059000002BC6D0002A04BF04301A4612BAB2FAA1
:1005A00082F200EBD20030BC7047D1E9002304F0A6
:1005B0000305C4F100004FEAC50514F0040F91F8DB
:1005C00040F00CFA05F562EA05021CBF63EA050378
:1005D00062464FF00004AAE700000000000000009F
:1005E00002780B78012A28BF9A4240F0D8806DE942
:1005F000044540EA0104CDE902676FF0000C4FEAC0
:1006000044721AB380EA010414F0070F6BD100F0B2
:10061000070420F0070004F0030521F007014FEA6A
:10062000C505F0E8042314F0040FF1E804670CFAA0
:1006300005F462EA040266EA04060BD063EA0403E6
:10064000624667EA0407664604E000BFF0E8042358
:10065000F1E8046782FA4CF582EA0604A4FA8CF405
:100660006CBB83FA4CF583EA0705A5FA8CF595B9BE
:1006700050E9022351E9026782FA4CF582EA060446
:10068000A4FA8CF483FA4CF583EA0705A5FA8CF5F5
:100690002543DBD09CB92DBAB5FA85F424F00704C4
:1006A00027FA04F1DDE9026723FA04F303F0FF00FF
:1006B00001F0FF01FDE80445A0EB0100704724BAFA
:1006C000B4FA84F424F0070426FA04F1DDE90267A1
:1006D00022FA04F202F0FF0001F0FF01FDE80445F8
:1006E000A0EB0100704714F0030F3CD110F003049D
:1006F00028D150F8082B51F8083B82FA4CF582EAD1
:100700000305A5FA8CF55DB950F8042C51F8043CAA
:1007100082FA4CF582EA0305A5FA8CF5002DE8D0A3
:100720002DBAB5FA85F424F0070423FA04F122FA6D
:1007300004F202F0FF0001F0FF01FDE80445A0EB28
:10074000010070474FEAC40420F0030050F8082B62
:1007500021F0030151F8083B0CFA04F462EA0402A8
:1007600063EA0403C9E710F003041DD0A1EB040100
:1007700020F00300E40750F8042B06D012D28B7847
:100780005FFAA2F4E41A06D12BB1CB785FFAB2F487
:10079000E41A00D133B920465DF8104B7047A2EB44
:1007A0000300704701F1040150F8042BCC0721F03D
:1007B000030151F8043B48D824D222F07F4482FA46
:1007C0004CF594EA1325A5FA8CF50AD165B951F8D0
:1007D000043B84EA0204B4EB036F0ED150F8042BFF
:1007E000EBE74FEA132355E035F07F454DD108780C
:1007F000FDE80445C0F1000070474FEA126203F0C3
:10080000FF0347E002EA1C4482FA4CF594EA1345E0
:10081000A5FA8CF50AD165B951F8043B84EA0204C3
:10082000B4EB034F0CD150F8042BEBE74FEA134322
:1008300030E015EA1C4528D10B884FEA124229E026
:100840004FEA124203EA1C4324E002F0FF0482FA5A
:100850004CF594EA1365A5FA8CF50AD165B951F8FF
:10086000043B84EA0204B4EB032F09D150F8042BB3
:10087000EBE74FEA13630DE015F0FF0F05D10B68AE
:100880004FEA122223F07F4304E04FF00000FDE81E
:100890000445704712BA1BBA82FA4CF482EA030488
:1008A000A4FA8CF5B5FA85F402FA04F203FA04F31B
:1008B0004FEA1260FDE80445A0EB1360704700BFEB
:1008C00001F0FF01102A2BDB10F0070F08D010F801
:1008D000013B013A8B422DD010F0070F42B3F6D105
:1008E000F0B441EA012141EA014122F007047FF01E
:1008F00000070023F0E80256083C85EA010586EA75
:10090000010685FA47F5A3FA87F586FA47F6A5FAB0
:1009100087F68EB9EED1F0BC01F0FF0102F00702BC
:1009200032B110F8013B013A83EA010313B1F8D167
:100930000020704701387047002D06BF3546033848
:10094000073815F0010F07D1013015F4807F02BF81
:10095000013015F4C03F0130F0BC0138704700BFD2
:1009600080EA0102844612F0030F4FD111F0030F09
:1009700032D14DF8044D11F0040F51F8043B0BD067
:10098000A3F101329A4312F0803F04BF4CF8043BBC
:1009900051F8043B16D100BF51F8044BA3F10132CA
:1009A0009A4312F0803FA4F101320BD14CF8043B82
:1009B000A24312F0803F04BF51F8043B4CF8044BB3
:1009C000EAD023460CF8013B13F0FF0F4FEA332324
:1009D000F8D15DF8044B704711F0010F06D011F803
:1009E000012B0CF8012B002A08BF704711F0020FF1
:1009F000BFD031F8022B12F0FF0F16BF2CF8022BDC
:100A00008CF8002012F47F4FB3D1704711F8012BFE
:100A10000CF8012B002AF9D1704700BF844641EA47
:100A2000000313F0030349D1403A23D30B6803605A
:100A30004B6843608B688360CB68C3600B6903615C
:100A40004B6943618B698361CB69C3610B6A036244
:100A50004B6A43628B6A8362CB6AC3620B6B03632C
:100A60004B6B43638B6B8363CB6BC3634030403111
:100A7000403ADBD230320BD30B6803604B684360E3
:100A80008B688360CB68C36010301031103AF3D2AA
:100A90000C3205D351F8043B40F8043B043AF9D238
:100AA000043208D0D2071CBF11F8013B00F8013B0B
:100AB00001D30B8803806046704700BF082A13D318
:100AC0008B07B1D010F00303AED0C3F10403D21AE8
:100AD000DB071CBF11F8013B00F8013BA4D331F840
:100AE000023B20F8023B9FE7043AD9D3013A11F8C0
:100AF000013B00F8013BF9D20B7803704B7843704F
:100B00008B7883706046704781F0004102E000BF3F
:100B100083F0004330B54FEA41044FEA430594EABD
:100B2000050F08BF90EA020F1FBF54EA000C55EAF8
:100B3000020C7FEA645C7FEA655C00F0E2804FEAC9
:100B40005454D4EB5555B8BF6D420CDD2C4480EAAB
:100B5000020281EA030382EA000083EA010180EADB
:100B6000020281EA0303362D88BF30BD11F0004F29
:100B70004FEA01314FF4801C4CEA113102D040425F
:100B800061EB410113F0004F4FEA03334CEA13339A
:100B900002D0524263EB430394EA050F00F0A780B2
:100BA000A4F10104D5F1200E0DDB02FA0EFC22FAAD
:100BB00005F2801841F1000103FA0EF2801843FAA1
:100BC00005F359410EE0A5F120050EF1200E012A92
:100BD00003FA0EFC28BF4CF0020C43FA05F3C018D0
:100BE00051EBE37101F0004507D54FF0000EDCF149
:100BF000000C7EEB00006EEB0101B1F5801F1BD3F2
:100C0000B1F5001F0CD349085FEA30004FEA3C0CF5
:100C100004F101044FEA445212F5800F80F09A80EB
:100C2000BCF1004F08BF5FEA500C50F1000041EBEF
:100C3000045141EA050130BD5FEA4C0C404141EBF3
:100C40000101013C28BFB1F5801FE9D291F0000FEE
:100C500004BF01460020B1FA81F308BF2033A3F19D
:100C60000B03B3F120020CDA0C3208DD02F1140C94
:100C7000C2F10C0201FA0CF021FA02F10CE002F1CF
:100C80001402D8BFC2F1200C01FA02F120FA0CFCC8
:100C9000DCBF41EA0C019040E41AA2BF01EB045111
:100CA000294330BD6FEA04041F3C1CDA0C340EDC0F
:100CB00004F11404C4F1200220FA04F001FA02F352
:100CC00040EA030021FA04F345EA030130BDC4F110
:100CD0000C04C4F1200220FA02F001FA04F340EA05
:100CE0000300294630BD21FA04F0294630BD94F0B6
:100CF000000F83F4801306BF81F480110134013D9D
:100D00004EE77FEA645C18BF7FEA655C29D094EA0D
:100D1000050F08BF90EA020F05D054EA000C04BF8B
:100D20001946104630BD91EA030F1EBF0021002076
:100D300030BD5FEA545C05D14000494128BF41F015
:100D4000004130BD14F580043CBF01F5801130BD79
:100D500001F0004545F0FE4141F470014FF0000004
:100D600030BD7FEA645C1ABF194610467FEA655CB5
:100D70001CBF0B46024650EA013406BF52EA033557
:100D800091EA030F41F4002130BD00BF90F0000F45
:100D900004BF0021704730B54FF4806404F1320481
:100DA0004FF000054FF0000150E700BF90F0000F3A
:100DB00004BF0021704730B54FF4806404F1320461
:100DC00010F0004548BF40424FF000013EE700BF31
:100DD00042004FEAE2014FEA31014FEA02701FBFC1
:100DE00012F07F4393F07F4F81F06051704732F0F3
:100DF0007F4208BF704793F07F4F04BF41F400214A
:100E0000704730B54FF4607401F0004521F00041A7
:100E10001CE700BF50EA010208BF704730B54FF031
:100E200000050AE050EA010208BF704730B511F032
:100E3000004502D5404261EB41014FF4806404F16A
:100E400032045FEA915C3FF4D8AE4FF003025FEAF0
:100E5000DC0C18BF03325FEADC0C18BF033202EB74
:100E6000DC02C2F1200300FA03FC20FA02F001FACE
:100E700003FE40EA0E0021FA02F11444BDE600BF71
:100E800070B54FF0FF0C4CF4E06C1CEA11541DBF20
:100E90001CEA135594EA0C0F95EA0C0F00F0DEF8EB
:100EA0002C4481EA030621EA4C5123EA4C5350EAD0
:100EB000013518BF52EA033541F4801143F4801321
:100EC00038D0A0FB02CE4FF00005E1FB02E506F0B2
:100ED0000042E0FB03E54FF00006E1FB03569CF007
:100EE000000F18BF4EF0010EA4F1FF04B6F5007F0D
:100EF00064F5407404D25FEA4E0E6D4146EB06067F
:100F000042EAC62141EA55514FEAC52040EA5E5007
:100F10004FEACE2EB4F1FD0C88BFBCF5E06F1ED8B1
:100F2000BEF1004F08BF5FEA500E50F1000041EBE8
:100F3000045170BD06F0004646EA010140EA020095
:100F400081EA0301B4EB5C04C2BFD4EB0C0541EAB7
:100F5000045170BD41F480114FF0000E013C00F3CC
:100F6000AB8014F1360FDEBF002001F0004170BDF0
:100F7000C4F10004203C35DA0C341BDC04F1140409
:100F8000C4F1200500FA05F320FA04F001FA05F295
:100F900040EA020001F0004221F0004110EBD37062
:100FA00021FA04F642EB06015EEA430E08BF20EA8E
:100FB000D37070BDC4F10C04C4F1200500FA04F331
:100FC00020FA05F001FA04F240EA020001F00041C3
:100FD00010EBD37041F100015EEA430E08BF20EA36
:100FE000D37070BDC4F1200500FA05F24EEA020E7E
:100FF00020FA04F301FA05F243EA020321FA04F0AD
:1010000001F0004121FA04F220EA020000EBD37063
:101010005EEA430E08BF20EAD37070BD94F0000F63
:101020000FD101F00046400041EB010111F4801F97
:1010300008BF013CF7D041EA060195F0000F18BF48
:10104000704703F00046520043EB030313F4801F84
:1010500008BF013DF7D043EA0603704794EA0C0F3E
:101060000CEA135518BF95EA0C0F0CD050EA410654
:1010700018BF52EA4306D1D181EA030101F00041D1
:101080004FF0000070BD50EA410606BF10461946F9
:1010900052EA430619D094EA0C0F02D150EA013605
:1010A00013D195EA0C0F05D152EA03361CBF104646
:1010B00019460AD181EA030101F0004141F0FE41E5
:1010C00041F470014FF0000070BD41F0FE4141F469
:1010D000780170BD70B54FF0FF0C4CF4E06C1CEA69
:1010E00011541DBF1CEA135594EA0C0F95EA0C0F1E
:1010F00000F0A7F8A4EB050481EA030E52EA0335D9
:101100004FEA013100F088804FEA03334FF08055F9
:1011100045EA131343EA12634FEA022245EA111526
:1011200045EA10654FEA00260EF000419D4208BFD7
:10113000964244F1FD0404F5407402D25B084FEA84
:101140003202B61A65EB03055B084FEA32024FF430
:1011500080104FF4002CB6EB020E75EB030E22BF8D
:10116000B61A754640EA0C005B084FEA3202B6EB4D
:10117000020E75EB030E22BFB61A754640EA5C00FC
:101180005B084FEA3202B6EB020E75EB030E22BF8C
:10119000B61A754640EA9C005B084FEA3202B6EB8D
:1011A000020E75EB030E22BFB61A754640EADC004C
:1011B00055EA060E18D04FEA051545EA16754FEAAE
:1011C00006164FEAC30343EA52734FEAC2025FEACC
:1011D0001C1CC0D111F4801F0BD141EA00014FF05B
:1011E00000004FF0004CB6E711F4801F04BF01432C
:1011F0000020B4F1FD0C88BFBCF5E06F3FF6AFAE48
:10120000B5EB030C04BFB6EB020C5FEA500C50F1D7
:10121000000041EB045170BD0EF0004E4EEA11315A
:1012200014EB5C04C2BFD4EB0C0541EA045170BD61
:1012300041F480114FF0000E013C90E645EA060EA5
:101240008DE60CEA135594EA0C0F08BF95EA0C0FD3
:101250003FF43BAF94EA0C0F0AD150EA01347FF41B
:1012600034AF95EA0C0F7FF425AF104619462CE7F2
:1012700095EA0C0F06D152EA03353FF4FDAE104655
:10128000194622E750EA410618BF52EA43067FF4A6
:10129000C5AE50EA41047FF40DAF52EA43057FF436
:1012A000EBAE12E74FF0FF3C06E000BF4FF0010C41
:1012B00002E000BF4FF0010C4DF804CD4FEA410CA5
:1012C0007FEA6C5C4FEA430C18BF7FEA6C5C1BD072
:1012D00001B050EA410C0CBF52EA430C91EA030FF3
:1012E00002BF90EA020F0020704710F1000F91EA50
:1012F000030F58BF994208BF90422CBFD8176FEA1E
:10130000E37040F0010070474FEA410C7FEA6C5CEB
:1013100002D150EA013C07D14FEA430C7FEA6C5CF2
:10132000D6D152EA033CD3D05DF8040B704700BF1E
:101330008446104662468C461946634600E000BF6C
:1013400001B5FFF7B7FF002848BF10F1000F01BD3E
:101350004DF808EDFFF7F4FF0CBF012000205DF809
:1013600008FB00BF4DF808EDFFF7EAFF34BF01208E
:1013700000205DF808FB00BF4DF808EDFFF7E0FF27
:1013800094BF012000205DF808FB00BF4DF808ED78
:10139000FFF7CEFF94BF012000205DF808FB00BFDF
:1013A0004DF808EDFFF7C4FF34BF012000205DF8C1
:1013B00008FB00BF4A0011D212F5001211D20DD560
:1013C0006FF47873B3EB62520ED44FEAC12343F04B
:1013D000004343EA505323FA02F070474FF00000F5
:1013E000704750EA013002D14FF0FF3070474FF0A4
:1013F000000070474FEA4102B2F1E04324BFB3F569
:10140000001CDCF1FE5C0DD901F0004C4FEAC0027B
:101410004CEA5070B2F1004F40EB830008BF20F05F
:101420000100704711F0804F21D113F13872BCBF19
:1014300001F00040704741F480114FEA5252C2F16E
:101440001802C2F1200C10FA0CF320FA02F018BFB7
:1014500040F001004FEAC1234FEAD32303FA0CFC0A
:1014600040EA0C0023FA02F34FEA4303CCE77FEA99
:10147000625307D150EA01331EBF4FF0FE4040F4E3
:101480004000704701F0004040F0FE4040F4000092
:10149000704700BF7BB972B90029BEBF00204FF072
:1014A000004106E008BF00281CBF6FF000414FF06C
:1014B000FF3000F075B8ADF1080C6DE904CE0029DD
:1014C00009DB002B1ADB00F080F8DDF804E0DDE931
:1014D000022304B07047404261EB4101002B1BDB4B
:1014E00000F073F8DDF804E0DDE9022304B04042C7
:1014F00061EB4101524263EB43037047524263EB9D
:10150000430300F062F8DDF804E0DDE9022304B0F3
:10151000404261EB41017047524263EB430300F0EC
:1015200054F8DDF804E0DDE9022304B0524263EB35
:101530004303704753B94AB9002908BF00281CBFAC
:101540004FF0FF314FF0FF3000F02AB8ADF1080C3A
:101550006DE904CE00F039F8DDF804E0DDE902239E
:1015600004B07047D0B500220B4B06460F46FFF77C
:1015700087FCFFF71FFF0446FFF708FC0022074B1C
:10158000FFF77EFC02460B4630463946FFF7C0FAAD
:10159000FFF710FF2146D0BD0000F03D0000F041F4
:1015A000704700BF430803F05533C01A00F03333CF
:1015B000800800F0333018444FF0013300EB101076
:1015C00000F00F305843000E70472DE9F0478C466D
:1015D0008E46089E154604461946002B40F0D080E2
:1015E000724547D9B2FA82F74FB1C7F120030EFA1C
:1015F00007FCBD40BC4020FA03F343EA0C0C4FEA61
:10160000154EA8B2230CBCFBFEF80EFB18CC08FB51
:1016100000F943EA0C43994528D9EB1808F1FF3249
:1016200004D2994502D9A8F102022B44A3EB090385
:10163000A4B2B3FBFEFC0EFB1C330CFB00F044EA2F
:101640000344A04214D92C190CF1FF3304D2A04258
:1016500002D9ACF102032C44241A43EA02401EB121
:10166000FC40002334607360BDE8F0874246DDE74C
:101670006346F1E7002A79D0B2FA82F3002B3FD01B
:101680001946C1F1200302FA01F500FA01F42EFA1D
:1016900003F20EFA01FE20FA03F3AFB243EA0E039F
:1016A0004FEA154EB2FBFEFC0EFB1C201A0C0CFB85
:1016B00007F842EA004290455AD9AA180CF1FF30C7
:1016C00004D2904502D9ACF102002A44A2EB0802F0
:1016D0009BB2B2FBFEFC0EFB1C220CFB07F743EA9D
:1016E00002439F4246D9EB180CF1FF3204D29F42CD
:1016F00002D9ACF102022B44DB1B42EA004202E0B9
:10170000AEEB020301224FEA154EAFB2200CB3FB41
:10171000FEFC0EFB1C330CFB07F840EA0343984524
:101720002AD9EB180CF1FF3004D2984502D9ACF15C
:1017300002002B44A3EB0803A4B2B3FBFEFC0EFB98
:101740001C330CFB07F744EA0344A74216D92C19B3
:101750000CF1FF3304D2A74202D9ACF102032C44AE
:10176000E41B43EA00400F46114678E71F2188E753
:101770006046ABE76246BFE76046DBE76346EFE7FC
:10178000734506D916B9002108466DE7C6E9000E73
:10179000F9E7B3FA83F787B9734501D3824207D8D3
:1017A000841A6EEB030301209C461EB900215BE7FF
:1017B0003846FAE7C6E9004CF8E7C7F1200CBB4011
:1017C00000FA07F422FA0CF520FA0CF1BA401D4396
:1017D0002EFA0CF30EFA07FE4FEA154941EA0E0104
:1017E0001FFA85FEB3FBF9F809FB18300B0C08FB58
:1017F0000EFA43EA00439A4540D9EB1808F1FF304E
:1018000004D29A4502D9A8F102002B44A3EB0A03A3
:1018100089B2B3FBF9F809FB183308FB0EFE41EA65
:1018200003418E452CD9691808F1FF3304D28E4547
:1018300002D9A8F10203294443EA0040A1EB0E01BA
:10184000A0FB02984145CE46434602D306D14C4503
:1018500004D20138B9EB020E68EB0503002EA5D0C7
:10186000B4EB0E0261EB030101FA0CFC22FA07F360
:10187000F9404CEA0303C6E9003197E74046C5E763
:101880004346D9E7000000002DE9F04705460C4625
:1018900016468AB083F09AFC47014FEA411C3F1A72
:1018A0004CEAD06C6CEB010C4FEA870E4FEA8C0CC3
:1018B0001EEB00004CEA977C41EB0C0C4FEACC0C81
:1018C0004CEA507147F612220023C000FFF732FEA7
:1018D000012C80460F4645D0746823782D2B3AD0D2
:1018E00021462B48FEF77CFE002843D126A3D3E9EE
:1018F000002340463946FFF7CDFD06460C4610460C
:101900001946244A0023FFF7C5FD80460F461046BE
:1019100019464EF660220023FFF7BCFD8246894639
:10192000104619464FF47A720023FFF7B3FDCDE954
:1019300004A9CDE90601CDE9082328460821CDE90F
:101940000064154ACDF80880039708F03BF80020A2
:101950000AB0BDE8F0876378702BC1D1A378002B63
:10196000C4D0BDE708212846CDE900870B4A08F01E
:1019700029F8ECE7284623460121094A08F022F815
:101980006FF00400E4E700BF005C260500000000E3
:10199000BC72090080EE3600E0720900A8720900EE
:1019A000C87209000000000070B50446002840D04D
:1019B000C3689B68DD6AF5B12B69E3B1102012F0B2
:1019C00025F9E06220B3012304F1140684F83030D5
:1019D000304681F089FC2B69206998470546E8B9B3
:1019E00021A3D3E90023304681F056FC94F830302F
:1019F0002BBBE06A70BD0520154A164912F03CF970
:101A0000E06A18B110F0EEF80023E362002070BD28
:101A100005200F4A104912F02FF9F1E705200C4A72
:101A20000E4912F029F90023013584F83030E0D155
:101A3000E6E70520064A0A4912F01EF9E0E705200C
:101A4000034A084912F018F984F83050D8E700BF6B
:101A50003CE70B00B0BC0900D8BC090004BD09007C
:101A600018B7090024BD090076B01000000000007E
:101A70002DE9F04FD1F888700C4683461546C5B065
:101A80000FB9D1F88C70D5F888A0BAF1000F01D148
:101A9000D5F88CA005F12006314658462AF010FCF6
:101AA000002840F01281DBF8F8104B6B3BB1304658
:101AB00006221C318EF012FD002800F034815846B9
:101AC0001AA904F5C6782AF0E1FB002800F002818B
:101AD000D4E91F36D4F8649012933946404694F8FE
:101AE000542019F029FD0246334639464046164631
:101AF00094F8542019F036FD5146149095F854206E
:101B000005F5C670D5F87CA0D5F8648019F014FDF1
:101B1000129B074603F59C5308335345C0F00381DD
:101B2000286DB0F57A6F00F30381002316930FF050
:101B30001FF8002840F0088108EB070319EB06099D
:101B4000139300F19B80129A0AF59C5308339A4232
:101B500000F2BB80149BB3F57A7F80F2B680022737
:101B60001298FFF713F9CDE914015046FFF70EF96B
:101B700002460B46CDE916230022AF4BFFF780F952
:101B800002460B46DDE91401FFF70AFC002800F0CD
:101B9000E2800A37266D30460EF0EAFF002840F05A
:101BA00018816FF47A6240F2657316449E428CBFCE
:101BB00000260126D5F8508040460EF0D9FF0028B7
:101BC00040F004816FF47A63984440F2657398455D
:101BD0008CBF4FF000084FF00108DBF8983CA6EBF3
:101BE000080607EB46072BB14B4503DB139A9342DC
:101BF000B8BF023F139ACDF844A01092129A139BDB
:101C0000CDE907922A6DA3EB09030F9295F82520E1
:101C10009F420E9295F82420D4BF012600260D92F3
:101C200095F8232058460C9295F822204FF0030196
:101C30000B9295F82120D8BF804B0A9295F820206E
:101C4000C8BF7F4B0992226D069294F82520059219
:101C500094F82420049294F82320039294F82220EC
:101C6000029294F8212094F8204001920094754A41
:101C700012F066F9304645B0BDE8F08F0223169A9F
:101C8000139912FB031210FB0320484513DA504648
:101C9000FFF77CF8064612980F46FFF777F84FF0EB
:101CA0003332694BFFF7ECF802460B4630463946B3
:101CB000FFF758FB48B9129A0AF59C5308339A4229
:101CC00003D8149BB3F57A7F63DB0026304645B01A
:101CD000BDE8F08FBDF9F230002B3FF4F9AE9DF96D
:101CE000F330002B67D0994642F20F73409E9E421C
:101CF00056D0204622F068FBD4F888200346A9EB92
:101D000006060AB9D4F88C200B2100968DF86710CE
:101D1000216D584601910DF167010291414619F07C
:101D200081FC1290D9E60126304645B0BDE8F08F1F
:101D3000236DB3F57A6FACBF0023012316930EF029
:101D400017FF00283FF4F8AE206D0EF011FF80F071
:101D50000100C0B2F0E64FF03332DDE916013A4B34
:101D6000FFF78EF802460B46DDE91401FFF718FB7A
:101D7000A0B92FA3D3E90023DDE91601FFF780F80E
:101D800002460B46DDE91401FFF70AFB18B30237E0
:101D900000E719F1550F6FDA0127E1E60537F9E69B
:101DA0006FF47A6140F265731A9842189A4217D814
:101DB0006FF05B069DE7394640469DF804219DF98A
:101DC000F29019F0B9FBA9EB00098DE74FF002087A
:101DD00003E70226EEE6129B534508D90137D9E600
:101DE0000EF0C6FE0028E3D16FF0580681E700220E
:101DF000DDE91401104BFFF743F802460B46DDE91D
:101E00001601FFF7CDFA08B10A3FC3E64FF03332AF
:101E1000DDE914010C4BFFF733F802460B46DDE910
:101E20001601FFF7BDFA88B1053FB3E6AFF30080B6
:101E30009A9999999999F13F0000F83F4C120A003C
:101E400060120A0078120A003333F33F12A3D3E979
:101E50000023DDE91401FFF713F802460B46DDE924
:101E60001601FFF79DFA08B1023F93E6129B534516
:101E700038BF07F1FF378DE619F1500FFFF66FAE4F
:101E800019F14B0F01DA03276AE619F1460FB4BFC7
:101E90000427052764E600BF9A9999999999F13F1B
:101EA000D0B513A1D1E9000100240B4E0B4AC6E9BD
:101EB0000401726030468326094B0A4F1C601C7275
:101EC0005C6055F01DF9084B084AC3E904675A6085
:101ED0002046D0BDAFF300804838002005E904005B
:101EE000D86A00200000D0D0303800203DED04003A
:101EF0002CFA02000000D0D010B5174C8C46A0423E
:101F0000964613D00134A04206D0023CA04211D024
:101F1000BDE810408AF00CB909A1D1E90001CEE971
:101F200000010E4B0020CCF8003010BD06A1D1E915
:101F30000001F4E706A1D1E90001F0E7AFF300806A
:101F400003C0FF7F0000000002C0FF7F0000000010
:101F500001C0FF7F0000000002C0FF7F03004E8031
:101F600038B520A1D1E90001194CE36CC4E90001A6
:101F700024613BB9174B04F14C0198698CF03EFB8E
:101F80000123E364236D1248B3F5007FCCBF4FF407
:101F900080634FF40073A3608CF07EF80C488CF0E3
:101FA000ADF80B488CF0AAF8042200250A4BC3F8C0
:101FB000082386F009FC094B094A1868126823694E
:101FC00065649A668DF01CFE284638BDAFF300802C
:101FD000385600200020015000900550F0120020DB
:101FE000D0450C000020015000800150704700BF18
:101FF00008B50A4A0A4B12680A49A3FB02320A488A
:10200000920C01F0A1FA094850F0BEF950F0D2F953
:102010000749064863F016FF002008BD5012002053
:1020200083DE1B43906C09009C6C09007051090011
:10203000C46C090008B50549054881F0A1FC0549B3
:10204000054881F09DFC002008BD00BF252100004F
:10205000801B00205D200000501B002010B506F002
:1020600075F90446084804F0E3FF204607F09AFBA0
:102070004FF0000C054B204683F800C00821BDE856
:102080001040034A07F09EBCE0500900D49900209C
:10209000DC6C090070B51D4B06461B7882B063BB33
:1020A0001B48154681F078FC044630BB0A2268685C
:1020B00001A98FF055F9019A034612789AB9421E88
:1020C000B2F5616F0FD2134A304613600821124AED
:1020D00007F078FC41F66A0200230D4881F0A0FC6D
:1020E000204602B070BD4FF46163012130460B4AB7
:1020F00007F068FC6FF01504F2E701213046084A4A
:1021000007F060FC6FF00F04EAE700BFD4990020ED
:10211000801B0020A4560020286D0900106D0900C6
:10212000F06C090010B582B006F010F9044607F013
:102130009FFB1D4804F05EFF002140F21B6082F00F
:1021400005FD19480DF1070104F0EEFE9DF807307A
:10215000012B0ED0144804F06BFF204607F022FB41
:1021600001212046114A9DF8073007F02BFC02B0F0
:1021700010BD4FF47A720E490E4C40F2E7302370D6
:102180000B68002102FB03F347F61222E3FB020176
:102190004FF47A720023FFF7CDF902460B4606484A
:1021A00081F03EFC02B010BDE05009006C6D0900EA
:1021B000A4560020D4990020501B002030B485681C
:1021C00000EBC103B5F5004FA2EB0104A1EB020146
:1021D00021D35D6801EB550165005D60D0F808C052
:1021E0004D00BCF5004F00EBC2032CBF5D605D806D
:1021F0008568B5F5004F2CBF40F8324020F83240DA
:102200008468B4F5004F0CD35B6802EB530340F8CD
:10221000331030BC70475D8801EB550165005D806F
:10222000DCE75B8802EB530220F8321030BC7047C9
:10223000836810B5B3F5004F00EBC10100EBC20C91
:1022400019D3DCF804304C685B0803EB54035C00E2
:102250004C608168B1F5004F06D3DCF8041002EB46
:10226000510240F8323010BDBCF8021002EB5102AE
:1022700020F8323010BD4B88BCF802E05B0803EB5D
:102280005E034FEA430EA1F802E0E2E7836810B56F
:10229000B3F5004F00EBC10C0CD3DCF80C308B42D3
:1022A00040D0DCF8081000EB8202D36100EBC102E1
:1022B000D3600BE0BCF806308B421DD0BCF8041094
:1022C00000EB8202D36100EBC102D380826800EB95
:1022D000C303B2F5004F2CBF996099808368B3F5B2
:1022E000004F15D30823DCF8042001695208D200FE
:1022F0000B449B1A036110BD4FF0010E0024C1680E
:1023000000EB82030EFA02F221EA0201C160DC61F5
:102310000423BCF8022001695208D2000B449B1A26
:10232000036110BD4FF0010E0024C16800EB820371
:102330000EFA02F221EA0201C160DC61D2E700BFBD
:10234000826800EBC103B2F5004F0BD35B68032B2F
:102350004FEA53020ED9013AB2FA82F2C2F11F02D9
:10236000FFF794BF5A885208B2FA82F2C2F11F02F4
:10237000FFF78CBF704700BF2DE9F0418668B6F5C6
:10238000004F34BF0B4601F1FF33B3FA83F3C3F1BF
:102390001F0200EB8207FD69A5B12C464FF0030C2C
:1023A000B6F5004F00EBC40E17D3DEF80480B1EB96
:1023B000580F21D9DEF80C40BCF1010CFC6101D0B2
:1023C000AC42EDD14FF0FF34C268C3F120039C4012
:1023D00014400AD12046BDE8F081BEF80280B1EB7E
:1023E000580F09D9BEF80640E6E794FAA4F2B2FA0B
:1023F00082F200EB8203DC692146FFF747FF2046AB
:10240000BDE8F081826810B5B2F5004F00EBC10362
:1024100018D35C68032C4FEA540248D9013AB2FA47
:1024200082F2C2F11F0200EB820CDCF81C40002C8F
:102430004DD101249440C2682243C260CCF81C10E4
:1024400099603DE05A885208B2FA82F2C2F11F0246
:1024500000EB820CDCF81C4054B300EBC40CBCF85D
:1024600004209A80D0F808E000EBC202BEF5004FCD
:102470002CBFDC60DC808468B4F5004F2CBFD160D9
:10248000D1808268B2F5004F2CBFCCF80810ACF8B0
:1024900004108268B2F5004F2BBF082104215B684D
:1024A0005B8802695B08DB0013445B1A036110BDA3
:1024B00001249440C2682243C260CCF81C10998069
:1024C0008268B2F5004F2CBFD960D980E1E700EBFC
:1024D000C40CDCF808209A60C4E700BF002900F0B3
:1024E000B6802DE9F84304688846A36800AFB3F5C9
:1024F000004F59D20D1F2D1B25F007062644738867
:10250000ED08D90712D4654803685A0740F0B38034
:10251000002383F31188BFF36F8F0423184602DF73
:10252000A368B3F5004F80F09080738805EB5302E9
:1025300034F83210521AAA4211D0584803685B0787
:1025400040F08680002383F31188BFF36F8F04234C
:10255000184602DFA368B3F5004F71D2738823F0E9
:1025600001037380A2686369B2F5004F35D37268C6
:102570005208C2F1010203EBC2036361726805EB0A
:10258000520804EBC8035B68D9074CD53668AE1B0C
:1025900004EBC6035B68DB0735D529462046FFF709
:1025A00031FFBD46BDE8F883A1F108052D1B25F0DC
:1025B000070626447368ED08D807A4D505EB530237
:1025C00054F83210521AAA42B7D123F001037360B3
:1025D000A2686369B2F5004FC9D272880433520809
:1025E000A3EBC2036361B6F8028005EB580804EB65
:1025F000C8035B88DA0716D53688AE1B04EBC60322
:102600005B88DB07C9D420463146FFF799FE2A468E
:1026100035463146FFF70CFE29462046FFF7F2FE0D
:10262000BD46BDE8F88341462046FFF789FE424695
:102630002946FFF7FDFDA368B3F5004FA6D2DBE7FF
:10264000736823F001037360C2E77368B6E77047ED
:10265000E94688B003216A46DFF844C0CDF8188007
:10266000CDF814C042F8101F00234FF4C25104F0FB
:102670005DF8CD4666E7E94688B003216A46DFF893
:1026800024C0CDF81880CDF814C042F8101F0023E4
:102690004FF4C25104F04AF8CD4639E73C1400200B
:1026A000146E0900406E0900F8B50568002947D08E
:1026B000AB6801F00704B3F5004F34BF04220822D1
:1026C00007341444E40804EBD1049C4228BF1C46A0
:1026D00028462146FFF750FE90B3AB68C600B3F51D
:1026E000004F05EBC0071BD27B88B4EB530F29D3F7
:1026F00043F001037B80AB68B3F5004F1BD3082286
:1027000006F10800796828446B6949089B1AAA6990
:1027100003EBC1039A4238BF1A46C5E90532F8BD3A
:102720007B68B4EB530F0DD343F001037B60AB68C0
:10273000B3F5004FE3D20422B01879882844E3E7C8
:102740000020F8BD0444014622462846FFF736FD26
:102750002146FFF757FEAB68B3F5004F01D37B6806
:10276000E2E77B88C4E700BF1146FFF79DBF00BFCB
:102770002DE9F8434B42076803EA010931EA0303F4
:102780001446BD6800F08980B5F5004F2CBF0823C2
:1027900004234B4528BF4B46A1EB0906002C00F053
:1027A0008980B5F5004F34BF04200820F31A04F0E7
:1027B0000701073103F007020A44E108024401EB74
:1027C000D30101EBD201A94228BF29463846FFF7C1
:1027D000D3FD804600286DD0BB68C500B3F5004F1F
:1027E0002CBF082104214D440D443D4406F1FF3126
:1027F0000D44B5FBF6F52CBF6FF007026FF0030236
:1028000006FB05F5A5EB09052C4407342A44D11B2A
:1028100024F00704E41BB0EBD10F4FEAE4044FEAC5
:10282000D1092BD3B3F5004F07EBC9061DD273882E
:1028300009EB5302944241D343F001037380BB6818
:102840007A69B3F5004F2BBF0821042173687388A0
:1028500028465B08DB001344BA695B1A9A4238BF0A
:102860001A46C7E90532BDE8F883736809EB5302DD
:10287000944223D343F001037360E0E701464A46E4
:102880003846FFF79BFC4146FFF7BCFDBB6807EBF2
:10289000C906B3F5004FCAD3E7E7B5F5004F34BF1B
:1028A00004230823994219D94E464FF00009002C01
:1028B0007FF477AF00252846BDE8F88349462246D5
:1028C0003846FFF77BFC2146FFF79CFDBB68B3F55C
:1028D000004F01D37368CDE77388ADE71146BDE8BB
:1028E000F843FFF7E1BE00BFB2F5802F2DE9F041BC
:1028F00034BF04240824121B0A44073121F00704C2
:1029000022F00706A6EB04084FEAD807B8F5802F97
:1029100034BF3A4607F1FF32B2FA82F20023C2F125
:102920002705AD00C2F1200207350460ED08002143
:10293000C4E90273C4E90433A361920004F11C00EA
:102940008DF08CFA6B00B8F5802FA7EB050204EB35
:10295000C50143F001032CD36360002323605300BF
:102960004B60A368B3F5004F2CBF44F8355024F8F2
:102970003550A368B3F5004F4FF000032CBF7360D0
:102980007380A368B3F5004F2CBF44F8082024F8E7
:102990000820A26804EBC703B2F5004F0FD35A68B2
:1029A000294642F001025A602046BDE8F041FFF797
:1029B00029BD63800023238053004B80D1E75A88D0
:1029C000294642F001025A802046BDE8F041FFF757
:1029D00019BD00BF034660B159B102684AB112691E
:1029E00000200A601A6852694A601B689B698B6004
:1029F00070476FF015007047002070472DE9F04FC9
:102A00009846C2F3C20391B00133019302F004036C
:102A1000049383071A9D40F0738206460F46041DF7
:102A2000002800F03D82072940F2618102F0020394
:102A300008F1FF390593002E00F03F8200234FF08C
:102A4000FF3A009306930293C4F800804FF0010B05
:102A5000C6F108030393019B002B40F3D381059B30
:102A6000D3B1A31BB3F5007F80F04582029A0F2AF1
:102A700000F24182002E00F03682009A9B0801325B
:102A80000092029A63F07F036A4482F8203082F851
:102A900030A0029B0133029399F80100043409F13C
:102AA0000102002800F08F8004234FF0000E4FF643
:102AB000DA7C9946CDF81C80BEF1000F4DD07A2803
:102AC00048D84B2840F218814C382E2842D8DFE8ED
:102AD00010F0E3004100410041004100410041008D
:102AE000410041004100410041004E0041004100D1
:102AF0004100410041004100410041002F004100E0
:102B00004E004E002F002F002F00E3004E006F01FB
:102B10004100E3004100EE004E00EE0041004100A4
:102B2000020148004E00410041004E0041004800B3
:102B3000073525F00705073424F00704F5E80201FE
:102B40003EB1DDF80CE0A644BE4500F2D080C4E9F9
:102B50000001083412F8010F98B32528FAD10AF1C0
:102B6000010A12F8010F60B304239946A7E712F88F
:102B7000011C6C2900F09680E1180139B1FBF3F1DA
:102B800003FB01F8002E00F0E58008EB0901891B2A
:102B9000B94200F2AC804FF0000EB9F1040F00F022
:102BA000A48108F108044FF00809073525F007054E
:102BB000F5E80201C8E9000112F8010F00287FF4CE
:102BC0007BAFDDF81C80A31BB3F5806F184680F047
:102BD0009281002E00F077810021316099083170D8
:102BE00004999DF81820002940F0EA807270009A3C
:102BF000B270002A00F0EA80029B002B79D008AD69
:102C00002A4603EB050CC6F1010012F8013B01193D
:102C100013F0800F03F07F0303D0B94267D804F8A4
:102C2000013B9445F1D1C6F1010301934346DDF820
:102C300008A0B046AA442E461D460297049F0DF1F7
:102C40003009009B002B40F0C780002F00F0CF80A0
:102C50004FF0000B99F8002004F8012B019B191983
:102C6000029B5944994242D816F8010B5A4604F87F
:102C7000010B20462946FDF7D1FE56455C4409F17B
:102C80000109DED14646A01B11B0BDE8F08F3FF62A
:102C900061AF202840F0838012F8010F00287FF4F4
:102CA0000EAF8EE712F8023C6C2B00F0D580033497
:102CB00024F00308002E69D008F10404A31B9F42EE
:102CC00015D34FF0000E042355F8041B4FF00409F0
:102CD000C8F8001070E7033424F00304002E00F05D
:102CE000D880C6F1040323449F4280F00C816FF02A
:102CF0001B0011B0BDE8F08F47283FF62BAF292805
:102D00001ED9A0F12A0E5FFA8EFE0BFA0EFE1EEA05
:102D10000C0FC1D11EF0625F7FF40AAF1EF0010EEE
:102D20003FF418AF1C44013CB4FBF3F403FB04F87C
:102D3000D6B1A9EB060141448F42BFF42EAFD6E7CE
:102D40002528A4D112F8010F0AF1FF3A00287FF4D8
:102D500004AF36E7B9F1040F18D0073525F00705A1
:102D6000083508F10804F5E6B9F1040F00F0848095
:102D7000073512F8010F25F00705083508F108049A
:102D800000283FF41EAF4FF0080998E612F8010F33
:102D9000043508F1040400287FF4DFAE11E723288E
:102DA0007FF4D8AE12F8010F00287FF488AE08E750
:102DB00012F8010F00283FF404AF082399467EE67D
:102DC000F270009AB270002A7FF416AF029A002ABD
:102DD00000F0948008AD26E796F90030002BBFF68E
:102DE00034AF0136B24509F10109F5D14AE732782D
:102DF00058F8225048F822702846FDF781FB00F170
:102E0000010B2BE7434B984503D3434B9845FFF405
:102E100026AE424B0BB1984537D2414B2BB198456A
:102E200003D3404B9845FFF41AAE0599A21B9308B3
:102E300000295DD1029A0F2A5DD8002E49D0069A4A
:102E4000DBB201320692029A5FFA8AF16A4482F892
:102E5000203082F830101CE6073424F00708002EDA
:102E60003FF47BAF08F10804A31B9F42FFF43FAF80
:102E70004FF0000E082396E612F8010F043508F112
:102E8000040400287FF41BAE9BE6274B9845C4D270
:102E9000E5E5019B9146013B55F8048B0193DAE58A
:102EA00001F0070702F002033C1D08F1FF39C7F1EA
:102EB00008070593002E7FF4C1AD4FF0FF3A00964E
:102EC00006960296C2E5A7F10800184411B0BDE8C5
:102ED000F08F049B0237002B7FF4DBAD4046FDF7FB
:102EE0000FFB0744D5E50137D3E508F10404EBE611
:102EF000B2F5007F9ED36FF01500FAE61846F8E6AB
:102F00006FF00D00F5E6019B9146013B55F8048BEF
:102F1000019399E5384E0900EC4A0C0000000000CE
:102F200000000000000000000000000053B32DE985
:102F3000F04799461C785D78DB78A40004EB4304E5
:102F400099F8023007461C440E4690464C447DB129
:102F50004FF0000A14F8013B0AF1010A204649F833
:102F60002340FDF7CDFA554500F101000444F1D1AD
:102F700041463846B446D9F8042009F10803BDE8B3
:102F8000F04760476FF01500704700BF10F8013B35
:102F90006BB310B50024A4460246A3F1250EBEFA79
:102FA0008EFE12F8013B4FEA5E1ED3B1F4450AD003
:102FB000A1420CD0A3F1400CBCF13A0F0DD84378DC
:102FC0000134821C6BB14FF0000C1046E4E7702B0B
:102FD0000BD0A3F140003A2805D94FF0010C104660
:102FE000DAE7184610BD002010BD012010BD1846BC
:102FF000704700BF2DE9F04F8FB000AF80461446F8
:103000008B46FB6291B903788578467805EB83059A
:1030100005444EB101352846FDF772FA0BF1010B5C
:1030200001305E450544F5D1A5EB080B98F8026028
:1030300098F803C0002E00F011813B6ED80740F1D4
:103040000D8198F80020D8F8041006EB4C03396283
:103050009100396106EB8201F960202B4FEA4C01A7
:10306000796000F2AC813B6E13F004037B6100F0E9
:103070000B814FF0000E0123F246B340BE61013BCD
:10308000BCF1000F48D04FF00009C7F808B0E34684
:10309000FA68C7E9093E951C01364544C7F81C90FB
:1030A00015F8013CA84A58F8233015F8021C934241
:1030B00003D3A64A9342C0F0F680A54A2AB19342B0
:1030C00003D3A44A9342C0F0EE80A34A2AB19342AC
:1030D00003D3A24A9342C0F0E680002C00F0FA80AD
:1030E000386AFFF753FF002800F0F4809C4B1B6800
:1030F00013F0060F40F0388109F10109D94505F1B7
:10310000020506F10206CBD1D7E9093ED7F808B08F
:1031100097F81CC098F80020002162F3070198F886
:103120000120724462F30F21BA6962F317416CF314
:103130001F6179639CB1FD6A04212A46BB6207F1D5
:103140003400A0470028C0F29B803B692A46191F23
:1031500008F10400A0470028BB6AC0F291803D69D5
:1031600008EB050923B3C7E9098A0126A0461C46D6
:10317000D7F82CA094FAA4F2B2FA82F219F802104D
:1031800006FA02F287F8331024EA0204B8F1000FBD
:1031900006D05246012107F13300C04700286FDBFB
:1031A0000135002CE6D14446D7F828A0D7F8248072
:1031B000BAF1000F3BD0002356469A46C7F828B014
:1031C00096FAA6F3B3FA83F3012119F8032001FA62
:1031D00003F358F822B026EA030687F83320002CC0
:1031E00000F096800121FA6A07F13300A047002819
:1031F00046DB7B6E0135002B00F08180BB6E5345B2
:103200007DD9584BBBF1000F08BF9B467B6E33F84E
:103210001A100AF1010A002974D05846FA6AA04728
:1032200000282DDB0544002ECAD1D7F828B0F86855
:103230007B681844BBEB000600F0BA80002C00F05D
:10324000BC803146FA6A4044A047002818DB354468
:103250000021FA6A0846A047284611E0BCF1000F99
:1032600003D03B6E99073FF5ECAE44B1FD6A594679
:103270002A464046A04700212A460846A04758460D
:103280003C37BD46BDE8F08F3B6E13F0010300F004
:103290008B804FF0010A7B690AFA06FAB646BB61D9
:1032A0000AF1FF3AECE62CB1386AFFF76FFE00280E
:1032B0007FF41CAF3B6EDA0719D47B69002B3FF417
:1032C0001BAFBB697A6A0133BB610123B3401A4368
:1032D0007A6211E73B6E9B0709D4FB69721E0133CA
:1032E000FB61032393407A6A1A437A6204E7BB6A5C
:1032F0000133BB620123B3404AEA030AFCE6BBF197
:10330000000F4AD05846FDF7FBF8411C89B284E70C
:103310000D44BBF1000F44D05846FDF7F1F80130E1
:1033200003461D447B6E002B3FF47DAFBB6E5345BF
:103330007FF679AF7B6E23F81A000AF1010A002E9E
:103340007FF43EAF71E700BF384E0900EC4A0C0035
:10335000000000000000000000000000000000006D
:1033600064130020706E0900C7F800D08AB03A6A72
:1033700007914FF4007106926A46ADF82010114B88
:103380001149059142F8103F00234FF412510F48A4
:1033900003F0CCF9D7F800D0AEE60721DFF830B063
:1033A0003BE707231846BCE79E469A46BB6167E6A3
:1033B000002C7FF44DAF284662E7A81960E76FF054
:1033C0001B005DE704000001786E09006413002013
:1033D000706E0900012803D0042818BF6FF0150093
:1033E000704700BF0128F8B505460C4614D00428E4
:1033F00002D06FF01500F8BD81F0E8FE47F612220A
:103400000023FEF797F84FF4FA4303FB02F2C4E9F6
:103410000001A2600020F8BD81F0D8FE47F612221C
:103420000023FEF787F84FF4FA4303FB02F2C4E9E6
:103430000001A260EFF31180202383F31288BFF311
:103440006F8F11498E68D1E9002380F31188BFF393
:103450006F8FD4E9000112184B414FF0000768BF8D
:103460002F46C4E900231FB9A3689B19A36004D7A2
:10347000064B0FCB84E80F00CCE7204600F006FD9A
:103480000028F5D0C6E700BFB01B00204066090049
:10349000012847D1F0B5254B8A680C469A4285B081
:1034A0003DD8064681F092FE47F612220023FEF731
:1034B00041F81F4B404202FB03F361EB41010090D6
:1034C00068460293019100F0E1FC009A2068019B9C
:1034D000616812184B414FF0000768BF37466D46D0
:1034E000CDE9002397B1EFF31186202383F31288EF
:1034F000BFF36F8F95E80F000E4C84E80F0086F342
:103500001188BFF36F8F002005B0F0BD029BA26849
:103510009B180293E7D6684600F0B8FCE3E76FF02B
:103520001500F1E76FF01500704700BFFFC99A3B27
:103530000083FFFFB01B002000207047014B186084
:10354000704700BFE00A00200FB400B583B004A9A3
:1035500051F8040B019102F0E7FC03B05DF804EBB5
:1035600004B0704730B4026A04688B0043F0020371
:1035700042F8243004694568036814F0010F0B44D5
:10358000426A2944C5680FD1934228BF9B1AAB42B7
:10359000036005D030BC8A4298BF891A41607047E9
:1035A00044F008040461F5E7013A1340AB420360BC
:1035B00002D144F0080404611140416030BC7047FE
:1035C00030B40569446A15F0010F02EB010317D10D
:1035D000A34228BF1B1B04689C4216D0046A9300B8
:1035E00043F0020344F8213001694468C907436A83
:1035F000224410D49A4228BFD21A426030BC70478D
:10360000013C234004689C42E8D125F0080505618F
:10361000016030BC7047013B1A40EEE72DE9F04FE6
:10362000D0F80C80076A1E4617F82830044603F0CD
:103630000303022B894615464FF0000383B007EBC6
:10364000880A2ED0136033600369990724D5E36993
:103650005046984717F82820834612F001031BD0E4
:10366000920733D5B9F1000F78D1D4E90216206959
:103670006268C707656A5A445ED4954266D8521B91
:103680008E42626065D040F00800C4E9031018461D
:10369000216003B0BDE8F08F0023184603B0BDE8F9
:1036A000F08F57F828202B60920833600369CCD044
:1036B000C068616A0244D8073BD4914298BF521A4D
:1036C00023F00803C4E9022223612DE0E3682269A4
:1036D0000344D007616A48D48B4228BF5B1A22F0AA
:1036E0000802C4E902332261B9F1000F04D00021BD
:1036F0002268236A43F822100BEB09033360226827
:10370000616A13442269D00732D48B4228BF5B1A06
:1037100042F008022360226117F8283023F00103E9
:1037200007F82830C5F800A00123184603B0BDE80B
:10373000F08F01390A40C3E7013D2A408E426260A2
:10374000A1D1594429400023A1609CE78E426260C8
:1037500099D159448D4298BF491BF4E74946204608
:103760000193FFF7FFFE019B7FE701390B40B6E7AE
:1037700001390B40CCE700BF38B50D460446202286
:1037800000218CF06BFB0022EB68E361AB68A36166
:103790002B6823626B68C4E909322A6923B1591E78
:1037A000194208BF42F001022261012204F12C00FB
:1037B0000021BDE838407FF019BD00BF2DE9F04F72
:1037C00000279A46436A85B08B42CDE902772FD312
:1037D00004460D4691464FF02008BB46EFF3118694
:1037E00088F31288BFF36F8F039A002A4CD12369A4
:1037F0001B071FD4E168236899424CD8616AC91A33
:103800008D421AD92046FFF7ADFE86F31188BFF32B
:103810006F8F02990029E1D0A269002A73D0012399
:10382000204601939047019BCDF808B0002BD5D1DD
:10383000002725E0002D4CD12368226A12F82310BE
:1038400002EB830721F0030102F8231023692168AA
:10385000D807626A29443ED4914228BF891AE26897
:103860002160914204BF43F00803236186F311886D
:10387000BFF36F8F029919B1A3690BB12046984726
:10388000384605B0BDE8F08F39462046FFF798FE70
:10389000CDF80CB0ABE7C91A8D42CED959EA0A036C
:1038A00005D0019180F09CFA019900B9B6B103AB43
:1038B000204602AA2768FFF7B1FE034686F3118867
:1038C000BFF36F8F02990029B0D0A269002AA7D157
:1038D000AAE70021E2E7013A1140C0E786F3118828
:1038E000BFF36F8F4A46534604F12C007FF0D4FC9F
:1038F000EFF31186202383F31288BFF36F8FB0FAA2
:1039000080F35B09DAE7029268E700BF38B5044646
:10391000C36908460D469847EFF31181202383F3CE
:103920001288BFF36F8F2B7843F001032B7022694D
:103930006368D5071844636A1DD4984228BFC01A2B
:103940006060500710D51207A56A12D4E06822689B
:1039500090429CBFC01800F1FF30821A013B9B1AB5
:10396000AB4238BF2B46A36281F31188BFF36F8F40
:1039700038BD0022F2E75D1E2840E1E72DE9F04165
:103980004FF0000C20260446EFF3118586F31288D1
:10399000BFF36F8F2169A36808072FD46268934231
:1039A0002CD8D21A72B3276A4FEA830E17F8232055
:1039B00007EB830812F0030024D002284AD0D10775
:1039C00030D4E36940469847A3682169E26803441C
:1039D0001044CA07676A42D4BB4228BFDB1B874238
:1039E00098BFC01B21F00801C4E90230216185F3B2
:1039F0001188BFF36F8F4FF0010CC5E7626AD21ACE
:103A0000002AD0D185F31188BFF36F8FBCF1000F6E
:103A100003D004F12C007FF0FDFB4FF0000840467E
:103A2000BDE8F08142F0020207F80E20E36940464B
:103A3000A66898472269636AD207304413D4984233
:103A400028BFC01AA06085F31188BFF36F8F40466E
:103A5000BDE8F08157F823008008B7D1AFE7013FF8
:103A60003B403840BEE7013B1840EBE738B5044621
:103A7000C36908460D469847EFF3118C202383F362
:103A80001288BFF36F8F2B7823F001032B7023690B
:103A90009B070AD5E268236A03EB82039D4204D0A8
:103AA0002B6860F39F032B6015E02B7823F0020353
:103AB0002B70D4F808E0D4E903327345616A02F050
:103AC0000105184411D0EDB9814298BF401A22F087
:103AD0000802C4E903028CF31188BFF36F8F04F16D
:103AE0002C00BDE838407FF095BB2DB988422ABF35
:103AF000431AA060A360E7E7013901EA0003A3606D
:103B00000840E4E70139FBE7EFF31182202383F358
:103B10001288BFF36F8F01698368090704D4416875
:103B20008B4201D8C81A01E0406AC01A82F311889A
:103B3000BFF36F8F003818BF01207047044608B5E7
:103B4000EFF31183202383F31288BFF36F8F6AF0A2
:103B500035FC204639F094F90248FFF7F5FC37F0C0
:103B600007FBFCE7306F0900092803D830300870E4
:103B7000002070470F2803D8573008700020704786
:103B80006FF01500704700BF70B50C4604F00105DA
:103B9000014605EB5400984257D86608002D44D1E1
:103BA000002E41D0013A01EB460E1CE0ACF1570C5F
:103BB0005FFA8CF31B01DBB253704C78A4F1300C2C
:103BC0005FFA8CFCBCF1090F07D9A4F1610CBCF1C0
:103BD000050F1CD8573C5FFA84FC023163447145E1
:103BE00002F8013F20D091F800C0ACF13003DBB205
:103BF000092BDFD9ACF16103052BD7D9ACF1410317
:103C0000052B22D8ACF1370C5FFA8CF3D2E7A4F184
:103C10004105052D19D8373C5FFA84FC0231634415
:103C2000714502F8013FDED170BD0C78A4F130037C
:103C3000DBB2092B05D9A4F16103052B07D8573C4A
:103C4000E3B202F8013B0131AAE7002070BDA4F104
:103C50004103052BF9D8373CE3B2F2E72DE9F043F5
:103C600040F26C77D0E90412D71901F101014FEA53
:103C7000E27242F1000202298CBF00230123FF1AE5
:103C8000C46862F10002002A04F1FF34C0F2AB8084
:103C90003B0D43EA0233C3F31303C7F313051D447B
:103CA000D61705EB123506F0210C05EB12756A4BA1
:103CB0006544A3FB05C3DB0803EB830303EB83032A
:103CC00026F01706ED1A3544644E7B1B03FB06F6FF
:103CD00062EBE572624D05FB0266A3FB05357619C2
:103CE00000F1B580D0E9018E4FF03C0C032934BFC0
:103CF00009226FF0020240F26D154FEAE879CEFB1F
:103D00000C894FEA091C4FEA081EBEEB080E4CEA6C
:103D1000187C6CEB090C11444FEA8C0C02684CEADD
:103D20009E7C50481B094FEA8E0E43EA06731EEB39
:103D3000020E4FEA261600FB03704CEBE27CF70004
:103D4000DA00D21847EA537746EB07073F0147EA04
:103D500012771201D21846EB07073F0147EA1277A4
:103D60001201D21A67EB06073B4E01EBC101A6FB1D
:103D70000036830805FB003301EB01113A4802319C
:103D8000A0FB01012344A3EB561303EB9103900125
:103D9000B901801A41EA926161EB070233491B18AD
:103DA00042F100025B1862F10002D91842EB0200F6
:103DB000CB1842EB00021001190140EA1370CB1A34
:103DC00060EB020001011A0141EA1371D31A61EBA1
:103DD0000001C901D80110EB0E0041EA53614CEB20
:103DE0000101BDE8F0836FF4C773FB1862F10002B4
:103DF0004FEA135E4EEA023ECEF31308C3F3130EEE
:103E0000C6440EEB123E4FEAE27808F021090EEBB1
:103E1000127E114DCE44A5FB0E95ED0805EB8505F0
:103E200005EB850528F01708AEEB050545440B4E5C
:103E30005B1B03FB06F6DFF828C062EBE5720CFBA8
:103E40000266A3FB0C3C16EB0C067FF54BAF0F3361
:103E500046F1000646E700BF1F85EB51F5285C8F51
:103E6000295C8FC270FEFFFFCDCCCCCC9405F5FF52
:103E7000D0B5FFF7F3FE064637F058FA00240346A4
:103E8000014A30469C50D0BD0C00000030B5254A98
:103E90008168914226DD02F1116202F5562202F29A
:103EA000A25282FB012C02684468CB17012AC3EBA3
:103EB0002C7374F100054FEAE37C08DB6FF0004ED1
:103EC000D543AEEB040E9D427EEB0C0E28DBD218E0
:103ED0000260154A4CEB040402FB03134460836048
:103EE000012030BD0029FBDA104B521A520AA3FB05
:103EF0000232D0E90043002B4FEAD2120ADBA41AA7
:103F000004600B4C63F1000304FB02124360826007
:103F10000120E6E703F10045944275F10005EEDA71
:103F2000002030BDFFC99A3B003665C4834B0400B6
:103F300000CA9A3B70B487B00A9C002C54D0D4E9D4
:103F40000052954221693ED0826852F82560DBB16B
:103F5000314342F8251082686168656952F8213062
:103F60002B4342F82130D4E900320133934208D286
:103F70004FF0FF31826842F82310626801339A42A1
:103F8000F8D807B070BC704726EA010642F82560F1
:103F900081686568666951F8252022EA060241F8C1
:103FA0002520D4E9002101328A42EAD2816841F811
:103FB0002230616801329142F8D807B070BC704776
:103FC0002A4621400491806850F822402BB12143B9
:103FD00040F8221007B070BC704724EA010440F892
:103FE000224007B070BC7047013A01F01F040A4438
:103FF0004D09012102F01F06039601FA06F6520947
:10400000A1400294741E49423443954200950192A6
:1040100004910594D4D06C4696E700BFF0B5012515
:10402000013A059E0A4402F01F0705FA07FCF760F3
:1040300001F01F075209BD404909B7600CF1FF3775
:104040006D4247EA0C079142069C7260316035610F
:1040500077611CD086684FEA810C56F821E0B444A1
:104060000EEA050073B9E8B154B190FAA0F3002844
:10407000B3FA83F308BF4FF0FF3303EB4113236020
:104080000020F0BDA84217D025EA0E00ECE72F4033
:1040900037618268584252F8213058403840E3D1A5
:1040A0000120F0BD56F82200C04337EA000508D0D1
:1040B000114627EA0000D7E756F8220037EA000544
:1040C000F6D101319142EBD265465B4202E001310B
:1040D0009142E5D055F8040F8342F8D05840C3E729
:1040E00030B5EFF31185202383F31288BFF36F8F70
:1040F000EAB103688B421AD94FF0010C836801F0D2
:104100001F0E490953F8213023FA0EF303EA0C037A
:1041100013608468002054F821300CFA0EF2134327
:1041200044F8213085F31188BFF36F8F30BD6FF0F5
:104130001500F7E72DE9F04F8BB0EFF3118B20233B
:1041400083F31288BFF36F8F002A64D00D460029D5
:1041500061D09246026806468A425CD39A4244D9AC
:104160004068571A044658B100210C46B268043A18
:1041700052F8043FB3F1FF3F47D033BBA7422BD3E4
:104180000DF10C090DF1100803E0039C0134A74266
:1041900022D300232A4621463046CDE90089FFF785
:1041A0003DFF0028F1D02A46304601232146CDF8B4
:1041B0000080FFF7BFFE0020CAF800408BF3118893
:1041C000BFF36F8F0BB0BDE8F08FDB4393FAA3F31F
:1041D000B3FA83F31C44D1E76FF01B008BF3118813
:1041E000BFF36F8F0BB0BDE8F08F836818680023B2
:1041F00000F060F8041EEFDB0123B168AB400A68F1
:10420000013BA3401A430A60D5E70131814204F122
:104210002004ADD1B2E76FF01500CFE72DE9F043F0
:104220004B1E154689B09A18EFF31186202383F3AD
:104230001288BFF36F8FB9B303680C468B420746F1
:1042400032D3AB4230D993422ED9202B15D801233B
:104250008068A3400168013B03FA05F201EA02030A
:104260008A4324D121EA03010160002086F31188EA
:10427000BFF36F8F09B0BDE8F0834FF000080DF178
:1042800008090A4601232946CDF80090CDF804809C
:10429000FFF7C4FE58B14346224629463846CDF8BA
:1042A0000090FFF747FEE0E76FF01500DEE76FF0E4
:1042B0000D00DBE71F2AF0B504D84FF0FF3404FAF5
:1042C00002F21043C4434FF0FF301FD04FF0010EF5
:1042D00005460646B4FA84F7C7F11F0C0EFA0CF235
:1042E000013AA24313D0B2FA82F2C2F11F07ACEB3B
:1042F000070C8C4506FA07F7C2F1200224EA0704EE
:104300001DD09BB18C451AD8002CE3D1F0BDC7F16C
:1043100020078F4213D01BB18F4288BF0020F0BD11
:104320008F42F3D3AF4238BF0020F0BD8C45EBD3B2
:10433000AC453CBF10466546002CCBD1E6E71046A5
:10434000F0BD00BFF8B500F0D5F8012700234FF00D
:10435000FF3CDFF82CE00B4E0B4D0C4C0C490D4A8A
:10436000C0E90173C0E90333C0E905EC0760C0F898
:104370001CC037602F6023600B601360F8BD00BF66
:10438000B42D0B00080B0020040B0020B0560020B9
:10439000AC560020A85600202DE9F8430746884671
:1043A000164600F0A7F8C36804461BB943691A789B
:1043B000002A34D100236268E360BA4258F8223000
:1043C0006CDA591C616193F80090B9F12D0F65D139
:1043D0009D1C656159782D29A1602AD019BB344DE7
:1043E0004946304665618CF0B9F800285CD0C4F8C5
:1043F00008902D2130468CF0B1F8002835D0437854
:104400003A2B23D0002323612B7813B9636801333F
:104410006360204600F04EF8A068BDE8F8835D1C9C
:104420004561197881603A291FD030468CF096F8A2
:10443000E3E79B78002BDCD11D4B01322046626004
:10444000636100F037F84FF0FF30E6E72A786368E1
:104450002AB901339F42636013DD58F82350144A90
:104460000133C4E904526360D3E72B782BB12046B3
:1044700000F020F83F20BDE8F883636801336360F3
:10448000F5E70B4B2046636135783A2D02D000F0FA
:1044900011F8EFE700F00EF82846BEE7044B20467F
:1044A000636100F007F8CEE7204600F003F8CAE7A2
:1044B000B42D0B0070B4D0F800C0094E094DC6F8F9
:1044C00000C04668084C2E6008498568084A256087
:1044D000D0E903430C60136070BC39F0A9B900BF88
:1044E000080B0020040B0020B0560020AC56002022
:1044F000A856002010B536F019FF084A084B0949A4
:10450000145805E098683033D0F8D022A24203D086
:104510008B42F7D3044810BD583010BD080000008E
:10452000005F0900305F0900E40A00202DE9F04334
:104530000F1A561A002F9C460D463346A2EB000474
:1045400041DB002E27DB002F50D1002B94FBF3F42E
:1045500037DD002CA84603EB05090CEB850E30DD9A
:104560002A460020DEF8001000E019469542D4BF2C
:10457000D21B92195CF82230013084424CF8221090
:10458000CEF80030F1D108F10108C1450EF1040E5A
:1045900017D04246E5E73A467342002FD5D0B2FB2A
:1045A000F3F103FB1122002ACFD0B3FBF2F0114646
:1045B00002FB10320B46002AF7D1002B94FBF3F4D8
:1045C000C7DCBDE8F083002EC7F100020CDB01D18F
:1045D0001346BAE7B2FBF6F106FB1122002AE4D13A
:1045E00094FBF6F43346B4E77342D8E71EB994FB64
:1045F000F7F43B46ADE7B7FBF6F206FB1272002A72
:10460000D3D1EDE72DE9F04F8BB09B46036800AFA7
:10461000D0F81480F86139603A617B613BB113785E
:104620003A2B04D0834B1B68022B40F29680824BBE
:10463000BB60FA693D21536840467B60013353609B
:10464000FB608BF08BFF0146002874D0A0EB0806BE
:104650000131DBF80040002C3BD04FF0000ABB6D6D
:104660005D4603F004034FF0FF39C7E9083AB9612A
:104670000EE03B6A2BB90BEB091369685A6891424B
:1046800036D001237B6255F8104F0AF1010ACCB1F4
:104690003246214640468CF013FA0028F3D12046DA
:1046A000FBF72EFFB04230D07B6D0BB1012EEAD06C
:1046B000B9F1FF3FDDD155F8104FD1460AF1010A9B
:1046C000002CE5D17B6AB969002B68D1B9F1FF3FB5
:1046D00041D17B6D002B40F007817B69002B41D1DC
:1046E0000023FA6993603F202C37BD46BDE8F08F68
:1046F000A9689A689142C4D1796ADB68EA689A42EB
:1047000018BF41F001017962BDE7B9690BEB0A1BE3
:10471000DBF80430B3B9002963D13B6D0BB1C3F8AA
:1047200000A0DBE90230002BDED0186000202C371F
:10473000BD46BDE8F08F78624046FBF7E1FE796A3E
:10474000064686E7581E0128E7D8002900F0888031
:10475000FB691961E1E7CA46D8E7384A52F82330C5
:10476000BB6066E73B691B783A2BB9D034480368D5
:1047700013F0060FB4D06C468AB0BA683149CDE95F
:104780000628314A314D08926A46059542F8101FB5
:104790004FF422517B6D01F0C9FFA546A0E77B696C
:1047A000002B9DD03B691B783A2B99D02448036895
:1047B00013F0060F94D06D468AB0BA682449CDE94B
:1047C0000626244A244E09926A46CDF82080059692
:1047D00042F8101F4FF44251234601F0A7FFAD46A7
:1047E0007EE77A69E2B13A6912783A2A18D0144819
:1047F000026812F0060F13D06D468AB0BA681449E9
:10480000CDE906266A46154ECDF820800596114E54
:10481000099642F8101F4FF4425101F087FFAD4650
:10482000DBF80830002B7FF45BAFDBF80C30FA6963
:10483000936058E70C0B0020B42D0B00F4D30B0051
:104840006C1400200400000200020103D86F09006C
:104850000500000200020204686F0900886F090069
:10486000012B7FF45AAF7B68FC6902336360FA68FE
:104870003B6853F822302361DBF8040001287FF401
:104880004CAF002B7FF449AF7B69F3B13B691B78D8
:104890003A2B1AD01948036813F0060F15D06D464D
:1048A0008AB0BA68164ECDE906286A460596154BB9
:1048B000154E089642F8103F0B464FF4225101F076
:1048C00035FF6368AD46013BFB60DBF808308BB118
:1048D0000023FA6993601346FA685A603B691878B6
:1048E0003A287FF400AFFFE6FB697A684FF0FF30AB
:1048F0005A60F9E6DBF80C30EBE700BF6C140020DF
:10490000B46F090004000002000201032DE9F04F1A
:1049100087B0129F002B00F0C0809B461B78044696
:104920002D2B0E46154600F0C0802B2B75D06368EA
:10493000002B66D101202361E06060604FF0FF33FF
:104940004FF00008C4E90633DFF878A207F0020947
:10495000E8B16268C4F80C80B24280F2A98055F8D0
:10496000221061610B782D2B6FD0C4F814A0B9F11F
:10497000000F40F0AB80F80740F18F80A069411C28
:1049800000F09180E1694B1C4FD101326260636994
:104990001A78002ADDD0109A5AB1626855F82220A0
:1049A0009A4206D019782D2900F014817A0700F177
:1049B000C68003F1010AC4F814A093F80090584689
:1049C000494605938BF0CAFDB9F13A0FC846059BDD
:1049D00000F09B80B9F12D0F00F08380002800F0DB
:1049E00094801099427819B1B9F1570F00F0C28044
:1049F0003A2A7DD05B78002B51D163680133636024
:104A00004DE00023E0682361002897D14FF00008B3
:104A1000DFF8B0A107F002099AE727F00107636801
:104A20000BF1010B002B85D0EBE72B46FFF77EFD4A
:104A3000D4E906034FF0FF3162681B1AD31A013222
:104A4000C4E90631E068626082E74B78002B8CD0C5
:104A5000A069431C03D0E369013300F0AC804B1C18
:104A6000636191F801C0BCF12D0F94D189780029C0
:104A700091D1E169534B01324E1C6260636120D0D9
:104A80002B46FFF753FDD4E906126368521A9B1AAE
:104A900063604FF0FF33C4E906334FF0FF38404600
:104AA00007B0BDE8F08FA2616FE747F00207B6E7F5
:104AB000E169444B4E1CA0696361E1D1451C18BFFC
:104AC00060604FF0FF33C4E90633E6E74FF00108BA
:104AD0004046531C636055F82230236107B0BDE89F
:104AE000F08F5A78B2B90028D7D042783A2A84D1C8
:104AF000002222615A786368002A75D0C4F810A099
:104B0000304A013362616360C9E75B7813B9636857
:104B10000133636023686BB19BF800303A2B09D0F6
:104B20002948036813F0060F04D002214B46274A98
:104B300001F0C0FDC4F808904FF03F08AFE7002235
:104B4000234B3A291A604AD058468BF007FD0038AB
:104B500018BF0120119BCDE9010700935A46294651
:104B60002046109BFFF74EFDB0F1FF3F804638D145
:104B700063691EE73B2A7FF43BAF5B78002B41D192
:104B8000636801339E42636039DC0E4A23686261C8
:104B900043B19BF800303A2B04D00B48036813F064
:104BA000060F5CD15723A3609BF800303A2BC3D18A
:104BB0004FF03A0873E7E2614B78002B7FF44FAF78
:104BC0000B46E8E6B42D0B006C140020F46F0900CE
:104BD0000C0B0020012201336361244B1A6000207A
:104BE000B8E7234B63615AE782783A2A88D00133C9
:104BF0009E42636018DD55F82320226180E755F856
:104C0000233063612946119D002000950225174E2F
:104C1000109B02975A46356001902046FFF7F2FC40
:104C2000134B804663613AE7114A2368626143B1DE
:104C30009BF800303A2B04D00E48036813F0060F9F
:104C400007D1C4F808909BF800303A2B7FF474AF7A
:104C5000AEE702214B46084A01F02CFDF1E757234D
:104C60000221054A01F026FD9CE700BF0C0B002045
:104C7000B42D0B006C1400200C7009002DE9F041DC
:104C8000044684B00E4617469846FFF733FC21468B
:104C900001240A9B3246CDE9008302943B46054637
:104CA000FFF734FE04462846FFF704FC204604B014
:104CB000BDE8F0812DE9F0470646808B14460707D2
:104CC00000F1C58000F0070302299C4629D0B16994
:104CD0000F1E7DDB9846053B012B40F2F180B8F1B9
:104CE000040F00F01F81C44500F01A81B368002B47
:104CF00000F0168140F00800B08382F31188BFF302
:104D00006F8F0025B168AA4671BB47E0990640F154
:104D1000A58023F0200003F007039C46144680B2D0
:104D2000B083002B40F0A0803168002900F096800D
:104D30004FF00608316920F00700D1F800A040F0DC
:104D40000603C445B38300F0A380B168002900F0D6
:104D50009F8043F00803B38382F31188BFF36F8F02
:104D6000B168A9B100273D460C683B464246304633
:104D7000D1F80490C8474CB1214624683B464246CE
:104D80003046D1F80490C847002CF5D1002D41D110
:104D9000BAF1000F02D03046A449D047EFF3118496
:104DA000202383F31288BFF36F8F2246B38B23F047
:104DB00008039BB2B383D806A8D5B16923F01000CD
:104DC00080B203F007030F1E9C461446B08381DABD
:104DD000002120F0070040F00103BCF1010F35680D
:104DE000B383C6E9001180B200F08B80B16800295E
:104DF00000F0DC804FF0010843F00803B38382F336
:104E00001188BFF36F8FB1684FF0000A0029ABD152
:104E1000002DC3D02846394650F8049B00F012FA02
:104E2000044680B129464D463B4642463046A0479F
:104E3000002DADD02846394650F8049B00F002FA08
:104E400004460028EED14D46002DF3D1A0E70129FC
:104E50000CBF40F0100040F02000B08384F31188B4
:104E6000BFF36F8FBDE8F087022B1CD0012BF5D16B
:104E700031680029F2D04FF00508316920F00700B1
:104E800040F00503C445D1F808A0B3837FF45DAFBB
:104E9000BAF1000F8FD043F00803B38382F3118877
:104EA000BFF36F8F77E7F38B002BD7D1316920F0F9
:104EB00007004FF00408D1F804A040F0040340E7D5
:104EC00020F0070083B20020B8F1060F3568C6E96C
:104ED000000051D0B383B8F1000F03D08046B16811
:104EE000002989D1002D3FF466AF43F00803B38356
:104EF00082F31188BFF36F8F4FF0000A002D99D114
:104F000046E7002D3FF457AF40F00900B08382F32D
:104F10001188BFF36F8FE0468A46002D8AD137E7AC
:104F2000034648E7356820F007039BB22946B38360
:104F300065B1BCF1000F3FD0B468002C66D04FF0D3
:104F4000000843F0200345469BB255E7BCF1000F33
:104F50003FF431AFB16800293FF42DAF43F00803AF
:104F6000B38382F31188BFF36F8FB168A846AA4656
:104F700000297FF4F9AE11E755B3AC46F08B013050
:104F800080B2F083DCF800C0013080B2BCF1000FC9
:104F9000F7D143F00200B6F81EC080B2B083BCF176
:104FA000000F1DD003464FF0020898E7002D3FF494
:104FB00002AF4FF0010898E7C4061ED5144620F052
:104FC000170040F02000B0834FF0000CE0468AE666
:104FD000B6F81EC043F00200B083BCF1000FE1D16F
:104FE00043F02203B0689BB2B38310B14FF00208C4
:104FF00002E7B5B14FF0020877E720F0270080B252
:105000001446B08300297FF493AE27E710F0100C0C
:10501000F3D020F0170040F0200080B21446B08397
:10502000D2E7DD063FF5CAAE73E600BF315000009F
:1050300010B40C46EFF31182202181F31288BFF3E4
:105040006F8F0121846110BCFFF734BE88B138B581
:105050000C4659B10B684BB14B683BB10546202259
:1050600000218AF0FBFE2C61002038BD6FF0150096
:1050700038BD6FF015007047002866D070B50D463A
:1050800011B30E1D0446304600F0C6F8002818D0B3
:105090001CDBEFF31182202383F31288BFF36F8FA1
:1050A0004FF6FF70E18BA38B814203F0070345D0DD
:1050B0001846062B2AD8DFE803F00A2916290A30F9
:1050C0000A00AB68032BE4D96FF0150070BD002116
:1050D0002960616841B30D6065604BB382F311884C
:1050E000BFF36F8F70BD0131E18382F31188BFF38D
:1050F0006F8F0021304600F0A5F8064620B100234E
:10510000022229462046B047022070BD82F3118852
:10511000BFF36F8F6FF0040070BD82F31188BFF38F
:105120006F8F6FF0850070BDC4E90055002BD5D19D
:1051300020460221FFF7BEFD002070BD82F31188DA
:10514000BFF36F8F6FF00A0070BD6FF015007047EE
:1051500010B5EFF31182202181F31288BFF36F8F16
:10516000848B04F00704022C0AD0012C0CBF6FF0D2
:1051700004006FF0850082F31188BFF36F8F10BDBC
:10518000C18B013989B2C18309B12046F3E72146B9
:10519000FFF790FD204610BD00283AD0002938D0F6
:1051A000EFF3118C202383F31288BFF36F8F036812
:1051B00043B310B4002403E01A681C46A2B113469E
:1051C0008B42F9D1838B0A68B4B122604268914264
:1051D00008BF4460002203F007000A608CF31188C6
:1051E000BFF36F8F10BC70476FF077008CF311889E
:1051F000BFF36F8F10BC704744680260A142E9D1D1
:105200004260E7E76FF077008CF31188BFF36F8F90
:1052100070476FF015007047034640B1426802F0D6
:105220000302022A06D0032A04D0012A05D06FF017
:10523000150070471A68002AF9D0002210469A60BB
:10524000704700BF08B54268034602F00302022A15
:10525000816009D0032A03D000224260002008BDEB
:10526000006800225A6008BD006800225A600028C9
:10527000F4D080F0EDFBF1E710B50446B1F800E0A2
:105280008888AEEB000E20691FFA8EFE86451FFA55
:1052900080FC24BFAEEB0C0E1FFA8EFEACEB0E0CA6
:1052A0001FFA8CF0984228BF184623687344136095
:1052B0000B8803440B8010BD4B88B1F800C0ACEBE9
:1052C000030C1FFA8CFC944515D34FF0000C00B56D
:1052D0001A4492B262F30F0C62F31F4CB1F804E06F
:1052E000C1F800C0A2EB0E0302699BB2934205D243
:1052F00000205DF804FB6FF0150070479644A1F89C
:1053000004E0F5E72DE9F0410027054688461646FA
:1053100007E041462246FBF781FB361B2744A044A9
:1053200035D0AA88AB892869D31A9BB2C31AB34275
:1053300028BF3346298984B2511A89B288429CBF5A
:10534000091B89B2641AA4B29C4228BF1C46286873
:10535000224492B20844AA80002CDAD1EB88D21AF7
:1053600092B2974210D8002128893B449BB22C6905
:105370001A1A92B2A24263F30F0163F31F4128BFCE
:105380000019696028BF28813846BDE8F081AA88E5
:10539000E4E700BF2DE9F04116464FF0000805464E
:1053A0000F46428909E02FB122463846FBF736FB0B
:1053B0006A892744361BA0441AD0E888EB89801AF2
:1053C00080B2B04228BF30462969D31A9BB28B42C3
:1053D0008CB224BF1B1B9BB2E41AA4B2844228BF28
:1053E00004462968224492B219446A81002CDAD119
:1053F000AB89D21A92B2904511D80021E889434472
:105400009BB22C691A1A92B2A24263F30F0163F3A2
:105410001F4128BF0019C5F80A1028BFE88140467F
:10542000BDE8F081704700BF10B540B183686BB133
:105430001B6813B1BDE810401847184610BD0C4852
:1054400003685A0709D16FF0150010BD08480368BA
:105450005B0707D16FF0040010BD0121054A01F080
:105460000FF9F0E70121044A01F00AF9F2E700BF61
:1054700084130020387009004C70090070B558B1D1
:1054800051B14AB1846874B1256965B141F8040B22
:105490002369BDE8704018470B4803685A0709D1D3
:1054A0006FF0150070BD084803685B0707D16FF007
:1054B000040070BD0121054A01F0E2F8F0E7012186
:1054C000034A01F0DDF8F2E7841300206C70090054
:1054D0004C70090010B5E0B18446006890B11346E5
:1054E000826842B1946834B10A46DCF80410A446DC
:1054F000BDE810406047124803685B0710D16FF0A9
:10550000040010BD0E4803685A070ED16FF0010069
:1055100010BD0B48036859070CD16FF0150010BD82
:105520000121084A01F0ACF8E9E70121064A01F03F
:10553000A7F8EBE70121054A01F0A2F8EDE700BF6B
:10554000841300204C700900AC70090098700900A9
:10555000002070470169406800F010BA10B403469B
:1055600000248C4640681969CCF80040936910BC4F
:10557000083200F079B900BF0169406800F03ABA1A
:10558000024802F128017EF02FB900BFC01B0020A5
:1055900010B5002486B0084903A8009003914FF08D
:1055A000FF334FF4AF5205490548CDE904447EF07E
:1055B000A9F9204606B010BDD8700900F099002066
:1055C000C01B0020F0B50446A3B000F11406D6E8D5
:1055D000AF5F6B1E052B1FD8DFE803F0200C031E06
:1055E000202050F8240C0DF1060202A900F002FB65
:1055F000002836D054F8280C00F08AFB228A83B2A7
:10560000934205464FEA104700F09280002B40F08D
:105610009780638A9F4279D023B0F0BD002250F872
:10562000240C114600F012FB01387F284ED9062DBC
:10563000F2D154F8280C00F06BFB238A80B2984218
:10564000EAD00423D6E8EF2FC6E8E13F0029F9D1DC
:1056500054F80C3C5B68002BDED054F8080C9847DB
:10566000DAE7BDF806500D2DC4D12A4679490298D3
:105670008AF034FF0028BDD154F8280C00F034FA29
:105680000028C0F2CD802A46724954F8280C00F058
:105690004DFA0C2840F3C4800123D6E8EF2FC6E86A
:1056A000E13F0029F9D1012554F8043CD3E9000178
:1056B00083681B680BB100229847002DACD02146AF
:1056C000654823B0BDE8F0407EF08EB8802254F8E3
:1056D000240C02A900F0BAFA062D074600F09680C5
:1056E000012D5FD054F80C3C9B68002B3FD039460D
:1056F00054F8082C02A89847002254F8240C1146AC
:1057000000F0A4FA051E18BF0125D6E7002A83D0B1
:105710000623D6E8EF2FC6E8E13F0029F9D154F877
:105720000C3C1B68002BBED054F8080C9847BAE715
:10573000628A97427FF470AF002B3FF46DAFE7E7CA
:1057400054F8280C00F0D0F900281ADB618A54F8CC
:10575000240C258241EA054100F0E0FA638A9F4269
:1057600001D00025A0E7258A002D9DD0D0E71A465C
:10577000194654F8240C00F069FA051E18BF0125DB
:105780009BE754F80C3CDB681BB154F8081C334809
:1057900098470423D6E8EF2FC6E8E13F00293FF4FD
:1057A0003BAFF7E70C287FF637AF2D4B029A9A42B2
:1057B0007FF432AF2B4B039A9A427FF42DAFA3F1C3
:1057C0000C63049AA3F58223A3F2C3739A427FF475
:1057D00023AF9DF81430342B7FF41EAF0523D6E899
:1057E000EF2FC6E8E13F0029F9D154F80C3C1A68C4
:1057F0003AB354F8080C9047002254F8240C114690
:1058000000F024FA051E18BF01254DE754F8280CB6
:1058100000F07EFA238A80B298423FF463AF10E72B
:1058200054F80C3CDB681BB154F8081C0B48984733
:105830000023D6E8EF2FC6E8E13F00293FF4ECAEA5
:10584000F7E7114654F8240C00F000FA051E18BFC3
:10585000012529E780D40B00C01B0020E47009005B
:10586000456D316C314B30722DE9F0410C46017CB5
:105870000546012904F13C066FD1D6E8EF0F002858
:1058800003D1C6E8E71F002FF7D118BF6FF07700EC
:105890003DD10027C4E90723656204F108007DF0CB
:1058A0005FFA606800F036F9002829DB2B7C20685D
:1058B000012B2ED000F02CFA4FEA1048206800F09F
:1058C00027FA0023421C238791B201E0013189B2FB
:1058D0004145FBD00029F9D06068618700F01EFACD
:1058E00087BB234904F128007DF054FFD5E902016C
:1058F00083685F68002F38D023461E4AB847C0B17E
:105900000023D6E8EF2FC6E8E13F0029F9D1BDE832
:10591000F08100F0E9F80028F2DB0D22164920683A
:1059200000F004F90028EBDB0C28D9DC6FF015003F
:10593000E6E7D5E9020183681B69B3B10122984704
:105940000028DDD1D5E9000183681B686BB1002216
:1059500098470028D4DBBDE8F081D6E8EF7FC6E8A1
:10596000E01F0028F9D1FFB294E76FF05700C7E7B6
:10597000C55500008155000080D40B0070B5037C34
:105980000546012B0E4603D00021706800F0C6F9D1
:10599000D5E9000183681B680BB1002298470022FB
:1059A00006F13C01D1E8EF3FC1E8E02F0028F9D132
:1059B00013F0FF0401D1204670BDD5E902018368D0
:1059C0001B699BB1984704460028F4D1D5E9020130
:1059D00083685D6855B123462246A84704460028DF
:1059E000E9D106F128007DF041FFE4E76FF05704AC
:1059F000E1E700BF2DE9F0411C4601F13C03D3E88B
:105A0000AF3F042B24DD4CB306460F46154601F18B
:105A100008082022404600237DF0AAF9002823DB55
:105A200029463868A2B200F081F8054640467DF06C
:105A300017FA002D09DBA54213D3D6E900018368CC
:105A40001B68A3B10022984700B92846BDE8F08141
:105A500018BF6FF00F042046BDE8F0816FF03C00E6
:105A6000F4E76FF04C00F1E76FF06800EEE76FF0DD
:105A70005700EBE7A0B3036893B3816881B330B4F8
:105A8000456955B3C268042A38BF0422B3FBF2F457
:105A900002FB14340CBBB1FBF2F402FB1414E4B9A6
:105AA000446844EA050C1CF0030F16D100690B286A
:105AB00013D910F0030F10D18B420ED21CB1A342A8
:105AC0000BD2A14209D9A94207D21344994214BF6B
:105AD0006FF01500002030BC70476FF01500FAE73A
:105AE0006FF01500704700BF38B5056804462846BA
:105AF000FFF7C0FF58B96060A0606268AB681A60C9
:105B00002368A2681B681A60BFF35B8F38BD6FF013
:105B1000150038BD10B504460068FFF7ABFF10B99B
:105B20006060A06010BD6FF0150010BD00285ED051
:105B30002DE9F84F1446002A53D08846002950D04A
:105B40000646BFF35B8F03681A68D3F81490126897
:105B50001F699307456844D1AA4286BF79198A1AFA
:105B6000AA1A391F8A1A211D8A423DD30022210A0E
:105B700049F8052009EB050209F805105470BFF338
:105B80005B8F0435BD4224BFB5FBF7F307FB13550C
:105B9000A7EB050A5445A34628BFD34641465A46BB
:105BA00009EB0500FAF73AFF544512D8E31C2B44E1
:105BB00023F00303BB4224BFB3FBF7F207FB12330E
:105BC0003268736092681360BFF35B8F2046BDE854
:105BD000F88F484608EB0B01A4EB0B02FAF71EFF07
:105BE000E4E76FF01500F2E76FF00B00EFE76FF0FE
:105BF0001500704738B383682BBB30B4BFF35B8F9D
:105C00000468A56824692D68AC4219D94FF6FE7462
:105C100005F1FF3CA44513D8BFF35B8F00684469CE
:105C2000208840BA1FFA80FC0CF1040CAC4507D860
:105C300004340C601080BFF35B8F184630BC704793
:105C40006FF01500FAE76FF01500704700285CD080
:105C50002DE9F0470546BFF35B8F006883681E6837
:105C6000AB6816F0030447D19E4242D08846D0E983
:105C70000471CC5A64BAA4B2B8F1000F39D0A24270
:105C80003DD39E423ABFFA1AB618F61A221DB24206
:105C900038D81E1DBE4224BFB6FBF7F307FB1366C0
:105CA000A7EB06094C45A24628BFCA4652464046C5
:105CB0003144FAF7B3FE4C4512D8E31C334423F0C9
:105CC0000303BB4224BFB3FBF7F207FB12332A687E
:105CD000AB6012681360BFF35B8F2046BDE8F087AE
:105CE0002B6808EB0A005969A4EB0A02FAF796FE42
:105CF000E3E72046BDE8F0876FF01500EEE76FF0B0
:105D00000B00EBE76FF00A00E8E76FF01500704753
:105D100003685B68BFF35B8F1868704703685B6854
:105D20001960BFF35B8F70470020704768F02EBB8F
:105D30002DE9F047012705468046DFF84C9095FA9B
:105D4000A5F3B3FA83F309EB0316317B07FA03F2E9
:105D50006FEA020A1C0125EA020581B159F80430F4
:105D60001B6913B13046984748B909EB04035B68D7
:105D700003223046196808EA0A0800F0F9FB002DF2
:105D8000DDD14046BDE8F087F05E090001487DF0B6
:105D900041BA00BFC817002030B5002289B00E49B3
:105DA0000E487FF035FB0022002300240E25CDE9AC
:105DB0000623CDE903544FF44072CDE90144084B6A
:105DC0000849009408487EF0DBF8084906487EF050
:105DD0000DF8204609B030BD8D5D0000382100204F
:105DE000F5610000D0AF0020881C00200071090080
:105DF00003785B0701D50020704703684288C3F32E
:105E00004A2000EB1210173020F00700800870477E
:105E10002DE9F84F814688462F4BD3E8EF5F6A1C87
:105E2000C3E8E12F0029F8D1002D41D12B4C2C4F94
:105E3000BC423DD2013F3F1B3F092E464FF0010AB5
:105E40001034013704E00136BE4204F1100422D0C0
:105E500014F8043C002BF6D054F8103CA4F1100BBD
:105E6000DB680BB15846984754F80C3C83F806A001
:105E700054F8103C1B6913B15846984740BB54F87E
:105E80000C3C032258461968013600F071FBBE42F3
:105E900004F11004DCD1B9F1000F0AD045B1284655
:105EA000FFF746FF0546B8F1000F09D1002DF6D1E6
:105EB00000252846BDE8F88F2846FFF739FF05463C
:105EC00040F2391000217EF041FE002DF4D1EFE7C1
:105ED0000AFA06F31D43B6E7C4560020F05E090037
:105EE000005F090008B50C4BD3E8EF1F0131C3E890
:105EF000E21F002AF8D1094BD3E8EF1F0139C3E8AC
:105F0000E21F002AF8D106487FF0BCFABDE808403D
:105F100004487DF07FB900BFBC560020C056002069
:105F200038210020C8170020002300B585B0CDE936
:105F300002011A4619461846CDE9003300F08EFCDE
:105F400005B05DF804FB00BF38B50023144C1548BC
:105F5000154D164A23701649164C056016480B60FD
