:020000040000FA
:10000000301604201D8B020023D60600098B020047
:10001000098B0200098B0200098B0200098B020088
:10002000000000000000000000000000F98B02004A
:10003000098B020000000000A98D0200098B02005C
:10004000418E0200418E0200418E0200418E02006C
:10005000418E0200418E0200418E0200418E02005C
:10006000418E0200418E0200418E0200418E02004C
:10007000418E0200418E0200418E0200418E02003C
:1005000081F0004102E000BF83F0004330B54FEAC4
:1005100041044FEA430594EA050F08BF90EA020F31
:100520001FBF54EA000C55EA020C7FEA645C7FEAC4
:10053000655C00F0E2804FEA5454D4EB5555B8BFE7
:100540006D420CDD2C4480EA020281EA030382EA58
:10055000000083EA010180EA020281EA0303362DEA
:1005600088BF30BD11F0004F4FEA01314FF4801CBD
:100570004CEA113102D0404261EB410113F0004FCF
:100580004FEA03334CEA133302D0524263EB430386
:1005900094EA050F00F0A780A4F10104D5F1200E24
:1005A0000DDB02FA0EFC22FA05F2801841F100017F
:1005B00003FA0EF2801843FA05F359410EE0A5F153
:1005C00020050EF1200E012A03FA0EFC28BF4CF084
:1005D000020C43FA05F3C01851EBE37101F000453A
:1005E00007D54FF0000EDCF1000C7EEB00006EEB47
:1005F0000101B1F5801F1BD3B1F5001F0CD34908D1
:100600005FEA30004FEA3C0C04F101044FEA445227
:1006100012F5800F80F09A80BCF1004F08BF5FEAAE
:10062000500C50F1000041EB045141EA050130BD8E
:100630005FEA4C0C404141EB0101013C28BFB1F5A0
:10064000801FE9D291F0000F04BF01460020B1FAEB
:1006500081F308BF2033A3F10B03B3F120020CDABE
:100660000C3208DD02F1140CC2F10C0201FA0CF09C
:1006700021FA02F10CE002F11402D8BFC2F1200C01
:1006800001FA02F120FA0CFCDCBF41EA0C019040B7
:10069000E41AA2BF01EB0451294330BD6FEA040400
:1006A0001F3C1CDA0C340EDC04F11404C4F12002EB
:1006B00020FA04F001FA02F340EA030021FA04F3FD
:1006C00045EA030130BDC4F10C04C4F1200220FA54
:1006D00002F001FA04F340EA0300294630BD21FA92
:1006E00004F0294630BD94F0000F83F4801306BF58
:1006F00081F480110134013D4EE77FEA645C18BF4C
:100700007FEA655C29D094EA050F08BF90EA020FE2
:1007100005D054EA000C04BF1946104630BD91EADA
:10072000030F1EBF0021002030BD5FEA545C05D1DD
:100730004000494128BF41F0004130BD14F580041C
:100740003CBF01F5801130BD01F0004545F0FE4190
:1007500041F470014FF0000030BD7FEA645C1ABFC5
:10076000194610467FEA655C1CBF0B46024650EAFC
:10077000013406BF52EA033591EA030F41F4002128
:1007800030BD00BF90F0000F04BF0021704730B5AE
:100790004FF4806404F132044FF000054FF0000183
:1007A00050E700BF90F0000F04BF0021704730B544
:1007B0004FF4806404F1320410F0004548BF404219
:1007C0004FF000013EE700BF42004FEAE2014FEA6E
:1007D00031014FEA02701FBF12F07F4393F07F4F49
:1007E00081F06051704732F07F4208BF704793F04C
:1007F0007F4F04BF41F40021704730B54FF460745F
:1008000001F0004521F000411CE700BF50EA010261
:1008100008BF704730B54FF000050AE050EA01020A
:1008200008BF704730B511F0004502D5404261EB7A
:1008300041014FF4806404F132045FEA915C3FF4BB
:10084000D8AE4FF003025FEADC0C18BF03325FEA58
:10085000DC0C18BF033202EBDC02C2F1200300FA09
:1008600003FC20FA02F001FA03FE40EA0E0021FA2E
:1008700002F11444BDE600BF70B54FF0FF0C4CF41C
:10088000E06C1CEA11541DBF1CEA135594EA0C0FCE
:1008900095EA0C0F00F0DEF82C4481EA030621EA09
:1008A0004C5123EA4C5350EA013518BF52EA033544
:1008B00041F4801143F4801338D0A0FB02CE4FF0F6
:1008C0000005E1FB02E506F00042E0FB03E54FF026
:1008D0000006E1FB03569CF0000F18BF4EF0010E1E
:1008E000A4F1FF04B6F5007F64F5407404D25FEA1A
:1008F0004E0E6D4146EB060642EAC62141EA5551CD
:100900004FEAC52040EA5E504FEACE2EB4F1FD0C0E
:1009100088BFBCF5E06F1ED8BEF1004F08BF5FEA8C
:10092000500E50F1000041EB045170BD06F000463E
:1009300046EA010140EA020081EA0301B4EB5C04EB
:10094000C2BFD4EB0C0541EA045170BD41F48011E3
:100950004FF0000E013C00F3AB8014F1360FDEBF08
:10096000002001F0004170BDC4F10004203C35DAE4
:100970000C341BDC04F11404C4F1200500FA05F367
:1009800020FA04F001FA05F240EA020001F0004208
:1009900021F0004110EBD37021FA04F642EB06017E
:1009A0005EEA430E08BF20EAD37070BDC4F10C04A8
:1009B000C4F1200500FA04F320FA05F001FA04F26C
:1009C00040EA020001F0004110EBD37041F1000158
:1009D0005EEA430E08BF20EAD37070BDC4F1200563
:1009E00000FA05F24EEA020E20FA04F301FA05F2CB
:1009F00043EA020321FA04F001F0004121FA04F273
:100A000020EA020000EBD3705EEA430E08BF20EA42
:100A1000D37070BD94F0000F0FD101F0004640007C
:100A200041EB010111F4801F08BF013CF7D041EAFE
:100A3000060195F0000F18BF704703F00046520002
:100A400043EB030313F4801F08BF013DF7D043EAD3
:100A50000603704794EA0C0F0CEA135518BF95EA89
:100A60000C0F0CD050EA410618BF52EA4306D1D110
:100A700081EA030101F000414FF0000070BD50EA2F
:100A8000410606BF1046194652EA430619D094EAB9
:100A90000C0F02D150EA013613D195EA0C0F05D1A3
:100AA00052EA03361CBF104619460AD181EA0301F7
:100AB00001F0004141F0FE4141F470014FF00000AF
:100AC00070BD41F0FE4141F4780170BD70B54FF04A
:100AD000FF0C4CF4E06C1CEA11541DBF1CEA1355CA
:100AE00094EA0C0F95EA0C0F00F0A7F8A4EB0504AC
:100AF00081EA030E52EA03354FEA013100F08880A3
:100B00004FEA03334FF0805545EA131343EA12636B
:100B10004FEA022245EA111545EA10654FEA002620
:100B20000EF000419D4208BF964244F1FD0404F5D9
:100B3000407402D25B084FEA3202B61A65EB030535
:100B40005B084FEA32024FF480104FF4002CB6EBF2
:100B5000020E75EB030E22BFB61A754640EA0C0072
:100B60005B084FEA3202B6EB020E75EB030E22BFB2
:100B7000B61A754640EA5C005B084FEA3202B6EBF3
:100B8000020E75EB030E22BFB61A754640EA9C00B2
:100B90005B084FEA3202B6EB020E75EB030E22BF82
:100BA000B61A754640EADC0055EA060E18D04FEA40
:100BB000051545EA16754FEA06164FEAC30343EAE0
:100BC00052734FEAC2025FEA1C1CC0D111F4801FAD
:100BD0000BD141EA00014FF000004FF0004CB6E7A6
:100BE00011F4801F04BF01430020B4F1FD0C88BF45
:100BF000BCF5E06F3FF6AFAEB5EB030C04BFB6EB50
:100C0000020C5FEA500C50F1000041EB045170BD42
:100C10000EF0004E4EEA113114EB5C04C2BFD4EB6F
:100C20000C0541EA045170BD41F480114FF0000EF3
:100C3000013C90E645EA060E8DE60CEA135594EA6F
:100C40000C0F08BF95EA0C0F3FF43BAF94EA0C0F72
:100C50000AD150EA01347FF434AF95EA0C0F7FF4E7
:100C600025AF104619462CE795EA0C0F06D152EA3B
:100C700003353FF4FDAE1046194622E750EA41061F
:100C800018BF52EA43067FF4C5AE50EA41047FF430
:100C90000DAF52EA43057FF4EBAE12E74FF0FF3C95
:100CA00006E000BF4FF0010C02E000BF4FF0010C66
:100CB0004DF804CD4FEA410C7FEA6C5C4FEA430CDF
:100CC00018BF7FEA6C5C1BD001B050EA410C0CBF2E
:100CD00052EA430C91EA030F02BF90EA020F002090
:100CE000704710F1000F91EA030F58BF994208BFF7
:100CF00090422CBFD8176FEAE37040F001007047B4
:100D00004FEA410C7FEA6C5C02D150EA013C07D10A
:100D10004FEA430C7FEA6C5CD6D152EA033CD3D055
:100D20005DF8040B704700BF8446104662468C464F
:100D30001946634600E000BF01B5FFF7B7FF002882
:100D400048BF10F1000F01BD4DF808EDFFF7F4FFAB
:100D50000CBF012000205DF808FB00BF4DF808ED36
:100D6000FFF7EAFF34BF012000205DF808FB00BF59
:100D70004DF808EDFFF7E0FF94BF012000205DF87B
:100D800008FB00BF4DF808EDFFF7CEFF94BF012030
:100D900000205DF808FB00BF4DF808EDFFF7C4FF29
:100DA00034BF012000205DF808FB00BF4A0011D2CB
:100DB00012F5001211D20DD56FF47873B3EB6252B5
:100DC0000ED44FEAC12343F0004343EA505323FAC1
:100DD00002F070474FF00000704750EA013002D136
:100DE0004FF0FF3070474FF0000070474FEA41026C
:100DF000B2F1E04324BFB3F5001CDCF1FE5C0DD979
:100E000001F0004C4FEAC0024CEA5070B2F1004FC2
:100E100040EB830008BF20F00100704711F0804FC5
:100E200021D113F13872BCBF01F00040704741F48A
:100E300080114FEA5252C2F11802C2F1200C10FA8E
:100E40000CF320FA02F018BF40F001004FEAC12372
:100E50004FEAD32303FA0CFC40EA0C0023FA02F316
:100E60004FEA4303CCE77FEA625307D150EA0133EC
:100E70001EBF4FF0FE4040F44000704701F00040BC
:100E800040F0FE4040F40000704700BF7BB972B9EB
:100E90000029BEBF00204FF0004106E008BF002837
:100EA0001CBF6FF000414FF0FF3000F075B8ADF19E
:100EB000080C6DE904CE002909DB002B1ADB00F0D9
:100EC0009AF8DDF804E0DDE9022304B070474042FF
:100ED00061EB4101002B1BDB00F08DF8DDF804E035
:100EE000DDE9022304B0404261EB4101524263EB71
:100EF00043037047524263EB430300F07CF8DDF894
:100F000004E0DDE9022304B0404261EB4101704797
:100F1000524263EB430300F06EF8DDF804E0DDE9D4
:100F2000022304B0524263EB4303704753B94AB9FA
:100F3000002908BF00281CBF4FF0FF314FF0FF30E1
:100F400000F02AB8ADF1080C6DE904CE00F053F8BA
:100F5000DDF804E0DDE9022304B07047D0B50022DB
:100F60000B4B06460F46FFF787FCFFF71FFF0446B3
:100F7000FFF708FC0022074BFFF77EFC02460B46FA
:100F800030463946FFF7C0FAFFF710FF2146D0BDC3
:100F90000000F03D0000F041704700BF10F8012B49
:100FA00011F8013B012A28BF9A42F7D0D01A7047A6
:100FB000034611F8012B03F8012B002AF9D17047E1
:100FC000034613F8012B002AFBD1181A0138704789
:100FD000430803F05533C01A00F03333800800F0A3
:100FE000333018444FF0013300EB101000F00F3095
:100FF0005843000E70472DE9F0478C468E46089EF8
:10100000154604461946002B40F0D080724547D95A
:10101000B2FA82F74FB1C7F120030EFA07FCBD40C8
:10102000BC4020FA03F343EA0C0C4FEA154EA8B279
:10103000230CBCFBFEF80EFB18CC08FB00F943EABE
:101040000C43994528D9EB1808F1FF3204D2994591
:1010500002D9A8F102022B44A3EB0903A4B2B3FB0B
:10106000FEFC0EFB1C330CFB00F044EA0344A042E0
:1010700014D92C190CF1FF3304D2A04202D9ACF1DF
:1010800002032C44241A43EA02401EB1FC40002310
:1010900034607360BDE8F0874246DDE76346F1E700
:1010A000002A79D0B2FA82F3002B3FD01946C1F161
:1010B000200302FA01F500FA01F42EFA03F20EFA07
:1010C00001FE20FA03F3AFB243EA0E034FEA154ED6
:1010D000B2FBFEFC0EFB1C201A0C0CFB07F842EACC
:1010E000004290455AD9AA180CF1FF3004D290451D
:1010F00002D9ACF102002A44A2EB08029BB2B2FB77
:10110000FEFC0EFB1C220CFB07F743EA02439F4246
:1011100046D9EB180CF1FF3204D29F4202D9ACF150
:1011200002022B44DB1B42EA004202E0AEEB020368
:1011300001224FEA154EAFB2200CB3FBFEFC0EFBB2
:101140001C330CFB07F840EA034398452AD9EB18F7
:101150000CF1FF3004D2984502D9ACF102002B44C7
:10116000A3EB0803A4B2B3FBFEFC0EFB1C330CFB89
:1011700007F744EA0344A74216D92C190CF1FF33B0
:1011800004D2A74202D9ACF102032C44E41B43EA87
:1011900000400F46114678E71F2188E76046ABE71D
:1011A0006246BFE76046DBE76346EFE7734506D973
:1011B00016B9002108466DE7C6E9000EF9E7B3FA53
:1011C00083F787B9734501D3824207D8841A6EEB3F
:1011D000030301209C461EB900215BE73846FAE76D
:1011E000C6E9004CF8E7C7F1200CBB4000FA07F451
:1011F00022FA0CF520FA0CF1BA401D432EFA0CF33A
:101200000EFA07FE4FEA154941EA0E011FFA85FE64
:10121000B3FBF9F809FB18300B0C08FB0EFA43EA94
:1012200000439A4540D9EB1808F1FF3004D29A45A3
:1012300002D9A8F102002B44A3EB0A0389B2B3FB45
:10124000F9F809FB183308FB0EFE41EA03418E450D
:101250002CD9691808F1FF3304D28E4502D9A8F1C0
:101260000203294443EA0040A1EB0E01A0FB0298CF
:101270004145CE46434602D306D14C4504D20138FF
:10128000B9EB020E68EB0503002EA5D0B4EB0E02FD
:1012900061EB030101FA0CFC22FA07F3F9404CEA76
:1012A0000303C6E9003197E74046C5E74346D9E75F
:1012B0002DE9F04704460F4616468AB075F06BFBE1
:1012C0004FF47A75A0FB050C47F6122205FB01C10D
:1012D0000023FFF72BFE012F80460D4608D1CDE9F4
:1012E0000001294A0821204664F0F4FB002012E0A6
:1012F000766826483146FFF751FE78B131462448DA
:10130000FFF74CFE50B1204633460121214A64F0DC
:10131000E1FB6FF004000AB0BDE8F087404618A377
:10132000D3E900232946FFF7B1FD06460D461046D6
:101330001946194A0023FFF7A9FD80460F461046BB
:1013400019464EF660220023FFF7A0FD824689462B
:10135000104619464FF47A720023FFF797FDCDE946
:1013600004A9CDE90601CDE9082308212046CDE9ED
:101370000287CDE90065094A64F0ACFBB6E700BF1F
:10138000005C260500000000EE200800FF20080099
:10139000022108000B21080080EE360023210800FE
:1013A00070B5044658B9264A264905200BF03AFA8A
:1013B000E06A60B366F045FA0023E36227E0C368A1
:1013C0009B68DD6A0DB12B6913B91D4A1E49ECE714
:1013D000102066F0C1FEE06210B9194A1B49E4E72B
:1013E000012304F1140684F83030304657F024FD10
:1013F0002B6920699847054658B10520104A1449C1
:101400000BF010FA0023013584F83030D0D0E06AB8
:1014100070BD09A3D3E90023304657F0E7FC94F8E8
:101420003030002BF3D00520054A0A490BF0FAF9B9
:1014300084F83050BCE700BF76B010000000000018
:10144000BA060A0011630800BE6A0800E56A0800CF
:10145000116B0800316B08002DE9F04FD1F888803E
:10146000C3B00C4616461490B8F1000F01D1D1F864
:101470008C80D6F888B0BBF1000F01D1D6F88CB0C3
:1014800006F12005294614986AF022FC20B10027B5
:10149000384643B0BDE8F08F149BD3F8F8104B6B7F
:1014A00033B128461C316AF0E5FC08B10127EFE7AB
:1014B000149818A904F5C67A6AF0F1FB002840F0E8
:1014C0004881BDF9EA30002B00F043819DF9EB50D3
:1014D00045B9414650469DF8FC209DF9EA5068F018
:1014E0009DF92D1A42F20F733E9F9F420AD16FF46D
:1014F0007A6140F26573189842189A4200F221818D
:101500006FF05B07204668F0BEFFD4F888200346E2
:10151000EF1B0AB9D4F88C200B218DF85F100DF168
:101520005F010291216D1498CDE90071514610F0D0
:1015300051FA12904146504694F8542068F06EF9E2
:1015400041463B4694F854208146504610F02AF913
:10155000F36F594696F85420804606F5C6701393EB
:10156000D6F864A068F05AF9129B139A03F59C53BD
:1015700008339342834699D3306DB0F57A6F40F3C8
:10158000ED80276DB7F57A6FACBF0027012765F0B6
:101590004BFF28B1206D65F047FF80F00100C0B21D
:1015A0000AEB0B0315EB090515931DD50223159ABC
:1015B00017FB032710FB0370A84215DA1398FFF7F7
:1015C000E1F8824612988B46FFF7DCF84FF0333291
:1015D0009B4BFFF751F902460B4650465946FFF721
:1015E000BDFB00287FF453AF139B129A03F59C5365
:1015F00008339A423FF64BAFB8F57A7FBFF647AF54
:1016000015F1550FC0F2AC8015F1500FC0F2AA8051
:1016100015F14B0FC0F2A88015F1460FC0F2A6805D
:10162000002DB4BF052702271298FFF7ABF88046BC
:1016300013988946FFF7A6F80022824B82468B4614
:10164000FFF71AF902460B4640464946FFF7A4FB4E
:10165000002800F08D800A37D4F85080404665F0AD
:10166000E3FE002840F0E0806FF47A6240F2657398
:10167000904498458CBF4FF000084FF00108D6F811
:101680005090484665F0D0FE002840F0D0806FF4BE
:101690007A63994440F2657399458CBF4FF0000915
:1016A0004FF00109149BA8EB0908D3F8983C07EB0D
:1016B00048072BB1AB4203DB159A9342B8BF023FF8
:1016C000139A159B1192159A5B1B1092326D9F42D3
:1016D0000F9296F825204FF003010E9296F82420E1
:1016E000D8BF594B0D9296F82320C8BF574B0C9288
:1016F00096F82220D8BF01270B9296F82120C8BF68
:1017000000270A9296F820200992129ACDE90752F2
:10171000226D069294F82520059294F824200492D4
:1017200094F82320039294F82220029294F8212026
:101730001498019294F820200092454A0BF0B0F9D9
:10174000A6E665F071FE00287FF4DAAE6FF0580768
:10175000D8E6D4E91F37656E1293EBE6002716E74B
:10176000012761E702275FE703275DE704275BE7BF
:101770004FF03332324B50465946FFF77DF8024660
:101780000B4640464946FFF707FB08B1053763E7BC
:1017900029A3D3E9002350465946FFF76DF80246C6
:1017A0000B4640464946FFF7F7FA08B1023753E7C0
:1017B000DDE91232934201D901374DE70022214B76
:1017C00040464946FFF758F802460B4650465946F0
:1017D000FFF7E2FA08B10A3F3EE74FF03332184B09
:1017E00040464946FFF748F802460B4650465946E0
:1017F000FFF7D2FA08B1053F2EE70FA3D3E9002384
:1018000040464946FFF738F802460B4650465946CF
:10181000FFF7C2FA08B1023F1EE7DDE91232934238
:1018200038BF07F1FF3717E74FF0020827E74FF0FF
:10183000020937E7AFF300809A9999999999F13F96
:101840003333F33F0000F83F9FB60800B3B60800FB
:10185000C9B608000000000010B500240E4B0F4967
:101860001C601C725C600E4B08464B6008A3D3E9F9
:101870000023C1E904233CF0ABFC8320094B0A4957
:101880000A4AC3E904015A60204610BDAFF3008044
:101890002CFA02000000D0D0DC5500204830002097
:1018A000ED970300303000200000D0D0196C030009
:1018B00070B4174E0C46B042154608D00136B042FF
:1018C0000FD0023EB04210D070BC5CF05FBF0AA3E4
:1018D000D3E90023C5E900230E4B0020236070BC30
:1018E000704707A3D3E90023F4E707A3D3E9002354
:1018F000F0E700BFAFF3008002C0FF7F00000000F0
:1019000003C0FF7F0000000001C0FF7F0000000057
:1019100002C0FF7F03004E8008B5054B05491A68D9
:10192000054B0648B2FBF3F261F0AAFE002008BDA9
:1019300064110020D419080040420F00DE1908008D
:1019400008B50549054874F0AEFD0549054874F031
:10195000AAFD002008BD00BF2D1A0000981B002022
:1019600069190000681B002010B503F0A1FF0446B0
:10197000074863F0FDFB204664F06BF80022054B3E
:1019800020461A700821BDE81040034A64F0A2B84E
:10199000ECA607002C6D0020061A080073B51D4B3D
:1019A00005461B7816464BB1012128461A4A64F0B9
:1019B00091F86FF00F04204602B070BD174874F024
:1019C0007EFD04460028EFD10A22706801A95FF06D
:1019D0001FF9019A034612781AB9421EB2F5616FD7
:1019E00009D34FF46163012128460D4A64F072F86F
:1019F0006FF01504DFE70B4A0821106028460A4AF9
:101A000064F068F841F66A020023044857F026FCA7
:101A1000D1E700BF2C6D0020171A0800981B00208A
:101A2000351A0800A84400204B1A080013B503F02B
:101A30003FFF044664F03FF81C4863F07AFB002146
:101A400040F21B6074F0E9FE18480DF1070163F0E5
:101A500001FB9DF80730012B0ED0144863F088FB82
:101A6000204663F0F6FF012120469DF80730104A1A
:101A700064F030F802B010BD0E4A47F6122C137015
:101A80000D4B40F2E7301C684FF47A7300215C4341
:101A90004FF47A720023E4FB0C01FFF747FA024689
:101AA0000B46064857F0DAFBE4E700BFECA6070058
:101AB0008C1A08002C6D0020A8440020681B002010
:101AC0002DE9F041884600AF002900F084800568C8
:101AD0000122284661F079F901460446284661F062
:101AE0002EF910EA020319D13C48026856070DD0BE
:101AF0006E4688B06A463A49CDE90518032142F896
:101B0000101F4FF4C25102F06DF9B546002383F364
:101B10001188BFF36F8F0423184602DF2146284641
:101B200061F023F9261831460022284661F007F9B2
:101B3000361AB4421BD02948036859070FD06E46A5
:101B400088B06946274BCDE90538032341F8103F9B
:101B500013460A464FF4C25102F044F9B546002339
:101B600083F31188BFF36F8F0423184602DF00222E
:101B70002146284661F0FFF8214661F0F6F8261864
:101B800001223146284661F0DAF8C20708D431460E
:101B9000284661F05CF932462146284661F0CEF9CC
:101BA00000222146284661F0CAF8261A0122314651
:101BB000284661F0C4F8C30709D43146284661F0CD
:101BC00046F922463146284661F0B8F934462146A6
:101BD000284661F0D1F9BD46BDE8F081A41300208C
:101BE000571B08002E1B08000E4A0346904202D3E2
:101BF0000D4A904211D30D4A22B1934202D30C4AAE
:101C000093420AD30B4A52B10B48834234BF01209E
:101C10000020934238BF00207047012070471046D3
:101C2000704700BF3CA40700AC1A0A000000000087
:101C30000000000000000000000000002DE9F04F4F
:101C400091B000AF164605468B46BA6E7B6351B91C
:101C5000037890F80180807800EB83002844D84511
:101C600020D8A0EB050B02F0010395F80280FB6081
:101C7000EB78B8F1000F0CBF002402F00104BB6246
:101C80000BB1930719D4C4B93EB159467A6B2846B3
:101C9000B047214620467A6BB04758464437BD4688
:101CA000BDE8F08F441C2046BA66FFF789F9013081
:101CB000BA6E20440BF1010BD1E72B78990008EBA9
:101CC0008303BB61EB18FB62BB6A79615B00BB609D
:101CD000BB6A696808EB4303202B396100F2368147
:101CE00012F004037B6211D04FF0000A0124D146A8
:101CF00004FA08F4013CC7F830800023C7E9073331
:101D000002F0020308F101083B603DE002F001032C
:101D1000002B00F099804FF001097B6A09FA08F95D
:101D2000C2461C4609F1FF393B63E6E7FB6A023312
:101D3000FB62002E5ED013F8021C386961F04AFC89
:101D4000002857D0834B1B6813F0060F17D0C7F835
:101D500004D08AB06A46804B05933B69CDE90631D1
:101D60004FF40073ADF820307C4B42F8103F002355
:101D70004FF41251774802F035F8D7F804D0FB69D8
:101D800008F102080133FB61FB69BA6A9342CDD3C3
:101D90002B7887F83C306B78534487F83D303B6AAA
:101DA00087F83F303B6B87F83E30002E53D14FF021
:101DB000010AD7F8148005EB08033B63002C5AD1C5
:101DC000B9F1000F6FD1B869BB681844BBEB0004D0
:101DD00000F0B780002E00F0B18021467A6B2844D5
:101DE000B0470028FFF65AAFA04400217A6B08469E
:101DF000B047A9E0FB6A13F8013C55F82300FFF750
:101E0000F3FEA0B1FB683BB1012303FA08F349EAF2
:101E100003090AF1010AB2E77B6A002BAFD0012364
:101E200003FA08F31C433B6B01333B63A7E73B68B2
:101E3000002BE9D1032208F1FF3302FA03F31C431C
:101E40003B6A01333B629AE702F0010AD1465446ED
:101E5000C7F830A051E704217A6B07F13C00B04786
:101E60000028FFF61BAF7B697A6B191F281DB0474E
:101E700000289CDA12E794FAA4F3B3FA83F33A6BDE
:101E8000D25C0AFA03F387F83B2024EA03043EB14C
:101E900001217A6B07F13B00B0470028FFF6FEAE48
:101EA00008F101088AE799FAA9F3B3FA83F33A6BC8
:101EB000D25C55F822A087F83B20012202FA03F3F6
:101EC00029EA03094EB101217A6B07F13B00B047C3
:101ED0000028FFF6E3AEFB6ECBB90021204B08F1E2
:101EE0000108BAF1000F08BF9A46C6B95046FFF77D
:101EF00067F8FB6E01308044002B3FF461AF3B6F0D
:101F00009C423EBFFB6E23F81400013458E73B6F40
:101F10009C42E2D2FB6E33F814100134DEE741B18B
:101F200050467A6B89B2B0470028FFF6B7AE8044BE
:101F300046E75046FFF744F8411CF1E708EB040080
:101F4000ACE6002E7FF451AF4046A7E66FF01B00D1
:101F5000A4E600BFBC1200208B1B08000400000197
:101F6000841B080030B50446EFF31185202383F36A
:101F70001288BFF36F8F044B0FCB84E80F0085F3FB
:101F80001188BFF36F8F30BDC81B002001281FB51B
:101F90000C4605D004281ED06FF0150004B010BD0B
:101FA00074F0F9FC47F612220023FEF7BFFF4FF44E
:101FB000FA435A43C4E90001A2606846FFF7D2FF22
:101FC0006946204661F023FB18B90A4B0FCB84E821
:101FD0000F000020E2E774F0DEFC47F61222002337
:101FE000FEF7A4FF4FF4FA435A43C4E90001A2608C
:101FF000EFE700BFF0BC070001287FB50D462DD1EB
:102000008A68184B9A4229D874F0C5FC47F6122208
:102010000023FEF78BFF144B404202FB03F361EBFE
:102020004101CDE900016846029300F0C1F829465C
:10203000684661F0ECFAEFF31186202383F31288EF
:10204000BFF36F8F9DE80F00084D85E80F0086F302
:102050001188BFF36F8F002004B070BD6FF01500C2
:10206000FAE700BFFFC99A3B0083FFFFC81B0020AF
:10207000014B1860704700BF50040020044608B5AB
:10208000EFF31183202383F31288BFF36F8F49F09E
:1020900045FD204628F08CF9024861F0F1FA6BF01A
:1020A000DEFAFCE73F1C08002DE9F84340F26C73B0
:1020B00044690569E1170135E41841F10001022D79
:1020C0008CBF00230123E41AC76861F100010029D5
:1020D000064607F1FF374EDA6FF4C7704FF4C87247
:1020E0000023201861F10001FEF7D0FE244B4FF0D1
:1020F0003C0E03FB0044D6E900834FEAE37C99469B
:102100006346032D024634BF09206FF00200B66813
:102110000544C6FB0E93A9FB0EC60EFB036640F2F8
:102120006D1E9920A3080EFB04333B4464274543EE
:102130000520B4FBF7F40235B5FBF0F51B1B114C81
:102140001CEB080CA2FB042004FB01012B4446EB12
:10215000E87698180C4A41F1000380180B4A63F1A5
:102160000003A0FB020102FB031110EB0C0041EB8A
:102170000601BDE8F8834FF4C87200232046B3E798
:1021800070FEFFFFB13A02009405F5FF8051010097
:1021900010B5FFF789FF0024024626F0A1FE0B468A
:1021A000024944501046194610BD00BF0C00000003
:1021B00070B51F4B82689A4215DDD0E900160133D5
:1021C00092FBF3F3012976F100054FEAE3741CDA80
:1021D000C91844EB0604C0E90014164901FB0323A7
:1021E0008360012070BD002AFBDAD0E90041124E65
:1021F0009B1A0029B3FBF6F310DA01F100459C426B
:1022000075F100050ADA0020ECE7CD439D426FF03E
:102210000045A5EB0605A541DADAF4E706FB032243
:10222000E41A61F10001C0E900418260D9E700BF12
:10223000FFC99A3B003665C400CA9A3B08B500F056
:10224000BBF80C49012241614FF0FF310023C0E986
:1022500006110949C0E900220A600849C0E90233B1
:102260000A60074A03611360064A1360064A136056
:1022700008BD00BFDE690800780400207404002057
:10228000B4440020B0440020AC4400202DE9F047C5
:1022900081468846174600F08FF8C36804461BB98C
:1022A00043691A78002A3ED10023E36063684B45F6
:1022B00058F8232008DB314B6361204600F060F8BA
:1022C0004FF0FF30BDE8F087511C616192F800A02B
:1022D000BAF12D0FEFD1951C656156782D2EA660B1
:1022E00004D1927872B901336360E4E756B9234DA3
:1022F00051463846656177F0ABFC0028DDD0564684
:10230000C4F808A03146384677F0A2FC3A2E00D037
:1023100070B92B7813B9636801336360204600F00D
:102320002FF83F20CEE75D1C45611E788660E9E707
:1023300043783A2B0BD0002323612B7813B96368C1
:1023400001336360204600F01BF8A068BAE72B78E1
:102350000A4A33B9636801339945636004DD58F86C
:102360002350C4E90452EAE762613D7820463A2DE1
:10237000D5D100F005F82846A4E700BFDE690800C3
:102380000168084A084B11604168084A1160816879
:10239000074A1160074AC168116002691A6028F093
:1023A000ABBB00BF78040020AC44002074040020C4
:1023B000B4440020B044002010B526F091FD084B35
:1023C000084A1958084B934201D3084805E0986819
:1023D000D0F8D0428C4201D1583010BD3033F2E7F2
:1023E00008000000A0B5070070B5070054040020E5
:1023F0002DE9F04F8BB000AF7B6103680546914635
:10240000D0F81480F9603B62002B4FD013783A2B40
:102410004CD0974B1B68022B48D8964A52F823B0F1
:102420006B683D21BB61013340466B603B6177F0D7
:102430000FFC064600283CD0A0EB08037B62013667
:1024400000224FF0FF349246FA61BA6D7B6902F0C8
:102450000402BA60196889BBBAF1000F62D03B6A06
:10246000E3B199F800303A2B18D08348036813F091
:10247000060F13D06C468AB06A46804BCDE9053B07
:102480007B6ACDE907387E4B09937E4B42F8103FBB
:102490000B464FF4425101F0A5FCA5460023AB606A
:1024A0003F2420462C37BD46BDE8F08FDFF8D8B179
:1024B000B6E74046FEF784FD7862C1E740467A6A97
:1024C0007B60396077F0EFFB7B6808BB39680846B2
:1024D000FEF776FD7B6A984254D07A6D7B6812B124
:1024E0007A6A012A14D0621C17D0BA68BAB97A691C
:1024F000586802EB04125168884210D198689168BC
:1025000088420CD1D968D268914218BF4AF0010ABA
:10251000FA6910330132FA619CE7FC69F8E74FF081
:10252000010AF5E7631C72D07B6903EB041ADAF841
:1025300004304BBB002E00F08F803A6ADAB199F874
:1025400000203A2A17D04C48026812F0060F12D029
:102550006C468AB06A464D49CDE9051B796ACDE9DA
:10256000071847490991474942F8101F4FF4425153
:1025700001F038FCA546DAF80830002B8ED1DAF8E5
:102580000C308CE7FC69CFE75A1E012A64D846B9A3
:10259000012B61D1BB6902336B60D7E9033253F879
:1025A00022602E61DAF80430012B55D1002E53D170
:1025B0003B6ADBB199F800303A2B17D02E480368FC
:1025C00013F0060F12D06C468AB06A46304BCDF835
:1025D0001C80CDE9053B2F4B08932F4B42F8103F51
:1025E0004FF42251334601F0FDFBA546DAF80830DE
:1025F0005BB9DAF80C30AB606B68013B6B6099F843
:1026000000403A2C7FF44CAF4BE70023F3E77B6D9F
:1026100013B1BB696B6044E73B6A002B3FF43EAFEC
:1026200099F800303A2B3FF439AF1348036813F0A0
:10263000060F3FF433AF6C468AB06A46174BCDF8AD
:102640001C80CDE9053B134B0893134B42F8103F18
:102650004FF422517B6D1EE73B6D03B11C60DAE93C
:102660000234002B3FF41DAF1C60002419E700BFAB
:102670007C0400201CC30700D8130020731C080032
:102680000002020405000002DE690800901C080038
:10269000BA1C08000002010304000002DD1C08004F
:1026A0002DE9F04F87B00446884616461D46129F16
:1026B000002B3FD01B782D2B30D147F0020701357E
:1026C000636813B90123E360636000232361E36857
:1026D0001BB14FF0FF33C4E906334FF00009DFF8B8
:1026E0003CA207F0020BE3681BB963691A78002A61
:1026F00070D16268C4F80C9042451EDB874BD4E968
:1027000006014F1C63610ED0334661F03CFCD4E9F6
:1027100006239A1A63689B1A636007E02B2BCFD1BC
:1027200027F00107CBE7451C18BF60604FF0FF336F
:10273000C4E906334FF0FF3A13E056F82210930035
:10274000616108782D2801D1487838BBC4F814A0FD
:10275000BBF1000F09D04FF0010A01326260F3585B
:102760002361504607B0BDE8F08FF807E2D5A069B5
:10277000411C03D1A26101326260B4E7E1694B1CE4
:10278000F9D0334661F0FFFBD4E9061362685B1AA7
:10279000D31AA3614FF0FF33E361ECE7A069431C58
:1027A00010D14B1C636191F801C0BCF12D0F11D108
:1027B000897879B9E169594B01324D1C62606361D6
:1027C000B4D0A1E7E3690133EBD1E2614B78002B90
:1027D000E7D10B46109A6AB3626856F822209A42F3
:1027E00028D019782D2918D07B0723D500224C4BEF
:1027F0003A291A6017D10020119BCDE901070093F7
:102800002A4631462046109BFFF7F2FDB0F1FF3F0C
:1028100082460FD0414B6361A3E70122013363611C
:102820003F4B1A60E7E7284677F012FA003818BFE6
:102830000120E1E7D4F814B028460BF101026261EF
:102840009BF800900592494677F002FAB9F13A0FE9
:10285000CA4600F08C80B9F12D0F059A40F08580B2
:102860009BF80110002940F0888000283FF462AFF7
:10287000109B4178002B3CD0B9F1570F39D13B293F
:1028800037D19BF80120DFF894B002BB62680132B7
:102890009045626018DC2268C4F814B062B12A78EE
:1028A0003A2A09D01F48026812F0060F04D002210C
:1028B0004B461D4A62F042FB5723A3602B783A2B0C
:1028C0006CD14FF03A0A4CE756F82230636102228D
:1028D000134B31461A6000230193119B2A46009343
:1028E0002046109B0297FFF783FDC4F814B0824680
:1028F00037E73A2908D09BF80130002B7FF431AF3D
:102900006368013363602CE7002121619BF801704B
:1029100002495FB122616161F2E700BFDE69080030
:102920007C040020D81300200D1D080082783A2A6C
:10293000F1D0626801329045626012DC2268616108
:1029400062B12A783A2A09D01648026812F0060FB6
:1029500004D002214B46144A62F0F0FAC4F8089001
:10296000ACE756F822302361D5E7002880D19BF8E8
:10297000012012B9626801326260226862B12A786D
:102980003A2A09D00748026812F0060F04D0022143
:102990004B46064A62F0D2FAC4F808904FF03F0A5C
:1029A000DFE600BFD81300200D1D0800F81C08004A
:1029B0002DE9F047858B0446280717460CD50129D9
:1029C0000CBF45F0100545F02005A58387F311885D
:1029D000BFF36F8FBDE8F087022905F0070540F0CF
:1029E0009480204661F048FB052864D801A353F881
:1029F00020F000BFCD2900000B2B0000B72A0000FB
:102A0000792A0000932A0000A52A000001F007039C
:102A10005A1F012A1FD8002221F00701062BD4F8E3
:102A2000008089B2C4E9002209D1434603E0E28B69
:102A30000132E2831B68002BF9D141F002012046EC
:102A4000A18361F019FB4FF0000900286DD041F01F
:102A50002001A18369E0042B0AD121F0070189B28A
:102A60002046A18361F008FB10B141F02001A18351
:102A70004FF00008C14658E02369D3F80090A38BBB
:102A800023F0070343F006034FF00008A3834646F4
:102A90004BE02369D3F80490A38B23F0070343F0A2
:102AA0000403F1E72369D3F80890A38B23F007030D
:102AB00043F00503E8E74FF00008C146E7E70122CD
:102AC00043F00803A38387F31188BFF36F8F002AB5
:102AD0003BD1B8F1000F4AD1B9F1000F02D0204626
:102AE0002C49C847EFF31187202383F31288BFF3E3
:102AF0006F8FA38B23F008039BB2A383D9063FD526
:102B000023F01002A28303F00705A669A18B002E13
:102B1000BFF67CAF00239946D4F8008021F007016E
:102B2000C4E9003341F00101A183A38B03F0070A3C
:102B3000AA4502D0A268002AC1D1B8F1000F02D183
:102B4000B9F1000FDAD00022BAE7A1680029C0D09D
:102B50000D680029BDD03346524620464F68B8471D
:102B60001DB12B6829461D46F3E72B46FAE741467F
:102B7000334652462046D8F8008061F0A9FAA8E70B
:102B80009A067FF523AF23F02002A28303F0070506
:102B900027E700BFFD40060010B548B90E4803689E
:102BA0005A0702D00D4961F012FC6FF0150010BDFC
:102BB00083684BB9084803685B0702D0084961F095
:102BC00006FC6FF00400F2E71B6813B1BDE810408B
:102BD00018471846EBE700BFF0120020361D08002A
:102BE000471D080070B508B101B14AB90E48036825
:102BF0005A0702D00D4961F0EAFB6FF0150070BD75
:102C000084680CB125694DB9074803685B0702D099
:102C1000074961F0DCFB6FF00400F0E741F8040BBA
:102C20002369BDE870401847F0120020651D0800B8
:102C3000471D080070B51346044648B91448036898
:102C4000590702D0134961F0C2FB6FF0150070BD47
:102C5000006848B90E4803685A0702D00E4961F06F
:102C6000B6FB6FF00100F2E782680AB195684DB9D2
:102C7000074803685B0702D0084961F0A8FB6FF0C2
:102C80000400E4E70A46AC466168BDE8704060476E
:102C9000F0120020911D0800A21D0800471D080029
:102CA00010B50024084B86B0039303AB00934FF498
:102CB000AF524FF0FF3305490548CDE9044456F0C3
:102CC00063FA204606B010BDCB1D0800887D0020A9
:102CD000D81B002010B50446006861F045FC0028B0
:102CE0000BDB0D220549206861F060FC002804DB45
:102CF0000D28B4BF6FF01500002010BDBE020A0001
:102D0000024802F1280173F0A9BB00BFD81B0020C4
:102D10002DE9F0410446A2B000F11405D5E8AF6FEB
:102D2000731E052B26D8DFE803F07132032571717D
:102D300050F8240C0DF1060202A961F094FC30BB9E
:102D4000BDF806200D2A22D16749029876F059FF76
:102D5000E8B9A4F12800FFF7BDFF70B154F80C3CAE
:102D6000DB681BB154F8081C6048984700212846CE
:102D700061F047FB22B0BDE8F0810121284661F0F7
:102D800040FB012554F8040C61F043FB82E054F849
:102D9000280C61F0E8FC228A83B2934206464FEA8F
:102DA000104731D0EBB154F8280C61F0DDFB00285E
:102DB0000EDA54F80C3CDB681BB154F8081C4B4885
:102DC00098470421284622B0BDE8F04161F019BBC4
:102DD000618A54F8240C268241EA064161F0C9FC5C
:102DE0000123628A974279D1228A002A76D006216D
:102DF000284661F006FB54F80C3C1B68002BC0D041
:102E000054F8080C9847BCE70023EAE7002250F882
:102E1000240C114661F04DFC471E7F2F1DD88022E7
:102E200054F8240C02A961F044FC062E80463BD1E4
:102E300054F8280C61F097FC238A80B2984211D094
:102E40000421284661F0DDFA54F80C3C5B68002B45
:102E500090D054F8080C98478CE7062E8AD14FF092
:102E60000008E5E77F2F85D854F80C3C9B6823B118
:102E7000414654F8082C02A898470026002254F82E
:102E8000240C114661F015FC051E18BF0125002E0B
:102E90007FF478AF002D3FF46DAF2146144822B087
:102EA000BDE8F04173F0DABA012EDDD10C287FF6CF
:102EB00061AF0D220C4802A976F0A3FE00287FF432
:102EC00059AF0521284661F09CFA54F80C3C1B6868
:102ED00013B154F8080C98470126CFE7002B3FF4B4
:102EE00049AF00254EE700BFBE020A00D71D08000B
:102EF000D81B00202DE9F8430D46017C0746012927
:102F000091461C4605F13C060DD1D6E8EF3F002B5B
:102F100003D1C6E8E21F002AF7D135D06FF077045D
:102F20002046BDE8F883304661F06BFA5FFA80F81E
:102F3000C5E907946F6205F1080073F092F86868BC
:102F400061F028FB041E28DB3B7C012B1FD0286886
:102F500061F009FC040C286861F005FC002381B2D3
:102F60002B87013189B2A142FBD00029F9D06868D2
:102F7000698761F0FEFBB8F1000F13D0384661F0AD
:102F800048FA041ECCDA08E04FF00008D0E72846E3
:102F9000FFF7A0FE04460028EDD00021304661F086
:102FA00030FABDE70F4905F1280073F02CFAD7E994
:102FB000020183685C6814B96FF05704EDE72B4693
:102FC000094AA04704460028E7D1D7E902018368EF
:102FD0001B69002BF0D00122984704460028CDD071
:102FE000DBE700BF112D0000012D000037B50446BE
:102FF0000821C06A61F0D2FC00234FF6FF72104D29
:10300000ADF804306368ADF800208DF80620E26862
:1030100019182B401344181A60606846ADF8021066
:1030200061F014FC6946204661F0D7FC2046211D62
:1030300061F0E4FB63682B40A36003B030BD00BFC8
:103040000000FFFF2DE9F7430F4681460821C06AC3
:1030500061F0A4FC80463C68124D241A3C6004EAEE
:103060000506B4421CD3A0B210B903B0BDE8F0838A
:1030700008236A462146484661F087FB0028F4D1C0
:103080006946A0B261F076FC38B1BDF80230BDF8F7
:1030900004202E4013441E443C60A4EB0804E0E7E7
:1030A0000020E2E70000FFFF2DE9F04704468AB068
:1030B00000F11407384672F0D4FFA06A8368DB6819
:1030C0009847E06250B9974803685E0703D0964A74
:1030D000012161F0A0FB6FF0150571E1A06A836822
:1030E000DB6898470368013B1F2B05D98D480368AF
:1030F0005D07F0D08D4AEBE7E368B3F5803F0BD96D
:10310000884802685407E6D04FF4803201210092CB
:10311000874A61F01DFFDEE7A06A216807AA71F007
:10312000F8F828B17F4803685907D4D0814ACFE71F
:10313000E5682DB1089BB5FBF3F203FB12552DB1E9
:10314000784803685A07C6D07B4AC1E7238A012B17
:1031500005D8744803685B07BDD0784AB8E7E36ACE
:10316000029593F805804FF0FF334FF0FF32384659
:1031700055F00AFD0821E06A61F010FCA9460646F8
:10318000238A1FFA85FA534544D8238A4B4500F019
:1031900054819A450BD10299082342462046891B47
:1031A00061F001FB18B9204602A961F027FB204617
:1031B00002A9FFF747FF0546002840F0D180029999
:1031C0004FEA11494FEA09496160C4F80890A368C1
:1031D0008B420DD80823204603AA61F0D6FAB8B96D
:1031E00003AB13F8012B904532D101300828F8D1F8
:1031F000636820466FF30F0302A9029361F0FEFAA1
:1032000042462046E368029961F0CDFA00283CDA94
:103210000546A5E0E1682B04891B13FA81F14246BB
:1032200008232046029161F0BEFA78B1204602A937
:1032300061F0E4FA09F101090823424620460299A7
:103240001FFA89F961F0AFFA00289ED0013597E79F
:10325000A08803A961F08EFB626810B9911B6160C0
:10326000B5E7BDF810A0BDF80E10E06AC4F80890EC
:10327000514461F093FB48449042A060EED1BAF112
:10328000000FEBD06FF01C056AE000F0B0804FF645
:10329000FF79636806EB0308E3681FFA88F29B1B5B
:1032A0009A42CDF8088024D300221E48036803F018
:1032B0000703002A46D0022B03D90321204A61F0DC
:1032C000AAFA636820466FF30F0302A9029361F024
:1032D00095FA2046029961F0A0FA002898D1E36897
:1032E000A288A3EB46039A423AD1204661F092FBB2
:1032F0008EE708234146204605AA61F046FA0028D9
:1033000086D105A91FFA88F061F034FB30B1BDF811
:1033100014304B4502D1BDF818300BB1B044BBE7B7
:103320000122C2E7EC120020061E0800281E080039
:10333000451E08006E1E0800861E08009A1E080022
:10334000BD1E0800022B03D903213D4A61F063FA38
:103350006168204661F061FA0146002834D00546D4
:10336000384655F083FC5DBB0123364EA3743368A9
:1033700003F00703022B23D9238AE268032100927A
:103380003046314A61F0E4FD336803F00703022B55
:1033900016D963689AB200921B0C032130462B4A5F
:1033A00061F0D6FD336803F00703022B08D9A36848
:1033B0009AB2009203213046254A1B0C61F0C8FDE9
:1033C00028460AB0BDE8F0876368224AE0681340E7
:1033D0000344A3EB4603636013402046A36061F0FF
:1033E0009DFB7AE7E26AA36812681344A360D4E9FC
:1033F00001318B4208D9424620465B1A61F0D3F96D
:103400000028FFF605AFEDD16168E36801EB4602E5
:103410009A427FF464AF0F4BA06801EA0302904226
:103420003FF45DAF204661F0F8F900287FF4F0AE7C
:103430006268084B1A40A26051E76FF02C058FE7D5
:10344000D21E0800EC120020F91E0800101F080010
:10345000221F08000000FFFF2DE9F04F1E46837C6D
:1034600004468946904695B06BB96C4803685B0783
:1034700003D001216A4A61F0CEF96FF00C052846AD
:1034800015B0BDE8F08FC26A0821104661F086FAD7
:10349000B1B20190104661F081FAE368019A0746E3
:1034A000A3EB82038342C0F0B6801EB1B8F1000FD7
:1034B00000F0B180D4F804A0CDF810A0204605AAF1
:1034C00004A961F0E1FA05460028D8D1BDF814300E
:1034D0004B4507D0DDF810A063685345EED1002EB0
:1034E00039D1CCE705A91FFA8AF061F043FA002828
:1034F000F0D0BDF8183066B3B3422CD1B3464FEAD2
:103500001A43BDF816A01B049A44E36ACDF8008064
:103510001B685B4203F020030293029B51465B450C
:1035200028BF5B4620460CAA039361F02EF90028C1
:103530004DD1039B00981A460CA976F062FB50B956
:10354000039B009ABBEB030B1A449A440092E4D10C
:1035500095E7002B93D0002F3CD1BA4604F1140B11
:103560004FF0FF324FF0FF33584655F00DFB238AE2
:103570009D424DD0D4E901320AEB02018B422ED399
:103580009BB263B3FF230021ADF81E200CA81822C4
:103590008DF82230ADF81C90ADF8206076F09DF9E2
:1035A00020460CA9CDE90E8661F002FA074648B91B
:1035B00007A861F04BF9204607A961F00EFA07460B
:1035C00000B93746584655F051FB3D4657E7C2DC37
:1035D000054654E7019B1F441FFA87FABEE72046C1
:1035E000FFF704FD3DB9ADF82490CDF82880ADF883
:1035F0002C608DF82E50204609A961F08FFA0746FD
:103600000028DFD19DF82E300135002BAFD0D8E750
:103610006FF01B07D6E76FF0150530E7EC120020BE
:10362000F21D08002DE9FF471E46837C04460F4625
:103630009046BDF8309063B9294803685B0703D012
:103640000121284A61F0E7F86FF00C0004B0BDE8F2
:10365000F0870821C06A61F0A1F9E368A3EB400399
:10366000B3423AD34FF0000A65680195204602AA9A
:1036700001A961F009FA0028E8D1BDF80830BB4281
:1036800006D102A9A8B261F075F950441FFA80FA78
:10369000019B62689A4219D0CA4515D9BDF80C3011
:1036A000C3B1CA4516D3BDF80A10B3426FF30F0574
:1036B00028BF334642462046294461F066F8002878
:1036C000C4D1BDF80C00C1E71D46CFE7BDF80830F6
:1036D000BB42E3D06FF00100B8E76FF01500B5E72B
:1036E000EC120020F21D08002DE9F04704460746C1
:1036F0004FF00109DFF84C8094FAA4F5B5FA85F58E
:1037000009FA05F32E0108EB05156FEA030A24EA0E
:1037100003042B7B63B158F806301B696BB9464430
:10372000736803222846196807EA0A0761F079FBE3
:10373000002CE1D13846BDE8F0872846984700289C
:10374000F6D1ECE760B5070010B5002288B00E494D
:103750000E4873F068F9002200230024CDE9062307
:103760000E234FF44072CDE90334CDE90144084BF8
:1037700008490094084855F0A7FF0849064855F045
:103780003DFE204608B010BDA1370000A02100205A
:10379000ED3A000068930020C81C00203A1F080082
:1037A000014855F0E7BA00BF901700202DE9F04717
:1037B000804621480F4661F010FB0646002833D0B2
:1037C00000252846BDE8F087237B83B12368DB68AA
:1037D0000BB120469847636883F8069023681B69FD
:1037E000D3B9636803222046196861F01AFB0136D9
:1037F00010345445E8D3B8F1000FE2D0002DDFD0EB
:103800002846FFF771FF0546002FF7D0002140F250
:10381000391073F002F8F1E7204698470028E0D00D
:1038200009FA06F31D43E2E705464FF00109034C90
:10383000DFF80CA0DDE700BFC844002060B507003A
:1038400070B5070008B5034608462BB1044A13605B
:1038500000F046FD002008BD6FF01500FBE700BF3B
:10386000D804002010B5044C237813B9034855F050
:1038700081FA0123237010BD2D6D002090170020C8
:1038800010B50446094861F0A8FA3CB1084BD3E8EA
:10389000EF1F0139C3E8E21F002AF8D1054856F0AE
:1038A000A1FDBDE81040044855F064BAC0440020B2
:1038B000C4440020A0210020901700200022044BC7
:1038C000D3E8EF0FC3E8E12F0029F9D1704700BF1B
:1038D000C044002070B5FFF7F1FF0546074C084EC5
:1038E000B44200D370BD63685B792BB123685B6819
:1038F00013B12946204698471034F1E760B5070018
:1039000070B5070010B5044C044920465FF0C6FFAF
:10391000034B1C6010BD00BF70120020A8C307003D
:10392000B844002000230E4A10B513700D4A0E490A
:1039300013600E4A0E481360FFF784FFFFF7E2FFA3
:1039400000F080F90B4B0C4918468B4200D310BD98
:103950001A1A5C681211013222711033F5E700BFA8
:103960002E6D0020C044002040420F00C4440020BF
:10397000D74D060060B5070070B50700014600226C
:10398000002301485FF0ABBF70120020014860F0D7
:1039900042B800BF70120020024B0146186860F068
:1039A00095B800BFB8440020014860F0CAB800BF15
:1039B000701200202DE9F041354B1B78002B64D0AC
:1039C000FFF7E4FF044600285BD1324B324D1B6801
:1039D000002B19DD72F0DFFF4FF47A76A0FB0607AB
:1039E00047F61222002306FB0171FDF79FFAD5E985
:1039F0000032C01A40F2E93361EB0201984271F1E2
:103A0000000101D3FFF766FFD5E9003213F57A73A1
:103A100042F10002C5E90032002C36D0BDE8F04189
:103A2000FFF7C2BF6B685B793BB121784B0713D5B9
:103A30002B68214628461B68984710354545F1D329
:103A40002046FFF7A9FF154BD3E8EF1F0139C3E864
:103A5000E21F002AB9D0F7E720462688C1F3C20743
:103A600000F09EFAC6F382160246002EE0D000282F
:103A7000DEDB01233946284600F08EF9B042DCD364
:103A8000D6E7074DDFF81C80D8E70020BDE8F081BD
:103A90002D6D0020C044002098210020C444002047
:103AA00060B5070070B5070070B50D4D297861B994
:103AB0000120FFF77BFE0B4C0B4EB44206D3FFF701
:103AC00079FF0028FBD101232B7070BD63685B79FF
:103AD0001BB1236820469B6898471034EDE700BF70
:103AE0002E6D002060B5070070B5070000212DE99C
:103AF000F8430846FFF75AFE044648B340F21B68F5
:103B00004FF0000925F0ECF91A4B1B4A1B581360C3
:103B100033B11A4B1B68092B02DD194855F02AF9FD
:103B20000025184F44B12046FFF7DEFD044618B9C2
:103B30004FF0FF384FF0FF39FFF73CFF064628B93A
:103B4000B5B90F4842464B4655F050F93546E9E7BE
:103B50004FF0FF384FF0FF39D4E72B689B691BB15A
:103B600000222846114698471035BD42F5D3E8E7B4
:103B7000054DFAE708000000BC440020C4440020C2
:103B80009017002070B5070060B5070013B51848FE
:103B900061F023F9174B1B7873B1EFF311842023E5
:103BA00083F31288BFF36F8FFFF704FF84F311884C
:103BB000BFF36F8F02B010BD0F4B1B68002BF9D005
:103BC00050B9002200230D48CDE9002347F6122208
:103BD000002356F0E1FBEDE70928EBD1074856F04A
:103BE00001FC074802B0BDE8104055F0C3B800BF63
:103BF000C44400202E6D0020BC440020A0210020E1
:103C00009017002010B5064B04461B6898472146C4
:103C1000A06004485FF0E0FEBDE81040FFF7B6BFCB
:103C2000D804002070120020044A054B9B1AB1EB07
:103C3000D30F34BF52F8310000207047C8B20700DC
:103C400060B507000021084B084A09489B1ADB08A9
:103C5000994200D170470268013122F0070242F018
:103C6000030240F8042BF3E760B50700C8B2070071
:103C7000B8120020F8B5064600240A4F0A4BDB1B99
:103C8000DD08AC4203D14FF0FF342046F8BD57F8B1
:103C9000340020B13146FDF781F90028F5D0013418
:103CA000EFE700BFC8B2070060B5070000282DE9A4
:103CB000F047884615461F461DDA4FF0000A544665
:103CC000DFF89090244EA6EB09063609B24509F1BB
:103CD000100902D12046BDE8F08759F80C0C3B468C
:103CE0002A4641460079FFF7E1FF844238BF044687
:103CF0000AF1010AEAE7194B194AD21AB5EBD20FB9
:103D000026D203EBC5031C79BC4228BF3C460722E0
:103D1000144EC0B200EB400056F82530824023EA32
:103D2000020304F00702824013430021032223FA16
:103D300002F000F00700814202F1030238BF0146A1
:103D40001E2AF4D123F007030B4346F82530C1E7C0
:103D50000024DCE760B5070070B50700C8B20700B3
:103D600060B50700B8120020F8B506460F460024DB
:103D7000074D084BED1AED08AC4200D3F8BD002109
:103D800022B23B463046013461F043F8A4B2F3E777
:103D900060B50700C8B2070070B14168097973B116
:103DA000002A17DBCBB20C4903EB430351F8220086
:103DB000D84000F0070070474FF0FF31EFE70749A8
:103DC0000748401AB2EBD00F3ABF01EBC2010879A5
:103DD0001846704704207047B8120020C8B2070088
:103DE00060B507002DE9F04F8FB0C1F34A2604AF4C
:103DF0000D469046B8607B600C0D002E65D04FF0EC
:103E000000090A234FF0040B07F1140AFE60C7E90A
:103E10000799C7F824900093CDF808B0CDF804A016
:103E200007F11C034A464046F968FDF707FFB0F565
:103E3000006F034620D32948036813F0060F17D0FC
:103E40006C468AB0D8F8041004AB254D1A46C3E975
:103E5000055140F2FF71D9614FF400711984214B73
:103E600042F8103F4FF412514B46FFF7BBFFA546F7
:103E70002C37BD46BDE8F08FC0F30A0604F11700E9
:103E8000184420F0070080083B60FFF777FD66F3D9
:103E90005325044680B13B6800F11001C7E9083999
:103EA0000A23F961CDE901AB009340460E4AF96857
:103EB00007F11C03FDF7C2FE66F353252A46204690
:103EC0007B68B96860F0E1FFD2E704F1170020F0E9
:103ED00007008008FFF752FD0446EDE7F8120020C6
:103EE0004F1F0800040000015D4E06002DE9F04F51
:103EF00087B00546DDE9106BDDE9127A8846144685
:103F00009946DFB110213B465A460020CDF800A06B
:103F1000CDF814A05FF085F9B0F5006F01460FD31E
:103F20001D48036813F0060F32D040F2FF730221E0
:103F30001A4A07B0BDE8F04F61F000B8394638467C
:103F400004F0070305F00704E40044EA831444EA9C
:103F5000402444EA065406F11700084420F0070004
:103F600080080391FFF70AFD054640B13FB13B468B
:103F70005A460399CDF800A010305FF052F94B4635
:103F800022464146284607B0BDE8F04F60F07DBFAD
:103F900007B0BDE8F08F00BFF81200208E1F0800A8
:103FA000406820B1034BC01A40F38F0070474FF0B8
:103FB000FF307047B81200200EB403B503AB53F8BE
:103FC000042B01460448019325F0CAF902B05DF8BC
:103FD00004EB03B0704700BF9F4F0600CA0605D42C
:103FE0008B064CBF02490349FFF7E6BF704700BF8D
:103FF0002C240800DE3408002DE9F04F8BB09946E0
:104000009DF85880179B044607930D46DDE918A3D9
:104010001A9F06920593B8F1000F00F0BF80844B01
:1040200007F0020B13F80830089307F48073099324
:1040300060F0EDFE024600287DD020467D49FFF766
:10404000BBFF0646BBF1000F08D017F0440F74D138
:104050002A4620467849FFF7AFFF064407F00103E0
:1040600053B1764B204653F82820754B7549002AEA
:1040700008BF1A46FFF7A0FF07F48073002B07F074
:10408000080318BF4FF00009002B00F082806E4B30
:10409000204653F828206D49FFF78EFF0546069B02
:1040A0002BB11A4620466A49FFF786FF0544B9F14D
:1040B000000F0DD0089B002B6ED06649664BB8F1FF
:1040C000040F18BF19464A462046FFF775FF0544FE
:1040D00062483544079B1BB1224661495FF049FAAB
:1040E000059B002B00F09080DDF814903946B9F163
:1040F000100F204628BF4FF010090026FFF76EFF73
:10410000B54252DC0026334620461AF803205549B2
:10411000FFF752FF0136102E4DD0710703D1204614
:104120005149FFF749FF4E453346EDD320464F49ED
:10413000FFF742FFEEE7064684E74D4B186800287C
:104140008BD04C4B4FF47A7B1B684FF03C0CB5FB8B
:10415000F3F5B5FBF0F14FF4616300FB11550BFB78
:1041600005F5B1FBF3F2B5FBF0FE03FB121100FB0A
:104170001E55B1FBFCF30BFB05F5B5FBF0F50CFB95
:10418000131120460091CDE901E53B49FFF714FFEB
:1041900063E707F0080582E72F4994E7B9F1010FBB
:1041A00045460CBF2D48354894E720462E49FFF779
:1041B00003FF0136A4E7002620463149FFF7FCFE45
:1041C00033461AF803202046A2F120035F2B28BFB4
:1041D0002E222C49FFF7F0FE0136102E0DD072076B
:1041E00003D120462049FFF7E7FEB1453346E8D822
:1041F00020461D49FFF7E0FEEEE7059BCA44B3EBFE
:10420000090305937FF470AFB8F1000F0AD0FB07E4
:1042100004D520460A4A0B49FFF7CEFE3946204610
:10422000FFF7DCFE20460BB0BDE8F04F60F0AABE01
:10423000F3020A00081E0900D41F0800BCC30700CF
:10424000C61F08008F8F0800D0C30700FA1F0800A0
:1042500000200800CB1F0800CF1F08009F4F06005A
:104260006193020004200800903809008E3809008C
:10427000D0440020CC440020DE1F0800CD4F0600B3
:104280000A2008000A1D080042F20F7373B58B4222
:1042900028BF0B4605680446052168460D4A5CF0B8
:1042A0006DFC0646636828460B225B680A4960F08D
:1042B0005BFE63683246694628465B6860F054FEE0
:1042C00063681B2228465B68044960F04DFE02B01B
:1042D00070BD00BFA8BB0900E7020A00CB020A00BC
:1042E00000210123064A904206D8064A01B901235B
:1042F0001360054B18607047012140085B00F2E72E
:1043000040420F00CC440020D0440020014B036009
:1043100000207047E4C3070003289ABF024B53F8FC
:1043200020000248704700BFE4C30700DE690800B0
:10433000024B187880F00100704700BF5E7D0020BE
:104340002DE9F84FC46980468B462046052100AF11
:1043500060F0E5FE92469946064620B900252846BB
:10436000BD46BDE8F88FEFF31182202383F3128856
:10437000BFF36F8FE368012B8ABF03F1FF33002681
:10438000E36082F31188BFF36F8F002EE6D1FFF751
:10439000CFFF88BB72F0E5F8421E66F1000304F11E
:1043A000180060F0C2FE051E59DB5E46E3682BBBB9
:1043B0002C48026812F0060F13D06D4688B0D8F86A
:1043C00000106A46284ECDE905614FF40071ADF842
:1043D0001C10264942F8101F4FF4E451FFF702FD6C
:1043E000AD466FF07705FFF7A3FF0028B7D104F1C2
:1043F000180060F09CFEB2E73546D7E7013BE3606A
:10440000002BF0D146B102235246237104F1400043
:104410004B4654F023FFE6E73146A36860699847AE
:10442000051E03DAE3680133E360DCE7012323714F
:104430000221D8F81C0060F072FE0028D3D0D8F812
:104440001C30186960F075FED8F81C30D3E8EF1FF7
:1044500021F00401C3E8E21F002AC4D0F6E76FF0A0
:104460000F057CE7A813002040200800030000018E
:10447000F8B5C5690646002D5ED00521284660F0D6
:104480004EFE00285BD1304660F0EDFD044600286A
:1044900057D10821F06960F042FEE0B1F569EFF311
:1044A0001187202383F31288BFF36F8F297931B9E5
:1044B0003046AB689847041E07DB01232B712B683D
:1044C00043F020032B600023EB6087F31188BFF3D8
:1044D0006F8F2046F8BDFFF72BFF38B94FF0FF3242
:1044E0004FF0FF3305F1180060F01FFE6B692BB928
:1044F00015496E6105F1400071F0D5FF2979C9B900
:10450000AB6868699847041E0BDB01232B710023FD
:10451000EB60D5E8EF3F43F02003C5E8E23F002A17
:10452000F7D1FFF705FF0028D3D105F1180060F09F
:10453000FEFDCEE70024EAE76FF08504C9E700241A
:10454000C7E76FF00F04C4E74953060070B5104B7E
:104550000D461C68B4B10F4B196800238B4202DB77
:104560006FF0010070BD224612F8106B864202D037
:1045700014460133F2E7E06871F046FC28B10020F0
:104580002C60EFE76FF00C00ECE76FF01200E9E74A
:10459000DC040020F4C3070010B5436888B0029320
:1045A00083680C46CDE9033200230A68C068CDE970
:1045B0000623054901AA05936FF0AFFE079808B9D5
:1045C000059B236008B010BD295406002DE9F04179
:1045D0000C4B05461C680E4617467CB100F0F2F8FD
:1045E00063682046D3F8108032463B462946C047D0
:1045F000044600F0F1F82046BDE8F0816FF00104B8
:10460000F9E700BFD444002000230360044B5A683C
:1046100012B9C3E90000704710605860704700BFCE
:10462000D8440020014B1860704700BFD4440020DC
:104630001FB5CDE90101039200F0C4F8074B1C68D7
:1046400024B900F0C9F8204604B010BD63682046C4
:104650001B6801A998472468F2E700BFD8440020EE
:104660000022024BC3E90022704700BFD84400205B
:104670000022024BC3E90022FFF7F2BFE044002012
:104680002DE9F74307460C4609B100230B600026CD
:104690001E4DDFF87C904D450FD31E4B1D6885B332
:1046A00055F8188C3846414601AA183D60F0F6FED0
:1046B00010B3D6B914BB2E461EE0D5F8008038469C
:1046C000414601AA60F0EAFE50B116B954B92E462F
:1046D00006E000224046316860F0E0FE0028F5D197
:1046E0001835D8E7019B2360F1E700224046316886
:1046F00060F0D4FE0028DDD1AD69D0E7019B2360D6
:10470000D9E7304603B0BDE8F08300BF70B50700BD
:1047100070B50700E04400202DE9F04784B002AFF7
:10472000D7F8289004460D46164698467860B9F1A9
:10473000000F07D0D9F8001051BBD9F804A0BAF186
:10474000000F2CD12046391DFFF79AFF28B34346AE
:10475000D0F80C90324629467868C8470346E0B145
:1047600015480268520718D06D468AB002AAD36174
:104770004FF4007311491384114BC2E9051442F838
:10478000103F00234FF41151FFF72CFBAD4604E01E
:104790003A1D60F083FE0028CFD1002007E0D9F851
:1047A000083032460093294643467868D047083798
:1047B000BD46BDE8F08700BFC813002057200800A1
:1047C000040000014FF0FF324FF0FF33014854F076
:1047D000DBB900BF98160020014854F047BA00BF6B
:1047E0009816002038B5094DFFF7ECFF2B785BB920
:1047F000FFF73EFF00F06AF8044608B901232B706A
:10480000FFF7EAFF204638BD0024F9E72F6D0020AE
:104810002DE9F04306460F46048F99B00134A4B247
:1048200000F10808651EADB2B5F5004F4AD04A2325
:10483000294605AA404660F0B5FA04F57F543F3496
:10484000A4B281462146012340460DF10B0260F0DF
:10485000A9FAB9F1000F014610DC002810DC338FF3
:10486000AB4209D132466B1E22F8383F4FF400416B
:1048700002234046FEF7F0FD2C46D3E7002808DC73
:104880002946404660F08AFA2146404660F086FAA2
:10489000E5E7B9F1490FEFD809F160030DEB030922
:1048A0000023094A09F84C3C05A8009703ABCDF852
:1048B0000C80ADF81040FFF72FFF0028DCD019B0B6
:1048C000BDE8F0830020FAE7E95406007FB5012334
:1048D000694603200193FFF739FE044660BB0320BD
:1048E00002AA01A960F0C2FD044610B110F10C0F3C
:1048F00022D10399B1F5803F23D200231846009AB4
:104900009468084484421AD30133082BF9D10E4D20
:1049100069612B8353682846AB60D368EB6360F012
:104920007BFE044640B9094E28466E60FFF76CFED8
:1049300028466E60FFF776FE204604B070BD9BB23D
:10494000E5E76FF02004F7E7E844002038C40700EB
:1049500010B504466FF058FF08210346024A20466E
:1049600061F0B8F8002010BD9C20080037B5134650
:104970000022044601920A21586801AA01F05AFF58
:10498000019D95B947F6122C20EAE074294640F2C1
:10499000E7304FF47A720023E4FB0C01FCF7C6FA0F
:1049A00071F03BFF284603B030BD2B460121204665
:1049B000024A61F08FF8019DF4E700BFC8200800AB
:1049C00008B50821024B034A61F084F8002008BDB5
:1049D000B5210800BC210800F7B51746002305469D
:1049E0000A2101AAB868019301F024FF0321194AA2
:1049F000C6B2284661F06EF8019C4CB123460121F5
:104A00002846154A61F066F8019C204603B0F0BDC7
:104A1000042E0AD9334601212846104A61F05AF87B
:104A2000284661F08DF80124EFE77868FFF722F956
:104A3000021E08DA012128467B68094A61F04AF81B
:104A40006FF01504E1E733462146204612B260F0CC
:104A5000E0F9DAE7DF210800452208006C220800AF
:104A600083220800002307B50090694604488DF8AA
:104A7000043055F047FA9DF8040003B05DF804FBDC
:104A80006B56060038B50446EFF31185202383F3F7
:104A90001288BFF36F8F47F02DF8034685F3118816
:104AA000BFF36F8F08212046064A61F013F82046B5
:104AB000054A082161F00EF82146044855F03CFAF9
:104AC000002038BD0723080026230800D14A000033
:104AD000F0B599B004460D46D0F8B46071F047FDCA
:104AE000024624F0FDF9364B1958364B2846002A69
:104AF00018BF1346344ACDE90043344B8C4218BFEB
:104B000013460821324A60F0E5FFD4E90823CDE9D5
:104B1000022394F90E3008210093A38928462D4AD8
:104B200060F0D8FF202210A9204654F07DFCE26FEF
:104B30000346082128460092274A60F0CBFF04A9CB
:104B4000204671F02FFD07460AA871F035FD074396
:104B50001FD1DDE90A236421049FDDF814E0A7FBDF
:104B6000010C01FB0EC1FCF7E1F93B460090082166
:104B700028461A4A60F0AEFF20460AA971F008FDE7
:104B8000034660B108212846154A60F0A3FF19B01A
:104B9000F0BD08212846134A60F09CFFECE764232F
:104BA0000A9A2846B11A4B43B3FBF6F3CDE900212C
:104BB000CDE90263082133460B4A60F08BFFE6E73C
:104BC000080000003023080090380900F3FF0800B7
:104BD000332308003F2308006B23080082230800CA
:104BE000CA230800A7230800F723080030B50446AD
:104BF00093B00AAD20220021284674F06EFE1A22DE
:104C00002021284674F069FE2146114855F094F998
:104C100009AA4FF400610F4871F0ABFC6423099AB4
:104C20000195C2F500614B43DB0A002506934FF462
:104C300000632046CDE90413CDE902320821054B7B
:104C4000054A009560F046FF284613B030BD00BF0E
:104C50005D4C0000A0F8032043240800F0B5044692
:104C60000D46D0F8B46089B007A971F091FC0346F5
:104C700030B1082128460F4A60F02CFF09B0F0BD82
:104C8000204671F074FC6423079A0B4FB11A4B4312
:104C9000002818BF0746B3FBF6F3CDE90221CDE9A2
:104CA0000463082123462846CDE90076034A60F0D4
:104CB00011FFE3E7CA230800302308008C24080012
:104CC00038B5134605461022002158685CF014F8E8
:104CD0000446FFF7C7FE40B92346012128460E4A85
:104CE00060F0F8FE6FF0150038BD24F0F9F80B4BBA
:104CF0001B589C4205D101212846094A60F0EAFE72
:104D0000F0E7204654F07EFC284623460821054A59
:104D100060F0E0FE0020E7E7F02408000800000053
:104D20000B2508003325080038B513460546102228
:104D3000002158685BF0E0FF0446FFF793FE40B99E
:104D40002346012128460E4A60F0C4FE6FF015008C
:104D500038BD24F0C5F80B4B1B589C4205D10121EE
:104D60002846094A60F0B6FEF0E7204654F06AFC97
:104D7000284623460821054A60F0ACFE0020E7E7FC
:104D8000F02408000800000072250800982508009B
:104D900038B5134605461022002158685BF0ACFF79
:104DA0000446FFF75FFE40B92346012128460E4A1C
:104DB00060F090FE6FF0150038BD24F091F80B4BB9
:104DC0001B589C4205D101212846094A60F082FE09
:104DD000F0E7204623F0D2FF284623460821054A63
:104DE00060F078FE0020E7E7F024080008000000EB
:104DF000D3250800F825080010B50C46002161F005
:104E00000AF900B100680023024A2060C4E90123C6
:104E1000E36010BD8027080010B50C46002161F04A
:104E2000FEF800B100680023024A2060C4E90123B3
:104E3000E36010BD8027080073B50546164650682C
:104E400053F062FB044648B9284601217368174AAB
:104E500060F040FE6FF0120002B070BD60F0D3FA57
:104E600040B9284601217368114A60F033FE6FF0A3
:104E70008500F1E720460DF1070160F0EBF89DF8A1
:104E8000072073684AB9284608210A4A60F022FEC2
:104E9000204660F04EF90020DEE728460821064A49
:104EA00060F018FE204660F063F9F4E73026080051
:104EB00045260800792608009426080073B50546A3
:104EC0005068144661F0AFF8064650B96368012196
:104ED0002846114A60F0FEFD6FF01204204602B031
:104EE00070BD70F091FF38B163680C4A022128460A
:104EF00060F0F0FD0024F1E7304670F07CFF63685D
:104F0000044630B1009001212846054A60F0E2FDD8
:104F1000E4E7044AEAE700BF30260800AF260800AD
:104F2000D1260800FE2608002DE9F04F91B0054675
:104F300003A88846914653F0DBFA2423039F0821F7
:104F400003FB00773A4A284660F0C4FD039CBC424C
:104F500003D3002011B0BDE8F08F26680EB133787E
:104F600033B923463021334A04A85BF007FE04AE70
:104F7000B8F1020F07D13046D9F8041074F0DAFE08
:104F800008B92434E3E73346082128462A4A60F06A
:104F9000A1FD204670F038FF002835D000232046C0
:104FA0000DF10B018DF80B3060F054F850BB9DF8FB
:104FB0000B00FFF7B1F90646204660F02AFA0028F8
:104FC00024DB00903346082128461C4A60F082FD0D
:104FD000236A002BD5D01E68002ED2D03368002B58
:104FE000CFD008212846164A60F074FDB3464FF032
:104FF000000A3368534510D808212846114A60F04A
:1050000069FDBEE7104ED7E7104ED5E733460821BD
:1050100028460F4A60F05EFDDAE7082128465BF873
:10502000043F0C4A60F056FD0AF1010AE1E700BFB7
:105030002827080032270800F2C708003727080091
:10504000482708002C240800222708003DD9080022
:10505000462F090059C00900F7B5137806463A2BC8
:105060000F46154614D1541C23783A2B29D101340C
:105070000A22204601A95BF0CBFD019A0346A24219
:10508000386018D01078B0B93C2B16D9164A0EE00B
:105090000A22284601A95BF0BBFD019CB860AC4226
:1050A00009D023783A2B06D1172808D90F4A0121B5
:1050B000304660F00FFD6FF0150003B0F0BD013415
:1050C000D2E70A22204601A95BF0A2FD019B78608D
:1050D000A342F0D01A783A2AEDD13B2801D9044AEC
:1050E000E5E75C1CC4E700BF13280800F5270800AB
:1050F000032808002DE9F0410D4696B008A90446A2
:1051000001201746FCF742FF0DA908A85BF052FCEE
:10511000032D57D17D680A22284607A95BF078FD48
:10512000079E8046B54216D032782D2A13D101361B
:105130000A22304607A95BF06BFD079B9E420AD00E
:105140001A782D2A07D1451E0B2D0DD9314A012180
:10515000204660F0BFFC204660F0F2FC6FF01505C1
:10516000284616B0BDE8F0815E1C0A22304607A929
:105170005BF04EFD079B9E42EDD01B78002BEAD1E1
:10518000431E1E2B01D9244AE1E7A8F26C73CDE936
:105190001153BA68109020460DA9FFF75DFF002853
:1051A000D9D10DA8FCF7F4FFB1F1FF3F08BFB0F172
:1051B000FF3FCDE9080109D101212046174A60F0DF
:1051C00089FCCBE7022DC6D17A68E4E700230A9375
:1051D000012008A9FCF710FF054630B10346012164
:1051E00020460F4A60F076FCB8E70D9B0821049337
:1051F0000E9B204603930F9B0A4A0293109B019338
:10520000119B01330093129B03F26C7360F062FCFC
:10521000A6E700BF23280800322808003F2808001E
:10522000682808007F28080010B5044694B006A935
:105230000120FCF7ABFE0BA906A85BF0BBFB0B9BA8
:10524000204604930C9B082103930D9B074A02936D
:105250000E9B01930F9B01330093109B03F26C7321
:1052600060F038FC002014B010BD00BF7F2808009B
:105270002DE9F34114468846074610220021606854
:105280005BF03AFDB8F1020F064620D90A22002150
:10529000A0685BF031FDC5B22B4608213846224A92
:1052A00060F018FCB8F1030F22D8102D11D0202D7A
:1052B00012D0082D12D13378DBB200220821CDE9BB
:1052C00000323846194A60F005FC00200DE0202528
:1052D000E2E733889BB2F0E73368EEE7384608210F
:1052E000134A60F0F7FB6FF0150002B0BDE8F081E3
:1052F0001022E06800215BF065FD0E4ACDE9000157
:1053000004460821384660F0E5FB102D06D0202D1C
:1053100007D0082DE2D1E4B23470D6E7A4B23480CD
:10532000D3E73460D1E700BFCA280800F528080099
:10533000DF2808000829080000232DE9F0479146DE
:105340004FF0FF35012286B00193514B0746884646
:105350001A602026FCF772FF2C46494640464D4A0B
:10536000FCF794FF431C07D1691C43D14A4A012131
:10537000384660F0AFFB18E073281BD0772829D09F
:10538000612812D1DFF814A11021DAF8000001AA77
:1053900001F050FA019B0546002BDED0DAF8003010
:1053A0003F4A0121384660F095FB6FF0150006B0CA
:1053B000BDE8F087DFF8E4A00021DAF8000001AAD8
:1053C00001F038FA019B0446002BC6D0DAF8003011
:1053D000344AE6E7DFF8C4A00021DAF8000001AAA9
:1053E00001F028FA019B0646002BB6D0DAF800300F
:1053F0002D4AD6E7621C01D12C4AB8E75FFA86F83D
:10540000A8F10803DBB2182BC6F3C40604D8284A57
:1054100022FA03F3DB0721D443460821254AC1E7DA
:10542000B8F1100F21D0B8F1200F24D0B8F1080F37
:1054300001D10A781A70314433444218102AEFD946
:10544000102CA14628BF4FF0100929464B4638467C
:1054500002AA01F017FA1035A4EB0904B4B1A64270
:10546000EED8294602AB701BE7E70A8892B21A70A1
:10547000120A5A70DFE70A68C2F3072C1A70120C7E
:105480009A70120A83F801C0DA70D4E720468EE7DA
:1054900074040020582908005F290800AC4400204B
:1054A0001E29080031290800442908007C29080029
:1054B000010100019629080070B50F4E04460D4603
:1054C000337831B12BB10121BDE870400B4A60F057
:1054D00001BB83F00103337033B108212046084A31
:1054E00060F0F8FA0123337029462046BDE8704089
:1054F000002260F03FBB00BF306D0020B0290800E3
:10550000EB2908002DE9F04105460C46DFF8EC8058
:105510003B4E8F18BC4201D1BDE8F08198F80020C5
:1055200014F8013B182A23D1112B21D10026354C28
:10553000082123682846344A88F8006060F0CAFAD7
:1055400028463146FFF7B8FF304B18780028E3D1E2
:105550002F4A23681168042B2EDC08B123601160E8
:1055600013F003012FD1126813681BBA1360D3E73D
:10557000A3F13002092A88F8003004D923F0200270
:10558000413A052A04D83168224A53540131316026
:105590003368022BBED1102200211E485BF0ACFB09
:1055A0001D4A136803F8010B1360164A1368013390
:1055B000136000233360ADE70868043B00BA41F88C
:1055C000040B0120C7E75B4203F0030358BF5942B5
:1055D000022904D1126813685BBA9BB2C6E703299B
:1055E0009AD1106802681104C2F3074301F47F01E5
:1055F0000B4302F47F42134303608DE7316D0020BB
:10560000284500202C450020152A0800326D002076
:1056100030450020336D0020344500202DE9F8434B
:105620000023804617460D462649274E0B60274922
:1056300033700B60012DB94657F8044F1DD9022273
:105640002046234974F02FFB70B9A378003B18BFA4
:1056500001231C44022220461E4974F024FB28B971
:1056600001233370013DE5E70023F2E720461849A6
:10567000FBF794FCC0B909F104090022D9F8040031
:1056800011465BF039FB0022134B11461860D9F824
:1056900004005BF031FB114B114918604046FFF7E5
:1056A0000BFF0020BDE8F88323782D2BE5D163782C
:1056B000002BE2D02346082140460A4A60F00AFA4D
:1056C000D0E700BF28450020326D00202C45002087
:1056D0002F1D08002F2A08003445002030450020E7
:1056E00005550000322A080007B5094870F08CFB08
:1056F00058B104233A22009305490123054800F0DC
:105700008DFF002003B05DF804FB6FF01200F9E795
:10571000ECA6070070B5070010B50446084661689E
:10572000C1E900028B605FF023FD002821DB626885
:105730004021134653F8404B51635362002302F15A
:105740003801C2E904130821C2E90A33C2E9063369
:1057500013631162C2F8B830A36823B11B6C13B194
:10576000204604499847A3681B6A0BB12046984716
:10577000002010BD795700002DE9F74F83680546DA
:10578000DB6B0C4603B19847AB68DB6A002B35D165
:105790004FF00008DFF810A104F12409218E238DB9
:1057A000626B5B1A9BB2D31A934204F1280B28BF99
:1057B00013465946484601AA5EF077FD0746002881
:1057C00041D0AB6801991B69002B37D002462846AF
:1057D00098470646002818BF48F001083246594647
:1057E00048465EF098FD0EB1BE42D7D0B8F1000F2A
:1057F00008D0D4E901310020984703E028469847B3
:105800000028C5D1AB68DB6993BB628BE38A04F1E6
:1058100010079B1A226A9BB2934204F11A0828BF10
:1058200013464146384601AA5EF03FFD064630BBAE
:1058300028465FF030FFC4F8B8602CE06FF05706E0
:105840004FF00108CAE7DAF8003013F0060F04D071
:1058500002215046154A5FF068FBAB681B69002BBC
:10586000C4D0012228460DF1030198470646BAE745
:10587000284698470028C8D103B0BDE8F08FAB6830
:105880000199DB6863B102462846984702464146C3
:1058900038465EF040FDD4E9013101209847EBE73E
:1058A0006FF05702F3E700BFD01300208F2B0800E2
:1058B0000048704770B5070010B5044681681C3178
:1058C00001F07EFBA1682046BDE81040014A1C3172
:1058D00001F016BBD12B08002DE9F3410646144612
:1058E0000F46D0F8088021B9A8F8441002B0BDE8EE
:1058F000F08118485FF05AFFB8F83E500444A4B253
:105900002D1A95FBF4F538465FF050FFB8F8443097
:10591000ADB25A1CA8F84420B3FBF5F205FB1233D4
:10592000241A9BB2A4B26BB906213046094B0A4A2D
:10593000009760F07DFD2146304602B0BDE8F041A1
:1059400001F024B83B4606213046044A60F070FD61
:10595000F1E700BF8F380900DF2B08008F8F0800A8
:105960008368D3F8A0329B0603D5024940695FF0F3
:10597000FABE7047C8BF070010B504465FF030FF9D
:10598000A36801469B6C0BB120469847002223F088
:10599000A7FAA368C3F8D022014B185823F0EEF9F8
:1059A0000800000001495FF0DEBE00BF2C240800A3
:1059B0002DE9F04FB1B004461422002107A873F07E
:1059C0008CFF7C22002111A873F087FF0023CDE912
:1059D0000533A36820468033029360F058FC2046CC
:1059E00060F09BFB10B96069FFF7DCFF00264FF009
:1059F000FF38B246B3463546B146A06814220021AE
:105A00001C3073F06AFF204660F0CAFAA168E068B3
:105A1000B1F87820803160F098FF204660F0F9FFFF
:105A200011AF0396DDE90532012A67D01D2B68D836
:105A3000B8F1000F2AD1BBF1000F09D0204661F068
:105A400009F8A2681E23803211A905A860F045F963
:105A5000B9F1000F0CD099F81130FE2B08D1059B3D
:105A600030AA02EB830252F87C2C0AB10133059371
:105A7000A568AB6A002B40F0B280CEB12B6AB3426E
:105A800025D12046FFF718FF012513E002233946F0
:105A9000029A06A860F021F97A68069903460292F4
:105AA00031B101290AD148B1694A204660F0C0FCF1
:105AB0006FF00705284631B0BDE8F08F059B002B3D
:105AC0002ED0386860F090FE78B146B1A5680D968A
:105AD0001C350CAE0FCE0FC533682B60D1E75D4A85
:105AE0000121204660F0A4FCE2E7059BC3B12946F2
:105AF00020463A6801F042FB022809D1059B1D2B84
:105B000099D9069B022B96D10121534B534ACCE7DE
:105B1000032805D0059B4FF0010B0133059381E766
:105B2000039B2BB94846396807AA60F0ADF90546D2
:105B3000043708F1FF38A5B3EB68BBF1000F08D0BC
:105B4000FBB1204660F0A3FB204660F0FDFA444A1A
:105B5000C6E7B3B1AE46A368DDF814A003F11C0C90
:105B6000BEE80F00ACE80F00DEF80030CCF80030E3
:105B7000AB6833B96B7CFE2B04BF95F8108008F13D
:105B8000FF38D5F804C0BCF1000F08D0AE460CAE0B
:105B9000BEE80F000FC6DEF8003033606646A94647
:105BA00003E0059B63B101230393B8F1000F03D118
:105BB000069B022B7FF436AF059B0133059331E73B
:105BC000A3681B6B13B1DB68002BECD1254B0121C3
:105BD00000932046119B244A60F02AFCE3E7059ECF
:105BE00095F82C30A6EB0A06BBB14FF6FF7295F87C
:105BF0002D10FF2918BF0A469E4202D313449E422D
:105C00000BD9EB6901212046184A60F011FC2046AF
:105C1000FFF752FE6FF015054CE7FCF70FFB012173
:105C2000A0685FF003FEA0685FF0F4FDA36811AA0E
:105C300031469B6A02EB8A02204698470546A068D7
:105C40005FF0ECFD0021A0685FF0F0FD32E700BFDF
:105C5000E52B0800F92B08005A2C08007F78090072
:105C6000172C0800462C0800971E09007E2C0800FF
:105C700070B5044683689E7D012E3BD1A368D3F89E
:105C8000A0329A0603D51F4960695FF06CFD20467B
:105C9000FFF766FEE06960F0F6FC012E05462DD1A7
:105CA000A368D3F8A0329B0603D5174960695FF05B
:105CB0005AFDA3689B6923B108212046134A60F06E
:105CC000B7FB204600F078FE204660F04CFAA3684F
:105CD000B3F8783023B140F2D510002170F09DFD6B
:105CE0003DB1A068012100F52A705FF06FFD00282A
:105CF000C2D070BD204660F0F5FACBE7204600F038
:105D0000DFFFE4E7CDBF0700D1BF07008F8F08009A
:105D1000022210B5836804461A758368DB6CBBB930
:105D20005FF016FD8368D3F8A432DB040BD50321A2
:105D3000084B094A60F07CFBA0686FF4805100F5C5
:105D400029705FF028FD2046BDE8104000F0B8BF84
:105D500010BD00BF992C08008F8F080000232DE98B
:105D6000F04F0446B7B00593A3686068DE6C026824
:105D700015692EB31F6D102205AB17A9A84700287F
:105D80001BDB059BCBB10121A0685FF04FFDA06834
:105D90005FF040FD3B46059A17A92046B047A06832
:105DA0005FF03CFD0021A0685FF040FDA368DB6C64
:105DB000002BD9D12046FFF7ABFF37B0BDE8F08FFD
:105DC000012205AB0DF11301A8470028F5DB059B67
:105DD000002BF2D09DF913109DF813300029A26812
:105DE000C2DB517D032900F2B683DFE811F0040025
:105DF00036034D03B4030D2BD2F8A41241D00A2B65
:105E00003FD021F0FF01092BC2F8A4126BD028D893
:105E1000002B00F02B81082B00F09982A268D2F8A9
:105E2000A0128F0740F12281013B162B00F21E8148
:105E3000DFE813F07A03AC02B002A8027403C902CF
:105E40001C011C011C011C01CD02D1021C01E60237
:105E50001C01EB021C011C011C01ED02FD021C01D6
:105E60000B031B2B3BD07F2B00F07E82A3F1200283
:105E70005E2AD3D80121A0685FF0E3FC9DF81310DF
:105E800015E1C9B221B1D2F8A412C9B28B42C5D171
:105E9000D2F8A41263F30701C2F8A412A568AB7D7F
:105EA000012B06D16069FFF77DFD0222A3689A7578
:105EB00083E7B5F8781061B928465FF0C2FCE06866
:105EC00060F015FD6069FFF76DFD2046FFF720FFCC
:105ED0004AE72046FFF76CFDC5F8D402F5E701223A
:105EE000A3685A75C2E0A068D0F8A0329E07C3F339
:105EF000400940F1BB8001215FF0A3FCA068857DD3
:105F0000002D40F0B380B0F87830FF2B00F0AE8069
:105F1000B0F87A2000F1800100F5C07073F0B7FC92
:105F2000A368B3F87A20134483F88051A068B0F8CE
:105F30007A5055B1054495F87F50202D00F08880A7
:105F4000093D042D8CBF0025012500F5C0700246D7
:105F5000137811460132DBB1202BF9D0093B042B19
